:020000040800F2
:1000000078220020518D0008C5450008C74500082A
:10001000C9450008CB450008CD4500080000000098
:10002000000000000000000000000000CF450008B4
:10003000D145000800000000D3450008D545000860
:100040006B8D00086B8D00086B8D00086B8D0008B0
:100050006B8D00086B8D0008F14500086B8D000862
:100060006B8D0008014600086B8D00086B8D000841
:100070006B8D00086B8D00086B8D00086B8D000880
:100080006B8D00086B8D00086B8D00086B8D000870
:10009000095C00086B8D00086B8D00081146000894
:1000A0006B8D00086B8D00086B8D00086B8D000850
:1000B0006B8D00086B8D00086B8D00086B8D000840
:1000C0006B8D00086B8D00086B8D00086B8D000830
:1000D0006B8D0008F57300086B8D00086B8D0008B0
:1000E000DF4500086B8D00080D5C000800F002F889
:1000F00000F065F80AA090E8000C82448344AAF15D
:100100000107DA4501D100F05AF8AFF2090EBAE85A
:100110000F0013F0010F18BFFB1A43F0010318473B
:10012000A0AA0000C0AA00000A444FF0000C10F87A
:10013000013B13F0070408BF10F8014B1D1108BF65
:1001400010F8015B641E05D010F8016B641E01F805
:10015000016BF9D113F0080F1EBF10F8014BAD1C55
:100160000C1B09D16D1E58BF01F801CBFAD505E073
:1001700014F8016B01F8016B6D1EF9D59142D6D3CD
:10018000704700000023002400250026103A28BFF5
:1001900078C1FBD8520728BF30C148BF0B607047F9
:1001A000642908F01787782908F05087632909F037
:1001B0003881002070471FB51FBD10B510BD09F074
:1001C0003CF91146FFF7F7FF03F000FF09F05AF979
:1001D00003B4FFF7F2FF03BC07F07AF8412100F8FF
:1001E000601F88214170B0F86C10C170090A01715C
:1001F00000218170704770B504460D460026B4F8A2
:10020000C800002102F02EFC012D02D1A06D03F0E8
:1002100049FA94F8E0002843C0B203F048FA30B13C
:100220000126D4F87001401CC4F8700106E004F007
:1002300097FAC4F8F405012084F8F305304670BD40
:100240002DE9F04705468A4691461E464FF00008C4
:1002500000200024F74F14E055F82410B94202D0D2
:10026000204600F047FF012810D030780121A1403E
:1002700088433070204600F0A2FF45F8247000202B
:10028000641C5445E8DB4046BDE8F087C846F4E707
:100290002DE9F04FA5B004460F46617804F1BF0088
:1002A000249033302390463022900225002604F219
:1002B000F95004F1600A4FF0FF0B4FF0010804F110
:1002C00080092190092933D2DFE801F005ACCFFC89
:1002D00032FBFAF991002078002879D0012802D069
:1002E000022825D14AE0D448007810B3E08CA4F865
:1002F000BF00249802F052FCB4F8CC0002F044FC99
:10030000E08C00F0030184F8BE1002F042FC0020F3
:1003100002F01FFC002002F06EFF0620607000203B
:1003200003F03EFA002003F06AFA2046FFF756FF7A
:1003300001E2182002F00DFCB4F8CC0002F024FC1D
:10034000E08CA4F8BF00249802F028FCE08CC4F8EC
:10035000840102F01EFCA57084F8018084F8E2801C
:1003600084F8F460C4F8106102F0C8F92046FFF781
:1003700035FF04F0F5F9C4F8E800DCE1E08CA4F8FE
:10038000BF00249802F00AFCB4F8CC0002F0FCFB99
:10039000E08C00F0030184F8BE1002F0FAFBE08C60
:1003A000B0F5004F01D184F88C81002002F0D1FB20
:1003B000002002F020FF06206070002003F0F0F91A
:1003C000002003F01CFA2046FFF708FFB3E1FFE727
:1003D000002002F0BEFB002002F00DFF002003F021
:1003E000DFF9002003F00BFA06206070A3E10A2079
:1003F00001F033FE0078042802D0C4F804809AE1AA
:10040000666084F8E260A0786070A67004F0A8F9D5
:10041000C4F8E800032006F04AFF01F008FF01F0ED
:10042000F0FE88E1A07802281CD194F8E210C9B14E
:10043000D534E07F401CE07744F8D15C082004F814
:10044000D40CDDE9220301220421FFF7F9FEC4F8F0
:10045000A700607FA077667704F082F9C4F8B30044
:10046000D53C68E16070A67065E120780F2703280D
:1004700068D0012807D094F8FD0084F86A0005D1FF
:100480004FF0810004E094F8F400F6E74FF07100BB
:1004900004F14D0420774FF0AA00A077E077A4F88C
:1004A0007B7094F87D00607500F1010084F87D0098
:1004B00094F87200A07694F87300E07603E097E178
:1004C00089E105E1ABE084F818B084F819B04FF089
:1004D00000025146384602F0B5FAC82002F08BFE01
:1004E00014F84D0D4FF6FF7101281ED094F8FD2031
:1004F0002198165484F8E150206D01EA400003F081
:100500004FF984F8F26084F8F16084F8E050B4F8B0
:10051000C800002102F0A6FA022003F0C8F8052066
:100520006070E570C4F8048005E194F8F420219827
:100530001654042084F8E100206D01EA800003F0E5
:100540002FF9DEE7E18C48F20100814237D14D34CA
:1005500094F8B00060777120207737484288A277FE
:10056000100AE07735A115A808F0CEFC014615A8C1
:1005700005F0F7F93846A4F87B7094F87210A1766C
:1005800094F87310E17684F818B084F819B000225A
:10059000514602F057FA002002F02DFEB4F87B001D
:1005A000002102F05FFA002003F081F8052004F832
:1005B0004C0C04F84A5C44F8498C4D3CBBE04D348B
:1005C00094F8B0006077712020771B488088A0776E
:1005D000000AE0773846A4F87B7094F87210A17690
:1005E00094F87310E17684F818B084F819B00022FA
:1005F000514602F027FA002002F0FDFDB4F87B001E
:10060000002102F02FFA002003F051F8052004F831
:100610004C0C04F84A5C44F8498C4D3C8BE0207843
:10062000012817D094F8FD0084F86A0015D194F8D9
:10063000F20014E0FFFFCDAB0000002054696D65AF
:10064000536C6F745F4E756D6265725F533D20250C
:10065000640D0A0094F8F400E6E794F8F10084F8D9
:10066000890002D14FF0820001E04FF0730004F1E5
:10067000C20404F8590C4FF02C03E380207A04F8EC
:10068000600C00F1010020724FF000025146184644
:1006900002F0D8F9A677C23C01212046FFF7ABFD56
:1006A00050B12078012803D0204601F05AFCCFE356
:1006B00084F80180A570CBE3052060700320E07012
:1006C0002078012801D184F8E280C4F80480BFE3D7
:1006D0000B2001F0C2FC0146087801280AD018B1AD
:1006E000042804D0C4F80480C4F80480B0E384F87B
:1006F000F080F9E76660E278032A0AD094F8F00007
:10070000012811D0D1E90201C4E93401022A13D031
:1007100040E02078012803D0204601F022FC5AE076
:1007200084F80180A57093E3204601F02AFC84F848
:10073000F06084F8E0608BE32378012B2DD0D4E9BE
:100740000E37C01879416FF30800C9B2CDE9120124
:10075000DDE91210030643EA1120A065DDE91273FA
:10076000A18BC91946EB0300CDE91210DDE9120196
:10077000C9B2CDE912011298C4F884009DF84C006A
:1007800084F88800D9F85000C4F86B0099F8540038
:1007900084F86F000B2A0AD00BE0D4E90C37C0189C
:1007A00079416FF30800C9B2CDE91201D0E7042006
:1007B000E070062060700027207803280BD1257098
:1007C00001F070FA002002F0EBFF002003F017F8B0
:1007D0002046FFF703FD94F8E000A8B184F8E0603C
:1007E000207808B1C4F8048007206070002F9AD0E8
:1007F0001FB1022F0CD0042F75D00FB1C4F80480A4
:100800006068002870D023E3002002F0A3FFE7E730
:100810000F2001F022FC81460020139014901190CB
:100820001290834684F8E30099F81D0000F0CC0094
:10083000882834D08C2823D0C82812D0CC283AD18C
:10084000D9F829001390D9F82D001490D9F8210077
:100850001190D9F82500129099F831B009F13107BB
:1008600029E0D9F823001390D9F827001490B9F89B
:100870002100ADF8440099F82BB009F12B071AE0DC
:10088000B9F82900ADF84C00D9F821001190D9F839
:100890002500129099F82BB009F12B070BE0B9F85D
:1008A0002300ADF84C00B9F82100ADF8440099F8E8
:1008B00025B009F1250794F8E20008B92078A0B125
:1008C0009DF84CA00AF003061096BBF1730F7DD083
:1008D00011DCBBF1700F05D0BBF1710F1ED0BBF165
:1008E000720F0ED1BAE09FE2B0E2062060700020E5
:1008F00002F081FCACE2BBF1810F0FD0BBF1820FA3
:10090000E5D006206070002002F075FC99F81C000C
:100910008006EFD5102001F0A0FB99E2D9E9020191
:10092000C4E93601BBF1810F0FD0B878F97800EB3C
:10093000012086B23246FEA115A808F0E5FA01466C
:1009400015A805F00EF83EB115E00AF007012144A4
:10095000787881F8F5001FE0F848808858B1E18C7C
:1009600048F20100814206D0002041F66411401C8B
:1009700000B28842FBDBF148A0F80480F04E002171
:10098000304604F02BFF0121304604F006FD10989C
:100990007978204480F8FE10E18C48F20100814211
:1009A0000DD19DF84D004AEA0020B0F5004F06D168
:1009B000B4F80411D9F818000844C4F80C0199F8E7
:1009C00002000C2836D00E2839D000E0ECE00620DA
:1009D0006070DA48007810B12078012832D0207891
:1009E000012893D101F05EF9182002F0B2F8B4F8B2
:1009F000CC0002F0C9F8E08CA4F8BF00249802F003
:100A0000CDF8E08CC4F8840102F0C3F8A57084F836
:100A1000018084F8E280002084F8F400C4F810011A
:100A200001F06CFE2046FFF7D9FB03F099FEC4F8F5
:100A3000E8006BE7052060700920E070C9E7072037
:100A40006070C6E706206070002002F0A9FE00205A
:100A500002F0D5FE2046FFF7C1FB57E7F879401CAE
:100A6000C0B20F909DF84D004FF400424AEA0020BA
:100A700090420BD12078012808D17878B97800EB22
:100A8000012000B2C4F810010020E06299F80200D1
:100A90000C2805D00E2823D02078012805D008E0A6
:100AA000052060700A20E0701AE094F8F210C9077F
:100AB0000ED1E18C48F20103994203D194F8F13050
:100AC0005B0705D4914206D194F8F110890702D54D
:100AD0000320607004E0012820D0204601F041FA94
:100AE000BBF1700F20D094F88C010028A1D094F8AD
:100AF000FD000F9988429CD184F8FE002199405C4A
:100B0000032831D09DF84400D7F80310504400F07A
:100B1000030004EB8000C0F85811F7E684F8018068
:100B2000A57084F8E280DBE794F8F4200F988549FB
:100B3000824210D104EB8602D7F80300C2F83801D4
:100B400088428AD094F8F20008FA06F840EA0800D1
:100B500084F8F200DAE604EB8600D0F838218A4205
:100B6000DBD0C0F83811D1E69DF84400D7F8031067
:100B7000504400F0030004EB8000C0F8581104F169
:100B8000F1030222042104F5AC70FFF759FBF134A4
:100B9000C4F88B002078A07000202070D9F81800CD
:100BA000C4F89700F13CB1E60021069107910020BE
:100BB0000490059002900390624D002697F8203033
:100BC00094F8BE0000EB8001C91DCAB2BBF1820FD0
:100BD0000BD10AF00701214497F801C091F8F510F4
:100BE000614502D00620607090E6BBF1730F10D112
:100BF000109997F801C0214491F8FE10614515D174
:100C000094F88C1191B9E18CA1F5004CBCF1030C66
:100C10000CD0E18C48F2010C61450CD19DF84DC01F
:100C20004AEA0C2CBCF5004F03D004E006206070AB
:100C30006CE684F8E480C4F88011012181401942F7
:100C400074D0D9E902010023A3656034D7F80230DB
:100C50000493BB798DF814303A44136802931279E7
:100C60008DF80C20D7F81B200692FA7F8DF81C20F7
:100C700002AA059D4CCA921B63EB0503DBB22093CD
:100C80000A9204F17002603C6CCA551B63EB0606C5
:100C9000F6B21F960895801A61EB0301C9B21E9146
:100CA0000E90DDE90203DDE90621101A61EB030174
:100CB000C9B21D910C901F99089808F0F3FE0546E3
:100CC0000E461D990C9808F0EDFE2A46334608F0B2
:100CD00089FF05460E461E990E9808F0E3FE07466A
:100CE000884620990A9808F0DDFE3A46434608F007
:100CF00079FF2A46334609F0B5F8074688461F991A
:100D0000089808F0CFFE05460E461E990E9808F08A
:100D1000C9FE2A46334608F06BFCCDE900011D9957
:100D20000C9808F0BFFE05460E460DE022E00000DC
:100D3000524D53473D2025640D0A0000000000205D
:100D400000040040FFFFCDAB20990A9808F0AAFEEE
:100D50002A46334608F04CFCDDE9002308F048FC45
:100D600002460B463846414608F0FEFC08F054FEA9
:100D7000C6170546BBF1820F18D09DF84D000AEB4F
:100D80000020C4F88401109804EB8000C0F848519A
:100D900094F8F8152198085600283EDB219A404225
:100DA00040B2885494F8F81590B336E09DF84D00A1
:100DB0000AEB0020C4F8840100F0070004EB800077
:100DC000C0F81851DDE9220301220421FFF738FAA7
:100DD000F234C4F88A0020786070002004F8F20928
:100DE0009948684030430ED094F8BE10504600F049
:100DF000D3F994F8BE000121814084F8F21004EB8D
:100E00008000C0F83851D9F81800C4F88801BFE74D
:100E1000FFE7219A4FF0FF30885401F008FA01F003
:100E2000F0F90620607071E5112001F016F9807864
:100E30000C2802D00F2805D00AE0052060700B2096
:100E4000E07005E0204601F09CF801E0C4F8048061
:100E5000606825B0BDE8F08F2DE9F05F834600247F
:100E60007A48032109F034FC0546794909F078F9FC
:100E700009F0E2F808F01CFB08F0CEFD00EB4000A2
:100E8000000109F02FFA0146284609F001F9DFF8C0
:100E9000C48198F80F1079B16F4D012914D06F49B2
:100EA00009F038FA294609F0F3F8074698F80A00DD
:100EB00010F0030F10D031E0694909F02BFA6949AD
:100EC00009F0E6F80746F1E7674909F023FA2946F1
:100ED00009F0DEF80746E9E780100E281ED2DFE8A9
:100EE00000F01D1B0F071D180D1D1D150A1D1D12DD
:100EF0004FF08B4412E04FF08A440FE05B4C0DE062
:100F00004FF089440AE04FF0884407E04FF08744EF
:100F100004E04FF0864401E04FF085444D495448C9
:100F200098F80950C97B405C09F0DCF9012D65D0C7
:100F3000214609F0ADF84F4909F0ECF906460020CA
:100F4000394609F0A5F809F077F8DFF82C9100226E
:100F50004B4608F009FC04460D46304609F06CF893
:100F60008A46064622462B4608F042FB434A444B3B
:100F700008F0FAFB08F050FD00F11004584608F0A4
:100F80007AFD00F0A1F8C8E90C010BEBDB706421DD
:100F900001EB600008F06FFD00F096F8C8E90E0163
:100FA000384609F049F800224B4608F0DDFB32468E
:100FB000534608F01DFB08F02FFD98F80F104FF472
:100FC000967519B304F59671C8F85010C8F85440D6
:100FD00000F5967008F04FFD00F076F8C8E91001B2
:100FE0003046514600F070F8000A40EA01601030C7
:100FF000C8F84800C8F84C50BDE8F09F214609F0F9
:1010000047F8204909F086F9064698E704F52F715C
:10101000C8F85010C8F8544000F5967008F02BFD41
:1010200000F052F8C8E910013046514600F04CF883
:10103000000A40EA01601030C8F84800C8F84C5077
:10104000DAE70449C8847047FFFFCDAB0000984140
:101050000000A543680200200046A846C3350043AF
:1010600085340046004528487B3480440000C04455
:1010700000A80008B341823F00408F400D71AC8B47
:10108000DB68F03FEA5B7E3F10B5A0B004468022EB
:101090000C49684608F0E7F8202003F021FC2046C0
:1010A00002F09FFC002269467F2001F0CBFC00216A
:1010B0007F2001F0D7FC002002F0F9FA20B00020D8
:1010C00010BD000040AB000810B5F74AF74B08F020
:1010D0004BFB0022F64B08F047FBBDE8104009F03F
:1010E0005BBA10B508F0C7FCBDE81040EE4AEF4B04
:1010F00008F078BD2DE9F04106460846FFF7F1FFFC
:101100004FF09852EB4B08F06DFDEB4A044602EBB2
:10111000C6020D4603C2E84F2037787C80B1387A8A
:10112000052806D0E54AE64B2046294608F01CFB78
:1011300008E0E44AE44B2046294608F015FB01E0AC
:101140002046294608F022FA01467A7A387A02F0D7
:10115000E3FC22462B4608F079FE04460D460022A9
:1011600013462046294608F001FD06D30022D74B3E
:101170002046294608F034FE02D20020BDE8F08166
:10118000CD48203800EBC60030C0D7F87801401CAD
:10119000C7F878010120F1E7C74AC74B203A02EBB4
:1011A000C101603BD1E9002103EBC000C0E900218F
:1011B0007047C149603901EBC00103C97047BE499E
:1011C000002301EBC0010B604B60BB4B0022203BB6
:1011D00003EBC00002604260704730B50020B64BA0
:1011E000A3F12005BA4A03EBC0010024C1E9004283
:1011F00005EBC0010022B64C14C1401C0428F1DBF1
:1012000030BDAD49203108707047AB4820300078C0
:101210007047A9492031D1F87C010022C1F87C2116
:101220007047A5482030D0F880017047A248203090
:10123000D0F884017047A0482030D0F8880170476A
:101240002DE9F041002500249B4E00272036F7654C
:10125000012002F0F2FA86F8CA70C6F878719D4A49
:10126000C5EBC50006EB002101EB8400C0F8382176
:10127000641C042CF8DB002001EB8003C3F8182168
:10128000401C0828F8DB79E70FB470B52C9E0025C8
:101290008DF8AB50884CA022203404A994F8F105B5
:1012A00000EB800004EB401000F5C87007F0DBFF96
:1012B00094F8F10500EB800004EB401080F8906199
:1012C00094F8F105401CC0B284F8F105062801D15C
:1012D00084F8F15570BC5DF814FB10B501460F2081
:1012E00001F00301012903D0022901D003290FD005
:1012F000714A203292F9E110002909DDB2F850005C
:10130000484380B202F04CFA002002F023FA0E208B
:1013100010BD10B5684C2034A16CA06D401A02F0CD
:10132000C1F9012002F016FA002813D0606D4FF6C3
:10133000FF7101EA400002F033FA002002F00AFADD
:10134000B4F8540080B202F02BFAD4F87401401CB7
:10135000C4F8740110BD2DE9F04180460F46002508
:10136000554C0026203494F8E100002804D102F006
:1013700017FA002002F043FAF8070BD094F8E110B6
:10138000012900D1012594F88C1179B994F8BE0097
:1013900003280BD0216C94F84420090AA06D41EA7F
:1013A00002614018A065F90708D00EE0002002F0A5
:1013B000F7F9002002F0CEF90E20DFE694F9E110F3
:1013C00094F8BE201144032909D0012D07D0B8F1AB
:1013D000000F38D0FFF79DFF0E252846CEE60221EC
:1013E00084F8E01002F05EF9032002F060F9B8B171
:1013F000002001F000FF84F8E060D4F87001401C88
:10140000C4F87001206C94F84420000A40EA02609D
:10141000A16D00180818A065FFF77BFF0E25DCE71B
:1014200094F84410226C0B06A06D43EA1221401878
:10143000A0654FF00C0503F093F9C4F8F405012002
:1014400084F8F305C9E7002002F0AAF9002002F0B1
:1014500081F9C1E70FB470B5A6B0174B0024203353
:1014600018461A7890F9E1104425481E042640B227
:10147000022A32D082B383F8E1000020FFF72DFF6B
:101480008DF8AA008DF8A8408DF8A950ADF8AC40B1
:1014900090222EA96846249607F0E5FE2AA80FC8D8
:1014A000FFF7F2FE26B015E7FA48CE3B1835B13DFE
:1014B00080842E4119DDB14148020020F6285C8F5E
:1014C000C2F5F43F295C8FC2F528F83F0088D3406D
:1014D000E0FFEF40FFFFCDAB24E0002918DD83F8EB
:1014E000E10000210846FFF736FF8DF8AA008DF8CD
:1014F000A8408DF8A950ADF8AC4090222EA96846BE
:10150000249607F0B0FE2AA80FC8FFF7BDFEC9E772
:10151000002002F045F926B0002070BC5DF814EB05
:1015200002F018B926B0002070BC5DF814EB02F090
:1015300011B910B501460F2001F00301FE4CE28CF9
:10154000B2F5004F0AD1012908D1B4F8500080B299
:1015500002F026F9002002F0FDF80E20E18C48F29E
:101560000102914200D10F2010BD2DE9F04707463E
:10157000DDF8208007F00705EF4C132665344FF0A7
:101580000009A4F8636058180088208094F85A0075
:10159000A07094F85B00E070653C04EB8501D1F825
:1015A0001801E066601990F8F55084F8705080F8E2
:1015B000F5909818407884F8F40094F8CA2084F8DC
:1015C0006220521C84F8CA20DC48D1F818218242DB
:1015D0000CD094F8BE000122824084F8F22004EB83
:1015E0008000D1F81811C0F8381107E094F8BE1047
:1015F00004EB8101C1F8380184F8F290E06C01F04D
:10160000FAFD94F88C01E0B1B4F80221B8FBF2F0D5
:1016100002FB1081B4F80431F8B25843431A500861
:101620004042984203DDD118C4F8101101E0C4F81B
:10163000103104F16A00B4F810210270110A4170EF
:1016400005E0C4F8109184F86A9084F86B907020DB
:1016500084F869000021304601F004FA04F16001C9
:101660003046BDE8F047002201F0ECB92DE9F04129
:1016700000F00305B04C132600276534A4F863601E
:1016800058180088208094F85A00A07094F85B00E5
:10169000E070653C04EB8500D0F84801E066611914
:1016A0004C3411F8FE0F84F824000F70981840781D
:1016B00084F8B10094F87E10A175491C84F87E105E
:1016C000206801F098FDC4F8C470A777E77772200E
:1016D00060774C3C0021304601F0C4F904F1600110
:1016E0003046BDE8F041002201F0ACB92DE9F04FE1
:1016F000DBB0054600244E944F94A146A24603F069
:101700002FF82C9028792AA98B4F4FF00F08599168
:1017100002280DD004287DD090226846599907F000
:10172000A2FD26A80FC8FFF795FE5BB0BDE8F08FBD
:10173000E888ADF89C00287A412801D0612804D1BE
:10174000687A00F0CC0088283AD063264EA801F0D1
:10175000E8F9E9882DA80022589001F08FF99DF84A
:1017600038019DF8391100EB01229DF83A019DF8EE
:101770003B11000400EB016010442A909DF83C01ED
:10178000CDE92804289D2A9961186541CDE92815DD
:101790002A99000600EB11202B908DF898408DF8C7
:1017A00099600F208DF89A00022E0FD09022684683
:1017B000599907F058FD26A80FC8FFF74BFEB4E76C
:1017C0004FF009094FF0070A0226BFE726A901EBEF
:1017D0000A00027F407F02EB002085B23878234662
:1017E0004FF00108002861D0012804D107F1E1027F
:1017F0001478641E1470494403240A7F732A0ED09F
:1018000009DC4FF00E0B702A03D0712A08D0722A1F
:101810004CD1CCE0B0E1812A71D0822AF8D183E1A9
:10182000012821D005F00304497F04F1080060F38A
:101830001F11C8B2394687F8F805084480F8F93511
:10184000032002F03CFF3E4800880F2803D93D48A2
:1018500000880F281DD8002001F0A2FF002001F011
:1018600079FF8DF89AB031E017F8E10F401C38701D
:1018700090226846599907F0F6FC26A80FC8FFF792
:10188000E9FD87F80280D7F88B00401CC7F88B0071
:101890004BE797F88C01BB4628B9BBF8261048F2F5
:1018A0000200814203D90F208DF89A003EE14A469A
:1018B00051462846589BFFF7D9FE48F20100854261
:1018C00004D0BBF8540080B201F06AFF2B98B946EF
:1018D000B865B9F82600411B01F0030189F8E11051
:1018E0000321FFF738FD8DF89A0009EB84011348B6
:1018F000C1F84801032002F0C6FE17E1FFE7012806
:1019000040D0487F05F0070B6BF31F1087F8F805F0
:10191000384480F8F935032002F0D1FE2C9800906D
:101920004A4651462846589BFFF71FFEB7F8540019
:1019300080B201F035FF07E068020020FFFFCDAB69
:1019400002000020040000202B98B86587F8E140D1
:10195000F88C0221FFF7FFFC8DF89A0007EB8B0053
:10196000FD49C0F81811032002F08DFE02F0D7FEE9
:101970000246FAA150A807F0C7FA014650A803F0A2
:10198000F0FFD3E017F8E10F401C38709022684652
:10199000599907F068FC26A80FC8FFF75BFD87F888
:1019A0000280D7F88B00401CC7F88B00BDE6B94613
:1019B000012830D0032850D0702A72D099F88C01B9
:1019C00030B199F8FD00484490F8F915022967D024
:1019D000B9F82610A1F5004002387DD199F8F80534
:1019E00000EB090191F9F905002875DB401C81F82D
:1019F000F90599F8E100401E89F8E100002001F0A6
:101A0000CFFE002001F0F7FB01212846FFF7A3FCE1
:101A10008DF89A008AE099F8F400484490F8F91596
:101A2000491C80F8F9152846FFF757FC8DF89A00F5
:101A300005F0030000EB8001C91D99F8F22008FAB7
:101A400000F0024389F8F22009EB01004E9940F8BA
:101A5000691F9DF83C11017168E099F8FD00484448
:101A600090F8F915491C80F8F9152846FFF761FD33
:101A70008DF89A0005F0030000EB8001C91D99F86C
:101A8000F12008FA00F0024389F8F12009EB010087
:101A90004E9940F8691F9DF83C11017146E000E045
:101AA0002AE099F8F80500EB090191F9F9050028F9
:101AB00013DB99F9E120002A0FDD401C81F8F905BC
:101AC00099F8E100401E89F8E10004212846FFF75B
:101AD00042FC8DF89A0029E01DE0032002F0EFFDA2
:101AE000002001F05DFE002001F034FE8DF89AB078
:101AF000032002F0C8FD19E080F8F94599F8F100DB
:101B000040F0080089F8F10005212846FFF723FC82
:101B10008DF89A000AE0002001F042FE002001F05A
:101B200019FE8DF89AB001E0012810D0F03707F8BF
:101B30000D8C902224966846599907F094FB26A8AC
:101B40000FC8FFF7A1FBF86F401CF867EDE517F829
:101B5000E10F401C387090226846599907F083FBCA
:101B600026A80FC8FFF776FC87F80280D7F88B000D
:101B7000401CC7F88B00D8E58DF89A803878022889
:101B80000CD197F9E100002808DD401E87F8E1003C
:101B9000F88C0621FFF7DFFB8DF89A008DF898404E
:101BA00004208DF89900ADF89C40002228922992DB
:101BB0002A942B94249090226846599907F053FB5D
:101BC00026A80FC8FFF760FBAFE52DE9F041D0B0C4
:101BD00000244E944F94057902F0C2FD2C90624F80
:101BE0002AAE012D02D0062D46D056E04EA800F0B8
:101BF0008CFF9DF838019DF839119DF83B2100EBD1
:101C000001209DF83A11090401EB026108442A9071
:101C10009DF83C01CDE92804289D2A996118654169
:101C2000CDE928152A99000600EB11202B903D469E
:101C300087F8E340B5F8C820ADF89C208DF89840AF
:101C40008DF89A404FF001088DF8998005F16001F8
:101C50002DA807F008FB902231466846CDF8908009
:101C600007F001FB26A80FC8FFF70EFBD5F86801A7
:101C7000401CC5F8680110E0ADF89C408DF8984014
:101C800006208DF89900249090223146684607F08E
:101C9000EAFA26A80FC8FFF7F7FA87F8F34550B01D
:101CA000BDE8F08170B5002400202F49C0EBC000D2
:101CB00001EB002504EB840005EB401000F5C87033
:101CC000A02107F002FB641C062CF3DB05F5BE65C2
:101CD000002068702870A87070BD2DE9F0410026C2
:101CE000214C022000252070657084F8E25040F6F7
:101CF0000F0000F0EDFB8046032001F069FC6F1E31
:101D0000B8F1000F01D03846CAE7FFF799FA4DF64F
:101D1000CA6024F8CC0F2575E5752576FFF7C2FF5C
:101D200044F80D5C44F8095C6564002001F04BFA4E
:101D3000002001F032FA01210C4801F065FDAFF2FC
:101D40005361AFF2791001F067FA84F82755C4F8AF
:101D5000A450C4F8A8500BE0FFFFCDAB54303D2099
:101D600025640D0A000000006802002080D02324B2
:101D70006775CC3C0020C6EBC6016FF0090204EB8E
:101D800001210B1883F8F925401CFF28F9DD8D652A
:101D9000002085E700F099BBFE49886270472DE975
:101DA000F04704460D46FB4E2078002130726078E3
:101DB000707360783073A0787072E078F073227975
:101DC000B2726279F272A279B2733174228972822C
:101DD000022814D0717406F10800012100F0F4FC0F
:101DE0002078ED4F00EB400017F820003075317A75
:101DF000A07800F09EFC28B1411C03D00CE001202B
:101E00007074E8E7207800EB400007EB8001A078D1
:101E1000401E01EB800040683146B06101F11400C2
:101E200000F079FC00F030FC4FF6FF7802281BD060
:101E3000032819D0A07800F0FEFD4008B08308B157
:101E4000404505D1A078D549401E31F81010B18326
:101E5000B08B00F080FCB08B00F076FCB08BF08390
:101E6000207904281DD025E03078022810D00020E9
:101E70000027B146F27B317A00F0E9FBA9F81C009B
:101E800008B14045E4D199F80800052802D002E0E5
:101E90000120EDE70127C24830F81700A9F81C001F
:101EA000D6E7202002F01CFD002001F033F90820C5
:101EB00002F016FDE888FFF76FFFC836A888708724
:101EC0002988B187288846F89C0C6888F087801E8E
:101ED000484330642889BDE8F047FEF7BDBFAD48F0
:101EE00090F8F4007047AB49084490F8F50070474B
:101EF000A849084490F8FE007047A648D0F8780139
:101F0000704700F00300A349403901EBC00103C949
:101F1000704700F003009F49203901EBC00103C95D
:101F2000704710B500F003009A490022403901EBD8
:101F3000C0019C4B03C907F055FEBDE8104007F0F7
:101F40006BBD10B500F0030092490022203901EB6F
:101F5000C001944B03C907F045FEBDE8104007F0EF
:101F60005BBD10B50621417002210170002001F017
:101F700017FC002001F043FCBDE81040002001F0F8
:101F80003AB970B50446E06D401CE0650020606021
:101F90002078022807D00125032201280AD0E07802
:101FA000022820D033E006206070BDE87040002099
:101FB00001F0F6BBE0780226022803D194F8F21073
:101FC000C90704D0032807D06570A27070BD84F8DB
:101FD000E2506570A67070BD01F05AF984F8E250C5
:101FE0006570A67070BDE18C48F20103994203D17F
:101FF00094F8F1305B0706D5B1F5004F07D194F89E
:10200000F110890703D42046BDE87040A9E70328F2
:1020100002D06570A27070BD2046BDE87040A0E798
:102020005C4991F8F20500EB800001EB401090F85C
:10203000900170470FB470B52C9D564CA02204F54A
:10204000AA6004A907F00FF984F8505570BC5DF838
:1020500014FB5549A02207F006B92DE9F047814647
:102060004C4E4FF0000896F8F01506F5E06501EBD0
:10207000810006EB401494F89071002F2AD004F5EB
:10208000CA7414F8030C687014F8020CA870208845
:10209000A880D4E90101C5E90201E068286120694E
:1020A00068616069A4F5CA74A86104F5D6717F22DD
:1020B00005F11C0007F0D7F82F7084F82B9284F8F4
:1020C000908196F8F005401CC0B286F8F00506280D
:1020D00007D008E085F8008085F801803348BDE826
:1020E000F08786F8F08596F8F00586F8F2052F4817
:1020F000F5E730B5CFB000230022FFF791FF01468E
:102100002448C3EBC30300EB032404E02046FEF79E
:10211000BFF802460021002AF8D00025022A13D178
:10212000207801280DD1C83454F89C0C54F8A01C18
:102130000144A06C01446162E064A5640120207741
:10214000C83C84F8E350656094F8E400012832D17B
:1021500094F8E30060BB207801282CD102F000FB4A
:10216000D4F8E810401AD4F8EC10884223D984F847
:10217000E450ADF89C508DF8985084208DF899006B
:102180000420249090222AA9684607F06CF826A81B
:102190000FC80EE0680200204CA70008ACA700089A
:1021A000B0A7000800408F40B80700206809002051
:1021B00001E0FFF769F84FB0002030BD10B52A4CA0
:1021C0001021204606F0B0F8012005F070F810212B
:1021D000204606F0A7F8052005F069F8002000F079
:1021E0006CFF0021BDE81040481E01F00DBB1F49E7
:1021F000C1F8FC0670471D490862012081F82400DF
:10220000704710B5194C94F82400012807D100211B
:102210001E20226A00F059F8002084F8240010BD26
:10222000124A9083D183012082F82500704710B5AF
:102230000E4C94F82500012808D1E08B00F08BFAB1
:10224000A08B00F081FA002084F8250010BD07481B
:10225000808B70470548C08B70470449F33108787C
:1022600000220A7070470000000801406802002048
:1022700038B500290AD040F0C0008DF80000CCB27B
:102280007F2909D802208DF801400DE040F080013F
:1022900001208DF8001007E044F080008DF8010067
:1022A000C90903208DF80210694601F0C7FC38BD4A
:1022B00008B58DF80020120A8DF8012089B280B28D
:1022C0006B460222FFF7D4FF08BD38B500236C46E9
:1022D000E254120A5B1C042BFADB89B280B26B4613
:1022E0000422FFF7C5FF38BD38B5044600290AD0DF
:1022F00044F040008DF80000CCB27F2907D80220BE
:102300008DF801400BE001208DF8004007E044F01B
:1023100080008DF80100C90903208DF8021069467C
:1023200001F0BAFC38BD38B54FF0FF3489B280B245
:102330006B460422FFF7D8FF38B903216846425C98
:1023400002EB0424491E0029F9DA204638BD38B5CD
:1023500004466B46022200213620FFF7C5FF0E2CF3
:1023600054D2DFE804F0110719535353532130536B
:10237000533D444B00208DF800009DF8010000F013
:10238000FE008DF8010041E09DF8000000F0FC0027
:10239000401C8DF8000039E09DF8000000F0FC00C2
:1023A000801C8DF8000031E09DF8000000F0B300C3
:1023B00040F048008DF800009DF8010040F08000DA
:1023C0008DF8010022E09DF8000000F0B3008DF8C8
:1023D00000009DF8010000F07F008DF8010015E07D
:1023E0009DF8010040F002008DF801000EE09DF81C
:1023F000010000F0FD008DF8010007E09DF80000ED
:1024000000F0CF0040F020008DF800006B46012264
:1024100000213620FFF72CFF01220DF101031146A8
:102420003620FFF725FF38BD38B54FF6FF7489B267
:1024300080B26B460222FFF757FF30B99DF80000CB
:102440009DF8011000EB012084B2204638BD08B58C
:1024500003208DF8010001208DF800006B46022258
:1024600000213620FFF704FF4FF4004206212D2003
:10247000FFF71EFF012004F01AFF0120FFF767FF9E
:10248000002008BD08B5010A8DF801108DF8000084
:102490006B46022204212D20FFF7EAFE03208DF86F
:1024A00000006B46012206212D20FFF7E1FE0020EF
:1024B0008DF800006B46012206212D20FFF7D8FE83
:1024C0000A212D20FFF72FFF08BD002108462AE72B
:1024D0002DE9FC410546002404200190FE4E002712
:1024E000377706F8337C3762777277627777B7622F
:1024F000F762FFF7EAFF46F8600DF849884202D01C
:102500008817BDE8FC810020FFF721FF01AB012205
:1025100000212420FFF7ACFE1E20FFF7B3FF1FFAB7
:1025200080F84FEA1820B073280704D50420FFF77D
:10253000A9FFC6F8840096F8840010F0FF0F08D0B9
:10254000022000906B46012212212D20FFF790FE01
:1025500001E0C6F884700620FFF794FF7060072042
:10256000FFF790FFB060B76106EB8400C761641CA1
:10257000042CF9DBA8071AD5B07B3446012804D80F
:102580001C20FFF77FFFA06111E003280FD80D206A
:10259000FFF778FFE0610E20FFF774FF20620F2045
:1025A000FFF770FF60621D20FFF76CFFA062CC4850
:1025B000E907007800F01F0008D008F01F0132463C
:1025C00086F82C1021B982F82C0001E086F82C0046
:1025D00068070BD5002404F11000FFF753FF06EB4A
:1025E00084014863641C0C2CF5DB06E0002006EB3C
:1025F00080014F63401C0C28F9DB280502D5FFF74A
:1026000026FF09E005213620FFF70EFF20F40072B7
:1026100005213620FFF74CFE0120FFF798FE002130
:102620000420FFF780FE306300212620FFF77BFEA9
:1026300040F4A03040F4A02200212620FFF745FE00
:10264000002226213620FFF733FE002059E710B57F
:102650000023A14C603C022902D005290FD107E0DC
:10266000022A01D012B10AE0E36908E0236A06E019
:10267000022A01D012B102E0636A00E0A36AC00737
:10268000C00EC34098B210BD93486038807B70473D
:1026900008B56B46042200212620FFF725FE9DF891
:1026A000020040F005008DF802006B460422002174
:1026B0002620FFF7DDFD08BD08B501438DF80010A9
:1026C000080A8DF80100080C8DF802006B46032201
:1026D00008212620FFF7CCFD08BD08B501438DF881
:1026E0000010080A8DF80100080C8DF802006B46F6
:1026F00003220C212620FFF7BBFD08BD7648603879
:10270000D0F8840070477448603840687047724859
:1027100060388068704710B50446234601220B21BB
:102720002A20FFF7A5FD62680021BDE810401E20A9
:10273000CBE56C4A515C00EB41006749401E6039B3
:1027400001EB8000406B704763496039C8820246E4
:1027500000211820ACE5604960398882024641F6C4
:1027600004012E20A4E538B504466B4601220E2153
:102770002B20FFF7B9FD9DF8001021F01F0104F098
:102780001F00084300906B4601220E212B20FFF70B
:102790006FFD38BD38B504466D2100916B460122AE
:1027A00040F606012E20FFF763FD41F606012CB12D
:1027B00040F207622E20FFF77BFD38BD41F2076231
:1027C0002E20FFF775FD38BD2DE9F84F04468A46E7
:1027D0004FF00008C14625786079434931F8107000
:1027E00060783D49401E6039C6B2C1F88000042DB2
:1027F00070D0072D6ED0C346207808733648E27932
:102800006038002A006B66D020F4800008633248EC
:10281000227A60384273217A4FF44033026B03EA24
:1028200001410A43026300210420FFF74EFD3A46AE
:1028300042F604012E20FFF73BFD3046FFF7AAFFCA
:10284000284F2A490522785D00EB800043180721B4
:102850002B20FFF70DFD224B01220E212B20FFF72D
:1028600007FD2348012200EB0B030B212820FFF773
:10287000FFFC785D1F4951F820200C212820FFF72C
:1028800024FDE0791C4901EB8000A17930F811208A
:1028900002212720FFF70CFD1848042130F81620EC
:1028A0002720FFF705FDE07960B3A07804284AD01F
:1028B00028200090202206212720FFF7F9FC6B46F4
:1028C000012226212720FFF7D3FC0D48E17800EBF9
:1028D000061018E029E02BE0680A00203001CADE6B
:1028E000F2A70008B4A7000834A80008D4A700087D
:1028F000F3A70008BCA7000804A8000810A8000857
:1029000014A8000819E050F8212008212720FFF71B
:10291000DCFC628941F24107BA4203D02021272022
:10292000FFF7C6FC6089E0B120E04FF0010B63E7E0
:1029300040F480000863FF0869E76422062127202D
:10294000FFF7B6FCC1E710200090102206212720D7
:10295000FFF7AEFC6B46012226212720FFF788FCFB
:10296000B3E73A4620212720FFF7A2FCFE4F0C21B7
:1029700023203A68FFF7A9FC07EB46000421828870
:102980002320FFF795FCA07958B1E079F74901229F
:10299000431800212120FFF76BFC4FF003084FF094
:1029A000010905F00F00290740EA116061784FF432
:1029B000402202EA81410843910001EA085108439C
:1029C0004FF4003101EA4941084321794FF0F862A0
:1029D00002EA81510843617940EAC16200211F2067
:1029E000FFF773FCA078617808430004E179E04DBB
:1029F00040EA413040F400422A6100210820FFF7FC
:102A000064FC5FEACA7003D095F82C00FFF7ABFEB8
:102A10005FEA8A700CD5A8693401E040C0F34E002B
:102A2000FFF799FEA869E040C0F34E00FFF78CFE67
:102A30000020BDE8F88FCE49401E00018969C140E1
:102A400088B2704710B50B4611460A18B2F5806F70
:102A500002D94FF0FF3010BD821E0920FFF708FC9D
:102A6000002010BD10B5C24A40EA815012690243ED
:102A700000210820FFF729FC002010BD30B40C46CF
:102A800011462246034630BC11202DE470B50446A1
:102A90000E4615460720FFF75AFC234632462946C4
:102AA0002520FFF721FCBDE8704008204FE438B531
:102AB00004466B46022205211520FFF715FC9DF800
:102AC00000009DF8011000EB012080B207F03BF8F8
:102AD0006FF0050207F0CEFDC4E9040100212E20AD
:102AE000FFF7A2FC2080231D082200211220FFF7FF
:102AF000FBFB07211520FFF797FC608000211020C9
:102B0000FFF711FC000DA08138BD0346052200210E
:102B10001720FFF7E9BB0121172004E4002117204B
:102B200001E40346052200211520FFF7DDBB01214A
:102B30001520FFF7F8BB00211520FFF7F4BB01219A
:102B40000620FFF7F0BB0346052200210620FFF711
:102B5000CBBB10B5044600210420FFF7E4FB8549F8
:102B600008403CB120F4FF7004F4FF71014341F0D0
:102B7000010201E020F001027D4802630021BDE86E
:102B800010400420FFF7A1BB024602210320FFF7FB
:102B90008FBB024600210320FFF78ABB03460822B1
:102BA00000210120FFF764BB034608220021012019
:102BB000FFF79ABB2DE9FC5F07460026002400259D
:102BC00003218DF800106B46012207212D20FFF70D
:102BD0004FFB07F00F0749F2202041F62401062F92
:102BE00015D2DFE807F01403080C101241F2240597
:102BF00006460E240BE00D460646032407E00D466C
:102C000006464E2403E0032401E0242503248DF826
:102C10000060300A8DF801006B46022200212D2051
:102C2000FFF726FB4FF008088DF800806B46012265
:102C300006212D20FFF71CFB4FF002098DF80090B4
:102C40006B46012207212D20FFF712FB4FF0880A67
:102C50008DF800A06B46012206212D20FFF708FB0E
:102C60004FF0800B8DF800B06B46012206212D201D
:102C7000FFF7FEFA00268DF800606B460122062160
:102C80002D20FFF7F5FA05208DF800006B46012294
:102C900007212D20FFF7ECFA8DF80040200A8DF86F
:102CA00001006B46022200212D20FFF7E1FA8DF88A
:102CB00000806B46012206212D20FFF7D9FA04245B
:102CC0008DF800406B46012207212D20FFF7D0FA36
:102CD0008DF800A06B46012206212D20FFF7C8FACF
:102CE0008DF800B06B46012206212D20FFF7C0FAB7
:102CF0008DF800606B46012206212D20FFF7B8FAFF
:102D00004FF0010A8DF800A06B46012207212D200B
:102D1000FFF7AEFA8DF80050280A8DF801006B46D7
:102D2000022200212D20FFF7A3FA8DF800806B46C8
:102D3000012206212D20FFF79BFA0A2004F0B7FAA2
:102D40008DF800606B46012207212D20FFF790FAD5
:102D50008DF800A06B46012206212D20FFF788FA8E
:102D60008DF800906B4607E0F8A7000800A800085F
:102D7000080A0020FFFF47F0012207212D20FFF75E
:102D800077FA8DF800406B46012207212D20FFF7CE
:102D90006FFA642004F08BFA8DF800606B46012214
:102DA00007212D20FFF764FA8DF800606B460122A1
:102DB00006212D20FFF75CFA0A2004F078FA012F93
:102DC00001D0022F05D101AB012208212D20FFF7F0
:102DD0008BFA0020BDE8FC9F7CB504460D4601AB94
:102DE000012208212D20FFF77FFA9DF804008007BB
:102DF00002D44FF0FF307CBD200E8DF80300200C74
:102E00008DF80200200A8DF801008DF800406B4615
:102E1000042200212D20FFF72BFAC5F302208DF8A4
:102E200001008DF800506B46022204212D20FFF78F
:102E30001FFA40208DF800006B46012206212D204C
:102E4000FFF716FA00208DF800006B4601220621DC
:102E50002D20FFF70DFA0024012004F028FA01AB21
:102E6000012208212D20FFF73FFA9DF80400C0073A
:102E700000D00124002CEFD000207CBD2DE9F041D2
:102E800006460F46002500240020FFF760FA0120C7
:102E9000FFF790FE0DE039463046FFF79DFF3846BC
:102EA000FFF7F0FAB04200D10125641C052C00D1D7
:102EB0000225002DEFD00420FFF77CFE3846FFF7F7
:102EC000E1FAB04201D1002401E04FF0FF340020CC
:102ED000FFF770FE2046BDE8F08108B504200090A1
:102EE0006B46012202212C20FFF7C2F9002000903E
:102EF0006B46012202212C20FFF7BAF908BD08B564
:102F0000002000906B46012202212C20FFF7B0F92F
:102F1000022000906B46012202212C20FFF7A8F925
:102F200008BDECE7F8B5054601268DF800606B4654
:102F3000012200213620FFF79BF900248DF8004084
:102F40006B46012206212C20FFF792F98DF80040F4
:102F50006B4601220A212C20FFF78AF9FFF7BDFFFB
:102F60008DF80050280A8DF801006B4602220821D6
:102F70002C20FFF77DF9FFF7B0FF8DF800606B465E
:102F800001220A212C20FFF773F9FFF7A6FF8DF825
:102F900000406B46012200213620FFF769F9F8BD99
:102FA000F8B504208DF800006B4601220A212C2080
:102FB000FFF75EF9FFF791FF00248DF800406B46A4
:102FC00001220A212C20FFF753F9FFF786FF012089
:102FD0008DF800006B46012200213620FFF748F9EA
:102FE000012004F064F976208DF800006B46012280
:102FF00004212C20FFF73CF980258DF800506B460A
:10300000012202212C20FFF733F988278DF8007068
:103010006B46012202212C20FFF72AF96B46012280
:1030200003212C20FFF760F99DF800004FF6FF7197
:1030300001EA002675208DF800006B46012204216C
:103040002C20FFF715F98DF800506B460122022164
:103050002C20FFF70DF98DF800706B46012202213C
:103060002C20FFF705F96B46012203212C20FFF7E6
:103070003BF99DF8005035438DF800406B46012226
:1030800002212C20FFF7F4F88DF800406B46012256
:1030900000213620FFF7ECF82846F8BD38B50C467D
:1030A000024600212C20FFF703F900946B46012211
:1030B00006212C20FFF7DCF838BD10B504460421AA
:1030C0003620FFF730F914B140F4006201E020F43B
:1030D00000620421BDE810403620FFF7F6B870B555
:1030E00005460E46FFF7F1F9FE4CA0420ED0002136
:1030F0002B4632460846FFF7F7F8052004F0D7F8CC
:10310000FFF7E3F9A04203D0A01770BD002070BD07
:10311000002070BD38B500F00301012000EB411420
:1031200003218DF801108DF800006B46022200216A
:103130003620FFF79DF8224612212D20FFF7B8F820
:103140000120FFF704F938BD10B504460021042022
:10315000FFF7E9F8E44908631CB120F48020086314
:1031600002E040F4802008630A6B0021BDE81040B3
:103170000420FFF7AAB810B5DB4C216B41F0804169
:103180002163020202211A20FFF792F8226B00212C
:10319000BDE810400420FFF798B8D34A0028116B0F
:1031A00006D021F480501063012082F82D0005E044
:1031B00041F480501063002082F82D000021126B32
:1031C0000420FFF782B808B500210091C64A002804
:1031D000116B03D041F00050106302E021F0005069
:1031E0001063106B000E00906B4601220321042037
:1031F000FFF73EF808BD10B5044600211A20FFF77E
:1032000092F86FF31300C4F3130202430021BDE8E8
:1032100010401A20FFF759B8B34A88321060516045
:10322000704708B56B46012200210F20FFF75CF8BC
:103230009DF8000000F0010008BD08B5E0200090F6
:103240006B46012203213620FFF712F8F020009090
:103250006B46012203213620FFF70AF808BD1CB592
:1032600001AB012203210F20FFF73EF89DF8040077
:1032700000F0800100F04000B1EB400F07D00120CA
:1032800000906B46012203210D20FEF7F1FF1CBDCB
:1032900038B54020009000210E20FFF744F8044686
:1032A00000F0A6FC0546002211460E20FFF70DF89F
:1032B0006B46012200210D20FEF7DAFF8B4A002128
:1032C0000F20FFF702F8FFF7CAFF224600210E2069
:1032D000FEF7FBFF284600F096FC8349002081F8AA
:1032E0007D0038BD10B502210F20FFF79DF800F0DA
:1032F000100010BD2DE9FC5F00277B4D002685F8EE
:10330000686095F82D0085F86E0000210F20FFF70A
:103310000AF8774B686605F1900C1A680446511C50
:1033200019604CF822000A2900DB1E60A4F5000099
:10333000C01E03D1FFF7ACFFFFF77FFFDFF8A8A1A6
:1033400060054FF003080AF1640A4FF4807B1CD536
:1033500095F82D00C8B9C4F34220072815D0FFF70F
:1033600097FFFFF76AFF04F0F804286B800005D58B
:103370005A4600210D20FEF79BFF06E085F8688085
:10338000D5F88C1009B15046884760044FF0010908
:1033900077D5600576D5E00219D5FFF779FFFFF7FD
:1033A0004CFF286B800007D502B05A46BDE8F05F9D
:1033B00000210D20FEF77CBF85F86880D5F88C10C1
:1033C00000295DD002B05046BDE8F05F08470021FB
:1033D0001020FFF729F8C0F30908434B02226C3391
:1033E00000211120FEF780FF687B08B908F07F08F4
:1033F000A5F86A80200705D595F86C00810643D5AD
:10340000022841D004F0080085F86900022085F800
:10341000680095F82D00B0B3CDF8009001AB012203
:1034200003210F20FEF760FF9DF8040000F08001EB
:1034300000F04000B1EB400F06D104F4C0423A4323
:1034400000210F20FEF741FF286B800004D45A466C
:1034500000210D20FEF72CFFD5F88C1009B1504645
:103460008847FFF73FFF28B3FFF712FFFFF7E5FE9E
:10347000286B800004D55A4600210D20FEF718FF66
:10348000A8E43AE01DE005E0082785F8696085F8C2
:103490007D60BBE704F4DE423A4300210F20FEF7D3
:1034A00014FFD5F88C100029EAD002B05046BDE8D0
:1034B000F05F08476B46012203210D20FEF7D8FE7E
:1034C00088E4286B800001D4FFF7E2FEFFF7B5FE29
:1034D00068356E7585F80080696A0029D0D050463D
:1034E00002B007E03001CADE080A0020F8FF2724F6
:1034F0000C000020BDE8F05F084720061CD5F8222C
:1035000000210F20FEF7E1FE95F8690048B185F82B
:10351000696095F82D0020B995F87D0008B1FFF796
:10352000B7FE85F86890D5F888100029A8D002B0B9
:103530005046BDE8F05F0847A00310D504F4003200
:1035400000210F20FEF7C1FE042085F86800D5F8A1
:103550008C1009B15046884785F87D603AE4FB48F5
:1035600014EA00028CD000210F20FEF7AEFE85F891
:103570007D60286B800001D4FFF78AFEFFF75DFEB7
:10358000E00403D5082085F8680018E0200402D57F
:1035900085F8688013E0E00303D5092085F868000A
:1035A0000DE0600103D50A2085F8680007E0A0025D
:1035B00003D50B2085F8680001E085F86880D5F810
:1035C0008C100029CAD002B05046BDE8F05F084711
:1035D00038B50446E00733D06B460222002126208E
:1035E000FEF782FE9DF8010020F03C0040F0140040
:1035F0008DF8010001220DF1010311462620FEF78E
:1036000037FE6B46012202213620FEF76DFE9DF843
:10361000000040F084008DF800006B46012202217A
:103620003620FEF725FE10208DF8000001208DF8D1
:1036300001006B46022228213620FEF719FE11E018
:103640006B46022200212620FEF74EFE9DF8010067
:1036500020F014008DF801006B4602220021262084
:10366000FEF706FEA00711D50F208DF800006B466F
:1036700001222A213620FEF7FBFD00208DF80000F4
:103680006B4601222A213620FEF7F2FD38BD10B527
:103690000020FEF75CFE00220421BDE81040362029
:1036A000FEF706BE024601210A20FEF70EBEF8B55F
:1036B0000546002400270097A54EA8070AD58020BC
:1036C00000906B46012200210D20FEF7D1FD012064
:1036D00086F87D00E80721D09DF8000040F0060044
:1036E00000906B46012200210D20FEF7C1FD032151
:1036F0000F20FEF799FE10F4816F1AD04020009041
:103700006B46012200210D20FEF7B2FD0020FFF7DD
:10371000D4FC86F87D704FF0FF340AE09DF800007D
:1037200040F0020000906B46012200210D20FEF7C0
:103730009FFD2046F8BD41EA022121F0F002C007BA
:1037400003D000211D20FEF7B3BD002211461D202D
:10375000FEF7AEBD70B50446FFF781FD4FF48075EE
:103760002A46E00701D04FF4407200210D20FEF7F9
:103770009FFDE00712D003210F20FEF755FE10F445
:10378000816F0BD0FFF784FDA00704D52A460021E6
:103790000D20FEF78DFD4FF0FF3070BD002070BD95
:1037A00038B505466B46012203210420FEF79CFD37
:1037B000674CA5B12A4600210C20FEF779FD9DF843
:1037C000000040F010000090206B40F0805020631B
:1037D0006B46012203210420FEF74AFD38BD9DF807
:1037E000000020F010000090206B20F0805020633B
:1037F0006B46012203210420FEF73AFD38BD024644
:1038000024212720FEF754BD70B504460D4600F074
:10381000EFF9064600210E20FEF785FD15B140EABE
:10382000040201E020EA040200210E20FEF74DFD13
:103830003046BDE8704000F0E6B938B504460221D4
:1038400000916B46012200212F20FEF711FD002C74
:1038500007D0012000906B46012200212F20FEF7A7
:1038600007FD38BD10B5044604212F20FEF75BFD8F
:10387000C0F30B012180C0F30B40608008212F2092
:10388000FEF751FDC0F30B01A180C0F30B40E080B7
:103890000C212F20FEF747FDC0F30B012181C0F35F
:1038A0000B40608110212F20FEF73DFDC0F30B413E
:1038B000E181C0F30B00A08114212F20FEF733FD1E
:1038C000C0F30B416182C0F30B00208218212F202E
:1038D000FEF729FDC0F30B01A182C0F30B40E0828B
:1038E00010BD38B500240094FFF7D1FE0022114628
:1038F0002C20FEF7DDFC6B46012206212C20FEF772
:10390000B7FCFFF7FCFA6B46012203213620FEF7D5
:10391000EBFC9DF8000000F00F0000906B460122C8
:1039200003213620FEF7A4FC012003F0C0FC9DF823
:10393000000040F0F00000906B4601220321362089
:10394000FEF796FC024880F87D4038BD00902724A1
:10395000080A002038B50446FFF799FE694D052294
:10396000295D01EB81006849431807212B20FEF7F0
:103970007FFC664B01220E212B20FEF779FC285D8F
:10398000634951F820200C212820FEF79EFC4FF4BB
:10399000FF1200212820FEF798FC5E4A0021282013
:1039A000FEF793FC222000906B4601220021362076
:1039B000FEF75EFC0720009001226B461146362080
:1039C000FEF756FC002226213620FEF771FC13205C
:1039D00000906B4601220C212A20FEF749FC0020B2
:1039E000B3E738B50446FFF752FE4FF4FF1200214B
:1039F0002820FEF76AFC474A00212820FEF765FCD4
:103A00000220FEF7A4FC0D20FEF7A1FC042C00D23E
:103A10000424224600210A20FEF757FC10208DF8CE
:103A200000006B46012224212F20FEF721FC8CE7A9
:103A3000F8B5044680218DF800106B460122112153
:103A40002820FEF715FC0A218DF800106B46012294
:103A500012212820FEF70CFC0F218DF800106B4678
:103A6000012212212820FEF703FC00268DF80060B9
:103A70006B46012200212A20FEF7FAFB01218DF876
:103A800000106B46012200212A20FEF7F1FB012CD9
:103A90001AD00020FEF75BFC6B46022203212A208D
:103AA000FEF722FC0120FEF752FC9DF800409DF835
:103AB00001508DF800606B46012200212A20FEF79C
:103AC000D7FB44EA0520F8BD012003F0F0FB6B466C
:103AD000022203212A20FEF707FCE6E708B56B4621
:103AE000012204212A20FEF7FFFB9DF8000008BDFB
:103AF00008B56B46012203212A20FEF7F5FB9DF84D
:103B0000000008BDB4A70008D4A70008F2A7000869
:103B1000BCA7000800FF5F0070B5054608461646C2
:103B2000002406F089FA022206F0A4FD05F074FFD5
:103B3000FF2800DDFF202A49012EA1F108020CD048
:103B4000042D2DD0072D2BD0515D01EB810202EB0E
:103B5000C101244A02EB410133E0042D0AD0072DB4
:103B600008D0515D01EB810202EB41111C4A083281
:103B700011440FE0495D1B4A01EB0111883A02EB49
:103B8000810100E0641C0A5D8242FBDBA4F11C00A1
:103B90001CE0641C0A5D8242FBDBA4F1170015E007
:103BA000495D01EB8102C2EB81110E4A683211447A
:103BB00000E0641C0A5D8242FBDBA4F11E0005E00C
:103BC000641C0A5D8242FBDBA4F1110006F08AFB53
:103BD00006F032FABDE87040034A044B06F002B822
:103BE0006EA8000892A900087B14AE47E17A843FD2
:103BF00010B5172000F01CFE002803D0064A4FF431
:103C00000001116010BD002804D003494FF40000EA
:103C1000803908607047000080E100E000207047B4
:103C200010B5344C0221204604F097FE0028F9D04C
:103C30000021204604F015FE002010BD2DE9F047BC
:103C400081468A46174698460024FFF7D1FF024670
:103C5000294810230360274D07E01AF80400A881C3
:103C60002E89F007FCD0A889641C4C45F5DB0020A8
:103C700007E018F80010A9812989C907FCD0A98993
:103C8000401CB842F5D31C48001F03601046FFF7E4
:103C9000BAFF0020BDE8F0872DE9F04781468A464B
:103CA00090461F460024FFF7A3FF02461248102348
:103CB0000360104D08E01AF80400A8812E89F0076F
:103CC000FCD0A8893870641C4C45F4DB002000242B
:103CD00006E0AC812989C907FCD0A9893954401C68
:103CE0004045F6D30448001F03601046FFF78BFFE2
:103CF0000020CFE70030014014080140C17853296B
:103D000002D102794E2A02D0532902D004E00120C8
:103D100070470179572903D00178642902D004E063
:103D2000022070474078652801D0002070470320AA
:103D300070471FB53348006801903248001D006885
:103D40000290304808300068039003980090DDE945
:103D500001232DA1344805F0D7F804B0012010BD8F
:103D600070B53149314C10224031204600F0E5FE5B
:103D70002D494AF6AA204031A1F116020B88834250
:103D80001AD008804B885B1C4B8053804FF42A402C
:103D9000888090805625CD80312008812E224A814E
:103DA00030238B81CD8108824A828B822046BDE8F8
:103DB0007040102200F0D0BE4B885B1C4B805380BB
:103DC00088889080C888D08008891081488950816F
:103DD00088899081C889D081088A1082488A508257
:103DE000888A90822046BDE870400F4910224031F9
:103DF00000F0B2BE002070470B49102240310B4842
:103E000000F0AABEE8F7FF1F41542B534E3D25306A
:103E100038782D253038782D253038782D312D31D2
:103E20002E300D0A00000000C00A002000A4000887
:103E300000F0200200F0100302EB830200F04000CB
:103E400002EB9000FD4A00095060022902D080B2C6
:103E5000FDF7F7B8042802DD48F20400F8E780B265
:103E600040F40040F4E7014600208A0700D5012015
:103E7000490700D5801C7047FEB50646202000F09B
:103E80002FFDFDF787FFEE4DAF17A84216D0ED4C82
:103E90001021204604F048FA012003F008FA10210E
:103EA000204604F03FFA072003F001FAFDF772FF05
:103EB000A84201D03846FEBDFFF713FD00F08BFD90
:103EC000FDF70BFF002801DA3846FEBD082000F0A0
:103ED00007FDFDF75FFF0446AC4201D03846FEBD4A
:103EE000D64D300702D40120E86001E00220E860EE
:103EF000297B3046FFF79CFFE868022804D16868F8
:103F0000042801DD0020E860E868FDF77AF9304612
:103F1000FFF7A9FFA860C94A00EB8001183212F828
:103F200011008DF80000686102EB4100C2788DF845
:103F3000012042788DF8022042798DF8052082799F
:103F40008DF806200289ADF8082082788DF80320CC
:103F500000798DF80400B948403000EB4101684613
:103F6000FDF71DFF2046FEBD0120FEF740B910B54C
:103F7000B54CFFF7BFF92021204604F0BFF9012816
:103F8000F7D010BD4FF48050FDF77EF8022003F00B
:103F90008EF9FBE700F0AA01490800F0550041EA5C
:103FA000400000F0CC01890800F0330041EA8000B5
:103FB000010900F00F0041EA00107047AA21B1EB9F
:103FC000102F01D000207047C0B270472DE9F04F8C
:103FD00091B000244FF4E13003F084F900F022FBAB
:103FE00000F0A6FC00F064FD00F09CFB4FF47A703A
:103FF00003F05DF9FFF7B4FEC82003F058F901F0B3
:1040000093FC944D8223914A9149284603F04CFA3F
:104010008F4801228021001F04F0B6FD284603F0DE
:1040200068FA8D488088FFF7C9FF06461FE005251E
:104030000BE0E80703D0042000F025FB02E0042099
:1040400000F03DFBC82003F032F96D1E681CF0D172
:104050007E481E21823001F072FC7C488230FFF7DE
:104060004DFE02281BD026217CA001F07AFC002EF8
:10407000DDD006F07F00FFF78DFFDFF8C0B18BF8D1
:104080000000172000F037FA042000F0FCFA9BF83B
:104090000000FFF7F1FE401C16D0322527E0C820B3
:1040A00003F005F96948823003F081F97549888089
:1040B000FFF7A2FE74480168744A01F4E0611143FD
:1040C0000160BFF34F8FFEE7042000F0F8FA11B053
:1040D0000020BDE8F08FE80703D0042000F0D3FAF9
:1040E00002E0042000F0EBFA322003F0E0F86D1E4D
:1040F000681CF0D19BF80000C0F3C20107293BD037
:10410000042000F0C0FA172000F0EAF9092141F676
:104110001F4000F008FB4FF000085D4D95F8F36577
:1041200000F01EFBD5F8F415471ADFF8689101215D
:10413000484601F075FB00287ED00121484601F079
:1041400076FB554B1888401C80B21880534A118862
:10415000491C89B211804FF47A7C604504D1A3F8E0
:1041600000804F4B01201870614501D1A2F80080FA
:104170001088032802D004E0FFF704FF494A012118
:104180001170052802D1484A01211170012802D876
:1041900046490120087042480178D9B1E98C48F2BB
:1041A0000102914216D180F80080172000F0A3F997
:1041B0000320A9462870FFF76BF8FDF773FD022076
:1041C00089F8010099F8FD00401C89F8FD001720CE
:1041D00000F086F933480178D9B1E98CA1F50042A5
:1041E000023A16D180F80080172000F084F90320ED
:1041F000A9462870FFF74CF8FDF754FD022089F816
:10420000010099F8FD00401C89F8FD00172000F01E
:1042100067F92548017879B1E98CA1F50042033AA4
:1042200053D180F80080172000F065F90320A946DB
:104230002870FFF72DF83BE047E000001000002059
:104240003001CADE00080140000C0140A20B002032
:104250000438014044000240EA0A0020B5C8B4FD19
:10426000BDD3CAD54154C3FCC1EEBDF8D0D0D0E90E
:10427000C4E2B2A6C2EBBFAAB9D8C9E8D6C30D0A38
:1042800000000000000B00200CED00E00400FA0527
:10429000680200200004004002000020040000200A
:1042A0000600002007000020080000200000002079
:1042B000FDF7F8FC022089F8010099F8FD00401C88
:1042C00089F8FD00172000F00BF9FDF712FFFCF74D
:1042D0009CFFCBF80C00012E1BD1B5F80401B842AD
:1042E00017DA01210F20FEF71EF801211920FEF731
:1042F0001AF801210A20FEF716F885F8E080DBF8AD
:104300000C00012872D0FEF7C3FF0620687085F804
:10431000F385FCF77EFF81465FEA090052D0FCF787
:1043200080FF00F00F07FCF781FF00F00F0AFCF799
:1043300082FF0446FDF7E1FD86B2DBF80C000128A0
:1043400058D05046FDF7CFFD0546FDF780FF0F9092
:10435000FDF780FF0E90FDF780FF1090B9F1010F7F
:104360004CD00020FDF7C4FD05460320FDF7D9FD24
:1043700081460220FDF7D5FD0D900120FDF7D1FD0E
:1043800082460020FDF7CDFDCDE90547CDE9036567
:1043900003460D98CDF80890CDE900A05BA16848D0
:1043A000109A04F0B1FD04466549412201F18200F2
:1043B00004F014FF6249412201F1C30004F00EFF32
:1043C000FCF70BFF002C7FF7A8AEDBF810000028ED
:1043D0007ED000F0C5F9DBF8101001F57A71884243
:1043E000FFF49BAECBF8108097E6FFE75548FDF74A
:1043F000C8FD8CE7FDF773FD0546A6E70420FDF731
:1044000090FD81460320FDF78CFD0D900220FDF705
:1044100088FD0C900120FDF784FD0B900020FDF736
:1044200080FD0346DBF80C0001284DD06120CDE96A
:1044300008A7CDE906400D98CDE9039605950290B1
:10444000DDE90B01CDE900013FA13D48109A04F0E0
:104450005BFD044621463A4801F083FA9BF80100CF
:104460000128ADD10320FDF76CFD0D900220FDF772
:1044700068FD81460120FDF764FD0C900020FDF7EA
:1044800060FD0346DBF80C0001281FD061200E9967
:10449000CDE90610CDE908A70F990D98CDE9036580
:1044A000029005910C99CDE90019254835A12044C9
:1044B000109A04F029FD04442149822201F182006E
:1044C00004F08CFE7CE703E07420B0E77420DEE7A4
:1044D00021461B4801F045FA394803F00AF81CE66A
:1044E00000F01F02012191404009800000F1E0200E
:1044F000C0F80011704700F01F02012191404009EF
:10450000800000F1E020C0F8801170476D61202527
:104510003032782025303878202530387820253002
:1045200038782025303878202530347820253032EE
:104530007820253038782061303A25640D0A000053
:10454000200B0020680200206D6320253032782087
:1045500025303878202530387820253038782025C7
:1045600030387820253038782025303478202530B0
:104570003278202530387820256325643A25640D6B
:104580000A0000006D7220253032782025303878FE
:10459000202530387820253038782025303878208C
:1045A0002530347820253032782025303478253075
:1045B000347820256325643A25640D0A0000000044
:1045C000440002407047FEE7FEE7FEE7FEE7704763
:1045D0007047704712480168491C0160704710B568
:1045E000AFF30080BDE810404FF4005003F067BB0C
:1045F00010B5FFF7B9FCBDE81040012003F05FBB28
:1046000010B5FFF7B4FCBDE81040082003F057BB1D
:1046100010B5FFF7ACFCBDE81040202003F04FBB05
:1046200078000020F8B501210D2004F012F80121D6
:10463000314803F099FE4FF47070ADF8000010247B
:104640008DF8034003258DF802502C4E6946304604
:1046500003F0F9FDADF800408DF803408DF80250ED
:104660006946304603F0EFFD1021304603F05AFE54
:104670002001ADF8000004208DF8030069462048B1
:1046800003F0E1FDF8BD01461C48052916D2DFE81C
:1046900001F00306090D1100402103F045BE802101
:1046A00003F042BE4FF4807103F03EBE4FF4007140
:1046B00003F03ABE4FF4707103F036BE7047014606
:1046C0000E48052916D2DFE801F00306090D110096
:1046D000402103F027BE802103F024BE4FF48071F7
:1046E00003F020BE4FF4007103F01CBE4FF4707154
:1046F00003F018BE7047000000023000000C0140BB
:1047000000080140F848016841F080710160F748F5
:1047100000214160016841F0010101607047F348E8
:1047200040687047EEE73EB504460D460121022081
:1047300003F09AFFADF80440ADF800500020ADF84A
:104740000600ADF80200EA4C6946204600F054FB32
:104750000121204600F021FE3EBD4FF0FF307047A2
:10476000E4480068704770B5E3484FF47A71006818
:10477000B0FBF1F14FF0FF35B1F1807F01D30121A2
:104780000EE021F07F414FF0E024491E61610F21CE
:10479000284600F098F90020A06107202061002140
:1047A00001B1FEE70521284600F08DF9002070BD1B
:1047B0001CB52020009000208DF8040008218DF801
:1047C00005108DF80600684603F01AFA00201CBD9B
:1047D0007FB52024ADF80C4028208DF80F0003A9E8
:1047E000C64803F030FD0521012003F0E8FD0194E7
:1047F00000258DF8085008208DF8090001248DF857
:104800000A4001A803F0FCF94FF4C06003F09AF8E5
:1048100017208DF800000F208DF801008DF8025050
:104820008DF80340684603F092F804B0002070BD94
:1048300002460020B24909681140002900D0012039
:10484000704710B586B003F0E1FD4FF48034204688
:1048500003F0F5FD03F021FE28B3102003F048FA21
:10486000022003F035FA002003F051FE002003F08F
:104870005CFEA01103F052FE601003F06DFE4FF4D9
:10488000E011204603F02CFE012003F031FE392018
:1048900003F0EEFD0028FAD0022003F02CFE03F016
:1048A00031FE0828FBD101A803F07BFE012108039B
:1048B00003F0CFFE0121880303F0D6FE0121084654
:1048C00003F0D2FE01210D2003F0C3FE06B000204C
:1048D00010BD8C4A118821F03801014311807047C6
:1048E00030B585B00446874D284603F009FF002106
:1048F000ADF800104FF48270ADF80200ADF804106E
:10490000ADF80610ADF808106815ADF80A00ADF85E
:104910000C40ADF80E100720ADF81000694628468F
:1049200003F01AFF0121284603F09BFF05B030BDBC
:10493000F0B587B0734E304603F0E2FE0021ADF8CB
:1049400008104FF48270ADF80A00ADF80C10ADF805
:104950000E10ADF810107015ADF812001024ADF85F
:104960001440ADF816100720ADF8180002A9304623
:1049700003F0F2FEA020ADF8040018208DF8070027
:1049800003258DF80650604F01A9384603F05BFC03
:104990004020ADF8040048208DF8070001A93846F2
:1049A00003F051FCADF804408DF807408DF8065037
:1049B00001A9384603F047FC0021304603F093FF7D
:1049C0000121304603F04DFF1021384603F0AAFCC8
:1049D00007B00020F0BDF8B50124ADF8004010206C
:1049E0008DF8030003258DF80250474E6946304686
:1049F00003F029FC0121304603F096FCADF800409D
:104A000000218DF803108DF802506946304603F0FE
:104A10001AFC022002F04BFCF8BD7FB500250124F2
:104A2000394A0826002828D0ADF80C4004208DF81B
:104A30000F0003A9104603F006FC0021084603F00E
:104A4000BEFC01948DF808508DF809608DF80A407D
:104A500001A803F0D5F84FF4407002F073FF062070
:104A60008DF800000F208DF801008DF802508DF8B0
:104A70000340684602F06BFF7FBDADF80C408DF837
:104A80000F5003208DF80E0003A9104603F0DBFB46
:104A900001948DF808508DF809608DF80A5001A82E
:104AA00003F0AEF87FBD19480068C0F3C0507047EE
:104AB00010B504F0C1F9FFF7C4FEFFF754FEFFF78D
:104AC00087FE002010BD0907090E002806DA00F055
:104AD0000F0000F1E02080F8141D704700F1E02085
:104AE00080F8001470470000FCED00E0001000E0CA
:104AF0000004004078000020D4010020000C014098
:104B000000040140003001400008014000E100E0E5
:104B1000008870472DE9F04105460E4617460024EF
:104B200007E036F81410284603F0F2F9AD1C641CB7
:104B3000A4B2BC42F5D3BDE8F08110B50446002311
:104B400007E02046FFF7E4FF21F81300A41C5B1CDC
:104B50009BB29342F5D310BD2DE9F05F82460F461C
:104B60001546AAF10064B4F5803F52D203F0C9F8AB
:104B70004FEA9428C4F34806C6F50074A54200D84D
:104B80002C46DFF8A0B037E032183BF812208A42FA
:104B900003D1401C80B2A042F6D3A04214D24846B2
:104BA00003F0E8F8002006E0821937F810102BF81F
:104BB0001210401C80B2A042F6D348464FF4007257
:104BC0001849FFF7A7FF04E0224639465046FFF791
:104BD000A1FFA54203D1BDE8F05F03F09EB808F144
:104BE0000108002607EB4407A244281B85B24FF4B6
:104BF0000074A54200D82C464FF0006000EB8829D5
:104C0000821408494846FFF798FF00204FF6FF71CD
:104C1000C1E7BDE8F09F13B5012201A9FFF79CFF92
:104C20001CBD0000420C002010B5FE4988420AD18C
:104C3000C4140121204603F022FD2046BDE81040A7
:104C4000002103F01CBDB0F1804F0CD0F649884222
:104C500013D10121022003F01DFD0021BDE8104009
:104C6000022003F017BD0121084603F013FD0021C7
:104C7000BDE81040012003F00DBDEC49884209D188
:104C80000121042003F006FD0021BDE810400420AE
:104C900003F000BDE649884209D10121082003F054
:104CA000F9FC0021BDE81040082003F0F3BCE14905
:104CB000884209D10121102003F0ECFC0021BDE85D
:104CC0001040102003F0E6BCDB49884209D10121E5
:104CD000202003F0DFFC0021BDE81040202003F07D
:104CE000D9BCD64988420AD144140121204603F098
:104CF000C6FC2046BDE81040002103F0C0BCD049EE
:104D000088420AD10121CC04204603F0B8FC204699
:104D1000BDE81040002103F0B2BCCA4988420AD164
:104D200001210C05204603F0AAFC2046BDE81040F6
:104D3000002103F0A4BCC44988420AD101214C05DA
:104D4000204603F09CFC2046BDE81040002103F003
:104D500096BCBE49884209D10121402003F09AFC4B
:104D60000021BDE81040402003F094BCB8498842BF
:104D700009D10121802003F08DFC0021BDE8104005
:104D8000802003F087BCB34988420AD184150121F1
:104D9000204603F07FFC2046BDE81040002103F0D0
:104DA00079BCAD4988420AD101210C04204603F0A8
:104DB00066FC2046BDE81040002103F060BCA74916
:104DC00088420AD101214C04204603F058FC2046B9
:104DD000BDE81040002103F052BCA14988420AD12D
:104DE00001218C04204603F04AFC2046BDE8104017
:104DF000002103F044BC10BD30B50288894C8F4DB2
:104E0000A0420DD0A8420BD0B0F1804F08D0864B05
:104E1000984205D0854B984202D0854B984203D1E9
:104E200022F070034A881A43824B984206D0824B84
:104E3000984203D022F44073CA881A4302808A88B9
:104E400082850A880285A0420AD0A84208D0824AF8
:104E5000904205D0814A904202D0814A904201D1CD
:104E6000097A01860121818230BD30B5028C22F0A1
:104E700001020284028C8388048B24F0700424F0E5
:104E800003050C882C4322F002020D8915434A8841
:104E90002A43644DA8420BD0684DA84208D06E4DFD
:104EA000A84205D06D4DA84202D06D4DA8420FD149
:104EB00022F008054A892A4322F004058A882A43F9
:104EC00023F4807323F400738D891D43CB892B4316
:104ED00083800483C9888186028430BD70B5028CCA
:104EE00022F010020284028C8388048B24F4E044B4
:104EF00024F440760D884FF6FF7404EA0525354307
:104F000022F020020E8904EA061616434A8804EAB3
:104F100002123243434EB04202D0484EB04217D143
:104F200022F080024E8904EA0616164326F0400657
:104F30008A8804EA0212324323F4806323F4006374
:104F40008E8904EA86061E43CB8904EA8303334331
:104F500083800583C9880187028470BD70B5028C87
:104F600022F480720284028C8388848B24F0700483
:104F700024F003040D88254322F400720E894FF6B5
:104F8000FF7404EA062616434A8804EA02223243E2
:104F9000244EB04202D0294EB04217D122F400660E
:104FA0004A8904EA0222324322F480668A8804EAAB
:104FB0000222324323F4805323F400538E8904EAFF
:104FC00006161E43CB8904EA03133343838085838B
:104FD000C9888187028470BD70B5028C22F480522A
:104FE0000284058C8288838B23F4E04323F440768B
:104FF0000C884FF6FF7303EA0424344325F400556C
:105000000E8903EA06362E434D8803EA05353543FB
:10501000044EB04202D0094EB04226D122F480465E
:105020008A891FE0002C0140000400400008004075
:10503000000C00400010004000140040003401400B
:10504000004C014000500140005401400018004055
:10505000001C00400020004000400140004401408E
:105060000048014003EA8212324382808483C98867
:10507000A0F84010058470BD828B22F440628283C8
:10508000828B4FF6FF7303EA01210A438283704744
:10509000F0B5048C24F480540484868B048C4FF681
:1050A000FF7505EA013726F4734605EA022232430A
:1050B00005EA03331343F74A90420ED0F64A904272
:1050C0000BD0B0F1804F08D0F44A904205D0F44A9A
:1050D000904202D0F34A904205D124F40051394362
:1050E00041F4805104E024F402420A4342F4805126
:1050F00083830184F0BD828B22F00C028283828B39
:105100000A4382837047F0B5048C24F480740484CD
:10511000858B048C4FF6FF7707EA012625F0F3050F
:1051200007EA031313432B43DA4A90420ED0DA4ABC
:1051300090420BD0B0F1804F08D0D84A904205D0B1
:10514000D74A904202D0D74A904205D124F4007148
:10515000314341F4807104E024F420620A4342F4B4
:10516000807183830184F0BD028B22F4406202834C
:10517000028B4FF6FF7303EA01210A430283704753
:10518000F0B5048C24F010040484068B048C4FF6D4
:10519000FF7505EA011726F4734605EA0333334326
:1051A00005EA02221A43BB4B98420ED0BA4B9842F2
:1051B0000BD0B0F1804F08D0B84B984205D0B84B17
:1051C000984202D0B74B984205D124F020013943D0
:1051D00041F0100104E024F0A0030B4343F0100160
:1051E00002830184F0BD028B22F00C020283028B49
:1051F0000A430283704770B5048C24F001040484D0
:10520000058B048C25F0F3054FF6FF7606EA0313B1
:1052100013432B439F4A90420ED09F4A90420BD09B
:10522000B0F1804F08D09D4A904205D09C4A9042F0
:1052300002D09C4A904205D124F002020A4342F077
:10524000010104E024F00A020A4342F00101038351
:10525000018470BD70B505460C468E48854209D064
:105260008D48854206D0B5F1804F03D08B488542EA
:1052700000D08B4820886188A288238958B10428EF
:1052800011D0082817D02846FFF702FFE1882846EA
:10529000BDE87040F0E62846FFF7ADFFE1882846FC
:1052A000BDE870409FE72846FFF76AFFE18828467F
:1052B000BDE8704058E72846FFF725FFE1882846FB
:1052C000BDE8704017E72DE9F04107460C46002580
:1052D00001266188002900D10225A288012A00D177
:1052E00002262088238988B13846FFF749FFE188E4
:1052F0003846FFF739FF2389324629463846FFF7FB
:105300007AFFE1883846BDE8F0416CE73846FFF7A0
:1053100072FFE1883846FFF766FF23893246294647
:105320003846FFF72DFFE1883846BDE8F0411BE71E
:1053300010B50A884B88CC881A438B8823431A43BC
:105340000B891A434B8989891A430A43A0F84420E0
:1053500010BD4FF6FF71818000210180C180418026
:10536000017270470021018041808180C1800181EC
:1053700041818181C18170470021018041800122EA
:105380008280C1800181704700210180418081803D
:10539000C1800181418181817047002904D0018849
:1053A00041F0010101807047018821F00101018075
:1053B0007047002905D030F8441F41F400410180B6
:1053C000704730F8441FC1F30E0101807047002A76
:1053D00003D082890A438281704782898A4382810D
:1053E0007047818270471143A0F848107047002A27
:1053F00003D082890A438281704782898A438281ED
:105400007047018921F0070101817047028922F06C
:1054100070020A430281704700B503461846FFF741
:10542000F5FF188940F00700188100BD70B50D46E2
:1054300004461146602D0CD001222046FFF7DBFE0A
:1054400029462046FFF7E2FF208940F0070020812F
:1054500070BD01222046FFF793FEF1E730B50489C5
:10546000E4B24FF6FF7505EA032313430B432343CE
:10547000038130BD10B504462046FFF7EFFF2089B9
:1054800020F0070040F0070020F0700040F07000AE
:10549000208110BD002C0140003401400004004078
:1054A00000080040000C004010B504462046FFF7FD
:1054B000D5FF208940F480402081EAE7018582827F
:1054C0007047028822F070020A430280704770B56C
:1054D0000589048B068C25F007050D434FF6FC412A
:1054E0000C4040F201110C4326F022064FF6FF71EA
:1054F00001EA03111143314305810483018470BD26
:10550000028B22F070020A4302837047028B22F45E
:10551000E0424FF6FF7303EA012111430183704714
:10552000828B22F070020A4382837047828B22F4BE
:10553000E0424FF6FF7303EA012111438183704774
:10554000002904D0018841F0800101807047018862
:1055500021F0800101807047002904D0818841F04A
:10556000040181807047818821F0040181807047A7
:10557000002904D0818841F008018180704781882A
:1055800021F0080181807047002904D0818841F012
:10559000010181807047818821F00101818070477D
:1055A000028B22F008020A4302837047028B22F426
:1055B00000624FF6FF7303EA012111430183704734
:1055C000828B22F008020A4382837047828B22F486
:1055D00000624FF6FF7303EA012111438183704794
:1055E000028B22F004020A4302837047028B22F4EA
:1055F00080624FF6FF7303EA012111430183704774
:10560000828B22F004020A4382837047828B22F449
:1056100080624FF6FF7303EA0121114381837047D3
:10562000028B22F080020A4302837047028BC2F38E
:105630000E024FF6FF7303EA012111430183704705
:10564000828B22F080020A4382837047828BC2F3EE
:105650000E024FF6FF7303EA012111438183704765
:10566000028C22F002020A4302847047028C22F06C
:1056700008020A4302847047028C22F020024FF68F
:10568000FF7303EA0111114301847047028C22F079
:1056900080024FF6FF7303EA011111430184704742
:1056A000028C22F400724FF6FF7303EA01211143CA
:1056B00001847047028C22F400624FF6FF7303EA04
:1056C0000121114301847047028C22F400524FF6ED
:1056D000FF7303EA013111430184704710B50123C0
:1056E0008B40048C9C430484038C8A4013430384C2
:1056F000CFE610B504238B40048C9C430484038CB8
:105700008A4013430384C4E630B500F11803012432
:105710008C40058CA5430584002911D008290FD0A1
:10572000091FC1F34E001844016821F4E0410160F3
:1057300001684FF6FF7303EA02221143016030BD96
:1057400003EB5100016821F0700101600168114311
:10575000016030BD002904D0018841F002010180C0
:105760007047018821F0020101807047002904D0B0
:10577000018841F0040101807047018821F0040193
:1057800001807047002904D0818841F08001818028
:105790007047818821F0800181807047028822F063
:1057A0000802028002880A4302807047828822F041
:1057B0007002828082880A4382807047028922F0C8
:1057C0000702028102890A4302817047028922F09E
:1057D0008002028102890A430281704781847047F6
:1057E0008185704781867047018770478187704740
:1057F000A0F840107047028822F4407202800288AC
:105800000A4302807047808E7047008F7047808FF8
:105810007047B0F840007047808C7047008D70472B
:1058200002460020128A0A4200D001207047C94374
:105830000182704702460020138A0B4092890A4079
:10584000002B02D0002A00D001207047C9430182FA
:105850007047000038B55F494FF4A0642246A1F1BB
:10586000200001F05DFE5C492246A1F5A26001F036
:1058700057FE0121042002F0ECFE0825ADF800508F
:1058800003208DF8020010208DF80300694653486C
:1058900002F0D9FCEC03204602F011FA50490C60EA
:1058A0004D7101208871084602F0AAF938BD10B583
:1058B000002002F04DFE0121BDE81040C80502F0B5
:1058C000D3BE48490320086070474748817A45485D
:1058D000002902D005210160704701210160704755
:1058E00038B514208DF8000002208DF80100002446
:1058F0008DF8024001208DF80300684602F027F879
:105900002A208DF800008DF80140684602F01FF84B
:1059100038BD324A002803D00821104602F002BDEB
:105920000821104602F000BD10B5FFF793FFFFF706
:10593000BEFFFFF7D5FFBDE8104000F077BF0A4675
:1059400001462448203801F009BE0A460146214894
:10595000203801F0EBBD0A4601461E48103801F020
:10596000FDBD0A4601461B48103801F0DFBDF0B509
:1059700000230A2530263727002412E0B5EB107FDC
:1059800004D906EB107C01F813C003E007EB107C90
:1059900001F813C0000101EB430C8CF801405B1CC3
:1059A000DBB29342EAD3F0BD10B510480168001D88
:1059B0000468001D0068084400280AD008220C4929
:1059C000FFF7D5FF0A4920460422BDE810401031F8
:1059D000CDE710BD641000206415002000080140D0
:1059E0007C0000208C010020041B0020E8F7FF1F32
:1059F0008600002070B5284D2878012813D1402159
:105A00002648FFF7A8FF84B200266CB12246C021C9
:105A1000224801F031F82146012001F022FA01204C
:105A200001F0EEF86E6070BD2E7070BD10B51B49B0
:105A30000320403101F0DFFB81B218484030FFF70E
:105A400084FFBDE81040032001F0ECB870B51448A5
:105A5000006805281FD1104D287800281BD16868E0
:105A6000411C6960052816D10020686040210B4860
:105A7000FFF771FF84B2002C0DD02246C0210748E9
:105A800000F0FAFF2146012001F0EBF9012001F0BE
:105A9000B7F80120287070BDAC000020641A002007
:105AA0008C0100202DE9F04188B00024504D286879
:105AB000504E70807088DFF84081B8F800100840C0
:105AC000800507D54FF6FF5028603078401C3070B5
:105AD000FFF7BCFF7088B8F800100840000401D53B
