:020000040800F2
:1000000078220020D18C00084545000847450008AB
:10001000494500084B4500084D4500080000000018
:100020000000000000000000000000004F45000834
:1000300051450008000000005345000855450008E0
:10004000EB8C0008EB8C0008EB8C0008EB8C0008B4
:10005000EB8C0008EB8C000871450008EB8C000865
:10006000EB8C000881450008EB8C0008EB8C000845
:10007000EB8C0008EB8C0008EB8C0008EB8C000884
:10008000EB8C0008EB8C0008EB8C0008EB8C000874
:10009000895B0008EB8C0008EB8C00089145000898
:1000A000EB8C0008EB8C0008EB8C0008EB8C000854
:1000B000EB8C0008EB8C0008EB8C0008EB8C000844
:1000C000EB8C0008EB8C0008EB8C0008EB8C000834
:1000D000EB8C000875730008EB8C0008EB8C0008B3
:1000E0005F450008EB8C00088D5B000800F002F80B
:1000F00000F065F80AA090E8000C82448344AAF15D
:100100000107DA4501D100F05AF8AFF2090EBAE85A
:100110000F0013F0010F18BFFB1A43F0010318473B
:1001200020AA000040AA00000A444FF0000C10F87A
:10013000013B13F0070408BF10F8014B1D1108BF65
:1001400010F8015B641E05D010F8016B641E01F805
:10015000016BF9D113F0080F1EBF10F8014BAD1C55
:100160000C1B09D16D1E58BF01F801CBFAD505E073
:1001700014F8016B01F8016B6D1EF9D59142D6D3CD
:10018000704700000023002400250026103A28BFF5
:1001900078C1FBD8520728BF30C148BF0B607047F9
:1001A000642908F0D786782908F01087632909F0B8
:1001B000F880002070471FB51FBD10B510BD09F0B5
:1001C000FCF81146FFF7F7FF03F0ACFE09F01AF94F
:1001D00003B4FFF7F2FF03BC07F03AF8412100F83F
:1001E000601F88214170B0F86C10C170090A01715C
:1001F00000218170704770B504460D460026B4F8A2
:10020000C800002102F0DAFB012D02D1A06D03F03D
:10021000F5F994F8E0002843C0B203F0F4F930B1E6
:100220000126D4F87001401CC4F8700106E004F007
:1002300057FAC4F8F405012084F8F305304670BD80
:100240002DE9F04705468A4691461E464FF00008C4
:1002500000200024FA4F14E055F82410B94202D0CF
:10026000204600F03DFF012810D030780121A14048
:1002700088433070204600F098FF45F82470002035
:10028000641C5445E8DB4046BDE8F087C846F4E707
:100290002DE9F04FA5B004460F46607804F1BF0188
:1002A000249133312391463122910225002604F214
:1002B000F95104F1600B4FF0FF0A4FF0010804F10F
:1002C00080092191092833D2DFE800F005ACCFFC8A
:1002D00032FBFAF991002078002879D0012802D069
:1002E000022825D14AE0D748007810B3E08CA4F862
:1002F000BF00249802F0FEFBB4F8CC0002F0F0FB43
:10030000E08C00F0030184F8BE1002F0EEFB182030
:1003100002F0CBFB002002F01AFF062060700020E4
:1003200003F0EAF9002003F016FA2046FFF756FF23
:1003300004E2182002F0B9FBB4F8CC0002F0D0FBC4
:10034000E08CA4F8BF00249802F0D4FBE08CC4F841
:10035000840102F0CAFBA57084F8018084F8E28071
:1003600084F8F460C4F8106102F074F92046FFF7D5
:1003700035FF04F0B5F9C4F8E800DFE1E08CA4F83B
:10038000BF00249802F0B6FBB4F8CC0002F0A8FB42
:10039000E08C00F0030184F8BE1002F0A6FBE08CB4
:1003A000B0F5004F01D184F88C81002002F07DFB74
:1003B000002002F0CCFE06206070002003F09CF9C3
:1003C000002003F0C8F92046FFF708FFB6E1FFE779
:1003D000002002F06AFB002002F0B9FE002003F0CA
:1003E0008BF9002003F0B7F906206070A6E10A201F
:1003F00001F0E2FD0078042802D0C4F804809DE1F9
:10040000666084F8E260A0786070A67004F068F915
:10041000C4F8E800032006F00AFF01F0ADFE01F089
:1004200093FE8BE1A07802281CD194F8E210C9B1A8
:10043000D534E07F401CE07744F8D15C082004F814
:10044000D40CDDE9220301220421FFF7F9FEC4F8F0
:10045000A700607FA077667704F042F9C4F8B30084
:10046000D53C6BE16070A67068E120780F27032807
:1004700068D0012807D094F8FD0084F86A0005D1FF
:100480004FF0810004E094F8F400F6E74FF07100BB
:1004900004F14D0420774FF0AA00A077E077A4F88C
:1004A0007B7094F87D00607500F1010084F87D0098
:1004B00094F87200A07694F87300E07603E096E179
:1004C00088E110E1C6E084F818A084F819A04FF084
:1004D00000025946384602F061FAC82002F037FEA1
:1004E00014F84D0D4FF6FF7101281ED094F8FD2031
:1004F0002198165484F8E150206D01EA400003F081
:10050000FBF884F8F26084F8F16084F8E050B4F805
:10051000C800002102F052FA022003F074F805200E
:100520006070E570C4F8048008E194F8F420219824
:100530001654042084F8E100206D01EA800003F0E5
:10054000DBF8DEE7E18C48F20100814248D104F09B
:10055000A6F802463CA115A808F096FC014615A88D
:1005600005F0BFF92078012807D094F8FD0084F841
:100570006A0005D14FF0810004E094F8F400F6E73A
:100580004FF0710004F14D0420772E484088A07789
:100590004FEA1020E0773846A4F87B7094F8721088
:1005A000A17694F87310E17684F818A084F819A065
:1005B0004FF00002594602F0F1F984F89360B4F864
:1005C0007B00002102F0FAF9002003F01CF805205E
:1005D00004F84C0C04F84A5C44F8498C4D3CADE0FE
:1005E0004D3494F8B00060777120207715488088EA
:1005F000A077000AE0773846A4F87B7094F8721070
:10060000A17694F87310E17684F818A084F819A004
:100610000022594602F0C2F984F89360B4F87B00D6
:10062000002102F0CBF9002002F0EDFF052004F8D4
:100630004C0C04F84A5C44F8498C4D3CFDE3000046
:10064000FFFFCDAB0000002054313D2025640D0A92
:10065000000000002078012807D094F8FD0084F8FD
:100660006A0005D194F8F20004E094F8F400F6E78B
:1006700094F8F10084F8890002D14FF0820001E083
:100680004FF0730004F1C20404F8590C4FF02C032E
:10069000E380207A04F8600C00F1010020724FF032
:1006A00000025946184602F079F9A677C23C0121AA
:1006B0002046FFF7A0FD50B12078012803D0204646
:1006C00001F0B1FBB9E384F80180A570B5E3052022
:1006D00060700320E0702078012801D184F8E28066
:1006E000C4F80480A9E30B2001F066FC01460878F9
:1006F00001280AD018B1042804D0C4F80480C4F832
:1007000004809AE384F8F080F9E76660E278032ACF
:100710000AD094F8F000012811D0D1E90201C4E90F
:100720003401022A13D040E02078012803D020466B
:1007300001F079FB4EE084F80180A5707DE320464E
:1007400001F081FB84F8F06084F8E06075E32378C1
:10075000012B2DD0D4E90E37C0187941430A5B0232
:10076000C8B2CDE91230DDE91201000A40EA0160A9
:10077000A065DDE91273A08BC01946EB0301CDE93A
:100780001201DDE91201C9B2CDE912011298C4F8D3
:1007900084009DF84C0084F88800D9F85000C4F813
:1007A0006B0099F8540084F86F000B2A0AD00BE014
:1007B000D4E90C73C0195941430A5B02C8B2CDE9B0
:1007C0001230D0E70420E070207803281BD00620E8
:1007D0006070002794F8E000D0B184F8E0602078E1
:1007E00008B1C4F8048007206070002F89D01FB1C1
:1007F000022F11D0042F7AD00FB1C4F804806068A2
:10080000002875D019E30620607000272570E1E705
:10081000002002F04BFFE2E70F2001F0CDFB814604
:1008200000201390149011901290834684F8E300F6
:1008300099F81D0000F0CC00882834D08C2823D0F3
:10084000C82812D0CC283AD1D9F829001390D9F869
:100850002D001490D9F821001190D9F8250012909C
:1008600099F831B009F1310729E0D9F82300139044
:10087000D9F827001490B9F82100ADF8440099F890
:100880002BB009F12B071AE0B9F82900ADF84C009C
:10089000D9F821001190D9F82500129099F82BB0C1
:1008A00009F12B070BE0B9F82300ADF84C00B9F8BB
:1008B0002100ADF8440099F825B009F1250794F816
:1008C000E20008B92078A0B19DF84CA00AF0030618
:1008D0001096BBF1730F7DD011DCBBF1700F05D00A
:1008E000BBF1710F1ED0BBF1720F0ED1AFE090E2E1
:1008F000A1E206206070002002F029FC9DE2BBF11D
:10090000810F0FD0BBF1820FE5D006206070002070
:1009100002F01DFC99F81C008006EFD5102001F0B4
:100920004BFB8AE2D9E90201C4E93601BBF1810F30
:1009300006D0B878F97800EB012086B23EB124E009
:100940000AF007012144787881F8F50030E0FE4A8A
:100950009088D0B19DF84D004AEA002148F201008C
:10096000814212D1002041F66411401C00B288423D
:10097000FBDBA2F80480DFF8D4A30021504604F08A
:10098000EDFE0121504604F0C8FC052E0BD103F00A
:1009900086FE0246AFF2503115A808F075FA0146FE
:1009A00015A804F09EFF10987978204480F8FE1076
:1009B00099F802000C2836D00E2839D00620607035
:1009C000E148007810B12078012834D0207801283F
:1009D000A0D100E0E1E001F0D3F8182002F065F8C2
:1009E000B4F8CC0002F07CF8E08CA4F8BF002498A6
:1009F00002F080F8E08CC4F8840102F076F8A5706B
:100A000084F8018084F8E280002084F8F400C4F8BF
:100A1000100101F01FFE2046FFF7E0FB03F060FE2F
:100A2000C4F8E80076E7052060700920E070C7E7A9
:100A300007206070C4E706206070002002F05CFEB2
:100A4000002002F088FE2046FFF7C8FB62E7F87935
:100A5000401CC0B20F909DF84D004FF400424AEA8E
:100A6000002090420BD12078012808D17878B978FD
:100A700000EB012000B2C4F810010020E06299F8F8
:100A800002000C2805D00E2823D02078012805D09C
:100A900008E0052060700A20E0701AE094F8F21077
:100AA000C9070ED1E18C48F20103994203D194F8B1
:100AB000F1305B0705D4914206D194F8F110890713
:100AC00002D50320607004E0012820D0204601F008
:100AD000AAF9BBF1700F20D094F88C010028A1D0A6
:100AE00094F8FD000F9988429CD184F8FE0021996A
:100AF000405C032831D09DF84400D7F803105044DF
:100B000000F0030004EB8000C0F8581102E784F8FD
:100B10000180A57084F8E280DBE794F8F4200F9858
:100B20008B49824210D104EB8602D7F80300C2F849
:100B3000380188428AD094F8F20008FA06F840EAB0
:100B4000080084F8F200E5E604EB8600D0F83821CE
:100B50008A42DBD0C0F83811DCE69DF84400D7F8B3
:100B60000310504400F0030004EB8000C0F858115B
:100B700004F1F1030222042104F5AC70FFF760FBDD
:100B8000F134C4F88B002078A07000202070D9F8D0
:100B90001800C4F89700F13CBCE6002006900790CE
:100BA00000210491059102910391694D002697F867
:100BB000203094F8BE0000EB8001C91DCAB2BBF121
:100BC000820F0BD10AF00701214497F801C091F878
:100BD000F510614502D0062060709BE6BBF1730FF3
:100BE00010D1109997F801C0214491F8FE10614589
:100BF00015D194F88C1191B9E18CA1F5004CBCF1A0
:100C0000030C0CD0E18C48F2010C61450CD19DF82D
:100C10004DC04AEA0C2CBCF5004F03D004E006207E
:100C2000607077E684F8E480C4F880110121814087
:100C300019427CD0D9E902010023A3656034D7F8BA
:100C400002300493BB798DF814303A441368029350
:100C500012798DF80C20D7F81B200692FA7F8DF8B8
:100C60001C2002AA059D4CCA921B63EB0503DBB254
:100C700020930A9204F17002603C6CCA551B63EB2E
:100C80000606F6B21F960895801A61EB0301C9B2F9
:100C90001E910E90DDE90232DDE90601C01A61EB1A
:100CA0000201C9B21D910C901F99089808F0BAFE74
:100CB00005460E461D990C9808F0B4FE2A463346A8
:100CC00008F050FF05460E461E990E9808F0AAFE41
:100CD0000746884620990A9808F0A4FE3A464346FB
:100CE00008F040FF2A46334609F07CF8074688465C
:100CF0001F99089808F096FE05460E461E990E9814
:100D000008F090FE2A46334608F032FCCDE9000197
:100D10001D990C9808F086FE05460E4620990A9803
:100D200008F080FE2A46334608F022FC00E015E079
:100D3000DDE9002308F01CFC02460B46384641461C
:100D400008F0D2FC06E00000000000200004004093
:100D5000FFFFCDAB08F020FEC6170546BBF1820FA2
:100D600018D09DF84D000AEB0020C4F884011098BB
:100D700004EB8000C0F8485194F8F80521994156D9
:100D800000293FDB219A494249B2815494F8F80581
:100D900099B337E09DF84D000AEB0020C4F88401B8
:100DA00000F0070004EB8000C0F81851DDE92203D1
:100DB00001220421FFF744FAF234C4F88A002078B3
:100DC0006070002004F8F2099A4985EA0100304376
:100DD0000ED094F8BE10504600F0D4F994F8BE003E
:100DE0000121814084F8F21004EB8000C0F83851F2
:100DF000D9F81800C4F88801BEE7FFE7219A4FF040
:100E0000FF31815401F0B8F901F09EF906206070BD
:100E100080E5112001F0D0F880780C2802D00F284E
:100E200005D00AE0052060700B20E07005E0204648
:100E300001F009F801E0C4F80480606825B0BDE85D
:100E4000F08F2DE9F05F834600247B48032109F0F1
:100E5000FFFB0546794909F043F909F0ADF808F0C0
:100E6000E7FA08F099FD00EB4000000109F0FAF9FB
:100E70000146284609F0CCF8DFF8C48198F80F1035
:100E800079B1704D012914D06F4909F003FA294650
:100E900009F0BEF8074698F80A0010F0030F10D0CA
:100EA00031E06A4909F0F6F9694909F0B1F80746F5
:100EB000F1E7684909F0EEF9294609F0A9F8074673
:100EC000E9E780100E281ED2DFE800F01D1B0F0797
:100ED0001D180D1D1D150A1D1D124FF08B4412E02B
:100EE0004FF08A440FE05C4C0DE04FF089440AE07B
:100EF0004FF0884407E04FF0874404E04FF0864409
:100F000001E04FF085444E49544898F80950C97B98
:100F1000405C09F0A7F9012D65D0214609F078F869
:100F20004F4909F0B7F906460020394609F070F834
:100F300009F042F8DFF82C9100224B4608F0D4FB70
:100F400004460D46304609F037F88A4606462246E2
:100F50002B4608F00DFB444A444B08F0C5FB08F053
:100F60001BFD00F11004584608F045FD00F0A2F802
:100F7000C8E90C010BEBDB70642101EB600008F0A9
:100F80003AFD00F097F8C8E90E01384609F014F868
:100F900000224B4608F0A8FB3246534608F0E8FA18
:100FA00008F0FAFC98F80F104FF4967519B304F591
:100FB0009671C8F85010C8F8544000F5967008F0C3
:100FC0001AFD00F077F8C8E910013046514600F0EC
:100FD00071F8000A40EA01601030C8F84800C8F80B
:100FE0004C50BDE8F09F214609F012F8204909F065
:100FF00051F9064698E704F52F71C8F85010C8F863
:10100000544000F5967008F0F6FC00F053F8C8E97B
:1010100010013046514600F04DF8000A40EA0160E8
:101020001030C8F84800C8F84C50DAE70449C884C2
:1010300070470000FFFFCDAB000098410000A543C2
:10104000680200200046A846C335004385340046A8
:10105000004528487B3480440000C04480A7000835
:10106000B341823F00408F400D71AC8BDB68F03F95
:10107000EA5B7E3F10B5A0B0044680220C4968466A
:1010800008F0B1F8202003F0EBFB204602F055FCFD
:10109000002269467F2001F081FC00217F2001F0C1
:1010A0008DFC002002F0AFFA20B0002010BD00003F
:1010B000C0AA000810B5F74AF74B08F015FB00224C
:1010C000F64B08F011FBBDE8104009F025BA10B549
:1010D00008F091FCBDE81040EE4AEF4B08F042BD2D
:1010E0002DE9F04106460846FFF7F1FF4FF0985210
:1010F000EB4B08F037FDEB4A044602EBC6020D4607
:1011000003C2E84F2037787C80B1387A052806D0B2
:10111000E54AE64B2046294608F0E6FA08E0E44AAC
:10112000E44B2046294608F0DFFA01E02046294634
:1011300008F0ECF901467A7A387A02F099FC2246F6
:101140002B4608F043FE04460D4600221346204677
:10115000294608F0CBFC06D30022D74B204629466F
:1011600008F0FEFD02D20020BDE8F081CD48203815
:1011700000EBC60030C0D7F87801401CC7F87801F2
:101180000120F1E7C74AC74B203A02EBC101603B9F
:10119000D1E9002103EBC000C0E900217047C1493B
:1011A000603901EBC00103C97047BE49002301EB60
:1011B000C0010B604B60BB4B0022203B03EBC00027
:1011C00002604260704730B50020B64BA3F12005A5
:1011D000BA4A03EBC0010024C1E9004205EBC0019B
:1011E0000022B64C14C1401C0428F1DB30BDAD49CF
:1011F000203108707047AB48203000787047A9490B
:101200002031D1F87C010022C1F87C217047A5482B
:101210002030D0F880017047A2482030D0F88401F7
:101220007047A0482030D0F8880170472DE9F04180
:10123000002500249B4E00272036F765012002F090
:10124000A8FA86F8CA70C6F878719D4AC5EBC50041
:1012500006EB002101EB8400C0F83821641C042C4B
:10126000F8DB002001EB8003C3F81821401C08289C
:10127000F8DB79E70FB470B52C9E00258DF8AB50E4
:10128000884CA022203404A994F8F10500EB8000DA
:1012900004EB401000F5C87007F0A5FF94F8F105C5
:1012A00000EB800004EB401080F8906194F8F105A9
:1012B000401CC0B284F8F105062801D184F8F1552C
:1012C00070BC5DF814FB10B501460F2001F003015E
:1012D000012903D0022901D003290FD0714A2032FD
:1012E00092F9E110002909DDB2F85000484380B2BC
:1012F00002F002FA002002F0D9F90E2010BD10B55C
:10130000684C2034A16CA06D401A02F077F90120DE
:1013100002F0CCF9002813D0606D4FF6FF7101EA9E
:10132000400002F0E9F9002002F0C0F9B4F85400DE
:1013300080B202F0E1F9D4F87401401CC4F87401E1
:1013400010BD2DE9F04180460F460025554C002682
:10135000203494F8E100002804D102F0CDF90020F7
:1013600002F0F9F9F8070BD094F8E110012900D147
:10137000012594F88C1179B994F8BE0003280BD09C
:10138000216C94F84420090AA06D41EA02614018DA
:10139000A065F90708D00EE0002002F0ADF90020AA
:1013A00002F084F90E20DFE694F9E11094F8BE20F3
:1013B0001144032909D0012D07D0B8F1000F38D00E
:1013C000FFF79DFF0E252846CEE6022184F8E010A7
:1013D00002F014F9032002F016F9B8B1002001F070
:1013E000B6FE84F8E060D4F87001401CC4F87001C7
:1013F000206C94F84420000A40EA0260A16D0018B5
:101400000818A065FFF77BFF0E25DCE794F8441071
:10141000226C0B06A06D43EA12214018A0654FF024
:101420000C0503F05DF9C4F8F405012084F8F30518
:10143000C9E7002002F060F9002002F037F9C1E7A7
:101440000FB470B5A6B0174B0024203318461A7895
:1014500090F9E1104425481E042640B2022A32D0F9
:1014600082B383F8E1000020FFF72DFF8DF8AA007A
:101470008DF8A8408DF8A950ADF8AC4090222EA967
:101480006846249607F0AFFE2AA80FC8FFF7F2FEC1
:1014900026B015E7FA48CE3B1835B13D80842E4181
:1014A00019DDB14148020020F6285C8FC2F5F43FF7
:1014B000295C8FC2F528F83F0088D340E0FFEF4059
:1014C000FFFFCDAB24E0002918DD83F8E100002107
:1014D0000846FFF736FF8DF8AA008DF8A8408DF872
:1014E000A950ADF8AC4090222EA96846249607F08A
:1014F0007AFE2AA80FC8FFF7BDFEC9E7002002F058
:10150000FBF826B0002070BC5DF814EB02F0CEB8FA
:1015100026B0002070BC5DF814EB02F0C7B810B51F
:1015200001460F2001F00301FE4CE28CB2F5004FA2
:101530000AD1012908D1B4F8500080B202F0DCF8D9
:10154000002002F0B3F80E20E18C48F20102914233
:1015500000D10F2010BD2DE9F0470746DDF82080AF
:1015600007F00705EF4C132665344FF00009A4F887
:10157000636058180088208094F85A00A07094F88E
:101580005B00E070653C04EB8501D1F81801E06672
:10159000601990F8F55084F8705080F8F59098181C
:1015A000407884F8F40094F8CA2084F86220521C31
:1015B00084F8CA20DC48D1F8182182420CD094F873
:1015C000BE000122824084F8F22004EB8000D1F8B2
:1015D0001811C0F8381107E094F8BE1004EB81012F
:1015E000C1F8380184F8F290E06C01F0B0FD94F895
:1015F0008C01E0B1B4F80221B8FBF2F002FB1081DB
:10160000B4F80431F8B25843431A500840429842A3
:1016100003DDD118C4F8101101E0C4F8103104F151
:101620006A00B4F810210270110A417005E0C4F894
:10163000109184F86A9084F86B90702084F86900A7
:101640000021304601F0BAF904F160013046BDE8EE
:10165000F047002201F0A2B92DE9F04FD3B00546C2
:1016600000244E944F94A146A24603F039F82C90E2
:1016700028792AA9AB4F4FF00F0B519102280DD0BA
:1016800004287CD090226846519907F0ACFD26A82A
:101690000FC8FFF7D5FE53B0BDE8F08FE888ADF86E
:1016A0009C00287A412801D0612804D1687A00F092
:1016B000CC00882839D063264EA801F0DEF9E988ED
:1016C0002DA80022509001F085F99DF838019DF871
:1016D00039119DF83B2100EB01219DF83A010004EE
:1016E00000EB026008442A909DF83C01CDE92804F3
:1016F000289D2A9961186541CDE928152A99000687
:1017000000EB11202B908DF898408DF899608DF8A2
:101710009AB0022E0FD090226846519907F063FDCF
:1017200026A80FC8FFF78CFEB5E74FF009094FF068
:10173000070A0226C0E726A901EB0A00027F407FC4
:1017400002EB002085B2387823464FF001080028CC
:101750004ED0012804D107F1E1021478641E147000
:10176000494403240A7F732A0ED009DC48F2020997
:10177000702A03D0712A08D0722A39D17EE06AE13A
:10178000812A3AD0822AF8D13DE1684A12780AB912
:10179000012813D005F00300497F083060F31F11C2
:1017A000C8B23C4687F8F805204480F8F935032094
:1017B00002F045FF94F88C01C0B914E017F8E10F6E
:1017C000401C387090226846519907F00CFD26A8FD
:1017D0000FC8FFF735FE87F80280D7F88B00401C52
:1017E000C7F88B0057E7E08C484502D98DF89AB0CE
:1017F0000BE1032002F007FF07E1012829D0487F11
:1018000005F0070B6BF31F1087F8F805384480F8D4
:10181000F935032002F013FF2C9800904A465146F8
:101820002846509BFFF797FEB7F8540080B201F0AE
:1018300063FF2B98B86587F8E140F88C0221FFF729
:1018400080FD8DF89A0007EB8B003749C0F818111E
:10185000DBE017F8E10F401C387090226846519980
:1018600007F0C1FC26A80FC8FFF7EAFD87F8028041
:10187000D7F88B00401CC7F88B000CE7BA4601284C
:1018800030D0032858D04FF00E0B702A79D09AF838
:101890008C0130B19AF8FD00504490F8F9150229F6
:1018A0006DD0BAF8260048456AD19AF8F80500EBE1
:1018B0000A0191F9F905002862DB401C81F8F9055D
:1018C0009AF8E100401E8AF8E100002001F014FFC0
:1018D000002001F03CFC01212846FFF732FD8DF885
:1018E0009A0092E09AF8F400504490F8F915491CD7
:1018F00080F8F9152846FFF7E6FC8DF89A0005F008
:10190000030000EB8001C91D9AF8F22008FA00F0EC
:1019100002438AF8F2200AEB01004E9940F8691F51
:1019200006E0000068020020FFFFCDAB00000020B1
:101930009DF83C11017168E09AF8FD00504490F860
:10194000F915491C80F8F9152846FFF7E8FD8DF8D0
:101950009A0005F0030000EB8001C91D9AF8F12000
:1019600008FA00F002438AF8F1200AEB01004E99D0
:1019700040F8691F9DF83C11017146E001E02AE042
:1019800038E09AF8F80500EB0A0191F9F90500280A
:1019900012DB9AF9E120002A0EDD401C81F8F905DE
:1019A0009AF8E100401E8AF8E10004212846FFF77A
:1019B000C8FC8DF89A0028E0032002F040FE0020C9
:1019C00001F09AFE002001F071FE8DF89AB003201C
:1019D00002F019FE19E080F8F9459AF8F10040F09C
:1019E00008008AF8F10005212846FFF7AAFC8DF8C7
:1019F0009A000AE0002001F07FFE002001F056FE70
:101A00008DF89AB001E0012810D0F03707F80D8C5E
:101A1000249690226846519907F0E5FB26A80FC846
:101A2000FFF728FCF86F401CF86734E617F8E10F61
:101A3000401C387090226846519907F0D4FB26A8C4
:101A40000FC8FFF7FDFC87F80280D7F88B00401C19
:101A5000C7F88B001FE68DF89AB0387802280CD1B1
:101A600097F9E100002808DD401E87F8E100F88CB6
:101A70000621FFF766FC8DF89A008DF89840042047
:101A80008DF89900ADF89C400021289129912A9465
:101A90002B94249090226846519907F0A4FB26A825
:101AA0000FC8FFF7E7FBF6E52DE9F041D0B00024C1
:101AB0004E944F94057902F013FE2C90F74F2AAE06
:101AC000012D02D0062D46D056E04EA800F0C9FFE9
:101AD0009DF838019DF839119DF83B2100EB01205C
:101AE0009DF83A11090401EB026108442A909DF81F
:101AF0003C01CDE92804289D2A9961186541CDE96A
:101B000028152A99000600EB11202B903D4687F8F6
:101B1000E340B5F8C820ADF89C208DF898408DF8CA
:101B20009A404FF001088DF8998005F160012DA8C9
:101B300007F059FB902231466846CDF8908007F0B7
:101B400052FB26A80FC8FFF795FBD5F86801401C8B
:101B5000C5F8680110E0ADF89C408DF8984006206B
:101B60008DF89900249090223146684607F03BFB9F
:101B700026A80FC8FFF77EFB87F8F34550B012E4A4
:101B800070B500240020C549C0EBC00001EB002562
:101B900004EB840005EB401000F5C870A02107F0AD
:101BA00054FB641C062CF3DB05F5BE650020687051
:101BB0002870A87070BD2DE9F0410026B74C0220B6
:101BC00000252070657084F8E25040F60F0000F0A8
:101BD0002BFC8046032001F0A7FC6F1EB8F1000F1C
:101BE00002D03846BDE8F081FFF720FB4DF6CA6011
:101BF00024F8CC0F2575E5752576FFF7C1FF44F86D
:101C00000D5C44F8095C6564002001F088FA00204E
:101C100001F06FFA0121A24801F0A2FDAFF2C75115
:101C2000AFF27B1001F0A4FA84F82755C4F8A45051
:101C3000C4F8A8506775CC3C0020C6EBC6016FF015
:101C4000090204EB01210B1883F8F925401CFF2839
:101C5000F9DD8D650020C5E700F0E3BB8F498862A0
:101C600070472DE9F04704460D468C4E2078002140
:101C700030726078707360783073A0787072E0783A
:101C8000F0732279B2726279F272A279B27331740E
:101C900022897282022814D0717406F10800012191
:101CA00000F03EFD20787F4F00EB400017F8200049
:101CB0003075317AA07800F0E8FC28B1411C03D0DF
:101CC0000CE001207074E8E7207800EB400007EB9F
:101CD0008001A078401E01EB800040683146B06171
:101CE00001F1140000F0C3FC00F07AFC4FF6FF781D
:101CF00002281BD0032819D0A07800F048FE400825
:101D0000B08308B1404505D1A0786749401E31F83D
:101D10001010B183B08B00F0CAFCB08B00F0C0FC97
:101D2000B08BF083207904281DD025E0307802287C
:101D300010D000200027B146F27B317A00F033FC4E
:101D4000A9F81C0008B14045E4D199F8080005281D
:101D500002D002E00120EDE70127544830F81700D7
:101D6000A9F81C00D6E7202002F07AFD002001F03F
:101D70007DF9082002F074FDE888FFF76FFFC83690
:101D8000A88870872988B187288846F89C0C6888BD
:101D9000F087801E484330642889BDE8F047FFF78C
:101DA00050B83E4890F8F40070473C49084490F819
:101DB000F50070473949084490F8FE0070473748ED
:101DC000D0F87801704700F003003449403901EB46
:101DD000C00103C9704700F003003049203901EB0E
:101DE000C00103C9704710B500F003002B49002261
:101DF000403901EBC0012E4B03C907F0B3FEBDE82B
:101E0000104007F0C9BD10B500F0030023490022BF
:101E1000203901EBC001264B03C907F0A3FEBDE842
:101E2000104007F0B9BD10B50621417002210170C4
:101E3000002001F061FC002001F08DFCBDE81040A5
:101E4000002001F084B970B50446E06D401CE065E7
:101E5000002060602078022807D001250322012895
:101E60000AD0E07802282CD03FE006206070BDE860
:101E70007040002001F040BCE0780226022803D127
:101E800094F8F210C90704D0032813D06570A2702B
:101E900070BD84F8E2506570A67070BD68020020C5
:101EA00080D02324CCA600082CA7000830A7000867
:101EB00000408F4001F098F984F8E2506570A670F8
:101EC000EBE7E18C48F20103994203D194F8F13039
:101ED0005B0706D5B1F5004F07D194F8F1108907DB
:101EE00003D42046BDE870409DE7032802D065700A
:101EF000A270D2E72046BDE8704094E72DE9F0419A
:101F000000F00305AC4C13260027A4F863605818B2
:101F10000088208094F85A00A07094F85B00E0706C
:101F2000653C04EB8500D0F84801E06661194C344B
:101F300011F8FE0F84F824000F709818407884F888
:101F4000B10094F87E10A175491C84F87E102068B9
:101F500001F0FDF8C4F8C470A777E77772206077C6
:101F60004C3C0021304600F029FD04F16001304670
:101F7000BDE8F041002200F011BD8F49653991F8AC
:101F8000F20500EB800001EB401090F890017047E3
:101F90000FB470B52C9D884CA022653C04F5AA6056
:101FA00004A907F020F984F8505570BC5DF814FBC3
:101FB0008249A02207F017B92DE9F04781467E4EED
:101FC0004FF00008653E96F8F01506F5E06501EB68
:101FD000810006EB401494F89071002F2AD004F58C
:101FE000CA7414F8030C687014F8020CA8702088E6
:101FF000A880D4E90101C5E90201E06828612069EF
:1020000068616069A4F5CA74A86104F5D6717F227D
:1020100005F11C0007F0E7F82F7084F82B9284F884
:10202000908196F8F005401CC0B286F8F0050628AD
:1020300007D008E085F8008085F801806048BDE899
:10204000F08786F8F08596F8F00586F8F2055C488A
:10205000F5E730B5CFB000230022FFF78EFF014631
:102060005548C3EBC303653800EB032404E0204666
:10207000FEF70EF902460021002AF8D00025022AB8
:1020800013D1207801280DD1C83454F89C0C54F891
:10209000A01C0144A06C01446162E064A5640120BD
:1020A0002077C83C84F8E350656094F8E400012888
:1020B00022D194F8E300F8B9207801281CD102F06D
:1020C0000FFBD4F8E810401AD4F8EC10884213D96A
:1020D00084F8E450ADF89C508DF8985084208DF829
:1020E00099000420249090222AA9684607F07BF8E2
:1020F00026A80FC8FFF7BEF84FB0002030BD10B5BE
:10210000304C1021204606F0CFF8012005F08FF862
:102110001021204606F0C6F8052005F088F80020BA
:1021200000F077FF0021BDE81040481E01F018BB09
:1021300021496539C1F8FC0670471F4965390862B5
:10214000012081F82400704710B51B4C653C94F8C1
:102150002400012807D100211E20226A00F061F826
:10216000002084F8240010BD134A653A9083D1837F
:10217000012082F82500704710B50F4C653C94F89B
:102180002500012808D1E08B00F091FAA08B00F027
:1021900087FA002084F8250010BD07486538808B39
:1021A000704705486538C08B704703498E31087801
:1021B00000220A7070470000CD020020B8070020FE
:1021C000680900200008014038B500290AD040F015
:1021D000C0008DF80000CCB27F2909D802208DF80C
:1021E00001400DE040F0800101208DF8001007E073
:1021F00044F080008DF80100C90903208DF8021019
:10220000694601F0C7FC38BD08B58DF80020120AF8
:102210008DF8012089B280B26B460222FFF7D4FF0D
:1022200008BD38B500236C46E254120A5B1C042B2F
:10223000FADB89B280B26B460422FFF7C5FF38BDD6
:1022400038B5044600290AD044F040008DF800005B
:10225000CCB27F2907D802208DF801400BE0012085
:102260008DF8004007E044F080008DF80100C909B6
:1022700003208DF80210694601F0BAFC38BD38B56C
:102280004FF0FF3489B280B26B460422FFF7D8FFCB
:1022900038B903216846425C02EB0424491E002938
:1022A000F9DA204638BD38B504466B4602220021D3
:1022B0003620FFF7C5FF0E2C54D2DFE804F01107DB
:1022C0001953535353213053533D444B00208DF841
:1022D00000009DF8010000F0FE008DF8010041E0D3
:1022E0009DF8000000F0FC00401C8DF8000039E073
:1022F0009DF8000000F0FC00801C8DF8000031E02B
:102300009DF8000000F0B30040F048008DF8000098
:102310009DF8010040F080008DF8010022E09DF85A
:10232000000000F0B3008DF800009DF8010000F0FF
:102330007F008DF8010015E09DF8010040F00200DB
:102340008DF801000EE09DF8010000F0FD008DF811
:10235000010007E09DF8000000F0CF0040F02000F1
:102360008DF800006B46012200213620FFF72CFF7C
:1023700001220DF1010311463620FFF725FF38BD7C
:1023800038B54FF6FF7489B280B26B460222FFF770
:1023900057FF30B99DF800009DF8011000EB0120B7
:1023A00084B2204638BD08B503208DF80100012015
:1023B0008DF800006B46022200213620FFF704FF53
:1023C0004FF4004206212D20FFF71EFF012004F0EC
:1023D0002EFF0120FFF767FF002008BD08B5010AA6
:1023E0008DF801108DF800006B46022204212D208B
:1023F000FFF7EAFE03208DF800006B46012206215C
:102400002D20FFF7E1FE00208DF800006B46012231
:1024100006212D20FFF7D8FE0A212D20FFF72FFFE0
:1024200008BD002108462AE72DE9FC4105460024A5
:1024300004200190FE4E0027377706F8337C376280
:10244000777277627777B762F762FFF7EAFF46F84D
:10245000600DF849884202D08817BDE8FC81002051
:10246000FFF721FF01AB012200212420FFF7ACFE82
:102470001E20FFF7B3FF1FFA80F84FEA1820B07351
:10248000280704D50420FFF7A9FFC6F8840096F8B2
:10249000840010F0FF0F08D0022000906B4601224C
:1024A00012212D20FFF790FE01E0C6F8847006206F
:1024B000FFF794FF70600720FFF790FFB060B761EF
:1024C00006EB8400C761641C042CF9DBA8071AD54D
:1024D000B07B3446012804D81C20FFF77FFFA061A1
:1024E00011E003280FD80D20FFF778FFE0610E20E0
:1024F000FFF774FF20620F20FFF770FF60621D205E
:10250000FFF76CFFA062CC48E907007800F01F00DD
:1025100008D008F01F01324686F82C1021B982F845
:102520002C0001E086F82C0068070BD5002404F18C
:102530001000FFF753FF06EB84014863641C0C2C6A
:10254000F5DB06E0002006EB80014F63401C0C2801
:10255000F9DB280502D5FFF726FF09E00521362023
:10256000FFF70EFF20F4007205213620FFF74CFE26
:102570000120FFF798FE00210420FFF780FE306362
:1025800000212620FFF77BFE40F4A03040F4A0227B
:1025900000212620FFF745FE002226213620FFF7E6
:1025A00033FE002059E710B50023A14C603C0229FE
:1025B00002D005290FD107E0022A01D012B10AE0AA
:1025C000E36908E0236A06E0022A01D012B102E0C2
:1025D000636A00E0A36AC007C00EC34098B210BD92
:1025E00093486038807B704708B56B460422002111
:1025F0002620FFF725FE9DF8020040F005008DF82B
:1026000002006B46042200212620FFF7DDFD08BDF5
:1026100008B501438DF80010080A8DF80100080C78
:102620008DF802006B46032208212620FFF7CCFD1F
:1026300008BD08B501438DF80010080A8DF80100A7
:10264000080C8DF802006B4603220C212620FFF7B0
:10265000BBFD08BD76486038D0F8840070477448E8
:10266000603840687047724860388068704710B5BD
:102670000446234601220B212A20FFF7A5FD6268AC
:102680000021BDE810401E20CBE56C4A515C00EBF8
:1026900041006749401E603901EB8000406B704784
:1026A00063496039C882024600211820ACE56049C0
:1026B00060398882024641F604012E20A4E538B52F
:1026C00004466B4601220E212B20FFF7B9FD9DF831
:1026D000001021F01F0104F01F00084300906B461A
:1026E00001220E212B20FFF76FFD38BD38B50446BF
:1026F0006D2100916B46012240F606012E20FFF766
:1027000063FD41F606012CB140F207622E20FFF76F
:102710007BFD38BD41F207622E20FFF775FD38BD05
:102720002DE9F84F04468A464FF00008C146257847
:102730006079434931F8107060783D49401E603936
:10274000C6B2C1F88000042D70D0072D6ED0C346EC
:10275000207808733648E2796038002A006B66D02A
:1027600020F4800008633248227A60384273217A6C
:102770004FF44033026B03EA01410A430263002134
:102780000420FFF74EFD3A4642F604012E20FFF7E3
:102790003BFD3046FFF7AAFF284F2A490522785D06
:1027A00000EB8000431807212B20FFF70DFD224B83
:1027B00001220E212B20FFF707FD2348012200EB09
:1027C0000B030B212820FFF7FFFC785D1F4951F810
:1027D00020200C212820FFF724FDE0791C4901EB83
:1027E0008000A17930F8112002212720FFF70CFD8D
:1027F0001848042130F816202720FFF705FDE0795E
:1028000060B3A07804284AD0282000902022062116
:102810002720FFF7F9FC6B46012226212720FFF72E
:10282000D3FC0D48E17800EB061018E029E02BE01E
:10283000680A00203001CADE72A7000834A7000829
:10284000B4A7000854A7000873A700083CA7000815
:1028500084A7000890A7000894A7000819E050F882
:10286000212008212720FFF7DCFC628941F2410783
:10287000BA4203D020212720FFF7C6FC6089E0B1CF
:1028800020E04FF0010B63E740F480000863FF088D
:1028900069E7642206212720FFF7B6FCC1E7102074
:1028A0000090102206212720FFF7AEFC6B46012284
:1028B00026212720FFF788FCB3E73A46202127206E
:1028C000FFF7A2FCFE4F0C2123203A68FFF7A9FC7A
:1028D00007EB4600042182882320FFF795FCA079AE
:1028E00058B1E079F7490122431800212120FFF770
:1028F0006BFC4FF003084FF0010905F00F002907AA
:1029000040EA116061784FF4402202EA81410843B5
:10291000910001EA085108434FF4003101EA4941AE
:10292000084321794FF0F86202EA81510843617946
:1029300040EAC16200211F20FFF773FCA078617894
:1029400008430004E179E04D40EA413040F40042A0
:102950002A6100210820FFF764FC5FEACA7003D0F7
:1029600095F82C00FFF7ABFE5FEA8A700CD5A869DA
:102970003401E040C0F34E00FFF799FEA869E04043
:10298000C0F34E00FFF78CFE0020BDE8F88FCE4963
:10299000401E00018969C14088B2704710B50B46DE
:1029A00011460A18B2F5806F02D94FF0FF3010BD02
:1029B000821E0920FFF708FC002010BD10B5C24A96
:1029C00040EA81501269024300210820FFF729FCE8
:1029D000002010BD30B40C4611462246034630BCE0
:1029E00011202DE470B504460E4615460720FFF76A
:1029F0005AFC2346324629462520FFF721FCBDE834
:102A0000704008204FE438B504466B460222052189
:102A10001520FFF715FC9DF800009DF8011000EB54
:102A2000012080B207F04FF86FF0050207F0E2FDD9
:102A3000C4E9040100212E20FFF7A2FC2080231D01
:102A4000082200211220FFF7FBFB07211520FFF7CA
:102A500097FC608000211020FFF711FC000DA08181
:102A600038BD0346052200211720FFF7E9BB0121ED
:102A7000172004E40021172001E403460522002169
:102A80001520FFF7DDBB01211520FFF7F8BB002162
:102A90001520FFF7F4BB01210620FFF7F0BB03462A
:102AA000052200210620FFF7CBBB10B5044600210C
:102AB0000420FFF7E4FB854908403CB120F4FF7097
:102AC00004F4FF71014341F0010201E020F0010232
:102AD0007D4802630021BDE810400420FFF7A1BB40
:102AE000024602210320FFF78FBB0246002103208C
:102AF000FFF78ABB0346082200210120FFF764BBD1
:102B00000346082200210120FFF79ABB2DE9FC5F54
:102B1000074600260024002503218DF800106B468F
:102B2000012207212D20FFF74FFB07F00F0749F285
:102B3000202041F62401062F15D2DFE807F0140308
:102B4000080C101241F2240506460E240BE00D4637
:102B50000646032407E00D4606464E2403E0032400
:102B600001E0242503248DF80060300A8DF801006F
:102B70006B46022200212D20FFF726FB4FF00808AC
:102B80008DF800806B46012206212D20FFF71CFBEB
:102B90004FF002098DF800906B46012207212D208D
:102BA000FFF712FB4FF0880A8DF800A06B46012258
:102BB00006212D20FFF708FB4FF0800B8DF800B0A9
:102BC0006B46012206212D20FFF7FEFA00268DF824
:102BD00000606B46012206212D20FFF7F5FA052043
:102BE0008DF800006B46012207212D20FFF7ECFA3B
:102BF0008DF80040200A8DF801006B46022200216A
:102C00002D20FFF7E1FA8DF800806B4601220621A6
:102C10002D20FFF7D9FA04248DF800406B460122DD
:102C200007212D20FFF7D0FA8DF800A06B46012276
:102C300006212D20FFF7C8FA8DF800B06B4601225F
:102C400006212D20FFF7C0FA8DF800606B460122A7
:102C500006212D20FFF7B8FA4FF0010A8DF800A0E9
:102C60006B46012207212D20FFF7AEFA8DF80050A8
:102C7000280A8DF801006B46022200212D20FFF763
:102C8000A3FA8DF800806B46012206212D20FFF764
:102C90009BFA0A2004F0CBFA8DF800606B46012203
:102CA00007212D20FFF790FA8DF800A06B46012236
:102CB00006212D20FFF788FA8DF800906B4607E07B
:102CC00078A7000880A70008080A0020FFFF47F047
:102CD000012207212D20FFF777FA8DF800406B467F
:102CE000012207212D20FFF76FFA642004F09FFADC
:102CF0008DF800606B46012207212D20FFF764FA52
:102D00008DF800606B46012206212D20FFF75CFA4A
:102D10000A2004F08CFA012F01D0022F05D101AB5B
:102D2000012208212D20FFF78BFA0020BDE8FC9F2F
:102D30007CB504460D4601AB012208212D20FFF78A
:102D40007FFA9DF80400800702D44FF0FF307CBD6D
:102D5000200E8DF80300200C8DF80200200A8DF85B
:102D600001008DF800406B46042200212D20FFF762
:102D70002BFAC5F302208DF801008DF800506B4648
:102D8000022204212D20FFF71FFA40208DF80000B9
:102D90006B46012206212D20FFF716FA00208DF840
:102DA00000006B46012206212D20FFF70DFA0024BA
:102DB000012004F03CFA01AB012208212D20FFF78D
:102DC0003FFA9DF80400C00700D00124002CEFD08A
:102DD00000207CBD2DE9F04106460F460025002469
:102DE0000020FFF760FA0120FFF790FE0DE0394662
:102DF0003046FFF79DFF3846FFF7F0FAB04200D1AA
:102E00000125641C052C00D10225002DEFD00420E3
:102E1000FFF77CFE3846FFF7E1FAB04201D100240B
:102E200001E04FF0FF340020FFF770FE2046BDE8C0
:102E3000F08108B5042000906B46012202212C206D
:102E4000FFF7C2F9002000906B46012202212C20DE
:102E5000FFF7BAF908BD08B5002000906B460122C3
:102E600002212C20FFF7B0F9022000906B460122CE
:102E700002212C20FFF7A8F908BDECE7F8B50546BC
:102E800001268DF800606B46012200213620FFF7F5
:102E90009BF900248DF800406B46012206212C206E
:102EA000FFF792F98DF800406B4601220A212C2091
:102EB000FFF78AF9FFF7BDFF8DF80050280A8DF85B
:102EC00001006B46022208212C20FFF77DF9FFF755
:102ED000B0FF8DF800606B4601220A212C20FFF71D
:102EE00073F9FFF7A6FF8DF800406B460122002121
:102EF0003620FFF769F9F8BDF8B504208DF8000019
:102F00006B4601220A212C20FFF75EF9FFF791FFA3
:102F100000248DF800406B4601220A212C20FFF787
:102F200053F9FFF786FF01208DF800006B46012260
:102F300000213620FFF748F9012004F078F97620C7
:102F40008DF800006B46012204212C20FFF73CF98C
:102F500080258DF800506B46012202212C20FFF7BE
:102F600033F988278DF800706B46012202212C204E
:102F7000FFF72AF96B46012203212C20FFF760F9A5
:102F80009DF800004FF6FF7101EA002675208DF8CC
:102F900000006B46012204212C20FFF715F98DF863
:102FA00000506B46012202212C20FFF70DF98DF80D
:102FB00000706B46012202212C20FFF705F96B46B9
:102FC000012203212C20FFF73BF99DF800503543E7
:102FD0008DF800406B46012202212C20FFF7F4F807
:102FE0008DF800406B46012200213620FFF7ECF8F7
:102FF0002846F8BD38B50C46024600212C20FFF7C4
:1030000003F900946B46012206212C20FFF7DCF81F
:1030100038BD10B5044604213620FFF730F914B14D
:1030200040F4006201E020F400620421BDE8104099
:103030003620FFF7F6B870B505460E46FFF7F1F9F2
:10304000FE4CA0420ED000212B4632460846FFF728
:10305000F7F8052004F0EBF8FFF7E3F9A04203D0FE
:10306000A01770BD002070BD002070BD38B500F005
:103070000301012000EB411403218DF801108DF8AC
:1030800000006B46022200213620FFF79DF8224601
:1030900012212D20FFF7B8F80120FFF704F938BD01
:1030A00010B5044600210420FFF7E9F8E44908635D
:1030B0001CB120F48020086302E040F48020086303
:1030C0000A6B0021BDE810400420FFF7AAB810B534
:1030D000DB4C216B41F080412163020202211A2066
:1030E000FFF792F8226B0021BDE810400420FFF7A3
:1030F00098B8D34A0028116B06D021F48050106391
:10310000012082F82D0005E041F48050106300207A
:1031100082F82D000021126B0420FFF782B808B559
:1031200000210091C64A0028116B03D041F00050E5
:10313000106302E021F000501063106B000E00904D
:103140006B46012203210420FFF73EF808BD10B5AD
:10315000044600211A20FFF792F86FF31300C4F31E
:10316000130202430021BDE810401A20FFF759B8AE
:10317000B34A883210605160704708B56B4601222F
:1031800000210F20FFF75CF89DF8000000F001001F
:1031900008BD08B5E02000906B46012203213620CF
:1031A000FFF712F8F02000906B4601220321362031
:1031B000FFF70AF808BD1CB501AB012203210F205F
:1031C000FFF73EF89DF8040000F0800100F0400099
:1031D000B1EB400F07D0012000906B460122032184
:1031E0000D20FEF7F1FF1CBD38B5402000900021F6
:1031F0000E20FFF744F8044600F0A6FC0546002226
:1032000011460E20FFF70DF86B46012200210D201C
:10321000FEF7DAFF8B4A00210F20FFF702F8FFF7D5
:10322000CAFF224600210E20FEF7FBFF284600F0D1
:1032300096FC8349002081F87D0038BD10B502213D
:103240000F20FFF79DF800F0100010BD2DE9FC5F86
:1032500000277B4D002685F8686095F82D0085F8DD
:103260006E0000210F20FFF70AF8774B686605F122
:10327000900C1A680446511C19604CF822000A2967
:1032800000DB1E60A4F50000C01E03D1FFF7ACFFF9
:10329000FFF77FFFDFF8A8A160054FF003080AF1F0
:1032A000640A4FF4807B1CD595F82D00C8B9C4F38F
:1032B0004220072815D0FFF797FFFFF76AFF04F0B9
:1032C000F804286B800005D55A4600210D20FEF732
:1032D0009BFF06E085F86880D5F88C1009B1504650
:1032E000884760044FF0010977D5600576D5E00284
:1032F00019D5FFF779FFFFF74CFF286B800007D542
:1033000002B05A46BDE8F05F00210D20FEF77CBFF9
:1033100085F86880D5F88C1000295DD002B0504641
:10332000BDE8F05F084700211020FFF729F8C0F33F
:103330000908434B02226C3300211120FEF780FF65
:10334000687B08B908F07F08A5F86A80200705D5D2
:1033500095F86C00810643D5022841D004F008009E
:1033600085F86900022085F8680095F82D00B0B353
:10337000CDF8009001AB012203210F20FEF760FF82
:103380009DF8040000F0800100F04000B1EB400F18
:1033900006D104F4C0423A4300210F20FEF741FF5A
:1033A000286B800004D45A4600210D20FEF72CFF24
:1033B000D5F88C1009B150468847FFF73FFF28B376
:1033C000FFF712FFFFF7E5FE286B800004D55A4691
:1033D00000210D20FEF718FFA8E43AE01DE005E00B
:1033E000082785F8696085F87D60BBE704F4DE4254
:1033F0003A4300210F20FEF714FFD5F88C10002966
:10340000EAD002B05046BDE8F05F08476B460122A3
:1034100003210D20FEF7D8FE88E4286B800001D43C
:10342000FFF7E2FEFFF7B5FE68356E7585F80080A0
:10343000696A0029D0D0504602B007E03001CADEE8
:10344000080A0020F8FF27240C000020BDE8F05FE8
:10345000084720061CD5F82200210F20FEF7E1FEC8
:1034600095F8690048B185F8696095F82D0020B994
:1034700095F87D0008B1FFF7B7FE85F86890D5F89C
:1034800088100029A8D002B05046BDE8F05F084778
:10349000A00310D504F4003200210F20FEF7C1FE76
:1034A000042085F86800D5F88C1009B1504688478B
:1034B00085F87D603AE4FB4814EA00028CD00021D4
:1034C0000F20FEF7AEFE85F87D60286B800001D4EA
:1034D000FFF78AFEFFF75DFEE00403D5082085F8BC
:1034E000680018E0200402D585F8688013E0E00346
:1034F00003D5092085F868000DE0600103D50A2096
:1035000085F8680007E0A00203D50B2085F8680065
:1035100001E085F86880D5F88C100029CAD002B087
:103520005046BDE8F05F084738B50446E00733D0A1
:103530006B46022200212620FEF782FE9DF8010044
:1035400020F03C0040F014008DF8010001220DF144
:10355000010311462620FEF737FE6B4601220221A9
:103560003620FEF76DFE9DF8000040F084008DF8D7
:1035700000006B46012202213620FEF725FE1020B6
:103580008DF8000001208DF801006B4602222821F1
:103590003620FEF719FE11E06B460222002126209C
:1035A000FEF74EFE9DF8010020F014008DF801009A
:1035B0006B46022200212620FEF706FEA00711D549
:1035C0000F208DF800006B4601222A213620FEF7DD
:1035D000FBFD00208DF800006B4601222A213620D9
:1035E000FEF7F2FD38BD10B50020FEF75CFE0022AC
:1035F0000421BDE810403620FEF706BE0246012138
:103600000A20FEF70EBEF8B50546002400270097F5
:10361000A54EA8070AD5802000906B460122002104
:103620000D20FEF7D1FD012086F87D00E80721D0AE
:103630009DF8000040F0060000906B46012200213A
:103640000D20FEF7C1FD03210F20FEF799FE10F4B7
:10365000816F1AD0402000906B46012200210D207E
:10366000FEF7B2FD0020FFF7D4FC86F87D704FF026
:10367000FF340AE09DF8000040F0020000906B4625
:10368000012200210D20FEF79FFD2046F8BD41EAF2
:10369000022121F0F002C00703D000211D20FEF717
:1036A000B3BD002211461D20FEF7AEBD70B5044625
:1036B000FFF781FD4FF480752A46E00701D04FF4F3
:1036C000407200210D20FEF79FFDE00712D003217C
:1036D0000F20FEF755FE10F4816F0BD0FFF784FD2D
:1036E000A00704D52A4600210D20FEF78DFD4FF0DE
:1036F000FF3070BD002070BD38B505466B46012215
:1037000003210420FEF79CFD674CA5B12A46002149
:103710000C20FEF779FD9DF8000040F010000090AD
:10372000206B40F0805020636B460122032104206F
:10373000FEF74AFD38BD9DF8000020F01000009013
:10374000206B20F0805020636B460122032104206F
:10375000FEF73AFD38BD024624212720FEF754BD6E
:1037600070B504460D4600F0EFF9064600210E2024
:10377000FEF785FD15B140EA040201E020EA0402EB
:1037800000210E20FEF74DFD3046BDE8704000F0F0
:10379000E6B938B50446022100916B4601220021AA
:1037A0002F20FEF711FD002C07D0012000906B4662
:1037B000012200212F20FEF707FD38BD10B5044679
:1037C00004212F20FEF75BFDC0F30B012180C0F325
:1037D0000B40608008212F20FEF751FDC0F30B0144
:1037E000A180C0F30B40E0800C212F20FEF747FDA5
:1037F000C0F30B012181C0F30B40608110212F2009
:10380000FEF73DFDC0F30B41E181C0F30B00A08149
:1038100014212F20FEF733FDC0F30B416182C0F36A
:103820000B00208218212F20FEF729FDC0F30B0189
:10383000A182C0F30B40E08210BD38B50024009493
:10384000FFF7D1FE002211462C20FEF7DDFC6B466F
:10385000012206212C20FEF7B7FCFFF7FCFA6B468D
:10386000012203213620FEF7EBFC9DF8000000F05A
:103870000F0000906B46012203213620FEF7A4FCC6
:10388000012003F0D4FC9DF8000040F0F00000900F
:103890006B46012203213620FEF796FC024880F891
:1038A0007D4038BD00902724080A002038B5044622
:1038B000FFF799FE694D0522295D01EB81006849FA
:1038C000431807212B20FEF77FFC664B01220E21B7
:1038D0002B20FEF779FC285D634951F820200C214C
:1038E0002820FEF79EFC4FF4FF1200212820FEF74F
:1038F00098FC5E4A00212820FEF793FC22200090CD
:103900006B46012200213620FEF75EFC0720009066
:1039100001226B4611463620FEF756FC0022262176
:103920003620FEF771FC132000906B4601220C211B
:103930002A20FEF749FC0020B3E738B50446FFF71C
:1039400052FE4FF4FF1200212820FEF76AFC474A7E
:1039500000212820FEF765FC0220FEF7A4FC0D20C4
:10396000FEF7A1FC042C00D20424224600210A20E8
:10397000FEF757FC10208DF800006B460122242131
:103980002F20FEF721FC8CE7F8B5044680218DF846
:1039900000106B46012211212820FEF715FC0A2198
:1039A0008DF800106B46012212212820FEF70CFC36
:1039B0000F218DF800106B46012212212820FEF7FE
:1039C00003FC00268DF800606B46012200212A20AE
:1039D000FEF7FAFB01218DF800106B460122002151
:1039E0002A20FEF7F1FB012C1AD00020FEF75BFC29
:1039F0006B46022203212A20FEF722FC0120FEF75B
:103A000052FC9DF800409DF801508DF800606B4617
:103A1000012200212A20FEF7D7FB44EA0520F8BD49
:103A2000012003F004FC6B46022203212A20FEF74A
:103A300007FCE6E708B56B46012204212A20FEF7C1
:103A4000FFFB9DF8000008BD08B56B46012203216D
:103A50002A20FEF7F5FB9DF8000008BD34A70008FA
:103A600054A7000872A700083CA7000800FF5F00E9
:103A700070B5054608461646002406F09DFA022257
:103A800006F0B8FD05F088FFFF2800DDFF202A4979
:103A9000012EA1F108020CD0042D2DD0072D2BD022
:103AA000515D01EB810202EBC101244A02EB4101AD
:103AB00033E0042D0AD0072D08D0515D01EB8102BF
:103AC00002EB41111C4A083211440FE0495D1B4AC8
:103AD00001EB0111883A02EB810100E0641C0A5DF0
:103AE0008242FBDBA4F11C001CE0641C0A5D8242E4
:103AF000FBDBA4F1170015E0495D01EB8102C2EB8D
:103B000081110E4A6832114400E0641C0A5D824251
:103B1000FBDBA4F11E0005E0641C0A5D8242FBDBB6
:103B2000A4F1110006F09EFB06F046FABDE87040D5
:103B3000034A044B06F016B8EEA7000812A90008C5
:103B40007B14AE47E17A843F10B5172000F030FEB9
:103B5000002803D0064A4FF40001116010BD002870
:103B600004D003494FF4000080390860704700001A
:103B700080E100E00020704710B5344C022120465F
:103B800004F0ABFE0028F9D00021204604F029FE05
:103B9000002010BD2DE9F04781468A461746984619
:103BA0000024FFF7D1FF0246294810230360274D68
:103BB00007E01AF80400A8812E89F007FCD0A88934
:103BC000641C4C45F5DB002007E018F80010A981C3
:103BD0002989C907FCD0A989401CB842F5D31C48E3
:103BE000001F03601046FFF7BAFF0020BDE8F08712
:103BF0002DE9F04781468A4690461F460024FFF78C
:103C0000A3FF0246124810230360104D08E01AF883
:103C10000400A8812E89F007FCD0A8893870641CA4
:103C20004C45F4DB0020002406E0AC812989C9075B
:103C3000FCD0A9893954401C4045F6D30448001FE4
:103C400003601046FFF78BFF0020CFE700300140F4
:103C500014080140C178532902D102794E2A02D0BA
:103C6000532902D004E0012070470179572903D07D
:103C70000178642902D004E002207047407865286A
:103C800001D000207047032070471FB533480068FB
:103C900001903248001D00680290304808300068EA
:103CA000039003980090DDE901232DA1344805F02D
:103CB000EBF804B0012010BD70B53149314C102231
:103CC0004031204600F0F9FE2D494AF6AA20403145
:103CD000A1F116020B8883421AD008804B885B1C26
:103CE0004B8053804FF42A40888090805625CD80A9
:103CF000312008812E224A8130238B81CD81088298
:103D00004A828B822046BDE87040102200F0E4BE5B
:103D10004B885B1C4B80538088889080C888D080FB
:103D2000088910814889508188899081C889D0810B
:103D3000088A1082488A5082888A90822046BDE88C
:103D400070400F491022403100F0C6BE002070477D
:103D50000B49102240310B4800F0BEBEE8F7FF1FB0
:103D600041542B534E3D253038782D253038782D51
:103D7000253038782D312D312E300D0A000000000D
:103D8000C00A002000A4000800F0200200F0100388
:103D900002EB830200F0400002EB9000FE4A0009B3
:103DA0005060022902D080B2FDF740B9042802DD3C
:103DB00048F20400F8E780B240F40040F4E701461E
:103DC00000208A0700D50120490700D5801C7047D4
:103DD000FEB50646202000F043FDFDF73DFFEF4D08
:103DE000AF17A84216D0EE4C1021204604F05CFA22
:103DF000012003F01CFA1021204604F053FA07209A
:103E000003F015FAFDF728FFA84201D03846FEBDA1
:103E1000FFF713FD00F09FFDFDF7CDFE002801DA4E
:103E20003846FEBD082000F01BFDFDF715FF0446D7
:103E3000AC4201D03846FEBDD74D300702D4012038
:103E4000E86001E00220E860297B3046FFF79CFF34
:103E5000E868022804D16868042801DD0020E860D1
:103E6000E868FDF7C4F93046FFF7A9FFA860CA4A21
:103E700000EB8001183212F811008DF80000686123
:103E800002EB4100C2788DF8012042788DF80220C3
:103E900042798DF8052082798DF806200289ADF8E7
:103EA000082082788DF8032000798DF80400BA4844
:103EB000403000EB41016846FDF7D3FE2046FEBDD1
:103EC0000120FEF735B910B5B64CFFF7BFF9202138
:103ED000204604F0D3F90128F7D010BD4FF48050EC
:103EE000FDF7C8F8022003F0A2F9FBE700F0AA01F1
:103EF000490800F0550041EA400000F0CC01890873
:103F000000F0330041EA8000010900F00F0041EAAF
:103F100000107047AA21B1EB102F01D0002070478C
:103F2000C0B270472DE9F04F99B0002403F03AF980
:103F30004FF4E13003F096F900F034FB00F0B8FCE8
:103F400000F076FD00F0AEFB4FF47A7003F06FF9ED
:103F5000FFF7B2FEC82003F06AF901F0A5FC944D0A
:103F60008223914A9149284603F05EFA8F48012244
:103F70008021001F04F0C8FD284603F07AFA8D481E
:103F80008088FFF7C7FF06461FE005250BE0E8071E
:103F900003D0042000F037FB02E0042000F04FFBC8
:103FA000C82003F044F96D1E681CF0D17E481E2124
:103FB000823001F084FC7C488230FFF74BFE0228FF
:103FC0001BD026217CA001F08CFC002EDDD006F059
:103FD0007F00FFF78BFFDFF8C0B18BF800001720E0
:103FE00000F047FA042000F00EFB9BF80000FFF7FA
:103FF000EFFE401C16D0322527E0C82003F017F949
:104000006948823003F093F975498880FFF7A0FE74
:1040100074480168744A01F4E06111430160BFF320
:104020004F8FFEE7042000F00AFB19B00020BDE826
:10403000F08FE80703D0042000F0E5FA02E0042046
:1040400000F0FDFA322003F0F2F86D1E681CF0D18A
:104050009BF80000C0F3C201072934D0042000F00F
:10406000D2FA172000F0FAF9092141F61F4000F0BA
:104070001AFB00255D4E96F8F37500F031FBD6F87B
:10408000F415A0EB0108DFF868910121484601F022
:1040900087FB00287ED00121484601F088FB554A65
:1040A0001088401C81B21180534B1888401C80B28C
:1040B00018804FF47A7C614500D11580118821B1B8
:1040C000052902D006E0FFF709FF4C4A4FF001092D
:1040D00082F80090604500D11D801888032802D125
:1040E000474B01221A70052801D1464A1570012854
:1040F00002D8454B01221A700F2901D943490D708E
:104100000F2801D942490D7005280BD100F0C7FADC
:10411000024640A111A804F0B7FE0446214611A8AA
:1041200001F0DFFB35480178D1B1F18C48F2010292
:10413000914215D10570172000F09BF90320B1467C
:104140003070FFF751F8FDF71BFD022089F80100E0
:1041500099F8FD00401C89F8FD00172000F07EF959
:1041600027480178B9B1F18CA1F50042023A5CD13F
:104170000570172000F07DF90320B1463070FFF77D
:1041800033F8FDF7FDFC022089F8010099F8FD00E5
:10419000401C45E067E048E0100000203001CADE26
:1041A00000080140000C0140A20B0020043801402F
:1041B00044000240EA0A0020B5C8B4FDBDD3CAD508
:1041C0004154C3FCC1EEBDF8D0D0D0E9C4E2B2A6E0
:1041D000C2EBBFAAB9D8C9E8D6C30D0A00000000D7
:1041E000000B00200CED00E00400FA05680200203E
:1041F000000400400200002004000020060000200F
:104200000700002008000020000000200900002016
:104210000A00002054303D2025640D0A00000000F3
:1042200089F8FD00172000F019F997480178D1B1FD
:10423000F18CA1F50042033A15D10570172000F06A
:1042400018F90320B1463070FEF7CEFFFDF798FC59
:10425000022089F8010099F8FD00401C89F8FD0052
:10426000172000F0FBF8FDF7F4FEFCF7C4FFCBF8D5
:104270000C00012F0BD1B6F80411414507DA86F87E
:10428000E050012870D00620707086F8F355FCF7D6
:10429000B6FF81465FEA090052D0FCF7B8FF00F094
:1042A0000F08FCF7B9FF00F00F0AFCF7BAFF04464D
:1042B000FDF785FD87B2DBF80C00012858D0504689
:1042C000FDF773FD0646FDF768FF0F90FDF769FFE8
:1042D0000E90FDF76AFF1090B9F1010F4CD000204D
:1042E000FDF768FD06460320FDF77DFD81460220AF
:1042F000FDF779FD0D900120FDF775FD8246002048
:10430000FDF771FDCDE90548CDE9037603460D982B
:10431000CDF80890CDE900A05CA16948109A04F09E
:10432000B3FD04466649412201F1820004F016FF04
:104330006349412201F1C30004F010FFFCF743FF81
:10434000002C7FF797AEDBF8100000287ED000F03D
:10435000C7F9DBF8101001F57A718842FFF48AAED4
:10436000CBF8105086E6FFE75648FDF76CFD8CE76A
:10437000FDF717FD0646A6E70420FDF734FD81464C
:104380000320FDF730FD0D900220FDF72CFD0C9071
:104390000120FDF728FD0B900020FDF724FD0346CA
:1043A000DBF80C0001284DD06120CDE908A8CDE94B
:1043B00006400D98CDE9039705960290DDE90B01C3
:1043C000CDE9000140A13E48109A04F05DFD04468D
:1043D00021463B4801F085FA9BF801000128ADD148
:1043E0000320FDF710FD81460220FDF70CFD0D9026
:1043F0000120FDF708FD0C900020FDF704FD0346A9
:10440000DBF80C0001281FD061200E99CDE90610C1
:10441000CDE908A80F98CDE90297CDE90460DDE960
:104420000C01CDE90001264836A12044109A04F081
:104430002BFD04442249822201F1820004F08EFE09
:104440007CE703E07420B0E77420DEE721461C48D7
:1044500001F047FA3A4803F00CF80BE600F01F02AF
:10446000012191404009800000F1E020C0F80011D6
:10447000704700F01F02012191404009800000F1C7
:10448000E020C0F880117047080000206D612025F1
:104490003032782025303878202530387820253083
:1044A000387820253038782025303478202530326F
:1044B0007820253038782061303A25640D0A0000D4
:1044C000200B0020680200206D6320253032782008
:1044D0002530387820253038782025303878202548
:1044E0003038782025303878202530347820253031
:1044F0003278202530387820256325643A25640DEC
:104500000A0000006D72202530327820253038787E
:10451000202530387820253038782025303878200C
:1045200025303478202530327820253034782530F5
:10453000347820256325643A25640D0A00000000C4
:10454000440002407047FEE7FEE7FEE7FEE77047E3
:104550007047704712480168491C0160704710B5E8
:10456000AFF30080BDE810404FF4005003F067BB8C
:1045700010B5FFF7A5FCBDE81040012003F05FBBBC
:1045800010B5FFF7A0FCBDE81040082003F057BBB2
:1045900010B5FFF798FCBDE81040202003F04FBB9A
:1045A00078000020F8B501210D2004F012F8012157
:1045B000314803F099FE4FF47070ADF800001024FC
:1045C0008DF8034003258DF802502C4E6946304685
:1045D00003F0F9FDADF800408DF803408DF802506E
:1045E0006946304603F0EFFD1021304603F05AFED5
:1045F0002001ADF8000004208DF803006946204832
:1046000003F0E1FDF8BD01461C48052916D2DFE89C
:1046100001F00306090D1100402103F045BE802181
:1046200003F042BE4FF4807103F03EBE4FF40071C0
:1046300003F03ABE4FF4707103F036BE7047014686
:104640000E48052916D2DFE801F00306090D110016
:10465000402103F027BE802103F024BE4FF4807177
:1046600003F020BE4FF4007103F01CBE4FF47071D4
:1046700003F018BE7047000000023000000C01403B
:1046800000080140F848016841F080710160F74876
:1046900000214160016841F0010101607047F34869
:1046A00040687047EEE73EB504460D460121022002
:1046B00003F09AFFADF80440ADF800500020ADF8CB
:1046C0000600ADF80200EA4C6946204600F054FBB3
:1046D0000121204600F021FE3EBD4FF0FF30704723
:1046E000E4480068704770B5E3484FF47A71006899
:1046F000B0FBF1F14FF0FF35B1F1807F01D3012123
:104700000EE021F07F414FF0E024491E61610F214E
:10471000284600F098F90020A061072020610021C0
:1047200001B1FEE70521284600F08DF9002070BD9B
:104730001CB52020009000208DF8040008218DF881
:1047400005108DF80600684603F01AFA00201CBD1B
:104750007FB52024ADF80C4028208DF80F0003A968
:10476000C64803F030FD0521012003F0E8FD019467
:1047700000258DF8085008208DF8090001248DF8D7
:104780000A4001A803F0FCF94FF4C06003F09AF866
:1047900017208DF800000F208DF801008DF80250D1
:1047A0008DF80340684603F092F804B0002070BD15
:1047B00002460020B24909681140002900D00120BA
:1047C000704710B586B003F0E1FD4FF48034204609
:1047D00003F0F5FD03F021FE28B3102003F048FAA2
:1047E000022003F035FA002003F051FE002003F010
:1047F0005CFEA01103F052FE601003F06DFE4FF45A
:10480000E011204603F02CFE012003F031FE392098
:1048100003F0EEFD0028FAD0022003F02CFE03F096
:1048200031FE0828FBD101A803F07BFE012108031B
:1048300003F0CFFE0121880303F0D6FE01210846D4
:1048400003F0D2FE01210D2003F0C3FE06B00020CC
:1048500010BD8C4A118821F0380101431180704746
:1048600030B585B00446874D284603F009FF002186
:10487000ADF800104FF48270ADF80200ADF80410EE
:10488000ADF80610ADF808106815ADF80A00ADF8DF
:104890000C40ADF80E100720ADF810006946284610
:1048A00003F01AFF0121284603F09BFF05B030BD3D
:1048B000F0B587B0734E304603F0E2FE0021ADF84C
:1048C00008104FF48270ADF80A00ADF80C10ADF886
:1048D0000E10ADF810107015ADF812001024ADF8E0
:1048E0001440ADF816100720ADF8180002A93046A4
:1048F00003F0F2FEA020ADF8040018208DF80700A8
:1049000003258DF80650604F01A9384603F05BFC83
:104910004020ADF8040048208DF8070001A9384672
:1049200003F051FCADF804408DF807408DF80650B7
:1049300001A9384603F047FC0021304603F093FFFD
:104940000121304603F04DFF1021384603F0AAFC48
:1049500007B00020F0BDF8B50124ADF800401020EC
:104960008DF8030003258DF80250474E6946304606
:1049700003F029FC0121304603F096FCADF800401D
:1049800000218DF803108DF802506946304603F07F
:104990001AFC022002F04BFCF8BD7FB50025012473
:1049A000394A0826002828D0ADF80C4004208DF89C
:1049B0000F0003A9104603F006FC0021084603F08F
:1049C000BEFC01948DF808508DF809608DF80A40FE
:1049D00001A803F0D5F84FF4407002F073FF0620F1
:1049E0008DF800000F208DF801008DF802508DF831
:1049F0000340684602F06BFF7FBDADF80C408DF8B8
:104A00000F5003208DF80E0003A9104603F0DBFBC6
:104A100001948DF808508DF809608DF80A5001A8AE
:104A200003F0AEF87FBD19480068C0F3C05070476E
:104A300010B504F0C1F9FFF7C4FEFFF754FEFFF70D
:104A400087FE002010BD0907090E002806DA00F0D5
:104A50000F0000F1E02080F8141D704700F1E02005
:104A600080F8001470470000FCED00E0001000E04A
:104A70000004004078000020D4010020000C014018
:104A800000040140003001400008014000E100E066
:104A9000008870472DE9F04105460E461746002470
:104AA00007E036F81410284603F0F2F9AD1C641C38
:104AB000A4B2BC42F5D3BDE8F08110B50446002392
:104AC00007E02046FFF7E4FF21F81300A41C5B1C5D
:104AD0009BB29342F5D310BD2DE9F05F82460F469D
:104AE0001546AAF10064B4F5803F52D203F0C9F82C
:104AF0004FEA9428C4F34806C6F50074A54200D8CE
:104B00002C46DFF8A0B037E032183BF812208A427A
:104B100003D1401C80B2A042F6D3A04214D2484632
:104B200003F0E8F8002006E0821937F810102BF89F
:104B30001210401C80B2A042F6D348464FF40072D7
:104B40001849FFF7A7FF04E0224639465046FFF711
:104B5000A1FFA54203D1BDE8F05F03F09EB808F1C4
:104B60000108002607EB4407A244281B85B24FF436
:104B70000074A54200D82C464FF0006000EB882955
:104B8000821408494846FFF798FF00204FF6FF714E
:104B9000C1E7BDE8F09F13B5012201A9FFF79CFF13
:104BA0001CBD0000420C002010B5FE4988420AD10D
:104BB000C4140121204603F022FD2046BDE8104028
:104BC000002103F01CBDB0F1804F0CD0F6498842A3
:104BD00013D10121022003F01DFD0021BDE810408A
:104BE000022003F017BD0121084603F013FD002148
:104BF000BDE81040012003F00DBDEC49884209D109
:104C00000121042003F006FD0021BDE8104004202E
:104C100003F000BDE649884209D10121082003F0D4
:104C2000F9FC0021BDE81040082003F0F3BCE14985
:104C3000884209D10121102003F0ECFC0021BDE8DD
:104C40001040102003F0E6BCDB49884209D1012165
:104C5000202003F0DFFC0021BDE81040202003F0FD
:104C6000D9BCD64988420AD144140121204603F018
:104C7000C6FC2046BDE81040002103F0C0BCD0496E
:104C800088420AD10121CC04204603F0B8FC20461A
:104C9000BDE81040002103F0B2BCCA4988420AD1E5
:104CA00001210C05204603F0AAFC2046BDE8104077
:104CB000002103F0A4BCC44988420AD101214C055B
:104CC000204603F09CFC2046BDE81040002103F084
:104CD00096BCBE49884209D10121402003F09AFCCC
:104CE0000021BDE81040402003F094BCB849884240
:104CF00009D10121802003F08DFC0021BDE8104086
:104D0000802003F087BCB34988420AD18415012171
:104D1000204603F07FFC2046BDE81040002103F050
:104D200079BCAD4988420AD101210C04204603F028
:104D300066FC2046BDE81040002103F060BCA74996
:104D400088420AD101214C04204603F058FC204639
:104D5000BDE81040002103F052BCA14988420AD1AD
:104D600001218C04204603F04AFC2046BDE8104097
:104D7000002103F044BC10BD30B50288894C8F4D32
:104D8000A0420DD0A8420BD0B0F1804F08D0864B86
:104D9000984205D0854B984202D0854B984203D16A
:104DA00022F070034A881A43824B984206D0824B05
:104DB000984203D022F44073CA881A4302808A883A
:104DC00082850A880285A0420AD0A84208D0824A79
:104DD000904205D0814A904202D0814A904201D14E
:104DE000097A01860121818230BD30B5028C22F022
:104DF00001020284028C8388048B24F0700424F066
:104E000003050C882C4322F002020D8915434A88C1
:104E10002A43644DA8420BD0684DA84208D06E4D7D
:104E2000A84205D06D4DA84202D06D4DA8420FD1C9
:104E300022F008054A892A4322F004058A882A4379
:104E400023F4807323F400738D891D43CB892B4396
:104E500083800483C9888186028430BD70B5028C4A
:104E600022F010020284028C8388048B24F4E04434
:104E700024F440760D884FF6FF7404EA0525354387
:104E800022F020020E8904EA061616434A8804EA34
:104E900002123243434EB04202D0484EB04217D1C4
:104EA00022F080024E8904EA0616164326F04006D8
:104EB0008A8804EA0212324323F4806323F40063F5
:104EC0008E8904EA86061E43CB8904EA83033343B2
:104ED00083800583C9880187028470BD70B5028C08
:104EE00022F480720284028C8388848B24F0700404
:104EF00024F003040D88254322F400720E894FF636
:104F0000FF7404EA062616434A8804EA0222324362
:104F1000244EB04202D0294EB04217D122F400668E
:104F20004A8904EA0222324322F480668A8804EA2B
:104F30000222324323F4805323F400538E8904EA7F
:104F400006161E43CB8904EA03133343838085830B
:104F5000C9888187028470BD70B5028C22F48052AA
:104F60000284058C8288838B23F4E04323F440760B
:104F70000C884FF6FF7303EA0424344325F40055EC
:104F80000E8903EA06362E434D8803EA053535437C
:104F9000044EB04202D0094EB04226D122F48046DF
:104FA0008A891FE0002C01400004004000080040F6
:104FB000000C00400010004000140040003401408C
:104FC000004C0140005001400054014000180040D6
:104FD000001C00400020004000400140004401400F
:104FE0000048014003EA8212324382808483C988E8
:104FF000A0F84010058470BD828B22F44062828349
:10500000828B4FF6FF7303EA01210A4382837047C4
:10501000F0B5048C24F480540484868B048C4FF601
:10502000FF7505EA013726F4734605EA022232438A
:1050300005EA03331343F74A90420ED0F64A9042F2
:105040000BD0B0F1804F08D0F44A904205D0F44A1A
:10505000904202D0F34A904205D124F400513943E2
:1050600041F4805104E024F402420A4342F48051A6
:1050700083830184F0BD828B22F00C028283828BB9
:105080000A4382837047F0B5048C24F4807404844E
:10509000858B048C4FF6FF7707EA012625F0F30590
:1050A00007EA031313432B43DA4A90420ED0DA4A3D
:1050B00090420BD0B0F1804F08D0D84A904205D032
:1050C000D74A904202D0D74A904205D124F40071C9
:1050D000314341F4807104E024F420620A4342F435
:1050E000807183830184F0BD028B22F440620283CD
:1050F000028B4FF6FF7303EA01210A4302837047D4
:10510000F0B5048C24F010040484068B048C4FF654
:10511000FF7505EA011726F4734605EA03333343A6
:1051200005EA02221A43BB4B98420ED0BA4B984272
:105130000BD0B0F1804F08D0B84B984205D0B84B97
:10514000984202D0B74B984205D124F02001394350
:1051500041F0100104E024F0A0030B4343F01001E0
:1051600002830184F0BD028B22F00C020283028BC9
:105170000A430283704770B5048C24F00104048450
:10518000058B048C25F0F3054FF6FF7606EA031332
:1051900013432B439F4A90420ED09F4A90420BD01C
:1051A000B0F1804F08D09D4A904205D09C4A904271
:1051B00002D09C4A904205D124F002020A4342F0F8
:1051C000010104E024F00A020A4342F001010383D2
:1051D000018470BD70B505460C468E48854209D0E5
:1051E0008D48854206D0B5F1804F03D08B4885426B
:1051F00000D08B4820886188A288238958B1042870
:1052000011D0082817D02846FFF702FFE18828466A
:10521000BDE87040F0E62846FFF7ADFFE18828467C
:10522000BDE870409FE72846FFF76AFFE1882846FF
:10523000BDE8704058E72846FFF725FFE18828467B
:10524000BDE8704017E72DE9F04107460C46002500
:1052500001266188002900D10225A288012A00D1F7
:1052600002262088238988B13846FFF749FFE18864
:105270003846FFF739FF2389324629463846FFF77B
:105280007AFFE1883846BDE8F0416CE73846FFF721
:1052900072FFE1883846FFF766FF238932462946C8
:1052A0003846FFF72DFFE1883846BDE8F0411BE79F
:1052B00010B50A884B88CC881A438B8823431A433D
:1052C0000B891A434B8989891A430A43A0F8442061
:1052D00010BD4FF6FF71818000210180C1804180A7
:1052E000017270470021018041808180C18001816D
:1052F00041818181C181704700210180418001226B
:105300008280C180018170470021018041808180BD
:10531000C1800181418181817047002904D00188C9
:1053200041F0010101807047018821F001010180F5
:105330007047002905D030F8441F41F40041018036
:10534000704730F8441FC1F30E0101807047002AF6
:1053500003D082890A438281704782898A4382818D
:105360007047818270471143A0F848107047002AA7
:1053700003D082890A438281704782898A4382816D
:105380007047018921F0070101817047028922F0ED
:1053900070020A430281704700B503461846FFF7C2
:1053A000F5FF188940F00700188100BD70B50D4663
:1053B00004461146602D0CD001222046FFF7DBFE8B
:1053C00029462046FFF7E2FF208940F007002081B0
:1053D00070BD01222046FFF793FEF1E730B5048946
:1053E000E4B24FF6FF7505EA032313430B4323434F
:1053F000038130BD10B504462046FFF7EFFF20893A
:1054000020F0070040F0070020F0700040F070002E
:10541000208110BD002C01400034014000040040F8
:1054200000080040000C004010B504462046FFF77D
:10543000D5FF208940F480402081EAE701858282FF
:105440007047028822F070020A430280704770B5EC
:105450000589048B068C25F007050D434FF6FC41AA
:105460000C4040F201110C4326F022064FF6FF716A
:1054700001EA03111143314305810483018470BDA6
:10548000028B22F070020A4302837047028B22F4DF
:10549000E0424FF6FF7303EA012111430183704795
:1054A000828B22F070020A4382837047828B22F43F
:1054B000E0424FF6FF7303EA0121114381837047F5
:1054C000002904D0018841F08001018070470188E3
:1054D00021F0800101807047002904D0818841F0CB
:1054E000040181807047818821F004018180704728
:1054F000002904D0818841F00801818070478188AB
:1055000021F0080181807047002904D0818841F092
:10551000010181807047818821F0010181807047FD
:10552000028B22F008020A4302837047028B22F4A6
:1055300000624FF6FF7303EA0121114301837047B4
:10554000828B22F008020A4382837047828B22F406
:1055500000624FF6FF7303EA012111438183704714
:10556000028B22F004020A4302837047028B22F46A
:1055700080624FF6FF7303EA0121114301837047F4
:10558000828B22F004020A4382837047828B22F4CA
:1055900080624FF6FF7303EA012111438183704754
:1055A000028B22F080020A4302837047028BC2F30F
:1055B0000E024FF6FF7303EA012111430183704786
:1055C000828B22F080020A4382837047828BC2F36F
:1055D0000E024FF6FF7303EA0121114381837047E6
:1055E000028C22F002020A4302847047028C22F0ED
:1055F00008020A4302847047028C22F020024FF610
:10560000FF7303EA0111114301847047028C22F0F9
:1056100080024FF6FF7303EA0111114301847047C2
:10562000028C22F400724FF6FF7303EA012111434A
:1056300001847047028C22F400624FF6FF7303EA84
:105640000121114301847047028C22F400524FF66D
:10565000FF7303EA013111430184704710B5012340
:105660008B40048C9C430484038C8A401343038442
:10567000CFE610B504238B40048C9C430484038C38
:105680008A4013430384C4E630B500F118030124B3
:105690008C40058CA5430584002911D008290FD022
:1056A000091FC1F34E001844016821F4E041016074
:1056B00001684FF6FF7303EA02221143016030BD17
:1056C00003EB5100016821F0700101600168114392
:1056D000016030BD002904D0018841F00201018041
:1056E0007047018821F0020101807047002904D031
:1056F000018841F0040101807047018821F0040114
:1057000001807047002904D0818841F080018180A8
:105710007047818821F0800181807047028822F0E3
:105720000802028002880A4302807047828822F0C1
:105730007002828082880A4382807047028922F048
:105740000702028102890A4302817047028922F01E
:105750008002028102890A43028170478184704776
:1057600081857047818670470187704781877047C0
:10577000A0F840107047028822F44072028002882C
:105780000A4302807047808E7047008F7047808F79
:105790007047B0F840007047808C7047008D7047AC
:1057A00002460020128A0A4200D001207047C943F5
:1057B0000182704702460020138A0B4092890A40FA
:1057C000002B02D0002A00D001207047C94301827B
:1057D0007047000038B55F494FF4A0642246A1F13C
:1057E000200001F05DFE5C492246A1F5A26001F0B7
:1057F00057FE0121042002F0ECFE0825ADF8005010
:1058000003208DF8020010208DF8030069465348EC
:1058100002F0D9FCEC03204602F011FA50490C606A
:105820004D7101208871084602F0AAF938BD10B503
:10583000002002F04DFE0121BDE81040C80502F035
:10584000D3BE48490320086070474748817A4548DD
:10585000002902D0052101607047012101607047D5
:1058600038B514208DF8000002208DF801000024C6
:105870008DF8024001208DF80300684602F027F8F9
:105880002A208DF800008DF80140684602F01FF8CC
:1058900038BD324A002803D00821104602F002BD6C
:1058A0000821104602F000BD10B5FFF793FFFFF787
:1058B000BEFFFFF7D5FFBDE8104000F077BF0A46F6
:1058C00001462448203801F009BE0A460146214815
:1058D000203801F0EBBD0A4601461E48103801F0A1
:1058E000FDBD0A4601461B48103801F0DFBDF0B58A
:1058F00000230A2530263727002412E0B5EB107F5D
:1059000004D906EB107C01F813C003E007EB107C10
:1059100001F813C0000101EB430C8CF801405B1C43
:10592000DBB29342EAD3F0BD10B510480168001D08
:105930000468001D0068084400280AD008220C49A9
:10594000FFF7D5FF0A4920460422BDE81040103178
:10595000CDE710BD64100020641500200008014050
:105960007C0000208C010020041B0020E8F7FF1FB2
:105970008600002070B5284D2878012813D14021D9
:105980002648FFF7A8FF84B200266CB12246C0214A
:10599000224801F031F82146012001F022FA0120CD
:1059A00001F0EEF86E6070BD2E7070BD10B51B4931
:1059B0000320403101F0DFFB81B218484030FFF78F
:1059C00084FFBDE81040032001F0ECB870B5144826
:1059D000006805281FD1104D287800281BD1686861
:1059E000411C6960052816D10020686040210B48E1
:1059F000FFF771FF84B2002C0DD02246C02107486A
:105A000000F0FAFF2146012001F0EBF9012001F03E
:105A1000B7F80120287070BDAC000020641A002087
:105A20008C0100202DE9F04188B00024504D2868F9
:105A3000504E70807088DFF84081B8F80010084040
:105A4000800507D54FF6FF5028603078401C307035
:105A5000FFF7BCFF7088B8F800100840000401D5BB
:105A600000F0B8FE7088B8F800104FF6FF37084015
:105A7000400503D52F604148406880477188B8F8D9
:105A800000000140890402D54DF6FF71296071883C
:105A90000140C80405D54EF6FF702860002000F0D4
:105AA00001FA7088B8F80010084000050BD534489A
:105AB000007810B100F08DF902E0022000F0F2F958
:105AC0004FF2FF7028607088B8F800100840C005D9
:105AD0004AD54FF6FF6028602548001D00684FF04A
