:020000040800F2
:100000000024002069A500083D5D00083F5D000850
:10001000435D0008475D00084B5D000800000000DC
:100020000000000000000000000000004F5D00081C
:10003000515D000800000000535D0008555D000898
:1000400083A5000883A5000883A5000883A50008F0
:1000500083A5000883A50008715D000883A500083A
:1000600083A500087F5D000883A5000883A500081C
:1000700083A5000883A5000883A5000883A50008C0
:1000800083A5000883A5000883A5000883A50008B0
:100090008568000883A5000883A500088D5D000819
:1000A00083A5000883A5000883A5000883A5000890
:1000B00083A5000883A5000883A5000883A5000880
:1000C00083A5000883A5000883A5000883A5000870
:1000D00083A50008F186000883A5000883A5000811
:1000E000615D000883A500088D68000800F002F833
:1000F00000F065F80AA090E8000C82448344AAF15D
:100100000107DA4501D100F05AF8AFF2090EBAE85A
:100110000F0013F0010F18BFFB1A43F0010318473B
:1001200068C3000088C300000A444FF0000C10F8B8
:10013000013B13F0070408BF10F8014B1D1108BF65
:1001400010F8015B641E05D010F8016B641E01F805
:10015000016BF9D113F0080F1EBF10F8014BAD1C55
:100160000C1B09D16D1E58BF01F801CBFAD505E073
:1001700014F8016B01F8016B6D1EF9D59142D6D3CD
:10018000704700000023002400250026103A28BFF5
:1001900078C1FBD8520728BF30C148BF0B607047F9
:1001A00064290AF0598378290AF0928363290AF0B6
:1001B0009C85002070471FB51FBD10B510BD0AF00B
:1001C000A0FD1146FFF7F7FF05F092FA0AF0BEFD19
:1001D00003B4FFF7F2FF03BC08F0E8F9412180F80F
:1001E0006010882261210A5490F8CC2063210A54BF
:1001F000B0F8CC100A1264210A54002262210A5479
:10020000704770B504460D460026B4F8C8000021BA
:1002100003F09BFD012D02D1A06D04F0A6FC94F823
:10022000E0102943C8B204F0A8FC30B10126D4F88C
:100230007001401CC4F8700106E005F066FEC4F8C9
:10024000F405012084F8F305304670BD2DE9F05F18
:1002500005460F4690461E464FF0000AD34600243E
:100260001CE055F82490FE48814504D049462046BC
:1002700000F0EDFF8346BBF1010F01D1C24607E05C
:1002800030780121A14088433070204601F058F8B1
:10029000F34845F824004FF0000B641CBC42E0DB3F
:1002A0005046BDE8F09F2DE9F34FA5B004466078B5
:1002B000092871D2DFE800F005A3CCFD70FCFBFA41
:1002C00085002078002869D0012802D0022875D145
:1002D00034E00025182003F0CCFDB4F8CC0003F086
:1002E000E3FD04F18000E18CA4F8BF103F3003F07F
:1002F000EBFDE08CC4F88401E08C03F0DDFD02200E
:10030000A0700120607084F8E200002084F8F400FE
:10031000C4F8100140F6411503F04FFB08B145F455
:100320008055A07A042801D145F080052046FFF7CA
:1003300055FF05F0EAFDC4F8E80040E004F1800054
:10034000E18CA4F8BF103F3003F0BEFDB4F8CC0040
:1003500003F0AAFD94F8260000F0030084F8BE0024
:10036000E08C03F0A9FDE08CB0F5004F02D1012034
:1003700084F88C01002003F07CFD002004F02AF9B1
:1003800006206070002004F08FFC002004F0BFFC09
:100390002046FFF723FF12E0FDE3FFE7002003F014
:1003A00068FD002004F016F9002004F07DFC002018
:1003B00004F0ADFC0620607001E0FFE700BF00BF65
:1003C000EAE30A2002F029FD05462878042802D035
:1003D00001206060F4E70020606084F8E200A0780B
:1003E00060700020A07005F090FDC4F8E8000320C4
:1003F00008F0C7F802F0CFFF02F0B4FFE0E7A07802
:10040000022820D194F8E200E8B194F8F400401CEE
:1004100084F8F400022060600820607004F1F203A8
:100420000122042104F59C70FFF710FFF234C4F898
:100430008A00207860700020207005F066FDC4F806
:100440009600F23C03E0A07860700020A070B7E74F
:100450002078012802D194F8F40001E094F8FD001E
:1004600084F86A002078012801D1812100E07121FF
:10047000692001555A2184F86B100E20A4F8C80099
:1004800094F8CA1062200155BF34E07A401CE07233
:1004900014F8BF1967200155C020015D84F8681069
:1004A000FF216520015584F8661003E02DE118E175
:1004B00092E044E0B4F8C800002204F1600103F0C7
:1004C00031FCC82004F086F82078012810D10021E2
:1004D00094F8F42004F2F9508154042084F8E100E7
:1004E0004FF6FF72216D02EA810004F0DDFB0FE0A0
:1004F000002194F8FD2004F2F9508154022084F880
:10050000E1004FF6FF72216D02EA410004F0CCFBDE
:10051000002084F8F20084F8F100022084F8E00062
:10052000B4F8C800002103F010FC022004F025FB01
:10053000052060700220E0700120606040E72078B4
:10054000012802D194F8F40001E094F8FD0084F849
:100550006A002078012802D194F8F20001E094F8B2
:10056000F10084F889002078012801D1822100E07F
:100570007321692001552C20A4F8C80094F8CA10F2
:1005800062200155C834A078401CA07034F8C80916
:10059000002204F1600103F0C5FB002084F8E000B4
:1005A00001212046FFF72DFE50B12078012803D10C
:1005B00060700220A07002E0204602F085FBFBE3A1
:1005C000052060700320E0702078012801D184F8B4
:1005D000E20001206060EFE30B2002F01EFC054604
:1005E000287801280DD0287840B12878042803D134
:1005F000012084F8F00001E00120606001206060CB
:10060000DAE300206060E07803280AD1207801282E
:1006100003D160700220A070CEE3204602F054FBAC
:100620005EE094F8F000012808D1204602F05CFB5F
:10063000002084F8F00084F8E000BDE3D5E9020171
:10064000C4E93401E078022841D12078012810D192
:10065000D4E90C26D4E9343198187141014B03E0F8
:10066000FFFFCDAB00FEFFFF1840C9B2CDE922016C
:100670000AE0D4E90E26D4E9343099187041F74BDA
:100680001940C0B2CDE92210DDE92210020642EA8B
:100690001120A065A18BDDE92223891843F1000018
:1006A000CDE92210DDE92210C0B2CDE92210882068
:1006B0002299C4F884109DF88C100155D4F8D020EC
:1006C0006F20C4F86B2094F8D410015500BFE07877
:1006D0000B2801D10420E0700620607000202690D5
:1006E00000BF94F8E00018B9002004F0ACFA02E072
:1006F000002084F8E000207808B101206060072025
:100700006070269800B957E300BF2698002870D083
:10071000022804D004286DD006286CD13FE30F20B6
:1007200002F07BFB814600202290239020902190B4
:1007300083461F901E9084F8E30099F81D0000F096
:10074000CC0088283AD08C2827D0C82814D0CC28B0
:1007500043D1D9F829102291D9F82D002390D9F846
:1007600021102091D9F825002190312010F809009E
:100770001F9009F1310A30E0D9F823102291D9F8FD
:1007800027002390B9F82100ADF880002B2010F845
:1007900009001F9009F12B0A1FE0B9F82900ADF8F4
:1007A0008800D9F821102091D9F8250021902B201C
:1007B00010F809001F9009F12B0A0EE0B9F8230088
:1007C000ADF88800B9F82100ADF88000252010F8B8
:1007D00009001F9009F1250A00BF00BF94F8E2004C
:1007E00050B9207840B906206070002003F0F2FE76
:1007F000BEE2D5E2BDE2D1E2DDF87CB09DF8880032
:1008000000F003001E90BBF1730F76D009DCBBF142
:10081000700F4ED0BBF1710F0AD0BBF1720F6DD1CA
:1008200046E0BBF1810F04D0BBF1820FF7D11AE192
:1008300000BFD9E90201C4E93601BBF1810F09D13A
:100840009AF801109DF8880000F0070204F1F50005
:10085000815405E09AF8012004F1FE001E994254EB
:10086000E08C48F2010188420FD19DF888009DF884
:10087000891040EA0120B0F5004F06D1B4F8041108
:10088000D9F818000844C4F80C0199F802000C28A3
:1008900004D1052060700920E07008E099F802009A
:1008A0000E2802D10720607001E00620607056E239
:1008B00000BF9AF80700401CC5B29DF888009DF85B
:1008C000891040EA0120B0F5004F0DD120780128B1
:1008D0000AD19AF801009AF8021000EB012000B248
:1008E000C4F810010020E06299F802000C2806D13B
:1008F000052060700A20E07030E0B3E029E299F84A
:1009000002000E282AD02078012804D194F8F200A1
:1009100000F0010090B9E08C48F20101884204D156
:1009200094F8F10000F0040040B9E08CB0F5004FFD
:1009300007D194F8F10000F0020010B103206070BC
:100940000CE02078012806D160700220A070012000
:1009500084F8E20002E0204602F0B6F9BBF1700F25
:1009600039D194F8F400A84221D19DF8880000F014
:10097000030104F59C7000EB8100DAF803100160BC
:100980009DF8880000F0030104F59C7050F82100E8
:100990003349884261D094F8F2009DF8881001F044
:1009A000030201219140084384F8F20055E09DF8CC
:1009B000880000F0030104F59C7050F821002849DC
:1009C00088424AD09DF8880000F0030204F59C702C
:1009D00040F8221041E094F88C0178B394F8FD00BF
:1009E000A8423AD114F8FD0F607014F8FD1904F212
:1009F000F950405C032822D19DF888009DF88010B2
:100A0000084400F0030104F5AC7000EB8100DAF853
:100A10000310016004F1F1030222042104F5AC701B
:100A2000FFF714FCF134C4F88B002078A07000208C
:100A30002070D9F81800C4F89700F13C0DE09DF83B
:100A400088009DF88010084400F0030104F5AC70A4
:100A500000EB8100DAF80310016080E100FEFFFF87
:100A6000FFFFCDAB00BF00201690179000BF129083
:100A70001390002110911191FE4D002600BF00BF80
:100A800000BF9AF82000099094F8BE0000EB8000A7
:100A9000C01DC0B20890BBF1820F0DD19DF8880037
:100AA00000F0070104F1F500405C9AF8011088425B
:100AB00002D00620607052E1BBF1730F12D104F135
:100AC000FE001E99405C9AF80110884207D194F804
:100AD0008C0120B9E08C48F20301884202D1062043
:100AE00060703CE1E08C48F2010188420BD19DF836
:100AF00088009DF8891040EA0120B0F5004F02D12E
:100B0000012084F8E400E08CC4F8800194F8BE1061
:100B1000012088400999084000287DD0D9E90201C8
:100B2000CDE914010020A0656034DAF802001290CB
:100B30009AF806008DF84C0008985044016810910E
:100B400000798DF84400DAF81B0016909AF81F001F
:100B50008DF85C00DDE91232DDE91010C91A60EB96
:100B60000200C0B2CDE91A10D4E91C30D4E91E123B
:100B7000591A60EB0200C0B2CDE91810D4E91C2369
:100B8000603CDDE91410891A60EB0300FF230F4677
:100B900000EA030801E00EE10EE1DDE91032DDE9D3
:100BA0001610C91A60EB0200C0B2CDE91C10DDE9D5
:100BB00018010AF0D3FBCDE90201DDE91C010AF0BE
:100BC000CDFBCDE90001DDE902230AF067FCCDE9A8
:100BD0000601384641460AF0C1FBCDE90201DDE9D4
:100BE0001A010AF0BBFBCDE90001DDE902230AF09E
:100BF00055FCCDE90401DDE906230AF08FFDCDE9BE
:100C00000E01DDE918010AF0A9FBCDE9060138461D
:100C100041460AF0A3FB00E02DE0CDE90401DDE947
:100C200006230AF049F9CDE90C01DDE91C010AF0BF
:100C300095FBCDE90601DDE91A010AF08FFBCDE94C
:100C40000401DDE906230AF037F9CDE90A01DDE9FF
:100C50000A23DDE90C010AF02FF902460B46CDE923
:100C60000401DDE90E010AF0DBF9CDE906010AF025
:100C70002FFBC6170546BBF1820F39D19DF88800BE
:100C80009DF8891000EB0120C4F8840194F88401D8
:100C900000F0070104F58C7040F8215004F1F203D4
:100CA000012204212030FFF7D1FAF234C4F88A007F
:100CB00020786070002004F8F2096E4985EA01008E
:100CC000304310D014F8BE1F9DF8880000F026FBBA
:100CD00021780120884084F8340014F8BE1904F506
:100CE0009C7040F82150D9F81800C4F888010CE035
:100CF0009DF888009DF8891000EB0120C4F884015C
:100D000004F5A4701E9940F8215094F8F81504F2E7
:100D1000F9504056002815DB94F8F81504F2F95004
:100D2000405C404241B294F8F82504F2F9508154F5
:100D300094F8F815405C28B9FF2194F8F82504F2DE
:100D4000F950815402F027FB02F00CFB0620607082
:100D500005E006206070002003F03CFC00BF00BFEF
:100D600099F81C0000F0200010B1102002F055F896
:100D70001FE0112002F051F80546A8780C2804D194
:100D8000052060700B20E07005E0A8780F2802D1E4
:100D9000204601F0A9FF002026900AE000BF00BF16
:100DA000269808B101206060606808B90120606081
:100DB00000BF00BF00E000BF00BF606827B0BDE813
:100DC000F08F2DE9F04F8DB00646002400BFA046FD
:100DD0000025A146A24600200C908346DFF898909B
:100DE0004FF0824148460AF007FF244906900AF076
:100DF0000DFE07900AF07CFDCDE9080109F0BCFF6B
:100E0000CDE90A010AF064FA83460BEB4B010801B5
:100E10000AF0DAFE4FF082410B9048460AF0ECFEF1
:100E20000A900B990AF090FD81460027F8000AF01D
:100E3000CBFE124906900AF0E9FD07900AF058FD32
:100E4000CDE9080109F098FFCDE90A010AF040FA5E
:100E50008346F8000BEB4B0100EB0117C4EBC40019
:100E6000074901EB0020C07B00BB064948460AF059
:100E7000C3FE09E0FFFFCDAB000098410000A54391
:100E800090020020853400468146BD4948460AF05C
:100E90005BFD814638460AF097FEBA490A900AF08F
:100EA000ABFE0B900AF074FE074632E0C4EBC400C0
:100EB000B54901EB0020C07B012815D1B349484654
:100EC0000AF09AFE8146B24948460AF03DFD814645
:100ED00038460AF079FEAD490A900AF08DFE0B9073
:100EE0000AF056FE074614E0AA4948460AF084FE76
:100EF0008146A74948460AF027FD814638460AF050
:100F000063FEA4490A900AF077FE0B900AF040FEB7
:100F10000746C4EBC4009C4901EB0020C07B9E49FE
:100F2000085C0C90C4EBC400974901EB0020807A68
:100F300000F00301F9B980100E2820D2DFE800F09C
:100F40001F1C10071F190D1F1F160A1F1F134FF01C
:100F50008B4A14E04FF08A4A11E0DFF840A20EE01D
:100F60004FF0894A0BE04FF0884A08E04FF0874A7B
:100F700005E04FF0864A02E04FF0854A00BF00BF0F
:100F8000C4EBC400804901EB0020407A01280CD159
:100F90000C980AF019FE51460A900AF0D5FC8049D7
:100FA0000B900AF029FE82460BE00C980AF00CFE2A
:100FB00051460A900AF0C8FC7A490B900AF01CFED0
:100FC000824638460AF000FE494600900AF0BCFC12
:100FD00001900AF08DFC0022734BCDE902010AF06A
:100FE0001FF8CDE9060150460AF082FCCDE9040164
:100FF000DDE9062309F060FF6C4A6D4BCDE908017D
:101000000AF00EF8CDE90A010AF062F900F11005C4
:1010100030460AF08CF9CDE90A0100F0EBF8C4EB98
:10102000C402594B03EB0222C2E90C0106EBD67154
:10103000491001F164000B960AF079F9CDE9080135
:1010400000F0D8F8C4EBC4024F4B03EB0222C2E914
:101050000E0148460AF04CFC0022534BCDE9040136
:1010600009F0DEFFCDE9080150460AF041FCCDE968
:101070000601DDE9082309F01FFFCDE90A010AF0A6
:1010800027F98046C4EBC4003F4901EB0020C07B38
:10109000A8BB05F52F70C4EBC4013B4A02EB01214C
:1010A0000865C4EBC400114601EB0020456508F556
:1010B00096700AF03CF9CDE90A0100F09BF8C4EB08
:1010C000C402314B03EB0222C2E9100150460AF080
:1010D0000FFCCDE90A0100F08DF8000A40EA01603A
:1010E0001030C4EBC401284A02EB012188644FF49C
:1010F0009670C4EBC40102EB0121C86435E0FFE740
:1011000005F59670C4EBC4011F4A02EB0121086586
:10111000C4EBC400114601EB0020456508F596704C
:101120000AF005F9CDE90A0100F064F8C4EBC40245
:10113000154B03EB0222C2E9100150460AF0D8FB1E
:10114000CDE90A0100F056F8000A40EA01601030CB
:10115000C4EBC4010C4A02EB012188644FF4967081
:10116000C4EBC40102EB0121C8640DB0BDE8F08FEF
:101170000021C1EBC102044B03EB0222D084704773
:101180000045284885340046900200207B34804486
:101190000046A846C3350043A8BF00080000C0446D
:1011A000EA5B7E3FB341823F00408F400D71AC8BC4
:1011B000DB68F03F10B5A0B0044680220C496846B9
:1011C00009F093FC202004F072FF204603F09AFE01
:1011D000002269467F2002F0A5FD00217F2002F059
:1011E000B4FD002003F0C9FC002020B010BD0000B9
:1011F000E8C200082DE9F05F04460D46FD4AFE4BAB
:101200002046294609F00CFF80460022FB4B09F0DE
:1012100007FF82468B46504659460AF02FFE064687
:101220000F4630463946BDE8F09F2DE9F0410446AF
:1012300000BF20460AF07BF80546EE4AEE4B0AF066
:101240002DF90746884638464146BDE8F0812DE92C
:10125000F04F85B082468B46CDF810B000BF0498A1
:10126000FFF7E3FF804689464FF09852E44B404633
:1012700049460AF013F904460D46E24A02EBCA0257
:1012800003C2E148407CA8B1DF48007A052808D1B4
:10129000DE4ADF4B2046294609F0C2FE06460F46CD
:1012A0000AE0DC4ADC4B2046294609F0B9FE064636
:1012B0000F4601E026462F463046394609F0CAFD62
:1012C000D14901904A7A087A019903F0B9FE224681
:1012D0002B46CDE902010AF015FA04460D4600221C
:1012E0001346204629460AF09DF806D30022CB4B30
:1012F000204629460AF0D0F903D2002005B0BDE807
:10130000F08FC74800EBCA0030C0BF48D0F8780162
:10131000401CBD49C1F878010120EFE710B5C04A73
:1013200002EBC102D2E90032BE4C04EBC004C4E9B6
:10133000003210BD0246BB4800EBC20103C9704732
:101340000022B04B03EBC0031A605A60B44B03EBAE
:10135000C0031A605A60704700200CE00022B249B6
:10136000A84B03EBC003C3E90021AD4B03EBC00363
:10137000C3E90021401C0428F0DB7047A24A10702A
:101380007047A148007870479F49D1F87C0100213F
:101390009D4AC2F87C1170479B48D0F88001704785
:1013A0009948D0F8840170479748D0F88801704771
:1013B00070B5002500240020C5EBC501924A02EB60
:1013C0000121C865012003F0C4FC0020C5EBC50164
:1013D0008D4A02EB012181F8CA00C5EBC50102EB81
:1013E0000121C1F8780100BF0AE09049C5EBC500B2
:1013F000854A02EB002000F59C7040F82410641C24
:10140000042CF2DB00240AE08849C5EBC5007E4AC3
:1014100002EB002000F58C7040F82410641C082CAE
:10142000F2DB70BD0FB470B52C9D002400208DF848
:10143000AB00C4EBC401744A02EB012101F5C87191
:10144000C4EBC402704B03EB022292F8F12502EBCD
:10145000820201EB4210A02204A909F046FBC4EB72
:10146000C400694901EB002000F5C870C4EBC40159
:10147000654A02EB012191F8F11501EB810100EBC6
:1014800041100570C4EBC400114601EB002090F838
:10149000F105401CC4EBC40102EB012181F8F10508
:1014A000C4EBC400114601EB002090F8F1050628BA
:1014B00006D10020C4EBC40102EB012181F8F10543
:1014C00070BC5DF814FB2DE9F04105460F2605F0D0
:1014D0000307002447B1012F07D0022F06D0032FA6
:1014E00001D100BF24E000BF00BF00BFC4EBC400B7
:1014F000454901EB002090F9E100002816DDC4EB1E
:10150000C401414A02EB0121B1F85010C4EBC402FE
:101510003D4B03EB022292F9E120514388B203F0E4
:10152000C3FB002003F08FFB0E2600E00F2600BF58
:1015300000BF3046BDE8F08110B50024C4EBC40103
:10154000314A02EB0121896DC4EBC4022E4B03EB3F
:101550000222926C881A03F008FB012003F073FB4F
:1015600038B3C4EBC401284A02EB0121496D4FF6A0
:10157000FF7202EA410003F097FB002003F063FBD7
:10158000C4EBC401204A02EB0121B1F8541088B227
:1015900003F08AFBC4EBC4001B4901EB0020D0F828
:1015A0007401401CC4EBC401174A02EB0121C1F8CD
:1015B000740110BD2DE9F04106460D460F274FF08E
:1015C00000080024C4EBC4000F4901EB002090F890
:1015D000E10028B9002003F067FB002003F097FB2F
:1015E00005F0010028B1C4EBC400074901EB00205D
:1015F0001EE03BE0FA48CE3B1835B13D80842E41D9
:1016000019DDB1417002002090020020295C8FC2D8
:10161000F528F83FF6285C8FC2F5F43F0088D340E8
:101620005002002010020020E0FFEF40FFFFCDAB92
:1016300090F8E100012800D18046C4EBC400FE49C7
:1016400001EB002090F88C0138B9C4EBC40001EB29
:10165000002090F8BE00032808D1002003F024FBEE
:10166000002003F0F0FA0E20BDE8F081C4EBC400C6
:10167000F14901EB0020806DC4EBC401EE4A02EB9E
:1016800001210A6C91F844100B0643EA122140181C
:10169000C4EBC401E84A02EB0121886505F00100B2
:1016A00078B9C4EBC400114601EB002090F9E100C9
:1016B000C4EBC40102EB012191F8BE1008440328D9
:1016C00002D0B8F1010F76D10220C4EBC401DA4A8E
:1016D00002EB012181F8E000C4EBC40102EB01211F
:1016E000886D03F042FA032003F047FAB0B30020FC
:1016F00002F070FF0020C4EBC401CF4A02EB0121CD
:1017000081F8E000C4EBC400114601EB0020D0F8E2
:101710007001401CC4EBC40102EB0121C1F870014F
:10172000C4EBC400114601EB0020806DC4EBC40182
:1017300002EB01210A6C91F844100B0643EA1221D6
:101740000222A1FB02124018C4EBC401BA4A02EB08
:1017500001218865FFF7F0FE0E2737E0FFE7C4EBB5
:10176000C400B54901EB0020806DC4EBC401B24A4E
:1017700002EB01210A6C91F844100B0643EA122196
:101780004018C4EBC401AC4A02EB012188654FF05C
:101790000C0704F0BAFBC4EBC401A74A02EB012119
:1017A000C1F8F4050120C4EBC40102EB012181F86A
:1017B000F3050BE0FFE736B9002003F075FA0020CF
:1017C00003F041FA01E0FFF7B7FE0E2738464BE77A
:1017D0000FB410B5A6B00024C4EBC400964901EBC9
:1017E00000200078022838D1C4EBC40001EB0020AF
:1017F00090F9E100002829DDC4EBC40001EB0020D2
:1018000090F8E100401E40B2C4EBC4018A4A02EBEA
:10181000012181F8E10000210846FFF7CBFE8DF899
:10182000A20000208DF8A00044208DF8A100002027
:10183000ADF8A400042090222CA92490684609F059
:1018400054F928A80FC8FFF7EDFD3AE0002003F097
:101850002BFA002003F0F7F933E0C4EBC40076491B
:1018600001EB0020007818B9002003F0ECF928E023
:10187000C4EBC400704901EB002090F8E100401E69
:1018800040B2C4EBC4016C4A02EB012181F8E100D3
:101890000020FFF718FE8DF8A20000208DF8A000B0
:1018A00044208DF8A1000020ADF8A400042090226F
:1018B0002CA92490684609F018F928A80FC8FFF74A
:1018C000B1FD26B010BC5DF814FB2DE9F0410546D2
:1018D0000F2705F003060024C4EBC400564901EBB2
:1018E0000020C08CB0F5004F17D1012E02D0022E7F
:1018F0000FD10FE0C4EBC4014F4A02EB0121B1F854
:10190000501088B203F0D0F9002003F09CF90E27A4
:1019100002E000BF0F2700BF00BFC4EBC400464970
:1019200001EB0020C08C48F20101884205D1022E53
:1019300000D000BF0F2700BF00BF3846BDE8F081D0
:101940002DE9F05F0646884691461F46DDF828A03F
:101950004FF0000B06F00705002413208346C4EB6C
:10196000C401354A02EB0121A1F8C800C4EBC40050
:10197000114601EB002007EB08010988A0F865106B
:10198000C4EBC400114601EB002090F8BF10C4EB7B
:10199000C40002EB002080F86710C4EBC4001146BD
:1019A00001EB002090F8C010C4EBC40002EB002053
:1019B00080F86810C4EBC400114601EB002000F56C
:1019C0008C7000EB8501C4EBC40002EB00200968B9
:1019D000C166C4EBC400114601EB0020F530415D47
:1019E000C4EBC40002EB002080F870100021C4EBAF
:1019F000C40002EB0020F530415509F10100385CCC
:101A0000C4EBC40102EB012181F8F400C4EBC40073
:101A1000114601EB002090F8CA10C4EBC40002EBA1
:101A2000002080F86210C4EBC400114601EB0020D6
:101A300090F8CA00401C01E090020020C4EBC401F1
:101A400002EB012181F8CA00C4EBC400114601EB8E
:101A5000002000F58C7050F82500FE49884227D000
:101A6000C4EBC400114601EB002090F8BE10012029
:101A70008840C4EBC40102EB012181F8F200C4EB01
:101A8000C400114601EB002000F58C7050F82510C1
:101A9000C4EBC40002EB002000F59C70C4EBC40250
:101AA000ED4B03EB022292F8BE2040F8221018E022
:101AB000E849C4EBC400E84A02EB002000F59C7042
:101AC000C4EBC402E44B03EB022292F8BE2040F8C0
:101AD00022100020C4EBC4011A4602EB012181F858
:101AE000F200C4EBC401DC4A02EB0121C86C02F035
:101AF00071FDC4EBC400D84901EB002090F88C01C3
:101B000000285BD0002000210022C4EBC403DFF8D2
:101B100048C30CEB0323B3F80231BAFBF3FC03FB1D
:101B20001CA1F3B2C4EBC40CDFF82CE30EEB0C2CBD
:101B3000BCF804C103FB0CF2501AC4EBC403F44616
:101B40000CEB0323B3F802315B105B4283420DDDE3
:101B5000C4EBC4030CEB0323B3F802310344C4EB1E
:101B6000C40C0EEB0C2CCCF8103107E0C4EBC40312
:101B7000DFF8E4C20CEB0323C3F81001C4EBC40389
:101B8000DFF8D4C20CEB032393F810C1C4EBC403F9
:101B9000DFF8C4E20EEB032383F86AC0C4EBC4038E
:101BA000F4460CEB0323B3F810314FEA132CC4EBCB
:101BB000C4030EEB032383F86BC014E00020C4EBD6
:101BC000C401A54A02EB0121C1F810010021C4EBB8
:101BD000C40002EB002080F86A10C4EBC40002EBE2
:101BE000002080F86B107021C4EBC4009A4A02EB0D
:101BF000002080F869100021584602F0A6F8C4EBD6
:101C0000C400954A02EB002000F160010022584612
:101C100002F088F8BDE8F09F2DE9F04707468846B6
:101C200091461D464FF0000A07F0030600241320DA
:101C30008246C4EBC401884A02EB0121A1F8C80026
:101C4000C4EBC400114601EB002005EB0801098834
:101C5000A0F86510C4EBC400114601EB002090F819
:101C6000BF10C4EBC40002EB002080F86710C4EB87
:101C7000C400114601EB002090F8C010C4EBC40072
:101C800002EB002080F86810C4EBC400114601EBA1
:101C9000002000F5A47000EB8601C4EBC40002EB49
:101CA00000200968C166C4EBC400114601EB0020A6
:101CB000FE30815DC4EBC40002EB002080F87010A0
:101CC0000021C4EBC40002EB0020FE30815509F175
:101CD0000100285CC4EBC40102EB012181F8FD0086
:101CE000C4EBC400114601EB002090F8CA10C4EB0D
:101CF000C40002EB002080F86210C4EBC40011465F
:101D000001EB002090F8CA00401CC4EBC40102EBB8
:101D1000012181F8CA00C4EBC40102EB0121C86CA7
:101D200002F058FC0020C4EBC4014B4A02EB012135
:101D3000C1F810010021C4EBC40002EB002080F8C0
:101D40006A10C4EBC40002EB002080F86B10722113
:101D5000C4EBC40002EB002080F86910002150465B
:101D600001F0F3FFC4EBC4003B4A02EB002000F19A
:101D700060010022504601F0D5FFBDE8F0872DE953
:101D8000F04FD9B006464FF0000A002400204E90D4
:101D90004F9080460027814604F0B7F82C903079A8
:101DA00002287DD1F088ADF89C00307A412802D01D
:101DB000307A61280AD1707A00F0CC00882805D1E9
:101DC00009274FF007094FF0020801E04FF06308C0
:101DD0004EA802F02AF8F18800222DA801F0C4FFD5
:101DE0009DF838019DF8391100EB01209DF83A115A
:101DF00000EB01409DF83B1100EB01602A909DF83B
:101E00003C010021CDE928012898CDE92810DDE921
:101E100028302A99591840F10000CDE928109DF882
:101E20003C0100062A9900EB11202B9000208DF830
:101E300098008DF899800F208DF89A00B8F1020F64
:101E40007ED12DA810F8092009F10101405C02EBB8
:101E5000002003E0FFFFCDAB9002002085B2C4EB71
:101E6000C400FE4901EB00200078002869D0C4EBD3
:101E7000C40001EB0020007801280ED1C4EBC4009F
:101E800001EB002090F8E100401E40B2C4EBC40119
:101E9000F24A02EB012181F8E1002DA8C05D00E0CB
:101EA00092E373287ED006DC70287CD0712807D09E
:101EB000722879D15FE1812877D08228F9D118E39F
:101EC000C4EBC400E54901EB002090F88C0140B957
:101ED000C4EBC40001EB0020C08C48F20201884230
:101EE00003DD0F208DF89A0040E3C4EBC400DB490A
:101EF00001EB00200078012833D1C4EBC40001EBD2
:101F0000002090F8E100401C40B2C4EBC401D34A69
:101F100002EB012181F8E10090222AA9684608F02D
:101F2000E4FD26A80FC8FFF753FC0120C4EBC40151
:101F3000CA4A02EB012181F8E300C4EBC40001E0CE
:101F400038E314E3114601EB0020D0F86C01401C8B
:101F5000C4EBC40102EB0121C1F86C0159B0BDE82A
:101F6000F08F05F003000830791C2DAA515C60F356
:101F70001F11C8B2C4EBC401B84A02EB012181F8B9
:101F8000F8050021C4EBC40002EB002000F2F95078
:101F9000C4EBC402B14B03EB022292F8F825815442
:101FA000032003E0A6E2E5E0DCE246E003F053FFB5
:101FB0002DAB3A4649462846FFF72EFE48F201006F
:101FC000854209D0C4EBC401A44A02EB0121B1F857
:101FD000541088B202F068FEC4EBC4019F4A02EBC1
:101FE00001212B988865C4EBC400114601EB002049
:101FF00090F82600401B00F00300C4EBC40102EB84
:10200000012181F8E100C4EBC40102EB0121C88C7D
:102010000321FFF7CFFA8DF89A009149C4EBC40071
:102020008E4A02EB002000F5A47005F0030240F890
:102030002210032003F0E7FE98E2C4EBC4008749B6
:1020400001EB0020007801282ED1C4EBC40001EB85
:10205000002090F8E100401C40B2C4EBC4017F4A6C
:1020600002EB012181F8E10090222AA9684608F0DC
:102070003CFD26A80FC8FFF7ABFB0120C4EBC40151
:10208000764A02EB012181F8E300C4EBC40011465B
:1020900001EB0020D0F86C01401CC4EBC40102EB42
:1020A0000121C1F86C0159E705F00702781C2DA940
:1020B000085C62F31F10C4EBC401684A02EB012103
:1020C00081F8F8050021C4EBC40002EB002000F207
:1020D000F950C4EBC402614B03EB022292F8F825DD
:1020E0008154032003F0B7FE2C982DAB3A464946A5
:1020F00000902846FFF724FCC4EBC401574A02EBCA
:102100000121B1F8541088B202F0CEFD53492B984A
:1021100088650320C4EBC401504A02EB012181F819
:10212000E100C4EBC40102EB0121C88C0221FFF7DE
:1021300041FA8DF89A004A49C4EBC400474A02EBC1
:10214000002000F58C7005F0070240F822100320F3
:1021500003F059FE4FF0000A03F0CDFE83465A46C5
:1021600040A150A808F012FB8246514650A804F046
:10217000EBF9FBE100BFC4EBC400384901EB0020E0
:102180000078012848D1C4EBC40001EB002000F224
:10219000F950C4EBC401314A02EB012191F8F4106B
:1021A000405C401C41B2C4EBC40002EB002000F2D2
:1021B000F950C4EBC402294B03EB022292F8F4203D
:1021C00081542846FFF77FF98DF89A0005F0030047
:1021D00000EB800000F1070BC4EBC4001F4901EBCA
:1021E000002090F8F20005F003020121914008431D
:1021F000C4EBC401194A02EB012181F8F200C4EBDF
:10220000C400114601EB0020693058444E9901602A
:102210009DF83C1101716BE1C4EBC4000F4901EB67
:1022200000200078032853D1C4EBC40001EB002048
:1022300000F2F950C4EBC401084A02EB012191F805
:10224000FD10405C401C41B2C4EBC40002EB002016
:1022500000F2F950C4EBC402004B09E090020020E8
:10226000FFFFCDAB54303D2025640D0A0000000077
:1022700003EB022292F8FD2081542846FFF725FB4C
:102280008DF89A0005F0030000EB800000F1070BC9
:10229000C4EBC400F64901EB002090F8F10005F012
:1022A0000302012191400843C4EBC401F04A02EB50
:1022B000012181F8F100C4EBC400114601EB0020BC
:1022C000693058444E9901609DF83C1101710FE14D
:1022D0002DA8C05D70285DD1C4EBC400E44901EBBA
:1022E000002000F2F950C4EBC401E14A02EB0121E5
:1022F00091F8F815405600283CDBC4EBC4001146A9
:1023000001EB002090F9E100002833DDC4EBC400AC
:1023100001EB002000F2F950C4EBC40102EB0121F3
:1023200091F8F815405C401C41B2C4EBC40002EBCC
:10233000002000F2F950C4EBC402CD4B03EB0222A3
:1023400092F8F8258154C4EBC400194601EB002033
:1023500090F8E100401E40B2C4EBC4011A4602EB03
:10236000012181F8E10004212846FFF723F98DF8C7
:102370009A00BDE0032003F06EFD002002F094FC03
:10238000002002F060FC0E208DF89A00032003F07C
:102390003AFDADE0C4EBC400B54901EB002090F874
:1023A0008C01E0B3C4EBC40001EB002000F2F95053
:1023B000C4EBC401AE4A02EB012191F8FD10405C70
:1023C000022836D1C4EBC400114601EB002000F214
:1023D000F950C4EBC40102EB012191F8FD10405CFF
:1023E000401C41B2C4EBC40002EB002000F2F950E3
:1023F000C4EBC4029E4B03EB022292F8FD208154F1
:10240000C4EBC400194601EB002090F8F10040F045
:102410000800C4EBC4011A4602EB012100E008E009
:1024200081F8F10005212846FFF7C4F88DF89A00DD
:102430005EE0C4EBC4008E4901EB0020C08C48F282
:10244000020188424BD1C4EBC400894901EB002052
:1024500000F2F950C4EBC401854A02EB012191F866
:10246000F815405600283ADBC4EBC400114601EBD6
:10247000002000F2F950C4EBC40102EB012191F8F5
:10248000F815405C401C41B2C4EBC40002EB0020D4
:1024900000F2F950C4EBC402754B03EB022292F830
:1024A000F8258154C4EBC400194601EB002090F8D4
:1024B000E100401E40B2C4EBC4011A4602EB012108
:1024C00081F8E100002002F0EFFB002002F082F82A
:1024D00001212846FFF76EF88DF89A0008E00020E9
:1024E00002F0E2FB002002F0AEFB0E208DF89A0015
:1024F0003CE000BFC4EBC4005D4901EB0020007864
:1025000001282ED1C4EBC40001EB002090F8E100BB
:10251000401C40B2C4EBC401554A02EB012181F8D2
:10252000E10090222AA9684608F0DFFA26A80FC821
:10253000FFF74EF90120C4EBC4014D4A02EB012123
:1025400081F8E300C4EBC400114601EB0020D0F891
:102550006C01401CC4EBC40102EB0121C1F86C0109
:10256000FCE400BF0F208DF89A0000BF00BF0120DF
:10257000C4EBC4013E4A02EB012181F8E300902242
:102580002AA96846CDF8908008F0AFFA26A80FC8AF
:10259000FEF748FFC4EBC400354901EB0020D0F83A
:1025A0006C01401CC4EBC401314A02EB0121C1F8AB
:1025B0006C015BE090222AA9684608F096FA26A8EA
:1025C0000FC8FFF705F951E03079042845D10F20F5
:1025D0008DF89A00C4EBC400254901EB0020007877
:1025E000022820D1C4EBC40001EB002090F9E100E7
:1025F000002818DDC4EBC40001EB002090F8E100D6
:10260000401E40B2C4EBC401194A02EB012181F81B
:10261000E100C4EBC40102EB0121C88C0621FEF7E6
:10262000C9FF8DF89A0000208DF8980004208DF8DD
:1026300099000020ADF89C000021289129912A9052
:102640002B90042090222AA92490684608F04DFA85
:1026500026A80FC8FEF7E6FE08E090222AA96846E1
:1026600008F043FA26A80FC8FFF7B2F800BF75E4D8
:1026700090020020F0B5D1B00546002700240020CC
:102680004E904F902E7903F040FC2C90012E6CD18F
:102690004EA801F0B5FB9DF838019DF8391100EB0B
:1026A00001209DF83A1100EB01409DF83B1100EB31
:1026B00001602A909DF83C010021CDE9280128986D
:1026C000CDE92810DDE928302A99591840F1000099
:1026D000CDE928109DF83C0100062A9900EB112055
:1026E0002B900020C4EBC401FE4A02EB012181F8CB
:1026F000E300C4EBC400114601EB0020B0F8C800B1
:10270000ADF89C0000208DF898008DF89A0001200B
:102710008DF89900C4EBC4000B4603EB0020B0F821
:10272000C820C4EBC40003EB002000F160012DA819
:1027300008F0DBF9012090222AA92490684608F0CD
:10274000D4F926A80FC8FEF76DFEC4EBC400E54916
:1027500001EB0020D0F86801401CC4EBC401E14A41
:1027600002EB0121C1F8680113E0062E11D100200F
:10277000ADF89C008DF8980006208DF89900902205
:102780002AA92490684608F0B0F926A80FC8FEF7D9
:1027900049FE0020C4EBC401D24A02EB012181F8BA
:1027A000F30551B0F0BD70B50025002400BF0EE068
:1027B000C4EBC401CB4A02EB012101F5C87105EB62
:1027C000850201EB4210A02108F0E3F96D1C062DF3
:1027D000EEDB0020C4EBC401C24A02EB012181F808
:1027E000F105C4EBC40102EB012181F8F005C4EB53
:1027F000C40102EB012181F8F20570BD70B500241F
:102800000220C4EBC401B74A02EB0121087000208A
:10281000C4EBC40102EB01214870C4EBC40102EB1C
:10282000012181F8E20040F60F0000F06CFF06463F
:10283000032002F027F90EB1601E70BDFEF7B8FD4F
:102840004DF6CA60C4EBC401A64A02EB0121A1F80F
:10285000CC000020C4EBC40102EB012181F8E000B0
:10286000C4EBC40102EB012181F8E300C4EBC40115
:1028700002EB012181F8E400FFF795FFC4EBC400EF
:10288000984901EB0020002140F8BF1F4160002063
:10289000C4EBC401934A02EB0121C1F8100101F01D
:1028A0007CFE002001F05CFE01218F4802F037FA27
:1028B000AFF63531AFF2432001F09EFE0020C4EBAD
:1028C000C401884A02EB012181F8F305C4EBC4017D
:1028D00002EB0121C1F87001C4EBC40102EB01213C
:1028E000C1F87401FF20C4EBC40102EB012181F89F
:1028F000E100002509E0F621C4EBC400794A02EBAF
:10290000002000F2F95041556D1CFF2DF3DD002031
:10291000C4EBC401734A02EB0121886500BF8CE758
:1029200010B500F0EAFE10BD0021C1EBC1026D4BF5
:1029300003EB0222906270472DE9F04705460E46F0
:102940000024A0462878C4EBC401664A02EB0121AA
:1029500008726978C4EBC40002EB00204173697807
:10296000C4EBC40002EB00200173A978C4EBC400DF
:1029700002EB00204172E978C4EBC40002EB0020B6
:10298000C1732979C4EBC40002EB0020817269791C
:10299000C4EBC40002EB0020C172A979C4EBC400EF
:1029A00002EB002081730021C4EBC40002EB002085
:1029B00001742989C4EBC40002EB00204182C4EBFE
:1029C000C400114601EB0020C07B022806D1012182
:1029D000C4EBC40002EB0020417406E00021C4EB0C
:1029E000C400404A02EB00204174C4EBC4013D4ADC
:1029F00002EB012101F10800012101F04CF82878D7
:102A000000EB4000394911F82000C4EBC401354AFD
:102A100002EB01210875C4EBC402324B03EB022226
:102A2000117AA87800F0E1FF8046B8F1000F02D0DB
:102A300008F1010050B9287800EB40002B4901EB68
:102A40008000001DA978491E50F82180C4EBC40005
:102A5000244901EB0020C0F81880C4EBC401214ACE
:102A600002EB012101F1140000F0B1FF00F064FF5E
:102A70000746022F01D0032F4CD1C4EBC4001949E3
:102A800001EB00200078022801D1012000E00020A5
:102A900082464FF00009C4EBC400124B03EB002048
:102AA000C27BC4EBC40003EB0020017A504600F067
:102AB00020FFC4EBC4010B4A02EB01218883C4EB65
:102AC000C400114601EB0020808B40B1C4EBC40070
:102AD00001EB0020808B4FF6FF71884219D1C4EBC7
:102AE000C40005E09002002080D02324F4BE00083A
:102AF000FE4901EB0020007A052801D14FF00109C1
:102B0000FB4830F81900C4EBC401F84A02EB01217C
:102B1000888324E0A87801F0FDF84010C4EBC401DC
:102B2000F24A02EB01218883C4EBC400114601EB99
:102B30000020808B40B1C4EBC40001EB0020808BEF
:102B40004FF6FF7188420AD1A878401EE94931F852
:102B50001000C4EBC401E54A02EB01218883C4EBF9
:102B6000C401E24A02EB0121888B00F053FFC4EB61
:102B7000C401DE4A02EB0121888B00F041FFC4EB67
:102B8000C400DA4901EB0020808BC4EBC401D74AB2
:102B900002EB0121C8832879042808D1202003F002
:102BA00086FA002001F090FC082003F080FAF088FB
:102BB000FFF7BAFEB088C4EBC401CC4A02EB012196
:102BC000A1F802013088C4EBC40102EB0121A1F895
:102BD00004013088C4EBC40102EB0121C862708893
:102BE000C4EBC40102EB0121A1F80601C4EBC4004F
:102BF000114601EB0020B0F80601801EC4EBC401B1
:102C000002EB0121B1F804114843C4EBC40102EB0B
:102C10000121C1F808013089FEF7D3F8BDE8F0873B
:102C2000B24890F8F40070470146B048F530405C77
:102C300070470146AD48FE30405C7047AB49D1F863
:102C40007801704710B5024602F00302AA4800EB73
:102C5000C20018C81846214610BD10B5024602F041
:102C60000302A64800EBC20018C81846214610BD52
:102C70002DE9F047044604F003049F4800EBC4002C
:102C800000229F4BD0E90071384608F007FC05464A
:102C900008F01EFB81464846BDE8F0872DE9F04765
:102CA000044604F00304954800EBC4000022944B52
:102CB000D0E90071384608F0F1FB054608F008FB42
:102CC00081464846BDE8F08710B50446062060708E
:102CD00002202070002001F0E7FF002002F017F82A
:102CE000002001F077FC10BD10B50446E06D401CDB
:102CF000E065002060602078022805D10620607021
:102D0000002001F0D1FF4AE0207801281FD1E078AF
:102D100002280BD194F8F20000F0010030B9012034
:102D200084F8E20060700220A07038E0E0780328A8
:102D300008D101F0A1FC012084F8E20060700220BB
:102D4000A0702CE0012060700320A07027E0E078E4
:102D5000022809D1E08C48F20101884204D194F89C
:102D6000F10000F0040058B1E07802280CD1E08CAA
:102D7000B0F5004F08D194F8F10000F0020018B946
:102D80002046FFF7A1FF0AE0E078032803D12046A0
:102D9000FFF79AFF03E0012060700320A07010BDD0
:102DA0000021C1EBC100514A02EB002000F5C870C0
:102DB000C1EBC1024D4B03EB022292F8F22502EB6C
:102DC000820200EB4210007870470FB470B52C9D62
:102DD0000024C4EBC401454A02EB012101F5AA60BD
:102DE000A02204A907F081FEC4EBC4003F4901EB17
:102DF000002080F8505570BC5DF814FB70B5044697
:102E00000025C5EBC500394A02EB002000F5AA6198
:102E1000A022204607F069FE70BD70B5064600246A
:102E2000C4EBC400314901EB002090F8F055C4EB2D
:102E3000C40001EB002000F5C87005EB850100EB34
:102E40004110007828B900202E49087048700846C3
:102E500070BDC4EBC400254901EB002000F5C8702B
:102E600005EB850100EB4110407826494870C4EB22
:102E7000C4001E4901EB002000F5C87005EB850178
:102E800000EB411080781F498870C4EBC4001749DB
:102E900001EB002000F5C87005EB850100EB411047
:102EA000808818498880C4EBC400104901EB0020D9
:102EB00000F5C87005EB850100EB4111D1E9020175
:102EC000104AC2E90201C4EBC400084901EB00202A
:102ED00000F5C87005EB850100EB41100069114653
:102EE0000861C4EBC40001490EE00000900200201C
:102EF00058BF000854BF0008500200207002002094
:102F000000408F409009002001EB002000F5C870C0
:102F100005EB850100EB4110406911464861C4EBA7
:102F2000C400FD4901EB002000F5C87005EB8501E8
:102F300000EB4110806911468861C4EBC400F64A79
:102F400002EB002000F5C87005EB850200EB421093
:102F500000F11C017F22F14807F0C7FDC4EBC4005B
:102F6000ED4901EB002000F5C87005EB850100EB91
:102F700041100078E9491C390870C4EBC400E64AE6
:102F800002EB002000F5C87005EB850200EB421053
:102F900080F89B600021C4EBC400DF4A02EB0020F4
:102FA00000F5C87005EB850200EB42100170C4EB20
:102FB000C400D94901EB002090F8F005401CC4EB97
:102FC000C401D54A02EB012181F8F005C4EBC4002D
:102FD000114601EB002090F8F005062806D10020EC
:102FE000C4EBC40102EB012181F8F005C4EBC4007D
:102FF000C94901EB002090F8F005C4EBC401C64AB2
:1030000002EB012181F8F205C4481C3820E7F0B535
:10301000CFB000240025FFF7C3FE064609E0C4EB4D
:10302000C401BD4A02EB01203146FDF73CF90546DB
:103030000026002DF3D0022D4AD1C4EBC400B649BE
:1030400001EB00200078012835D1C4EBC401B24A5D
:1030500002EB0121C96AC4EBC402AF4B03EB0222AD
:10306000926A1144C4EBC40203EB0222D2F810218D
:103070008818C4EBC4011A4602EB0121C1F8EC0028
:10308000C4EBC40102EB0121D1F81011C4EBC4025E
:1030900003EB0222C2F814110021C4EBC40203EBBB
:1030A0000222C2F810110121C4EBC40203EB022278
:1030B00082F8E41000BF0020C4EBC401964A02EB82
:1030C000012181F8E300C4EBC40102EB0121486057
:1030D000C4EBC400904901EB002090F8E400012803
:1030E0007DD1C4EBC40001EB002090F8E300002880
:1030F000F6D1C4EBC40001EB0020007801282BD1ED
:1031000002F003FFC4EBC401834A02EB0121D1F8B2
:10311000E810401AC4EBC40102EB0121D1F8EC1015
:10312000884218D90020C4EBC40102EB012181F8C8
:10313000E400ADF89C008DF8980084208DF899008B
:10314000042090222AA92490684607F0CEFC26A8E5
:103150000FC8FEF767F9DBE0C4EBC4006E4901EB72
:10316000002000780228F6D102F0CFFEC4EBC401A3
:10317000694A02EB0121B1F80211B0FBF1F201FB47
:103180001207C4EBC400644901EB002090F88C01E5
:1031900030B3C4EBC40001EB0020D0F80801B84202
:1031A0003DD8172000F023F90320C4EBC4015A4A8C
:1031B00002EB0121087001F05FFAFFF7F4FA022038
:1031C000C4EBC401544A02EB012148700121C4EB55
:1031D000C40002EB002080F86510802101E062E06D
:1031E0001EE0C4EBC40002EB002080F86610002053
:1031F000C4EBC40102EB012181F8E400C4EBC4007C
:10320000114601EB002090F8FD00401CC4EBC40106
:1032100002EB012181F8FD00172000F0DDF841E00C
:10322000C4EBC4003C4901EB0020C08C48F2010112
:10323000884237D102F069FEC4EBC401364A02EB82
:103240000121D1F80C1188422CD3172000F0CFF8BF
:103250000320C4EBC401304A02EB0121087001F0E5
:103260000BFAFFF7A0FA0220C4EBC4012A4A02EBD2
:10327000012148700221C4EBC40002EB002080F859
:1032800065108021C4EBC40002EB002080F86610BA
:103290000020C4EBC40102EB012181F8E4001720F7
:1032A00000F09AF834E0C4EBC4001B4901EB0020A5
:1032B00090F8E40060BBC4EBC40001EB0020007890
:1032C000022825D1C4EBC40001EB002090F88C014A
:1032D000F0B102F01AFEC4EBC4010F4A02EB012167
:1032E000B1F80211B0FBF1F201FB1207C4EBC4000C
:1032F000094901EB0020B0F80401B84207D90120C8
:10330000C4EBC401044A02EB012181F8E40000BFD0
:1033100000204FB0F0BD000090020020AC0900205A
:1033200010B51021364806F024FB012005F029F9DC
:103330001021334806F01BFB052005F022F9002080
:1033400001F092F80021481E01F0E9FC10BD2D4962
:10335000C1F8FC0670472B4908620121294A82F80E
:103360002410704710B5274890F82400012809D18F
:1033700024480021026A1E2000F08FF80020214915
:1033800081F8240010BD1F4A9083D18301221D4B78
:1033900083F82520704710B51A4890F825000128B9
:1033A0000BD11849C88B00F035FB1649888B00F00B
:1033B00027FB0020134981F8250010BD1148808BA0
:1033C00070471048C08B70470E4991F8F3000021F8
:1033D0000C4A82F8F310704700F01F02012191405F
:1033E0004209920002F1E022C2F80011704700F099
:1033F0001F0201219140044A430942F823107047FB
:10340000000801409002002080E100E02DE9F8432F
:1034100006460C461746984600253CB9F0B240F0E7
:10342000800228466D1C0DF800201BE0F0B240F031
:10343000C00228466D1C0DF800207F2C05DCE2B28E
:1034400028466D1C0DF800200CE0E0B240F0800230
:1034500028466D1C0DF80020C4F3C71228466D1CC9
:103460000DF8002043463A466946284601F0ACFE76
:10347000BDE8F883F8B505460E461446E0B28DF86F
:10348000000020128DF80100B1B2A8B26B460222F2
:10349000FFF7BCFF07463846F8BD2DE9F84306465E
:1034A0000F461446002504E0E0B20DF80500240A9A
:1034B0006D1C042DF8DBB9B2B0B26B460422FFF7E5
:1034C000A5FF80464046BDE8F8832DE9F84306464F
:1034D0000C461746984600252CB9F2B228466D1CBA
:1034E0000DF800201BE0F0B240F0400228466D1CB1
:1034F0000DF800207F2C05DCE2B228466D1C0DF88B
:1035000000200CE0E0B240F0800228466D1C0DF86F
:103510000020C4F3C71228466D1C0DF80020434656
:103520003A466946284601F089FEBDE8F8832DE950
:10353000F84305460E464FF0FF37B1B2A8B26B46CE
:103540000422FFF7C2FF8046B8F1000F08D1032420
:1035500004E01DF8040000EB0727641E002CF8DAD5
:103560003846BDE8F88338B504466B460222002190
:103570003620FFF7AAFF0E2C57D2DFE804F0110720
:103580001A56565656233256563F464D00208DF851
:1035900000009DF8010000F0FE008DF8010045E0FC
:1035A0009DF8000000F0FC0040F001008DF80000E4
:1035B0003CE09DF8000000F0FC0040F002008DF8B7
:1035C000000033E09DF8000000F0B30040F0480038
:1035D0008DF800009DF8010040F080008DF801009A
:1035E00024E09DF8000000F0B3008DF800009DF885
:1035F000010000F07F008DF8010017E09DF8010048
:1036000040F002008DF8010010E09DF8010000F08C
:10361000FD008DF8010009E09DF8000000F0CF00EA
:1036200040F020008DF8000000E000BF00BF6B46B6
:10363000012200213620FFF7E9FE0DF101030122EE
:1036400011463620FFF7E2FE38BDF8B504460D46B8
:103650004FF6FF76A9B2A0B26B460222FFF735FF04
:10366000074637B99DF800009DF8011000EB0120D6
:1036700086B23046F8BD08B503208DF80100012060
:103680008DF800006B46022200213620FFF7BEFEB7
:103690004FF4004206212D20FFF7ECFE012004F03C
:1036A00070FF0120FFF75FFF002008BD38B504461A
:1036B000200A8DF80100E0B28DF800006B4602226E
:1036C00004212D20FFF7A2FE03208DF800006B4699
:1036D000012206212D20FFF799FE00208DF8000021
:1036E0006B46012206212D20FFF790FE0A212D2096
:1036F000FFF71DFF0546284638BD10B500210846D6
:10370000FFF715FF10BD2DE9FC41054600240420FC
:10371000019000270020FE4981F87C0081F82D00EF
:10372000C1F880000021FA4880F869100020F849AB
:10373000C1F8840081F87D00C1F88800C1F88C00D0
:10374000FFF7DBFFF249086008460068F14988424C
:1037500002D08817BDE8FC810020FFF704FF01AB11
:10376000012200212420FFF751FE1E20FFF79EFFBB
:1037700087B2380AE649887305F0080028B10420AA
:10378000FFF794FFE249C1F88400E14890F8840013
:1037900040B1022000906B46012212212D20FFF73C
:1037A00035FE03E00020DA49C1F884000620FFF767
:1037B0007DFFD74948600720FFF778FFD44988602C
:1037C00000208861002405E00021D1481C3040F829
:1037D0002410641C042CF7DB05F0020008B3CC486D
:1037E000807B012805DC1C20FFF760FFC849886149
:1037F00017E0C748807B032813DC0D20FFF756FF36
:10380000C349C8610E20FFF751FFC14908620F206C
:10381000FFF74CFFBE4948621D20FFF747FFBC4938
:10382000886205F0010078B107F01F00B84981F8FF
:103830002C00084690F82C0068B9B748007800F0D2
:103840001F0081F82C0006E0B348007800F01F004C
:10385000AF4981F82C0005F0040070B1002409E0A4
:1038600004F11000FFF722FF0146A948343040F868
:103870002410641C0C2CF3DB09E0002405E000217B
:10388000A348343040F82410641C0C2CF7DB05F4FA
:10389000006010B1FFF7EFFE0DE005213620FFF7C5
:1038A000D4FE06464FF6FF5006403246052136202C
:1038B000FFF7E0FD00BF0120FFF755FE00210420C7
:1038C000FFF735FE9249086300212620FFF72FFEFF
:1038D000064646F4A03646F4A026324600212620AD
:1038E000FFF7DBFD002226213620FFF7C3FD002075
:1038F00030E710B503460024022902D0052912D171
:1039000008E0022A02D18248C46902E00AB980486C
:10391000046A0AE0022A02D17D48446A02E00AB938
:103920007B48846A01E0002400BF00BFD807C00EB6
:1039300024FA00F080B210BD7548807B704708B54E
:103940006B46042200212620FFF7BFFD9DF80200F0
:1039500040F005008DF802006B460422002126206D
:10396000FFF754FD08BDF8B505460E4646EA0504C6
:10397000E0B28DF80000200A8DF80100200C8DF8CF
:1039800002006B46032208212620FFF73FFDF8BD09
:10399000F8B505460E4646EA0504E0B28DF800008B
:1039A000200A8DF80100200C8DF802006B460322DE
:1039B0000C212620FFF72AFDF8BD5548D0F88400D9
:1039C000704753484068704751488068704710B549
:1039D0000446234601220B212A20FFF717FD002170
:1039E0001E206268FFF759FD10BD0246501E4B4B6A
:1039F0005B5C00EB43034648343050F823007047CB
:103A000010B504464248C482C28A00211820FFF73C
:103A100031FD10BD10B504463D488482828A41F6CE
:103A200004012E20FFF726FD10BD38B504466B4675
:103A300001220E212B20FFF748FD9DF8000020F009
:103A40001F00009004F01F009DF800100843009034
:103A50006B4601220E212B20FFF7D8FC38BD38B56C
:103A600004466D2000906B46012240F606012E2090
:103A7000FFF7CCFC3CB140F2076241F606012E2074
:103A8000FFF7F8FC06E041F2076241F606012E203E
:103A9000FFF7F0FC38BD2DE9FE4F04460F464FF00E
:103AA000000A00200290257860791D4931F81090B5
:103AB0006078401E1649C6B2C1F88000042D01D0BE
:103AC000072D01D1012000E000200190207810494D
:103AD0000873E07938B90846006B40F48000086349
:103AE0004FEAE90905E00A48006B20F48000084924
:103AF0000863207A064948730846006B217A4FF420
:103B0000403202EA0141084301490863084609E0DE
:103B1000300A00203001CADE9ABF00085CBF0008EE
:103B2000DCBF00080021026B0420FFF7B6FC4A4608
:103B300042F604012E20FFF79DFC3046FFF78FFF71
:103B4000F848405D00EB8000F74943180522072143
:103B50002B20FFF75BFCF54B01220E212B20FFF7FA
:103B600055FCF34901980B1801220B212820FFF77F
:103B70004DFCEC48405DEF4951F820200C212820F5
:103B8000FFF78BFCE079EC4901EB8000A17930F87C
:103B9000112002212720FFF76DFCE84830F816209D
:103BA00004212720FFF766FCE07928B9642206216A
:103BB0002720FFF75FFC1EE0A07804280DD110201D
:103BC0000090102206212720FFF754FC6B460122AB
:103BD00026212720FFF71AFC0DE028200090202244
:103BE00006212720FFF746FC6B46012226212720CD
:103BF000FFF70CFC00BFD24800EB0610E17850F84C
:103C0000212008212720FFF748FC608941F241016B
:103C1000884204D0628920212720FFF72BFC60898D
:103C200028B941F2410220212720FFF723FCC54893
:103C30000C2102682320FFF730FCC248001D30F839
:103C4000162004212320FFF715FCA07958B1E07954
:103C5000BD494318012200212120FFF7D7FB4FF077
:103C6000030A0120029005F00F00F02101EA05117E
:103C7000084361784FF4402202EA814108439100F1
:103C800001EA0A5108434FF40032029902EA414125
:103C9000084321794FF0F86202EA815108436179C3
:103CA000520102EAC16140EA0108424600211F2098
:103CB000FFF7F3FBA078617808434FEA004B4BF421
:103CC0000040E17940EA4130A049086108460021FE
:103CD00002690820FFF7E1FB07F0010020B19B49D2
:103CE00091F82C00FFF7A1FE07F0020078B1974988
:103CF00089693201D140C1F34E00FFF78BFE934931
:103D000089693201D140C1F34E00FFF779FE0020EE
:103D1000BDE8FE8F01468D4880694A1E1201D040E1
:103D200080B2704770B504460E4615462819B0F5A6
:103D3000806F02DD4FF0FF3070BDA21E3346294672
:103D40000920FFF763FB0020F6E770B504460D4637
:103D50007E480069204340EA85563246002108200B
:103D6000FFF79BFB002070BD70B504460D4616465C
:103D700023462A4631461120FFF7A7FB70BD70B5D8
:103D800004460D4616460720FFF7EDFB23462A465C
:103D900031462520FFF799FB0820FFF7E4FB70BDB3
:103DA000F8B504466B46022205211520FFF78DFB6E
:103DB0009DF800509DF8010005EB002085B22846D3
:103DC00007F01DFB06460022614B07F067FBC4E9C4
:103DD000040100212E20FFF738FC2080231D08223B
:103DE00000211220FFF771FB07211520FFF72DFCA2
:103DF000608000211020FFF79AFB000DA081F8BD24
:103E000010B504462346052200211720FFF75DFB6D
:103E100010BD10B501211720FFF789FB10BD10B5AB
:103E200000211720FFF783FB10BD10B50446234681
:103E3000052200211520FFF748FB10BD10B5012118
:103E40001520FFF774FB10BD10B500211520FFF7FA
:103E50006EFB10BD10B501210620FFF768FB10BDF9
:103E600010B504462346052200210620FFF72DFB4E
:103E700010BD70B5054600210420FFF758FB3549F9
:103E800000EA010435B124F4FF7405F4FF70401C0E
:103E9000044301E024F001042C480463224600217D
:103EA0000420FFF7FAFA70BD10B50446224602213D
:103EB0000320FFF7DFFA10BD10B5044622460021AB
:103EC0000320FFF7D7FA10BD10B504462346082299
:103ED00000210120FFF79AFA10BD10B504462346D1
:103EE000082200210120FFF7F0FA10BD2DE9FC4166
:103EF000044600250026002703208DF800006B46AD
:103F0000012207212D20FFF781FA04F00F00062877
:103F10003CD2DFE800F00321272D333700270025AE
:103F2000002634E05CBF00087CBF00089ABF000890
:103F30009BBF000864BF0008ACBF0008B8BF000802
:103F4000BCBF0008A0BF0008A8BF0008300A0020BE
:103F50000000903FFFFF47F041F2240749F220257F
:103F60000E2614E041F6240749F2202503260EE030
:103F700041F6240749F220254E2608E000270025B7
:103F8000032604E024270025032600E000BF00BF2D
:103F9000E8B28DF80000280A8DF801006B46022275
:103FA00000212D20FFF732FA08208DF800006B4623
:103FB000012206212D20FFF729FA02208DF80000AA
:103FC0006B46012207212D20FFF720FA88208DF86B
:103FD00000006B46012206212D20FFF717FA8020F2
:103FE0008DF800006B46012206212D20FFF70EFA06
:103FF00000208DF800006B46012206212D20FFF7DE
:1040000005FA05208DF800006B46012207212D20BE
:10401000FFF7FCF9F0B28DF80000300A8DF80100CE
:104020006B46022200212D20FFF7F0F908208DF8C1
:1040300000006B46012206212D20FFF7E7F904203E
:104040008DF800006B46012207212D20FFF7DEF9D5
:1040500088208DF800006B46012206212D20FFF7F5
:10406000D5F980208DF800006B46012206212D2015
:10407000FFF7CCF900208DF800006B4601220621E5
:104080002D20FFF7C3F901208DF800006B460122B7
:1040900007212D20FFF7BAF9F8B28DF80000380A91
:1040A0008DF801006B46022200212D20FFF7AEF9AA
:1040B00008208DF800006B46012206212D20FFF715
:1040C000A5F90A2004F05DFA00208DF800006B4687
:1040D000012207212D20FFF799F901208DF800001A
:1040E0006B46012206212D20FFF790F902208DF862
:1040F00000006B46012207212D20FFF787F90420DD
:104100008DF800006B46012207212D20FFF77EF974
:10411000642004F036FA00208DF800006B4601227E
:1041200007212D20FFF772F900208DF800006B4663
:10413000012206212D20FFF769F90A2004F021FA57
:1041400004F00F00012803D004F00F00022805D16D
:1041500001AB012208212D20FFF7B7F90020BDE8AF
:10416000FC817CB504460D4601AB012208212D20BF
:10417000FFF7ABF99DF8040000F00200022802D01E
:104180004FF0FF307CBD200E8DF80300200C8DF821
:104190000200200A8DF80100E0B28DF800006B46A5
:1041A000042200212D20FFF731F9C5F302208DF8FC
:1041B0000100E8B28DF800006B46022204212D2098
:1041C000FFF724F940208DF800006B4601220621FC
:1041D0002D20FFF71BF900208DF800006B4601220F
:1041E00006212D20FFF712F900260EE0012004F031
:1041F000C8F901AB012208212D20FFF766F99DF8CF
:10420000040000F0010000B10126002EEED00020D5
:10421000B8E72DE9F04104460D46002600270020AE
:10422000FFF7A1F90120FFF761FE0DE029462046C6
:10423000FFF797FF2846FFF739FAA04200D1012681
:104240007F1C052F00D10226002EEFD00420FFF79F
:104250004DFE2846FFF72AFAA04201D1002601E0D0
:104260004FF0FF360020FFF741FE3046BDE8F081F9
:1042700008B5042000906B46012202212C20FFF794
:10428000C5F8002000906B46012202212C20FFF788
:10429000BDF808BD08B5002000906B460122022140
:1042A0002C20FFF7B3F8022000906B460122022178
:1042B0002C20FFF7ABF808BD10B5FFF7EBFF10BDE2
:1042C00038B5044601208DF800006B46012200211C
:1042D0003620FFF79BF800208DF800006B46012286
:1042E00006212C20FFF792F800208DF800006B4685
:1042F00001220A212C20FFF789F8FFF7B9FFE0B26D
:104300008DF80000200A8DF801006B46022208217A
:104310002C20FFF77BF8FFF7ABFF01208DF80000A2
:104320006B4601220A212C20FFF770F8FFF7A0FF4F
:1043300000208DF800006B46012200213620FFF797
:1043400065F838BD38B504208DF800006B460122B1
:104350000A212C20FFF75AF8FFF78AFF00208DF87A
:1043600000006B4601220A212C20FFF74FF8FFF7CF
:104370007FFF01208DF800006B46012200213620CE
:10438000FFF744F8012004F0FCF876208DF80000D7
:104390006B46012204212C20FFF738F880208DF88D
:1043A00000006B46012202212C20FFF72FF8882005
:1043B0008DF800006B46012202212C20FFF726F821
:1043C0006B46012203212C20FFF77FF89DF8004067
:1043D0004FF6FF7000EA042475208DF800006B464C
:1043E000012204212C20FFF711F880208DF8000015
:1043F0006B46012202212C20FFF708F888208DF857
:1044000000006B46012202212C20FEF7FFFF6B46C5
:10441000012203212C20FFF758F89DF800000443E7
:1044200000208DF800006B46012202212C20FEF7AF
:10443000EDFF00208DF800006B46012200213620A0
:10444000FEF7E4FF204638BD38B504460D46224647
:1044500000212C20FFF70EF800956B460122062163
:104460002C20FEF7D3FF38BD70B505460421362059
:10447000FFF75DF8044615B144F4006401E024F44C
:104480000064224604213620FFF707F870BD70B59E
:1044900004460D46FFF731F9F549884209D0234615
:1044A0002A4600210846FFF710F8052004F069F8B5
:1044B00001E0002070BDFFF720F9ED49884201D0EE
:1044C0008817F7E70020F5E738B5044604F0030045
:1044D000012101EB401503208DF8010001208DF82A
:1044E00000006B46022200213620FEF78FFF2A468D
:1044F00012212D20FEF7BEFF0120FFF734F838BD52
:1045000010B5044600210420FFF711F8D9490863CB
:104510002CB10846006B20F48020086305E0D548E4
:10452000006B40F48020D3490863D2480021026B1D
:104530000420FEF7B2FF10BD10B50446CD48006B55
:1045400040F08040CB490863220202211A20FEF786
:1045500091FFC8480021026B0420FEF79EFF10BDAA
:1045600010B504464CB1C348006B20F48050C149DB
:104570000863012081F82D0008E0BE48006B40F47C
:104580008050BC490863002081F82D00B948002103
:10459000026B0420FEF781FF10BD38B504460020F1
:1045A000009034B1B348006B40F00050B14908634B
:1045B00005E0B048006B20F00050AE490863AD48FC
:1045C000006B000E00906B46012203210420FEF7D1
:1045D0001DFF38BD70B5054600211A20FEF7A7FF64
:1045E00004466FF31304C5F313000443224600216D
:1045F0001A20FEF752FF70BD9E4AC2F88800C2F82A
:104600008C10704708B56B46012200210F20FEF781
:104610005CFF9DF8000000F0010008BD08B5E02037
:1046200000906B46012203213620FEF7EFFEF020BA
:1046300000906B46012203213620FEF7E7FE08BDFD
:104640001CB501AB012203210F20FEF73EFF9DF8B0
:10465000040000F080009DF8041001F04001B0EB70
:10466000410F08D0012000906B46012203210D204C
:10467000FEF7CCFE00BF1CBD38B5402000900021E5
:104680000E20FEF754FF054600F06CFD04460022A4
:1046900011460E20FEF701FF6B46012200210D207E
:1046A000FEF7B4FE744A00210F20FEF7F6FEFFF776
:1046B000C7FF2A4600210E20FEF7EFFE204600F03D
:1046C00062FD00206B4981F87D0038BD10B50221E4
:1046D0000F20FEF7BAFF00F0100010BD7CB50024DB
:1046E00000250021634880F8681090F82D1080F8AC
:1046F0006E1000210F20FEF71AFF5E49044648663F
:104700005E490A680968491C5C4B19605C4941F8BC
:104710002200184600680A2802DB002019460860BB
:104720005848844203D1FFF7A7FFFFF777FF04F44F
:10473000806030B34F4890F82D0010BB04F46060E7
:10474000B0F5606F1DD0FFF797FFFFF767FF04F02C
:10475000F8044848006B00F0005030B14FF480720C
:1047600000210D20FEF786FE0BE00321414880F872
:104770006810D0F88C0020B13E48D0F88C1064301E
:10478000884704F48040002871D004F48060002839
:104790007AD0002604F48010E0B1FFF76DFFFFF738
:1047A0003DFF3448006B00F0005030B14FF4807290
:1047B00000210D20FEF75EFE0BE003212D4880F85E
:1047C0006810D0F88C0020B12A48D0F88C106430E2
:1047D00088477CBD00211020FEF737FFC0F3090693
:1047E000244B6C33022200211120FEF76EFE21487B
:1047F000407B08B906F07F061E48A0F86A6004F006
:104800000800A8B11B4890F86C0000F0200020B10F
:10481000184890F86C0002280AD145F008050021DC
:10482000144880F869100020124981F87D0004E0E6
:1048300004F008010F4880F8691002210D4880F843
:10484000681090F82D0000BB04F4DE4005432A46B2
:1048500000210F20FEF721FE0648D0F88C0000282A
:104860005CD00448D0F88C106430884756E071E082
:104870003001CADE300A0020F8FF272400000020A3
:10488000C00A00200300800049E00120009001AB35
:10489000012203210F20FEF718FE9DF8040000F00E
:1048A00080009DF8041001F04001B0EB410F07D1EA
:1048B00004F4C04005432A4600210F20FEF7EDFD19
:1048C000F748006B00F0005028B94FF480720021C7
:1048D0000D20FEF7CFFDF248D0F88C0020B1F04853
:1048E000D0F88C1064308847FFF7F0FE30B96B4683
:1048F000012203210D20FEF789FD0EE0FFF7BCFE2B
:10490000FFF78CFEE648006B00F0005028B14FF432
:10491000807200210D20FEF7ADFD00BFB0E0E04841
:10492000006B00F0005008B9FFF7A6FEFFF776FE17
:104930000020DB4981F87D000321D94880F8681008
:10494000D0F88C000028E9D0D548D0F88C1064301D
:10495000884795E004F0800028B345F0F8052A4622
:1049600000210F20FEF799FDCD4890F8690060B155
:104970000021CB4880F8691090F82D0028B9C8486C
:1049800090F87D0008B1FFF777FE0121C44880F858
:104990006810D0F88800002872D0C148D0F888107C
:1049A000643088476CE004F40030C0B104F4003097
:1049B00005432A4600210F20FEF76FFD0421B84869
:1049C00080F86810D0F88C0020B1B548D0F88C1071
:1049D000643088470020B24981F87D0050E0B1483A
:1049E0002040A8B3AF4904EA010005432A4600214C
:1049F0000F20FEF752FD0020A94981F87D000846EE
:104A0000006B00F0005008B9FFF736FEFFF706FE16
:104A100004F4805020B10821A14880F8681024E0F7
:104A200004F4004020B103219D4880F868101CE088
:104A300004F4803020B10921994880F8681014E00E
:104A400004F0806028B10A21954880F868100CE0D5
:104A500016E004F4001020B10B21914880F8681092
:104A600003E003218E4880F868108D48D0F88C0050
:104A700020B18B48D0F88C106430884704F0F804DB
:104A800000BFA6E638B5044604F00100B8B36B4693
:104A9000022200212620FEF718FD9DF8010020F0DB
:104AA0003C008DF801009DF8010040F014008DF8E5
:104AB00001000DF10103012211462620FEF7A6FC9C
:104AC0006B46012202213620FEF7FFFC9DF8000014
:104AD00040F084008DF800006B4601220221362050
:104AE000FEF794FC10208DF8000001208DF80100E5
:104AF0006B46022228213620FEF788FC15E0FFE7EE
:104B000004F0010088B96B46022200212620FEF73E
:104B1000DCFC9DF8010020F014008DF801006B46CC
:104B2000022200212620FEF771FC04F0020088B169
:104B30000F208DF800006B4601222A213620FEF757
:104B400065FC00208DF800006B4601222A213620EA
:104B5000FEF75CFC38BD10B50020FEF704FD002216
:104B600004213620FEF786FC10BD10B5044622460F
:104B700001210A20FEF791FC10BDF8B5044600257E
:104B800000200090002604F0020058B18020009020
:104B90006B46012200210D20FEF738FC0120404920
:104BA00081F87D0004F0010028B39DF8000040F07A
:104BB000060000906B46012200210D20FEF726FC26
:104BC00003210F20FEF741FD064606F4816008B977
:104BD00000251BE0402000906B46012200210D20A3
:104BE000FEF714FC0020FFF73FFC00202C4981F861
:104BF0007D00451E0AE09DF8000040F00200009094
:104C00006B46012200210D20FEF700FC2846F8BD6E
:104C10002DE9F04104460D46164645EA06204FF6BA
:104C20000F7100EA010704F0010028B13A460021A3
:104C30001D20FEF71FFC04E0002211461D20FEF798
:104C400019FCBDE8F08170B504460026FFF7F8FCBA
:104C50004FF4807504F0010008B145F400752A4650
:104C600000210D20FEF706FC04F00100A8B103218D
:104C70000F20FEF7EAFC064606F4816068B1FFF7F4
:104C8000FBFC04F0020028B14FF4807200210D20DB
:104C9000FEF7F0FB4FF0FF3070BD0020FCE7000096
:104CA000300A00200090272438B504466B460122C4
:104CB00003210420FEF709FC002C16DD224600210A
:104CC0000C20FEF7D7FB9DF8000040F0100000908C
:104CD000D548006B40F08050D34908636B460122F1
:104CE00003210420FEF792FB10E09DF8000020F065
:104CF00010000090CC48006B20F08050CA49086337
:104D00006B46012203210420FEF780FB38BD10B55D
:104D10000446224624212720FEF7ACFB10BD2DE9D6
:104D2000F04104460E4600F01DFA074600210E2011
:104D3000FEF7FDFB05460EB1254300E0A5432A46DC
:104D400000210E20FEF7A9FB384600F01CFABDE852
:104D5000F08138B5044600200090022000906B4698
:104D6000012200212F20FEF751FB3CB101200090D1
:104D70006B46012200212F20FEF748FB38BD70B59D
:104D8000044604212F20FEF7D2FB0546C5F30B0095
:104D90002080C5F30B40608008212F20FEF7C7FB61
:104DA0000546C5F30B00A080C5F30B40E0800C2145
:104DB0002F20FEF7BCFB0546C5F30B002081C5F391
:104DC0000B40608110212F20FEF7B1FB0546C5F393
:104DD0000B40E081C5F30B00A08114212F20FEF7CA
:104DE000A6FB0546C5F30B406082C5F30B0020828D
:104DF00018212F20FEF79BFB0546C5F30B00A08270
:104E0000C5F30B40E08270BD08B500200090FFF7AD
:104E1000A2FE002211462C20FEF72CFB6B4601223D
:104E200006212C20FEF7F2FAFFF734FA6B46012236
:104E300003213620FEF749FB9DF8000000F00F002B
:104E400000906B46012203213620FEF7DFFA012095
:104E500003F097FB9DF8000040F0F00000906B46D7
:104E6000012203213620FEF7D1FA00206E4981F895
:104E70007D0008BD38B50446FFF76DFE6B48005D48
:104E800000EB80006A494318052207212B20FEF71A
:104E9000BDFA684B01220E212B20FEF7B7FA6348BA
:104EA000005D654951F820200C212820FEF7F5FA15
:104EB0004FF4FF1200212820FEF7EFFA5F4A00218D
:104EC0002820FEF7EAFA222000906B4601220021FA
:104ED0003620FEF79BFA072000906B460122114610
:104EE0003620FEF793FA002226213620FEF7C2FA7A
:104EF000132000906B4601220C212A20FEF786FA2F
:104F0000002038BD38B50446FFF725FE4FF4FF12E8
:104F100000212820FEF7C1FA484A00212820FEF788
:104F2000BCFA0220FEF71FFB0D20FEF71CFB042C31
:104F300000D20424224600210A20FEF7AEFA1020F7
:104F40008DF800006B46012224212F20FEF75EFA27
:104F500038BDF8B5044680208DF800006B4601226C
:104F600011212820FEF752FA0A208DF800006B4626
:104F7000012212212820FEF749FA0F208DF80000A7
:104F80006B46012212212820FEF740FA00208DF8FE
:104F900000006B46012200212A20FEF737FA01208B
:104FA0008DF800006B46012200212A20FEF72EFA20
:104FB000012C09D1012003F0E4FA6B4602220321FF
:104FC0002A20FEF782FA0BE00020FEF7CCFA6B46AF
:104FD000022203212A20FEF778FA0120FEF7C3FA05
:104FE0009DF800609DF8015000208DF800006B4690
:104FF000012200212A20FEF709FA46EA0520F8BD21
:1050000008B56B46012204212A20FEF75EFA9DF8BE
:10501000000008BD08B56B46012203212A20FEF7D7
:1050200054FA9DF8000008BD300A00205CBF00085B
:105030007CBF00089ABF000864BF000800FF5F0043
:105040002DE9F74F84B006468B460024584606F0FB
:105050004FFC00223A4BCDE9000106F01FFACDE9E2
:10506000020106F035F98246BAF1FF0F01DD4FF07B
:10507000FF0A0698012825D1042E02D0072E10D150
:1050800000E000BF2F48855D00E0641C05EB0510C3
:105090002D4901EB8000005D5045F6DBA4F11C09B1
:1050A0000FE02A48855D00E0641C05EB850000EBFD
:1050B000451027490844005D5045F5DBA4F1170968
:1050C00000BF27E0042E02D0072E11D100E000BF60
:1050D0001C48855D00E0641C05EB8500C0EB851075
:1050E0001C490844005D5045F5DBA4F11E0910E0A1
:1050F0001648855D00E0641C05EB850000EBC500EB
:10510000154901EB4000005D5045F4DBA4F11109A5
:1051100000BF00BF484606F057FD039006F0E8FBCD
:10512000074688460D4A0E4B3846414606F0B6F90A
:10513000074688463846414607B0BDE8F08F000074
:105140000000104016C00008B2C000080EC00008E1
:105150001EC00008A2C100083AC100087B14AE4777
:10516000E17A843F10B5172000F03DFF044644B1BA
:105170001720012181400B4A430942F8231000BF48
:1051800000BF204610BD014651B1172001228240C8
:1051900043099B0003F1E023C3F8002100BF00BFD7
:1051A0007047000080E100E00020704710B500BFAC
:1051B0000221404804F09DFF0028F9D000213D481D
:1051C00004F013FF002010BD2DE9F04705460E4600
:1051D000174698460024FFF7C5FF81461020364940
:1051E000086000BF0CE0305D3249888100BF314863
:1051F000008900F001000028F9D02E488089641C45
:10520000AC42F0DB00240DE018F804002949888145
:1052100000BF2848008900F001000028F9D0254887
:105220008089641CBC42EFD310202349091F086009
:105230004846FFF7A8FF0020BDE8F0872DE9F047BA
:1052400006460F4690461D460024FFF78BFF814619
:1052500010201949086000BF0DE0385D15498881AC
:1052600000BF1448008900F001000028F9D011485F
:1052700080892870641CB442EFDB00240DE000201C
:105280000C49888100BF0B48008900F0010000280C
:10529000F9D0084880892855641C4445EFD3102074
:1052A0000549091F08604846FFF76DFF0020BDE86B
:1052B000F087000000300140140801400146C87822
:1052C000532804D108794E2801D101207047C878AD
:1052D000532804D10879572801D10220F6E708782D
:1052E000642804D14878652801D10320EEE7002026
:1052F000ECE71FB54348006801904248001D006874
:1053000002904048083000680390039800903EA146
:105310004548DDE9012305F039FA012004B010BD4C
:1053200010B5002410224149414800F0EFFF3F48EA
:1053300000884AF6AA21884228D008463B490880BE
:1053400008464088401C48800846408839494880C3
:105350004FF42A403549888008468088354988803E
:1053600056203249C880312008812E2048813020C3
:1053700088815620C881312008822E204882302022
:10538000888210222A4800F0D2FF2FE02748408868
:10539000401C2649488008464088264948802348C2
:1053A000808888802148C088C88020480189214899
:1053B00001811E4841891F4841811C4881891D483F
:1053C00081811A48C0891B49C8811848018A194837
:1053D00001821648418A174841821448818A15483B
:1053E000818210221149124800F0A1FF10BD02462F
:1053F0000020704710B510220C490D4800F097FFAF
:1054000010BD0000E8F7FF1F41542B534E3D2530DF
:1054100038782D253038782D253038782D312D31BC
:105420002E300D0A00000000E80A0020280B0020A2
:1054300000A40008120B002070B504460E4604F0CC
:10544000200004F0100100EB810004F0400100EBAB
:10545000A1000011FE490860022E0CD10846006828
:10546000042802DD48F2040508E0F948008880B20B
:1054700040F4004502E0F648008885B22846FBF774
:1054800077FE70BD0146002001F0020202B101204A
:1054900001F0040202B1801C7047FEB506462020D0
:1054A00000F005FEFDF73CFA0446EA48844217D0B6
:1054B0001021E94804F05DFA012003F062F81021A0
:1054C000E54804F054FA072003F05BF8FDF728FAEA
:1054D0000446E048844201D08017FEBDFFF794FCEB
:1054E00000F065FEFDF78AF90546002D02DA4FF05F
:1054F000FF30F2E7082000F0DAFDFDF711FA04466C
:10550000D448844201D08017E7E706F0080018B9B4
:105510000120D249086002E00220D0490860CF484B
:1055200001783046FFF788FFCC480068022806D192
:10553000C7480068042802DD0020C8490860C74841
:105540000068FBF71BFF3046FFF79CFFC44908606B
:105550000846006800EB8000C24911F810008DF881
:105560000000C1490860BE48006800EB8000BD49EA
:1055700001EB4000C0788DF80100B948006800EBED
:10558000800001EB400040788DF80200B4480068CC
:1055900000EB800001EB400040798DF80500B04839
:1055A000006800EB800001EB400080798DF8060078
:1055B000AB48006800EB800001EB40000089ADF8CB
:1055C0000800A748006800EB800001EB40008078ED
:1055D0008DF80300A248006800EB800001EB40005A
:1055E00000798DF804009E48006800EB80009F4A17
:1055F00002EB40016846FDF79FF920466DE710B5C4
:105600000120FDF7A4FE10BD10B500BFFFF766F83E
:105610002021974804F091F90128F7D010BD4FF4EC
:105620008050FBF7C7FD02E0022002F0AAFFFBE773
:1056300000F0AA01491000F0550241EA420000F0D2
:10564000CC01891000F0330241EA8200010900F028
:105650000F0241EA0210704701460022AA20B0EB77
:10566000212F01D000207047CAB21046FBE770B569
:10567000054600247FA1844805F088F80446C5F358
:10568000801030B18049081980A105F07FF80444EA
:1056900005E07D4908197FA105F078F80444C5F3B9
:1056A000401030B1784908197DA105F06FF8044425
:1056B00005E0754908197DA105F068F80444C5F3B3
:1056C000001040B170490819C5F342027AA105F0F3
:1056D0005DF8044407E005F00F026B49081979A151
:1056E00005F054F804442146674800F02DFF70BDD2
:1056F0002DE9F04F9BB0002500201A9019901890CA
:1057000017900026159000244FF4E13002F05DFF61
:1057100000F046FB00F0F5FC00F0D6FD00F0EEFBDB
:105720004FF47A7002F02DFFFFF7FAFDC82002F067
:1057300028FF00F0E4FE8223654A6649664803F0CC
:105740004FF86649504805F021F804464E490819BB
:10575000634905F01BF804444B490819614905F0F9
:1057600015F80444484908195F4905F00FF8044446
:10577000454908195A4905F009F8044442490819ED
:10578000564905F003F8044421463F4800F0DCFE8A
:10579000012280214F48001F04F0E2FD4E4803F033
:1057A00048F852498888FFF757FF06462EE005253E
:1057B0000CE005F0010018B1042000F024FB02E029
:1057C000042000F048FBC82002F0DBFE281EA5F1F3
:1057D0000105EED100251E21454800F09AFEC0B219
:1057E00016904348FFF76AFD02280BD1C82002F04B
:1057F000C8FE3F4802F051FF3E498880FFF7FAFD9E
:1058000000F01FFA26213CA000F09EFE002ECED014
:105810003046FFF72CFF06F07F00FFF709FF4049F5
:1058200008701720012181403E4A430942F82310A5
:1058300000BF042000F0E7FA39480078FFF72DFE9A
:10584000401C18B9042000F006FB6DE070E0000079
:10585000280000203001CADE000801403C00002082
:105860002C00002046000020300000206E000020A8
:10587000000C01404D696E69337320C5E4D6C3D076
:10588000C5CFA2A3BA000000480B0020362E384D29
:105890002C2020003131306B7062732C20200000EE
:1058A0004368616E6E656C20352C20004368616E24
:1058B0006E656C20322C2000416E63686F7220256B
:1058C000640D0A005461672025640D0A0000000081
:1058D000CA0B0020043801404400024040C40008C4
:1058E00068C30008F8C30008B0C30008120B00200A
:1058F0004C0C0020280B0020B5C8B4FDBDD3CAD580
:105900004154C3FCC1EEBDF8D0D0D0E9C4E2B2A688
:10591000C2EBBFAAB9D8C9E8D6C30D0A000000007F
:105920002400002080E100E000201BB0BDE8F08FE3
:1059300032250CE005F0010018B1042000F063FAF4
:1059400002E0042000F087FA322002F01AFE281E3E
:10595000A5F10105EED100BFC048007800F0380085
:10596000382803D1BD480078FFF759FE042000F025
:105970004AFA1720012181404209920002F1E022F7
:10598000C2F8001100BF5BE1B54890F8F305149030
:1059900000F0BBFAB249D1F8F415401A1390002474
:1059A000FDF735FBFBF7EDFCAE49086014980128C4
:1059B0002BD1AB48B0F804111398814225DA0027A7
:1059C00001210F20FDF7B3FD814601211920FDF7CC
:1059D000AEFD824601210A20FDF7A9FD8046002088
:1059E0009F4981F8E0009F480068012803D10846DC
:1059F000FDF77AF904E0FEF73FFE0620984948706B
:105A00000020974981F8F30500BFFBF7BDFC1A9011
:105A10001A98002875D00027BA46FBF7BDFC00F0A5
:105A20000F08FBF7BDFC00F00F09FBF7BDFC834638
:105A3000FDF704F987B28B480068012803D1FDF710
:105A4000EFF8824603E04846FDF7EEF88246FDF7A0
:105A5000B5FC1190FDF7B5FC1090FDF7B5FC129068
:105A600000241A9801286BD10420FDF701F90F904A
:105A70000320FDF7FDF80E900220FDF7F9F80D90D8
:105A80000120FDF7F5F80C900020FDF7F1F80B90E0
:105A900074480068012801D1742000E06120CDE93C
:105AA00006B0CDE90898DDE90E0102AAA2E8830458
:105AB000DDE90C01CDE900016BA17A480B9B129A3C
:105AC00004F064FE04462146764800F03DFD764829
:105AD0000078012865D10320FDF7E0F80F9002203F
