:020000040800F2
:1000000090220020518F0008C5470008C74700080C
:10001000C9470008CB470008CD4700080000000092
:10002000000000000000000000000000CF470008B2
:10003000D147000800000000D3470008D54700085A
:100040006B8F00086B8F00086B8F00086B8F0008A8
:100050006B8F00086B8F0008F14700086B8F00085A
:100060006B8F0008014800086B8F00086B8F000839
:100070006B8F00086B8F00086B8F00086B8F000878
:100080006B8F00086B8F00086B8F00086B8F000868
:10009000095E00086B8F00086B8F0008114800088C
:1000A0006B8F00086B8F00086B8F00086B8F000848
:1000B0006B8F00086B8F00086B8F00086B8F000838
:1000C0006B8F00086B8F00086B8F00086B8F000828
:1000D0006B8F0008F57500086B8F00086B8F0008A8
:1000E000DF4700086B8F00080D5E000800F002F883
:1000F00000F065F80AA090E8000C82448344AAF15D
:100100000107DA4501D100F05AF8AFF2090EBAE85A
:100110000F0013F0010F18BFFB1A43F0010318473B
:1001200004AE000024AE00000A444FF0000C10F8AA
:10013000013B13F0070408BF10F8014B1D1108BF65
:1001400010F8015B641E05D010F8016B641E01F805
:10015000016BF9D113F0080F1EBF10F8014BAD1C55
:100160000C1B09D16D1E58BF01F801CBFAD505E073
:1001700014F8016B01F8016B6D1EF9D59142D6D3CD
:10018000704700000023002400250026103A28BFF5
:1001900078C1FBD8520728BF30C148BF0B607047F9
:1001A000642909F01780782909F05080632909F043
:1001B0005A82002070471FB51FBD10B510BD09F051
:1001C0005EFA1146FFF7F7FF03F0D2FF09F07CFA61
:1001D00003B4FFF7F2FF03BC07F07AF9412100F8FE
:1001E000681F88214170B0F86C10C170090A017154
:1001F00000218170704770B504460D460026B4F8A2
:10020000D000002102F0C8FC012D02D1206E03F0C5
:10021000E3FA94F8E8002843C0B203F0E2FA30B100
:100220000126D4F87801401CC4F8780106E004F0F7
:1002300097FBC4F8FC05012084F8FB05304670BD2F
:100240002DE9F04705468A4691461E464FF00008C4
:1002500000200024FD4F14E055F82410B94202D0CC
:10026000204600F095FF012810D030780121A140F0
:1002700088433070204600F0F0FF45F824700020DD
:10028000641C5445E8DB4046BDE8F087C846F4E707
:100290002DE9F04F9DB004468A46637804F1FA00D8
:1002A0001B9046301A900225FF22002604F20160BE
:1002B0004FF0040904F168014FF0010804F18007D0
:1002C0001990092B33D2DFE803F00588ABFD32FC2F
:1002D000FBFA6D002078E8B304F1C707012802D0CB
:1002E000022824D124E0182002F0CDFCB4F8D40078
:1002F00002F0E4FC608DA4F8C700384602F0E8FC88
:10030000608DC4F88C0102F0DEFCA57084F80180D9
:1003100084F8EA8084F8FC60C4F8186102F088FA76
:100320002046FFF75BFF04F01BFBC4F8F00038E247
:10033000608DA4F8C700384602F0CAFCB4F8D400B7
:1003400002F0BCFC608D00F0030184F8C61002F0DE
:10035000BAFC00E017E0608DB0F5004F01D184F8E1
:100360009481002002F08FFC002002F0DEFF0620C6
:100370006070002003F0AEFA002003F0DAFA2046A5
:10038000FFF72CFF0DE2002002F07DFC002002F0C0
:10039000CCFF002003F09EFA002003F0CAFA0620EA
:1003A0006070FEE10A2001F08EFE0078042802D081
:1003B000C4F80880F5E1A66084F8EA60A07860706F
:1003C000A67004F0CDFAC4F8F000032007F06FF82F
:1003D00001F0B2FF01F09AFFE3E1A07802281CD1FE
:1003E00094F8EA10C9B1DD34E07F401CE07744F8AE
:1003F000D55C082004F8DC0CDDE91A030122042195
:10040000FFF71EFFC4F8A700607FA077667704F0AF
:10041000A7FAC4F8B300DD3CF8E36070A670F5E31A
:100420002078012807D094F8050184F8720005D1DE
:100430004FF0810004E094F8FC00F6E74FF0710003
:1004400004F1540460774FF05A00E0774FF00E0348
:10045000A4F87C3094F87E00A07500F1010084F8C7
:100460007E0094F87300E07694F87400207762764A
:10047000A2764FF00002184602F07EFBC82002F080
:1004800054FF14F8540D4FF6FF71012823D094F84F
:1004900005211998165484F8E950A06D01EA40002E
:1004A00003F018FA84F8FA6084F8F96084F8E850E8
:1004B000B4F8D000002102F06FFB022003E0E6E078
:1004C000D7E05CE013E003F08CF905206070E57084
:1004D000C4F808809AE394F8FC201998165484F81C
:1004E000E990A06D01EA800003F0F4F9DAE72078E2
:1004F000012807D094F8050184F8720005D194F81A
:10050000FA0004E094F8FC00F6E794F8F90084F8A7
:10051000910002D14FF0820001E04FF0730004F12E
:10052000CA0404F8590C4FF02C03E380207A04F835
:10053000600C00F1010020724FF00002184602F03A
:100540001BFBA677CA3C01212046FFF754FE50B1A1
:100550002078012803D0204601F039FD56E384F8C5
:100560000180A57052E3052060700320E0702078C0
:10057000012801D184F8EA80C4F8088046E30B2002
:1005800001F0A1FD0146087801280AD018B104281D
:1005900004D0C4F80880C4F8088037E384F8F880F1
:1005A000F9E7A660E278032A0AD094F8F800012857
:1005B00011D0D1E90201C4E93601022A13D041E089
:1005C0002078012803D0204601F001FD51E084F895
:1005D0000180A5701AE3204601F009FD84F8F86057
:1005E00084F8E86012E32378012B31D0D4E9103C81
:1005F000C01841EB0C01430A5B02C8B2CDE91230CE
:10060000DDE91210030643EA11202066DDE912C37A
:10061000218C11EB0C0146EB0300CDE91210DDE952
:100620001210C0B2CDE912101298C4F88C009DF8D7
:100630004C0084F89000B86DC4F8730097F85C0023
:1006400084F877000B2A0ED00FE00000FFFFCDAB3F
:10065000D4E90E3CC01841EB0C016FF30800C9B29D
:10066000CDE91201CCE784F80390062060704FF0CA
:10067000000A94F8E800E0B184F8E860207808B156
:10068000C4F8088007206070BAF1000F85D0BAF175
:10069000000F05D0BAF1020F0FD0BAF1040F79D0D4
:1006A000BAF1000F01D0C4F80880A068002872D009
:1006B000ACE2002003F0E8F8E0E70F2001F003FDD2
:1006C000814600201390149011901290834684F874
:1006D000EB0099F81D0000F0CC00882834D08C285D
:1006E00023D0C82812D0CC283AD1D9F829001390A9
:1006F000D9F82D001490D9F821001190D9F82500CF
:10070000129099F831B009F1310729E0D9F82300A6
:100710001390D9F827001490B9F82100ADF84400DF
:1007200099F82BB009F12B071AE0B9F82900ADF8B8
:100730004C00D9F821001190D9F82500129099F8B1
:100740002BB009F12B070BE0B9F82300ADF84C00F2
:10075000B9F82100ADF8440099F825B009F1250752
:1007600094F8EA0008B92078B0B19DF84CA00AF0DE
:100770000306109648F20101BBF1730F7DD011DC26
:10078000BBF1700F57D0BBF1710F1ED0BBF1720FD0
:100790000ED150E026E237E206206070002002F021
:1007A000C4FD33E2BBF1810F0FD0BBF1820F64D0E7
:1007B00006206070002002F0B8FD99F81C00800649
:1007C000EFD5102001F07FFC20E2D9E90202C4E954
:1007D0003802BBF1810F0FD010987A78204480F84E
:1007E0000621608D884215D19DF84D004AEA00200F
:1007F000B0F5004F07D00DE00AF0070222447878E8
:1008000082F8FD00EDE7B4F80C11D9F8180008449F
:10081000C4F8140199F802000C2804D00E2807D05F
:1008200006206070C9E7052060700920E070C4E709
:1008300007206070C1E7F879401CC0B20F909DF8A6
:100840004D004FF400434AEA002098420BD1207833
:10085000012808D17878BA7800EB022000B2C4F8F9
:1008600018010020206399F802000C2806D00E28F9
:1008700022D02078012806D009E081E005206070B0
:100880000A20E07018E094F8FA20D2070CD1628DAB
:100890008A4203D194F8F910490705D49A4206D147
:1008A00094F8F910890702D50320607004E001284C
:1008B00020D0204601F08BFBBBF1700F20D094F8C4
:1008C00094010028AED094F805010F998842A9D16F
:1008D00084F806011999405C032831D09DF8440042
:1008E000D7F80310504400F0030004EB8000C0F878
:1008F000601162E784F80180A57084F8EA80DBE784
:1009000094F8FC200F98FE49824210D104EB860235
:10091000D7F80300C2F84001884288D094F8FA0062
:1009200008FA06F840EA080084F8FA0045E704EB04
:100930008600D0F840218A42DBD0C0F840113CE765
:100940009DF84400D7F80310504400F0030004EB76
:100950008000C0F8601104F1F9030222042104F5BB
:10096000B070FFF76DFCF934C4F88B002078A070EC
:1009700000202070D9F81800C4F89700F93C1CE753
:1009800000200690079000220492059202900390A6
:10099000DB4D002697F820C094F8C60000EB8002DB
:1009A000D21DD3B2BBF1820F0BD10AF00702224451
:1009B00097F801E092F8FD20724502D006206070A1
:1009C000FBE6BBF1730F10D1109A97F801E02244B7
:1009D00092F80621724513D194F8942182B9628D60
:1009E000A2F5004EBEF1030E0AD0628D8A420CD1F0
:1009F0009DF84D104AEA0121B1F5004F03D004E003
:100A000006206070D9E684F8EC80C4F888210121C2
:100A1000814011EA0C0F7CD0D9E902010022226644
:100A20006834D7F802200492BA798DF81420FA18A5
:100A30001368029312798DF80C20D7F81B200692C8
:100A4000FA7F8DF81C2002AA059D4CCA921B63EB0D
:100A50000503DBB218930A9204F17002683C6CCA79
:100A6000551B63EB0606F6B217960895801A61EBE4
:100A70000301C9B216910E90DDE90203DDE90621FA
:100A8000101A61EB0301C9B215910C9017990898DF
:100A900009F02AF905460E4615990C9809F024F933
:100AA0002A46334609F0C0F905460E4616990E98B7
:100AB00009F01AF90746884618990A9809F014F9B6
:100AC0003A46434609F0B0F92A46334609F0ECFAB3
:100AD000074688461799089809F006F905460E4614
:100AE00016990E9809F000F92A46334608F0A2FE3E
:100AF000CDE9000115990C9809F0F6F805460E4667
:100B000018990A9809F0F0F82A46334608F092FE40
:100B100000E00DE0DDE9002308F08CFE02460B4604
:100B20003846414608F042FF09F098F8C6170546D6
:100B3000BBF1820F18D09DF84D000AEB0020C4F8DD
:100B40008C01109804EB8000C0F8505194F8001606
:100B50001998085600283EDB199A404240B2885442
:100B600094F8001690B336E09DF84D000AEB002093
:100B7000C4F88C0100F0070004EB8000C0F820519D
:100B8000DDE91A0301220421FFF75AFBFA34C4F805
:100B90008A0020786070002004F8FA0958486840FC
:100BA00030430ED094F8C610504600F043FB94F842
:100BB000C6000121814084F8FA1004EB8000C0F8DF
:100BC0004051D9F81800C4F89001BFE7FFE7199A1F
:100BD0004FF0FF30885401F0AFFB01F097FB062087
:100BE0006070EAE5112001F06EFA80780C2802D0DE
:100BF0000F2805D00AE0052060700B20E07005E0AA
:100C0000204601F0F4F901E0C4F80880A0681DB0A6
:100C1000BDE8F08F2DE9F0478CB004460D462079F1
:100C2000062702264FF0000A4FF007084FF005098B
:100C3000092821D2DFE800F00520752020BAC5CBB5
:100C40006600207804F1C705012818D0022834D0A6
:100C5000052811D12670182002F015F8B4F8D40038
:100C600002F02CF8608DA4F8C700284602F030F896
:100C7000608D02F028F826710CB0BDE8F087608D19
:100C8000A4F8C700284602F023F8B4F8D40002F014
:100C900015F8608D02F017F8002001F0F4FF002035
:100CA00002F043FB2771002002F014FE002002F046
:100CB00040FE2046FFF792FADEE7608DA4F8C700F9
:100CC000284602F005F8B4F8D40001F0F7FF608D73
:100CD00000F0030184F8C61001F0F5FF002001F0D8
:100CE000D2FF002002F021FB2771002002F0F2FD6C
:100CF000002002F01EFE2046FFF770FABCE700005D
:100D0000FFFFCDAB0A2001F0DEF900780428B3D153
:100D10006079207184F805A001F00EFB01F0F6FA6D
:100D2000AAE72078012807D094F8050184F872001A
:100D300005D14FF0810004E094F8FC00F6E74FF095
:100D4000710004F16A04E071DC4802886272DCA17F
:100D500004A808F0D9F9014604A804F002FF0E2304
:100D6000A4F8663094F868002070401C84F868008D
:100D700094F85D00607194F85E00A071FF20E0704F
:100D800020716A3C002204F16801184601F0F4FE6B
:100D900084F8E8A0B4F8D000002101F0FDFE0020A6
:100DA00002F01FFD84F80490A67165E70B2001F0A6
:100DB0008AF900780128A1D1A07902289ED1277153
:100DC0005AE7002002F060FD84F8048054E7022D09
:100DD00094D10F2001F077F90546CDF808A0CDF8A1
:100DE0000CA0CDF800A0CDF804A00020697F01F090
:100DF000CC0188292ED08C291FD0C8290FD0CC290E
:100E000033D12135A8680290E868039028680090E3
:100E100068680190287C213D05F1310625E055F8F0
:100E2000230F02906868039035F8020CADF80000BB
:100E3000287A233D05F12B0617E021352889ADF8E6
:100E400008002868009068680190A87A213D05F1A3
:100E50002B060AE021356888ADF808002888ADF82F
:100E600000002879213D05F12506712806D081284A
:100E700004D06770002002F058FAFDE6D5E90212AE
:100E8000C4E9381281280FD0B27894A104A808F0E0
:100E90003BF9014604A804F064FEA8780C280CD0A5
:100EA0000E280FD02771E7E69DF80810707801F042
:100EB0000701214481F8FD00EFE784F80490092040
:100EC000A071D9E684F80480D6E62DE9F05F834668
:100ED00000248548032109F01DFD0546834909F0DA
:100EE00061FA09F0CBF908F005FC08F0B7FE00EB59
:100EF0004000000109F018FB0146284609F0EAF914
:100F0000DFF8EC8198F8131079B17A4D012914D0EB
:100F1000794909F021FB294609F0DCF9074698F8E0
:100F20000E0010F0030F10D031E0744909F014FBEB
:100F3000734909F0CFF90746F1E7724909F00CFB54
:100F4000294609F0C7F90746E9E780100E281ED2A6
:100F5000DFE800F01D1B0F071D180D1D1D150A1DD4
:100F60001D124FF08B4412E04FF08A440FE0664CA4
:100F70000DE04FF089440AE04FF0884407E04FF05D
:100F8000874404E04FF0864401E04FF0854458491F
:100F90005E4898F80D50C97C405C09F0C5FA012DF7
:100FA00065D0214609F096F9594909F0D5FA064667
:100FB0000020394609F08EF909F060F9DFF8549104
:100FC00000224B4608F0F2FC04460D46304609F07C
:100FD00055F98A46064622462B4608F02BFC4E4A17
:100FE0004E4B08F0E3FC08F039FE00F110045846BF
:100FF00008F063FE00F0B6F8C8E90E010BEBDB70F9
:10100000642101EB600008F058FE00F0ABF8C8E97D
:101010001001384609F032F900224B4608F0C6FCB0
:101020003246534608F006FC08F018FE98F81310F4
:101030004FF4967519B304F59671C8F85810C8F8AE
:101040005C4000F5967008F038FE00F08BF8C8E9B7
:1010500012013046514600F085F8000A40EA01606E
:101060001030C8F85000C8F85450BDE8F09F214631
:1010700009F030F92A4909F06FFA064698E704F5B5
:101080002F71C8F85810C8F85C4000F5967008F049
:1010900014FE00F067F8C8E912013046514600F02E
:1010A00061F8000A40EA01601030C8F85000C8F842
:1010B0005450DAE70E4948857047000000000020D0
:1010C00054696D65536C6F745F4E756D6265725FC8
:1010D00053203D2025640D0A00000000524D534767
:1010E000203D2025640D0A00000098410000A54322
:1010F000780200200046A846C335004385340046E8
:10110000004528487B3480440000C04444AA0008BD
:10111000B341823F00408F400D71AC8BDB68F03FE4
:10112000EA5B7E3F10B5A0B0044680220C496846B9
:1011300008F099F9202003F0D3FC204602F0EBFCE4
:10114000002269467F2001F017FD00217F2001F079
:1011500023FD002002F045FB20B0002010BD000060
:1011600084AD000810B5F94AF94B08F01FFC0022C5
:10117000F84B08F01BFCBDE8104009F02FBB10B580
:1011800008F09BFDBDE81040F04AF14B08F04CBE62
:101190002DE9F04106460846FFF7F1FF4FF098525F
:1011A000ED4B08F041FEED4A044602EBC6020D4647
:1011B00003C2EA4F2037787D80B1387B052806D0FE
:1011C000E74AE84B2046294608F0F0FB08E0E64AEB
:1011D000E64B2046294608F0E9FB01E02046294677
:1011E00008F0F6FA01467A7B387B02F02FFD2246A2
:1011F0002B4608F04DFF04460D46002213462046BC
:10120000294608F0D5FD06D30022D94B20462946B1
:1012100008F008FF02D20020BDE8F081CF48203856
:1012200000EBC60030C0D7F88001401CC7F8800131
:101230000120F1E7C94AC94B203A02EBC101603BEA
:10124000D1E9002103EBC000C0E900217047C34988
:10125000603901EBC00103C97047C049002301EBAD
:10126000C0010B604B60BD4B0022203B03EBC00074
:1012700002604260704730B50020B84BA3F12005F2
:10128000BC4A03EBC0010024C1E9004205EBC001E8
:101290000022B84C14C1401C0428F1DB30BDAF491A
:1012A000203108707047AD48203000787047AB4956
:1012B0002031D1F884010022C1F884217047A74869
:1012C0002030D0F888017047A4482030D0F88C0135
:1012D0007047A2482030D0F8900170472DE9F041C6
:1012E000002500249D4E002720367766012002F05D
:1012F0003EFB86F8D270C6F88071C5EB45109E4A59
:10130000C0EB052006EBC00101EB8400C0F84021D2
:10131000641C042CF8DB002001EB8003C3F82021BF
:10132000401C0828F8DB77E70FB470B52C9E002529
:101330008DF8AB50894CA022203404A994F8F9050B
:1013400000EB800004EB401000F5CC7008F08BF847
:1013500094F8F90500EB800004EB401080F89861E8
:1013600094F8F905401CC0B284F8F905062801D1AB
:1013700084F8F95570BC5DF814FB10B501460F20D8
:1013800001F00301012903D0022901D003290FD064
:10139000724A203292F9E910002909DDB2F85800AA
:1013A000484380B202F096FA002002F06DFA0E2057
:1013B00010BD10B5694C2034216D206E401A02F02A
:1013C0000BFA012002F060FA002813D0E06D4FF60E
:1013D000FF7101EA400002F07DFA002002F054FAA9
:1013E000B4F85C0080B202F075FAD4F87C01401CBD
:1013F000C4F87C0110BD2DE9F04180460F46002560
:10140000564C0026203494F8E900002804D102F05C
:1014100061FA002002F08DFAF8070BD094F8E91079
:10142000012900D1012594F8941179B994F8C600E6
:1014300003280BD0A16C94F84C20090A206E41EAD5
:10144000026140182066F90708D00EE0002002F083
:1014500041FA002002F018FA0E20DDE694F9E910B6
:1014600094F8C6201144032909D0012D07D0B8F102
:10147000000F38D0FFF79DFF0E252846CCE602214D
:1014800084F8E81002F0A8F9032002F0AAF9B8B134
:10149000002001F04AFF84F8E860D4F87801401C8D
:1014A000C4F87801A06C94F84C20000A40EA02606D
:1014B000216E001808182066FFF77BFF0E25DCE779
:1014C00094F84C10A26C0B06206E43EA12214018CF
:1014D00020664FF00C0503F043FAC4F8FC05012028
:1014E00084F8FB05C9E7002002F0F4F9002002F0BF
:1014F000CBF9C1E70FB470B5A6B0184A002420326A
:101500001046117890F9E90044250346401E042650
:1015100040B2022932D0C1B182F8E9000020FFF7C1
:101520002CFF8DF8AA008DF8A8408DF8A950ADF8D1
:10153000AC4090222EA96846249607F094FF2AA872
:101540000FC8FFF7F1FE26B014E73CE0FA48CE3BA7
:101550001835B13D80842E4119DDB141580200207B
:10156000F6285C8FC2F5F43F295C8FC2F528F83F5E
:101570000088D340E0FFEF40FFFFCDAB002B18DD2C
:1015800082F8E90000210846FFF735FF8DF8AA0030
:101590008DF8A8408DF8A950ADF8AC4090222EA946
:1015A0006846249607F05FFF2AA80FC8FFF7BCFE25
:1015B000C9E7002002F08EF926B0002070BC5DF86B
:1015C00014EB02F061B926B0002070BC5DF814EB9A
:1015D00002F05AB910B501460F2001F00301FE4C8C
:1015E000628DB2F5004F0AD1012908D1B4F8580034
:1015F00080B202F06FF9002002F046F90E20618DF2
:1016000048F20102914200D10F2010BD2DE9F047B0
:101610000746DDF8208007F00705EF4C13266D34F0
:101620004FF00009A4F8636058180088208094F8EF
:101630005A00A07094F85B00E0706D3C04EB8501EB
:10164000D1F820016067601990F8FD5084F8785057
:1016500080F8FD909818407884F8FC0094F8D22027
:1016600084F86A20521C84F8D220DC48D1F820216A
:1016700082420CD094F8C6000122824084F8FA20FD
:1016800004EB8000D1F82011C0F8401107E094F875
:10169000C61004EB8101C1F8400184F8FA90606D36
:1016A00001F043FE94F89401E0B1B4F80A21B8FBCC
:1016B000F2F002FB1081B4F80C31F8B25843431A2F
:1016C00050084042984203DDD118C4F8181101E0D7
:1016D000C4F8183104F17200B4F818210270110A2C
:1016E000417005E0C4F8189184F8729084F8739002
:1016F000702084F871000021304601F04DFA04F1A9
:1017000068013046BDE8F047002201F035BA2DE906
:10171000F04100F00305B04C132600276D34A4F807
:10172000636058180088208094F85A00A07094F8DC
:101730005B00E0706D3C04EB8500D0F85001606701
:101740006119543491F8060184F8240081F8067177
:101750009818407884F8B10094F87E10A175491C5F
:1017600084F87E10206801F0E0FDC4F8C470A7770B
:10177000E77772206077543C0021304601F00CFA84
:1017800004F168013046BDE8F041002201F0F4B9EF
:101790002DE9F04FDBB0054600244E944F94A1464E
:1017A000A24603F0DDF82C9028792AA98A4F4FF041
:1017B0000F08599102280DD004287DD09022684648
:1017C000599907F050FE26A80FC8FFF793FE5BB0AB
:1017D000BDE8F08FE888ADF89C00287A412801D058
:1017E000612804D1687A00F0CC00882839D06326BB
:1017F0004EA801F030FAE9882DA80022589001F097
:10180000D7F99DF838019DF839119DF83B2100EB7F
:1018100001209DF83A11090401EB026108442A9065
:101820009DF83C01CDE92804289D2A99611865415D
:10183000CDE928152A99000600EB11202B908DF890
:1018400098408DF899608DF89A80022E0FD09022E2
:101850006846599907F007FE26A80FC8FFF74AFE09
:10186000B5E74FF009094FF0070A0226C0E726AB9B
:1018700003EB0A00017F407F01EB002085B239783D
:1018800022464FF0010800295FD0012904D107F159
:10189000E9000478641E047003EB09004FF0030BA9
:1018A000037F732B0FD00ADC48F2020C702B05D09B
:1018B000712B09D0722B00E091E146D1B3E0812B6E
:1018C0005CD0822BF9D162E197F89431BB46002BB2
:1018D000F3D1BBF82A30634537D8012936D005F05B
:1018E0000304407F04F1080161F31F10C0B28BF8BC
:1018F0000006584480F80126032002F0E0FF4A4623
:1019000051462846589BFFF702FF48F201008542E6
:1019100004D0BBF85C0080B201F0DCFF2B98CBF860
:101920006000BBF82A00411B01F003018BF8E910AD
:101930000321FFF760FD8DF89A000BEB8401274827
:10194000C1F85001032002F09EFF22E19BF8E9005C
:10195000401C8BF8E9000220249090226846599997
:1019600007F081FD26A80FC8FFF7DEFC8BF8EB809F
:10197000DBF87401401CCBF8740128E701293DD045
:10198000407F05F0070464F31F1087F80006384411
:1019900080F80126032002F092FF2C9800904A461E
:1019A00051462846589BFFF731FEB7F85C0080B2DD
:1019B00001F090FF2B98386687F8E9B0788D022106
:1019C000FFF719FD8DF89A0007EB84000349C0F872
:1019D0002011032004E0000078020020FFFFCDABBF
:1019E00002F051FF02F09BFF0246FEA150A807F053
:1019F0008BFB014650A804F0B4F8CAE017F8E90FD1
:101A0000401C387090226846599907F02CFD26A892
:101A10000FC8FFF76FFD87F80280D7F88B00401CD6
:101A2000C7F88B00D3E63C4601292DD003294CD0C2
:101A30004FF00E09702B69D094F8940130B194F8EE
:101A40000501204490F80116022978D0608D604588
:101A500076D194F80006011991F9010600286FDB90
:101A6000401C81F8010614F8E90F401E2070002088
:101A700001F030FF002001F058FC01212846FFF75B
:101A8000BAFC8DF89A0084E094F8FC00204490F8A9
:101A90000116491C80F801162846FFF76EFC8DF8E8
:101AA0009A0005F0030000EB8001C91D94F8FA20AC
:101AB00008FA00F0024384F8FA2060184E9940F8C2
:101AC000711F9DF83C11017163E094F805012044F9
:101AD00090F80116491C80F801162846FFF77AFD98
:101AE0008DF89A0005F0030000EB8001C91D94F801
:101AF000F92008FA00F0024384F8F92060184E99A2
:101B000040F8711F9DF83C11017142E094F8000605
:101B1000011991F90106002813DB94F9E920002A44
:101B20000FDD401C81F8010614F8E90F401E2070FB
:101B300004212846FFF75FFC8DF89A0029E00FE0AA
:101B40001CE0032002F0BBFE002001F0C3FE0020D9
:101B500001F09AFE8DF89A90032002F094FE18E0AE
:101B600080F801B614F8F90F40F008002070052144
:101B70002846FFF740FC8DF89A000AE0002001F0AB
:101B8000A9FE002001F080FE8DF89A9001E0012965
:101B900010D0F83707F80D8C902224966846599992
:101BA00007F061FC26A80FC8FFF7BEFBF86F401CCA
:101BB000F8670CE617F8E90F401C38709022684669
:101BC000599907F050FC26A80FC8FFF793FC87F837
:101BD0000280D7F88B00401CC7F88B00F7E58DF822
:101BE0009A80387802280CD197F9E900002808DD9E
:101BF000401E87F8E900788D0621FFF7FCFB8DF881
:101C00009A008DF8984004208DF89900ADF89C401A
:101C10000021289129912A942B942490902268469F
:101C2000599907F020FC26A80FC8FFF77DFBCEE5E9
:101C30002DE9F041D0B000244E944F94057902F084
:101C40008FFE2C906A4F2AAE012D02D0062D46D071
:101C500056E04EA800F0F3FF9DF838019DF83911C9
:101C60009DF83B2100EB01209DF83A11090401EB9E
:101C7000026108442A909DF83C01CDE92804289D82
:101C80002A9961186541CDE928152A99000600EBCB
:101C900011202B903D4687F8EB40B5F8D020ADF8E9
:101CA0009C208DF898408DF89A404FF001088DF8EF
:101CB000998005F168012DA807F0D5FB90223146E7
:101CC0006846CDF8908007F0CEFB26A80FC8FFF736
:101CD0002BFBD5F87001401CC5F8700110E0ADF881
:101CE0009C408DF8984006208DF899002490902211
:101CF0003146684607F0B7FB26A80FC8FFF714FB6C
:101D000087F8FB4550B0BDE8F08170B50024002095
:101D10003749C0EB4012C2EB002001EBC00504EBD9
:101D2000840005EB401000F5CC70A02107F0EFFB1C
:101D3000641C062CF3DB05F5BF6500206870287075
:101D4000A87070BD2DE9F0410026294C0220002525
:101D50002070657084F8EA50257140F60F0000F09D
:101D600051FC8046032001F0CDFC6F1EB8F1000F3E
:101D700001D03846C7E7FFF7B1FA4DF6CA6024F83C
:101D8000D40F2575E5752576FFF7BFFF44F80D5C88
:101D900044F8095C6564002001F0AFFA002001F00E
:101DA00096FA0121134801F0C9FDAFF21B61AFF2B1
:101DB0007F1001F0CBFA84F82755C4F8A450C4F87A
:101DC000A8506775D43C0020C6EB4611C1EB062134
:101DD0006FF0090204EBC1010B1883F80126401CC7
:101DE000FF2809E054303D2025640D0A0000000062
:101DF0007802002080D02324EEDD0D66002082E7EB
:101E000000F0FDBBFE49C86270472DE9F04704466B
:101E10000D46FB4E20780021307360787074607836
:101E20003074A0787073E078F0742279B2736279BC
:101E3000F273A279B27431752289F282022814D029
:101E4000717506F10C00012100F058FD2078ED4F6E
:101E500000EB400017F820003076317BA07800F0CE
:101E600002FD28B1411C03D00CE001207075E8E7A9
:101E7000207800EB400007EB8001A078401E01EBCA
:101E8000800040683146F06101F1180000F0DDFC8F
:101E900000F094FC4FF6FF7802281BD0032819D0DD
:101EA000A07800F062FE4008308408B1404505D1BA
:101EB000A078D549401E31F810103184308C00F0E4
:101EC000E4FC308C00F0DAFC308C7084207904283B
:101ED0001DD025E03078022810D000200027B14620
:101EE000F27C317B00F04DFCA9F8200008B14045A0
:101EF000E4D199F80C00052802D002E00120EDE7BA
:101F00000127C24830F81700A9F82000D6E72020A2
:101F100002F0E6FD002001F097F9082002F0E0FD54
:101F2000E888FFF76FFFD036A88870872988B187C7
:101F3000288846F8A00C6888F087801E48433064E3
:101F40002889BDE8F047FEF7C0BFAD4890F8FC0017
:101F50007047AB49084490F8FD007047A849084411
:101F600090F806017047A648D0F88001704700F04D
:101F70000300A349403901EBC00103C9704700F0D9
:101F800003009F49203901EBC00103C9704710B518
:101F900000F003009A490022403901EBC0019C4B3C
:101FA00003C907F041FFBDE8104007F057BE10B568
:101FB00000F0030092490022203901EBC001944B4C
:101FC00003C907F031FFBDE8104007F047BE10B568
:101FD0000621417002210170002001F07BFC0020ED
:101FE00001F0A7FCBDE81040002001F09EB970B5DB
:101FF0000446606E401C60660020A06020780228C5
:1020000007D00125032201280AD0E078022820D039
:1020100033E006206070BDE87040002001F05ABC3B
:10202000E0780226022803D194F8FA10C90704D0F8
:10203000032807D06570A27070BD84F8EA506570FF
:10204000A67070BD01F0BEF984F8EA506570A67004
:1020500070BD618D48F20103994203D194F8F930C3
:102060005B0706D5B1F5004F07D194F8F910890741
:1020700003D42046BDE87040A9E7032802D065706C
:10208000A27070BD2046BDE87040A0E75C4991F8A1
:10209000FA0500EB800001EB401090F898017047C2
:1020A0000FB470B52C9D564CA02204F5AB6004A96A
:1020B00007F0D9F984F8585570BC5DF814FB554900
:1020C000A02207F0D0B92DE9F04781464C4E4FF0E1
:1020D000000896F8F81506F5E16501EB810006EBBE
:1020E000401494F89871002F2AD004F5CE7414F897
:1020F000030C687014F8020CA8702088A880D4E93A
:102100000101C5E90201E068286120696861606930
:10211000A4F5CE74A86104F5DA717F2205F11C00E4
:1021200007F0A1F92F7084F8339284F8988196F81B
:10213000F805401CC0B286F8F805062807D008E06C
:1021400085F8008085F801803348BDE8F08786F87F
:10215000F88596F8F80586F8FA052F48F5E72DE991
:10216000F043CFB0FFF792FF0146254C0026608D6B
:10217000B0F5004F01D1052020702046FEF74AFD42
:1021800094F8EC000125012802D194F8EB1011B16C
:1021900000287CD093E02078012802D002281ED0AD
:1021A0008DE002F0DDFBD4F8F010401AD4F8F41002
:1021B000884213D984F8EC60ADF89C608DF8986083
:1021C00084208DF899000420249090222AA9684642
:1021D00007F049F926A80FC8FFF7A6F86FE002F04C
:1021E000BFFBB4F80A11B0FBF1F201FB120094F846
:1021F000941102274FF003094FF0800851B30DE00E
:102200007802002090A90008F0A90008F4A90008AD
:1022100000408F40D007002080090020D4F8101122
:1022200081424CD8172000F0AEF8E63404F8E69C62
:1022300001F0C8F8FFF769FD04F8E57C04F8795C63
:1022400004F8788CA671E07F401CE077172000F03E
:102250008FF834E0608D48F2010188422FD102F0FE
:102260007FFBD4F81411884229D3172000F08BF893
:1022700084F8009001F0A6F8FFF747FD677084F836
:102280006D7084F86E8084F8EC60172000E002E046
:1022900000F06EF813E02078022810D194F8940131
:1022A00068B102F05DFBB4F80A11B0FBF1F201FB7A
:1022B0001200B4F80C11814201D984F8EC504FB0EF
:1022C0000020BDE8F08310B5344C1021204606F004
:1022D0002BF9012005F0EBF81021204606F022F939
:1022E000052005F0E4F8002000F081FF0021BDE8A2
:1022F0001040481E01F022BB2949C1F8040770476D
:1023000027494862012081F82800704710B5244C05
:1023100094F82800012807D100211E20626A00F0ED
:102320006EF8002084F8280010BD1D4A10845184E6
:10233000012082F82900704710B5194C94F8290043
:10234000012808D1608C00F0A0FA208C00F096FAE9
:10235000002084F8290010BD1148008C70471048F7
:10236000408C70470E49FB31087800220A70704794
:1023700000F01F02012191404009800000F1E0209F
:10238000C0F80011704700F01F0201219140400980
:10239000800000F1E020C0F8801170470008014083
:1023A0007802002038B500290AD040F0C0008DF82E
:1023B0000000CCB27F2909D802208DF801400DE041
:1023C00040F0800101208DF8001007E044F080000B
:1023D0008DF80100C90903208DF80210694601F04B
:1023E000C7FC38BD08B58DF80020120A8DF8012011
:1023F00089B280B26B460222FFF7D4FF08BD38B520
:1024000000236C46E254120A5B1C042BFADB89B2EF
:1024100080B26B460422FFF7C5FF38BD38B50446CD
:1024200000290AD044F040008DF80000CCB27F298A
:1024300007D802208DF801400BE001208DF8004004
:1024400007E044F080008DF80100C90903208DF8F1
:102450000210694601F0BAFC38BD38B54FF0FF34C0
:1024600089B280B26B460422FFF7D8FF38B9032146
:102470006846425C02EB0424491E0029F9DA204632
:1024800038BD38B504466B46022200213620FFF7DE
:10249000C5FF0E2C54D2DFE804F011071953535333
:1024A00053213053533D444B00208DF800009DF8DC
:1024B000010000F0FE008DF8010041E09DF80000F1
:1024C00000F0FC00401C8DF8000039E09DF8000091
:1024D00000F0FC00801C8DF8000031E09DF8000049
:1024E00000F0B30040F048008DF800009DF80100B6
:1024F00040F080008DF8010022E09DF8000000F01F
:10250000B3008DF800009DF8010000F07F008DF809
:10251000010015E09DF8010040F002008DF8010077
:102520000EE09DF8010000F0FD008DF8010007E0CD
:102530009DF8000000F0CF0040F020008DF8000072
:102540006B46012200213620FFF72CFF01220DF1FE
:10255000010311463620FFF725FF38BD38B54FF689
:10256000FF7489B280B26B460222FFF757FF30B981
:102570009DF800009DF8011000EB012084B2204678
:1025800038BD08B503208DF8010001208DF800004A
:102590006B46022200213620FFF704FF4FF4004271
:1025A00006212D20FFF71EFF012004F080FF0120EF
:1025B000FFF767FF002008BD08B5010A8DF801107C
:1025C0008DF800006B46022204212D20FFF7EAFE61
:1025D00003208DF800006B46012206212D20FFF715
:1025E000E1FE00208DF800006B46012206212D201F
:1025F000FFF7D8FE0A212D20FFF72FFF08BD00218D
:1026000008462AE72DE9FC410546002404200190F4
:10261000FE4E0027377706F8337C37627772776291
:102620007777B762F762FFF7EAFF46F8600DF8497F
:10263000884202D08817BDE8FC810020FFF721FF07
:1026400001AB012200212420FFF7ACFE1E20FFF782
:10265000B3FF1FFA80F84FEA1820B073280704D59B
:102660000420FFF7A9FFC6F8840096F8840010F054
:10267000FF0F08D0022000906B46012212212D206E
:10268000FFF790FE01E0C6F884700620FFF794FF84
:1026900070600720FFF790FFB060B76106EB840021
:1026A000C761641C042CF9DBA8071AD5B07B34463B
:1026B000012804D81C20FFF77FFFA06111E0032848
:1026C0000FD80D20FFF778FFE0610E20FFF774FFB1
:1026D00020620F20FFF770FF60621D20FFF76CFF84
:1026E000A062CC48E907007800F01F0008D008F08D
:1026F0001F01324686F82C1021B982F82C0001E027
:1027000086F82C0068070BD5002404F11000FFF7B1
:1027100053FF06EB84014863641C0C2CF5DB06E0D8
:10272000002006EB80014F63401C0C28F9DB2805D4
:1027300002D5FFF726FF09E005213620FFF70EFF3F
:1027400020F4007205213620FFF74CFE0120FFF730
:1027500098FE00210420FFF780FE30630021262030
:10276000FFF77BFE40F4A03040F4A0220021262099
:10277000FFF745FE002226213620FFF733FE00201A
:1027800059E710B50023A14C603C022902D005296D
:102790000FD107E0022A01D012B10AE0E36908E094
:1027A000236A06E0022A01D012B102E0636A00E067
:1027B000A36AC007C00EC34098B210BD93486038EA
:1027C000807B704708B56B46042200212620FFF766
:1027D00025FE9DF8020040F005008DF802006B46D2
:1027E000042200212620FFF7DDFD08BD08B50143C6
:1027F0008DF80010080A8DF80100080C8DF8020011
:102800006B46032208212620FFF7CCFD08BD08B542
:1028100001438DF80010080A8DF80100080C8DF8AE
:1028200002006B4603220C212620FFF7BBFD08BDEA
:1028300076486038D0F88400704774486038406843
:102840007047724860388068704710B50446234668
:1028500001220B212A20FFF7A5FD62680021BDE8B7
:1028600010401E20CBE56C4A515C00EB41006749EB
:10287000401E603901EB8000406B7047634960394E
:10288000C882024600211820ACE560496039888280
:10289000024641F604012E20A4E538B504466B46F5
:1028A00001220E212B20FFF7B9FD9DF8001021F029
:1028B0001F0104F01F00084300906B4601220E2107
:1028C0002B20FFF76FFD38BD38B504466D21009110
:1028D0006B46012240F606012E20FFF763FD41F60C
:1028E00006012CB140F207622E20FFF77BFD38BDB8
:1028F00041F207622E20FFF775FD38BD2DE9F84F34
:1029000004468A464FF00008C1462578607943495D
:1029100031F8107060783D49401E6039C6B2C1F888
:102920008000042D70D0072D6ED0C3462078087328
:102930003648E2796038002A006B66D020F48000C7
:1029400008633248227A60384273217A4FF4403368
:10295000026B03EA01410A43026300210420FFF7EE
:102960004EFD3A4642F604012E20FFF73BFD30466D
:10297000FFF7AAFF284F2A490522785D00EB800067
:10298000431807212B20FFF70DFD224B01220E21BA
:102990002B20FFF707FD2348012200EB0B030B213F
:1029A0002820FFF7FFFC785D1F4951F820200C21FB
:1029B0002820FFF724FDE0791C4901EB8000A17974
:1029C00030F8112002212720FFF70CFD18480421C0
:1029D00030F816202720FFF705FDE07960B3A078D6
:1029E00004284AD028200090202206212720FFF723
:1029F000F9FC6B46012226212720FFF7D3FC0D4866
:102A0000E17800EB061018E029E02BE0800A0020B6
:102A10003001CADE36AA0008F8A9000878AA000822
:102A200018AA000837AA000800AA000848AA000847
:102A300054AA000858AA000819E050F821200821DB
:102A40002720FFF7DCFC628941F24107BA4203D03C
:102A500020212720FFF7C6FC6089E0B120E04FF07D
:102A6000010B63E740F480000863FF0869E7642214
:102A700006212720FFF7B6FCC1E7102000901022A6
:102A800006212720FFF7AEFC6B46012226212720D6
:102A9000FFF788FCB3E73A4620212720FFF7A2FC86
:102AA000FE4F0C2123203A68FFF7A9FC07EB4600F4
:102AB000042182882320FFF795FCA07958B1E079A2
:102AC000F7490122431800212120FFF76BFC4FF04A
:102AD00003084FF0010905F00F00290740EA1160D3
:102AE00061784FF4402202EA81410843910001EAF3
:102AF000085108434FF4003101EA49410843217964
:102B00004FF0F86202EA81510843617940EAC162FC
:102B100000211F20FFF773FCA078617808430004B0
:102B2000E179E04D40EA413040F400422A61002161
:102B30000820FFF764FC5FEACA7003D095F82C0008
:102B4000FFF7ABFE5FEA8A700CD5A8693401E0405C
:102B5000C0F34E00FFF799FEA869E040C0F34E00B5
:102B6000FFF78CFE0020BDE8F88FCE49401E000123
:102B70008969C14088B2704710B50B4611460A18E2
:102B8000B2F5806F02D94FF0FF3010BD821E0920D0
:102B9000FFF708FC002010BD10B5C24A40EA815082
:102BA0001269024300210820FFF729FC002010BD14
:102BB00030B40C4611462246034630BC11202DE4A9
:102BC00070B504460E4615460720FFF75AFC23460B
:102BD000324629462520FFF721FCBDE87040082039
:102BE0004FE438B504466B46022205211520FFF755
:102BF00015FC9DF800009DF8011000EB012080B24B
:102C000007F0C3F86FF0050207F056FEC4E90401AF
:102C100000212E20FFF7A2FC2080231D0822002186
:102C20001220FFF7FBFB07211520FFF797FC6080C0
:102C300000211020FFF711FC000DA08138BD0346D4
:102C4000052200211720FFF7E9BB0121172004E42A
:102C50000021172001E40346052200211520FFF77B
:102C6000DDBB01211520FFF7F8BB00211520FFF780
:102C7000F4BB01210620FFF7F0BB0346052200212B
:102C80000620FFF7CBBB10B5044600210420FFF758
:102C9000E4FB854908403CB120F4FF7004F4FF7167
:102CA000014341F0010201E020F001027D4802638E
:102CB0000021BDE810400420FFF7A1BB024602211D
:102CC0000320FFF78FBB024600210320FFF78ABBDA
:102CD0000346082200210120FFF764BB03460822B7
:102CE00000210120FFF79ABB2DE9FC5F0746002673
:102CF0000024002503218DF800106B4601220721D6
:102D00002D20FFF74FFB07F00F0749F2202041F677
:102D10002401062F15D2DFE807F01403080C101267
:102D200041F2240506460E240BE00D460646032418
:102D300007E00D4606464E2403E0032401E0242567
:102D400003248DF80060300A8DF801006B460222E2
:102D500000212D20FFF726FB4FF008088DF800809A
:102D60006B46012206212D20FFF71CFB4FF00209C4
:102D70008DF800906B46012207212D20FFF712FBF2
:102D80004FF0880A8DF800A06B46012206212D2005
:102D9000FFF708FB4FF0800B8DF800B06B46012267
:102DA00006212D20FFF7FEFA00268DF800606B4605
:102DB000012206212D20FFF7F5FA05208DF80000ED
:102DC0006B46012207212D20FFF7ECFA8DF8004019
:102DD000200A8DF801006B46022200212D20FFF70A
:102DE000E1FA8DF800806B46012206212D20FFF7C5
:102DF000D9FA04248DF800406B46012207212D20CA
:102E0000FFF7D0FA8DF800A06B46012206212D2095
:102E1000FFF7C8FA8DF800B06B46012206212D207D
:102E2000FFF7C0FA8DF800606B46012206212D20C5
:102E3000FFF7B8FA4FF0010A8DF800A06B460122A7
:102E400007212D20FFF7AEFA8DF80050280A8DF8E3
:102E500001006B46022200212D20FFF7A3FA8DF816
:102E600000806B46012206212D20FFF79BFA0A20E5
:102E700004F01DFB8DF800606B46012207212D2018
:102E8000FFF790FA8DF800A06B46012206212D2055
:102E9000FFF788FA8DF800906B4607E03CAA00081F
:102EA00044AA0008200A0020FFFF47F00122072162
:102EB0002D20FFF777FA8DF800406B46012207219D
:102EC0002D20FFF76FFA642004F0F1FA8DF800600E
:102ED0006B46012207212D20FFF764FA8DF8006070
:102EE0006B46012206212D20FFF75CFA0A2004F030
:102EF000DEFA012F01D0022F05D101AB01220821FA
:102F00002D20FFF78BFA0020BDE8FC9F7CB504461E
:102F10000D4601AB012208212D20FFF77FFA9DF815
:102F20000400800702D44FF0FF307CBD200E8DF8E6
:102F30000300200C8DF80200200A8DF801008DF8A6
:102F400000406B46042200212D20FFF72BFAC5F329
:102F500002208DF801008DF800506B4602220421FA
:102F60002D20FFF71FFA40208DF800006B4601224C
:102F700006212D20FFF716FA00208DF800006B4681
:102F8000012206212D20FFF70DFA0024012004F074
:102F90008EFA01AB012208212D20FFF73FFA9DF8A0
:102FA0000400C00700D00124002CEFD000207CBD1D
:102FB0002DE9F04106460F46002500240020FFF7CA
:102FC00060FA0120FFF790FE0DE039463046FFF72A
:102FD0009DFF3846FFF7F0FAB04200D10125641C8E
:102FE000052C00D10225002DEFD00420FFF77CFE38
:102FF0003846FFF7E1FAB04201D1002401E04FF07A
:10300000FF340020FFF770FE2046BDE8F08108B5D0
:10301000042000906B46012202212C20FFF7C2F908
:10302000002000906B46012202212C20FFF7BAF904
:1030300008BD08B5002000906B46012202212C201B
:10304000FFF7B0F9022000906B46012202212C20EC
:10305000FFF7A8F908BDECE7F8B5054601268DF89D
:1030600000606B46012200213620FFF79BF9002407
:103070008DF800406B46012206212C20FFF792F9C3
:103080008DF800406B4601220A212C20FFF78AF9B7
:10309000FFF7BDFF8DF80050280A8DF801006B4640
:1030A000022208212C20FFF77DF9FFF7B0FF8DF8F1
:1030B00000606B4601220A212C20FFF773F9FFF70D
:1030C000A6FF8DF800406B46012200213620FFF755
:1030D00069F9F8BDF8B504208DF800006B460122AF
:1030E0000A212C20FFF75EF9FFF791FF00248DF8ED
:1030F00000406B4601220A212C20FFF753F9FFF70D
:1031000086FF01208DF800006B4601220021362049
:10311000FFF748F9012004F0CAF976208DF8000085
:103120006B46012204212C20FFF73CF980258DF805
:1031300000506B46012202212C20FFF733F988272B
:103140008DF800706B46012202212C20FFF72AF92E
:103150006B46012203212C20FFF760F99DF8000047
:103160004FF6FF7101EA002675208DF800006B46CE
:10317000012204212C20FFF715F98DF800506B4631
:10318000012202212C20FFF70DF98DF800706B460B
:10319000012202212C20FFF705F96B4601220321B1
:1031A0002C20FFF73BF99DF8005035438DF8004087
:1031B0006B46012202212C20FFF7F4F88DF8004025
:1031C0006B46012200213620FFF7ECF82846F8BDB7
:1031D00038B50C46024600212C20FFF703F9009475
:1031E0006B46012206212C20FFF7DCF838BD10B514
:1031F000044604213620FFF730F914B140F4006290
:1032000001E020F400620421BDE810403620FFF701
:10321000F6B870B505460E46FFF7F1F9FE4CA04230
:103220000ED000212B4632460846FFF7F7F805205E
:1032300004F03DF9FFF7E3F9A04203D0A01770BDF9
:10324000002070BD002070BD38B500F003010120E2
:1032500000EB411403218DF801108DF800006B463E
:10326000022200213620FFF79DF8224612212D2050
:10327000FFF7B8F80120FFF704F938BD10B5044690
:1032800000210420FFF7E9F8E44908631CB120F4A9
:103290008020086302E040F4802008630A6B00216C
:1032A000BDE810400420FFF7AAB810B5DB4C216B35
:1032B00041F080412163020202211A20FFF792F8B7
:1032C000226B0021BDE810400420FFF798B8D34AD4
:1032D0000028116B06D021F480501063012082F881
:1032E0002D0005E041F480501063002082F82D008D
:1032F0000021126B0420FFF782B808B5002100916D
:10330000C64A0028116B03D041F00050106302E060
:1033100021F000501063106B000E00906B460122EC
:1033200003210420FFF73EF808BD10B50446002134
:103330001A20FFF792F86FF31300C4F3130202434D
:103340000021BDE810401A20FFF759B8B34A88326F
:1033500010605160704708B56B46012200210F20B4
:10336000FFF75CF89DF8000000F0010008BD08B50B
:10337000E02000906B46012203213620FFF712F86F
:10338000F02000906B46012203213620FFF70AF857
:1033900008BD1CB501AB012203210F20FFF73EF849
:1033A0009DF8040000F0800100F04000B1EB400FF8
:1033B00007D0012000906B46012203210D20FEF76B
:1033C000F1FF1CBD38B54020009000210E20FFF712
:1033D00044F8044600F0A6FC0546002211460E20E3
:1033E000FFF70DF86B46012200210D20FEF7DAFFF2
:1033F0008B4A00210F20FFF702F8FFF7CAFF224691
:1034000000210E20FEF7FBFF284600F096FC8349C2
:10341000002081F87D0038BD10B502210F20FFF794
:103420009DF800F0100010BD2DE9FC5F00277B4DDA
:10343000002685F8686095F82D0085F86E0000215B
:103440000F20FFF70AF8774B686605F1900C1A68B1
:103450000446511C19604CF822000A2900DB1E604A
:10346000A4F50000C01E03D1FFF7ACFFFFF77FFFFC
:10347000DFF8A8A160054FF003080AF1640A4FF4D1
:10348000807B1CD595F82D00C8B9C4F342200728CD
:1034900015D0FFF797FFFFF76AFF04F0F804286BD9
:1034A000800005D55A4600210D20FEF79BFF06E05F
:1034B00085F86880D5F88C1009B1504688476004BB
:1034C0004FF0010977D5600576D5E00219D5FFF7F1
:1034D00079FFFFF74CFF286B800007D502B05A46F2
:1034E000BDE8F05F00210D20FEF77CBF85F8688005
:1034F000D5F88C1000295DD002B05046BDE8F05FD1
:10350000084700211020FFF729F8C0F30908434BB2
:1035100002226C3300211120FEF780FF687B08B97E
:1035200008F07F08A5F86A80200705D595F86C009B
:10353000810643D5022841D004F0080085F86900CF
:10354000022085F8680095F82D00B0B3CDF8009002
:1035500001AB012203210F20FEF760FF9DF804005C
:1035600000F0800100F04000B1EB400F06D104F400
:10357000C0423A4300210F20FEF741FF286B800034
:1035800004D45A4600210D20FEF72CFFD5F88C10EC
:1035900009B150468847FFF73FFF28B3FFF712FFF6
:1035A000FFF7E5FE286B800004D55A4600210D2068
:1035B000FEF718FFA8E43AE01DE005E0082785F8CB
:1035C000696085F87D60BBE704F4DE423A43002180
:1035D0000F20FEF714FFD5F88C100029EAD002B0B6
:1035E0005046BDE8F05F08476B46012203210D20DD
:1035F000FEF7D8FE88E4286B800001D4FFF7E2FED6
:10360000FFF7B5FE68356E7585F80080696A002998
:10361000D0D0504602B007E03001CADE200A0020B8
:10362000F8FF272404000020BDE8F05F08472006CB
:103630001CD5F82200210F20FEF7E1FE95F8690065
:1036400048B185F8696095F82D0020B995F87D009E
:1036500008B1FFF7B7FE85F86890D5F88810002903
:10366000A8D002B05046BDE8F05F0847A00310D5CF
:1036700004F4003200210F20FEF7C1FE042085F87B
:103680006800D5F88C1009B15046884785F87D60F0
:103690003AE4FB4814EA00028CD000210F20FEF728
:1036A000AEFE85F87D60286B800001D4FFF78AFEAE
:1036B000FFF75DFEE00403D5082085F8680018E0F8
:1036C000200402D585F8688013E0E00303D50920C3
:1036D00085F868000DE0600103D50A2085F86800D0
:1036E00007E0A00203D50B2085F8680001E085F80B
:1036F0006880D5F88C100029CAD002B05046BDE8C9
:10370000F05F084738B50446E00733D06B46022225
:1037100000212620FEF782FE9DF8010020F03C00EB
:1037200040F014008DF8010001220DF10103114653
:103730002620FEF737FE6B46012202213620FEF7D7
:103740006DFE9DF8000040F084008DF800006B468F
:10375000012202213620FEF725FE10208DF8000000
:1037600001208DF801006B46022228213620FEF749
:1037700019FE11E06B46022200212620FEF74EFEC4
:103780009DF8010020F014008DF801006B46022224
:1037900000212620FEF706FEA00711D50F208DF888
:1037A00000006B4601222A213620FEF7FBFD002097
:1037B0008DF800006B4601222A213620FEF7F2FD2B
:1037C00038BD10B50020FEF75CFE00220421BDE8E4
:1037D00010403620FEF706BE024601210A20FEF701
:1037E0000EBEF8B50546002400270097A54EA80791
:1037F0000AD5802000906B46012200210D20FEF7A3
:10380000D1FD012086F87D00E80721D09DF8000059
:1038100040F0060000906B46012200210D20FEF7CB
:10382000C1FD03210F20FEF799FE10F4816F1AD01D
:10383000402000906B46012200210D20FEF7B2FDD2
:103840000020FFF7D4FC86F87D704FF0FF340AE0CB
:103850009DF8000040F0020000906B46012200211C
:103860000D20FEF79FFD2046F8BD41EA022121F020
:10387000F002C00703D000211D20FEF7B3BD0022D7
:1038800011461D20FEF7AEBD70B50446FFF781FD61
:103890004FF480752A46E00701D04FF440720021B2
:1038A0000D20FEF79FFDE00712D003210F20FEF749
:1038B00055FE10F4816F0BD0FFF784FDA00704D5EF
:1038C0002A4600210D20FEF78DFD4FF0FF3070BD20
:1038D000002070BD38B505466B4601220321042047
:1038E000FEF79CFD674CA5B12A4600210C20FEF78F
:1038F00079FD9DF8000040F010000090206B40F032
:10390000805020636B46012203210420FEF74AFD0C
:1039100038BD9DF8000020F010000090206B20F0D2
:10392000805020636B46012203210420FEF73AFDFC
:1039300038BD024624212720FEF754BD70B5044649
:103940000D4600F0EFF9064600210E20FEF785FD3A
:1039500015B140EA040201E020EA040200210E2031
:10396000FEF74DFD3046BDE8704000F0E6B938B5D1
:103970000446022100916B46012200212F20FEF710
:1039800011FD002C07D0012000906B460122002180
:103990002F20FEF707FD38BD10B5044604212F2067
:1039A000FEF75BFDC0F30B012180C0F30B4060808C
:1039B00008212F20FEF751FDC0F30B01A180C0F3B9
:1039C0000B40E0800C212F20FEF747FDC0F30B01D8
:1039D0002181C0F30B40608110212F20FEF73DFDB7
:1039E000C0F30B41E181C0F30B00A08114212F2013
:1039F000FEF733FDC0F30B416182C0F30B00208260
:103A000018212F20FEF729FDC0F30B01A182C0F37E
:103A10000B40E08210BD38B500240094FFF7D1FEC2
:103A2000002211462C20FEF7DDFC6B460122062108
:103A30002C20FEF7B7FCFFF7FCFA6B4601220321AE
:103A40003620FEF7EBFC9DF8000000F00F00009020
:103A50006B46012203213620FEF7A4FC012003F06F
:103A600026FD9DF8000040F0F00000906B4601221A
:103A700003213620FEF796FC024880F87D4038BDD1
:103A800000902724200A002038B50446FFF799FE4D
:103A9000694D0522295D01EB810068494318072122
:103AA0002B20FEF77FFC664B01220E212B20FEF718
:103AB00079FC285D634951F820200C212820FEF76D
:103AC0009EFC4FF4FF1200212820FEF798FC5E4A6E
:103AD00000212820FEF793FC222000906B46012253
:103AE00000213620FEF75EFC0720009001226B4685
:103AF00011463620FEF756FC002226213620FEF71E
:103B000071FC132000906B4601220C212A20FEF745
:103B100049FC0020B3E738B50446FFF752FE4FF4E6
:103B2000FF1200212820FEF76AFC474A00212820C6
:103B3000FEF765FC0220FEF7A4FC0D20FEF7A1FCB9
:103B4000042C00D20424224600210A20FEF757FC50
:103B500010208DF800006B46012224212F20FEF753
:103B600021FC8CE7F8B5044680218DF800106B46E7
:103B7000012211212820FEF715FC0A218DF80010E2
:103B80006B46012212212820FEF70CFC0F218DF834
:103B900000106B46012212212820FEF703FC0026AC
:103BA0008DF800606B46012200212A20FEF7FAFB07
:103BB00001218DF800106B46012200212A20FEF71A
:103BC000F1FB012C1AD00020FEF75BFC6B460222B1
:103BD00003212A20FEF722FC0120FEF752FC9DF86B
:103BE00000409DF801508DF800606B4601220021D5
:103BF0002A20FEF7D7FB44EA0520F8BD012003F098
:103C000056FC6B46022203212A20FEF707FCE6E75A
:103C100008B56B46012204212A20FEF7FFFB9DF820
:103C2000000008BD08B56B46012203212A20FEF7DB
:103C3000F5FB9DF8000008BDF8A9000818AA0008C7
:103C400036AA000800AA000800FF5F0070B505460C
:103C500008461646002406F011FB022206F02CFE50
:103C600005F0FCFFFF2800DDFF202A49012EA1F10D
:103C700008020CD0042D2DD0072D2BD0515D01EB67
:103C8000810202EBC101244A02EB410133E0042D21
:103C90000AD0072D08D0515D01EB810202EB4111E2
:103CA0001C4A083211440FE0495D1B4A01EB011127
:103CB000883A02EB810100E0641C0A5D8242FBDB72
:103CC000A4F11C001CE0641C0A5D8242FBDBA4F131
:103CD000170015E0495D01EB8102C2EB81110E4A2C
:103CE0006832114400E0641C0A5D8242FBDBA4F1EF
:103CF0001E0005E0641C0A5D8242FBDBA4F111009A
:103D000006F012FC06F0BAFABDE87040034A044B14
:103D100006F08AB8B2AA0008D6AB00087B14AE47FA
:103D2000E17A843F10B5172000F082FE002803D00E
:103D3000064A4FF40001116010BD002804D0034969
:103D40004FF40000803908607047000080E100E017
:103D50000020704710B5344C0221204604F0FDFECF
:103D60000028F9D00021204604F07BFE002010BD81
:103D70002DE9F04781468A46174698460024FFF70A
:103D8000D1FF0246294810230360274D07E01AF8A7
:103D90000400A8812E89F007FCD0A889641C4C453A
:103DA000F5DB002007E018F80010A9812989C90770
:103DB000FCD0A989401CB842F5D31C48001F036001
:103DC0001046FFF7BAFF0020BDE8F0872DE9F04765
:103DD00081468A4690461F460024FFF7A3FF02460D
:103DE000124810230360104D08E01AF80400A8815F
:103DF0002E89F007FCD0A8893870641C4C45F4DB90
:103E00000020002406E0AC812989C907FCD0A989DB
:103E10003954401C4045F6D30448001F0360104647
:103E2000FFF78BFF0020CFE700300140140801406E
:103E3000C178532902D102794E2A02D0532902D0E7
:103E400004E0012070470179572903D001786429E3
:103E500002D004E0022070474078652801D000209D
:103E60007047032070471FB53348006801903248FF
:103E7000001D0068029030480830006803900398E5
:103E80000090DDE901232DA1344805F03DF904B08F
:103E9000012010BD70B53149314C1022403120460F
:103EA00000F04BFF2D494AF6AA204031A1F116023D
:103EB0000B8883421AD008804B885B1C4B80538050
:103EC0004FF42A40888090805625CD80312008818B
:103ED0002E224A8130238B81CD8108824A828B82B7
:103EE0002046BDE87040102200F036BF4B885B1CB6
:103EF0004B80538088889080C888D0800889108142
:103F00004889508188899081C889D081088A108227
:103F1000488A5082888A90822046BDE870400F49C6
:103F20001022403100F018BF002070470B491022CA
:103F300040310B4800F010BFE8F7FF1F41542B53EE
:103F40004E3D253038782D253038782D253038787D
:103F50002D312D312E300D0A00000000D80A00202E
:103F600000A4000800F0200200F0100302EB83021E
:103F700000F0400002EB9000FE4A00095060022968
:103F800002D080B2FDF796B8042802DD48F20400A2
:103F9000F8E780B240F40040F4E7014600208A07C9
:103FA00000D50120490700D5801C7047FEB50646A4
:103FB000202000F095FDFDF723FFEF4DAF17A8423D
:103FC00016D0EE4C1021204604F0AEFA012003F08A
:103FD0006EFA1021204604F0A5FA072003F067FAD4
:103FE000FDF70EFFA84201D03846FEBDFFF713FDD6
:103FF00000F0F1FDFDF7A6FE002801DA3846FEBD0F
:10400000082000F06DFDFDF7FBFE0446AC4201D038
:104010003846FEBDD74D300702D40120E86001E0EC
:104020000220E860297B3046FFF79CFFE868022801
:1040300004D16868042801DD0020E860E868FDF725
:104040002EF93046FFF7A9FFA860CA4A00EB8001AD
:10405000183212F811008DF80000686102EB41007F
:10406000C2788DF8012042788DF8022042798DF8CF
:10407000052082798DF806200289ADF80820827823
:104080008DF8032000798DF80400BA48403000EB29
:1040900041016846FDF7B9FE2046FEBD0120FEF74E
:1040A0002BB910B5B64CFFF7BFF92021204604F01C
:1040B00025FA0128F7D010BD4FF48050FDF732F8F3
:1040C000022003F0F4F9FBE700F0AA01490800F030
:1040D000550041EA400000F0CC01890800F03300AF
:1040E00041EA8000010900F00F0041EA001070472A
:1040F000AA21B1EB102F01D000207047C0B2704749
:1041000070B505469FA1A44804F0FEFF0446A24EE8
:10411000680605D53019A1A104F0F6FF044404E0B7
:104120003019A0A104F0F0FF0444A80605D5301909
:104130009FA104F0E9FF044404E030199FA104F0BA
:10414000E3FF0444E80607D53019C5F342029EA1F7
:1041500004F0DAFF011906E005F00F0230199DA105
:1041600004F0D2FF0119BDE870408B4801F0F9BCA2
:104170002DE9F04F91B04FF4E13003F0B3F900F0C6
:1041800051FB00F0D5FC00F093FD00F0CBFB4FF4A9
:104190007A7003F08CF9FFF77DFEC82003F087F9F1
:1041A00001F0C2FC7C4A8F4E822382328C49304619
:1041B00003F07AFA8C49784804F0A6FF0546764C5D
:1041C0008A49601904F0A0FF05446019884904F089
:1041D0009BFF05446019874904F096FF0544601968
:1041E000824904F091FF054460197F4904F08CFF77
:1041F0004119204601F0B5FC794801228021001FB9
:1042000004F0C2FD304603F074FA7B488088FFF763
:104210006FFF05461DE005240BE0E00703D00420F6
:1042200000F031FB02E0042000F049FBC82003F05D
:104230003EF9641E601CF0D11E21704801F07FFC25
:104240006E48FFF7F5FD02281ED026216CA001F074
:1042500088FC002DDFD02846FFF752FF05F07F00D5
:10426000FFF732FFDFF80CA18AF80000172000F0FA
:104270002EFA042000F007FB9AF80000FFF796FEE4
:10428000401C0DD032241EE0C82003F010F95B481A
:1042900003F08DF964498880FFF748FE00F022FAA8
:1042A000042000F00CFB11B00020BDE8F08FE00707
:1042B00003D0042000F0E7FA02E0042000F0FFFA47
:1042C000322003F0F4F8641E601CF0D19AF800006C
:1042D000C0F3C201072937D0042000F0D4FA172018
:1042E00000F0EAF9092141F61F4000F01CFB4FF0F5
:1042F000000B4E4D95F8FB6500F032FBD5F8FC1530
:10430000471A0024DFF828810121404601F088FB8C
:1043100060B30121404601F08AFB464A1088401CE8
:1043200080B21080444B1988491C89B219804FF41F
:104330007A7C604501D1A2F800B0614501D1A3F8B3
:1043400000B0108810B111E0FFF7B6FE688DB0F52F
:10435000004F0BD1172000F0BAF9FFF733F8FDF743
:10436000D4FC02212971172000F0A6F9FDF7F7FE11
:1043700064E000001C0000203001CADE000801409B
:10438000000C01404D696E69337320C5E4D6C3D07B
:10439000C5CFA2A3BA000000380B0020362E384D3E
:1043A0002C2020003131306B7062732C20200000F3
:1043B0004368616E6E656C20352C20004368616E29
:1043C0006E656C20322C2000416E63686F72202570
:1043D000640D0A005461672025640D0A0000000086
:1043E0000438014044000240DCAE000804AE00087E
:1043F00094AE00084CAE0008020B00203C0C0020DC
:10440000B5C8B4FDBDD3CAD54154C3FCC1EEBDF897
:10441000D0D0D0E9C4E2B2A6C2EBBFAAB9D8C9E8ED
:10442000D6C30D0A00000000180B002078020020FF
:10443000000400400000002002000020FCF733FFD1
:10444000CAF80C00012E1BD1B5F80C01B84217DADE
:1044500001210F20FEF701F801211920FDF7FDFFD2
:1044600001210A20FDF7F9FF85F8E8B0DAF80C0021
:1044700001287CD0FEF7A6FF0620687085F8FBB502
:10448000FCF715FF8046B8F1000F51D0FCF717FF7D
:1044900000F00F07FCF718FF00F00F09FCF719FFF9
:1044A0000446FDF760FD86B2DAF80C0001287FD0E3
:1044B0004846FDF74EFD0546FDF74EFF0F90FDF710
:1044C0004EFF0E90FDF74EFF1090B8F1010F73D024
:1044D0000020FDF743FD05460320FDF758FD80460B
:1044E0000220FDF754FD81460120FDF750FD0D909F
:1044F0000020FDF74CFDCDE90547CDE903650346F6
:104500000D98CDE9019800907BA18848109A04F09D
:10451000FBFD04468549412201F1820004F05EFF63
:104520008249412201F1C30004F058FFFCF7A3FEC9
:10453000002C0DDDDAF8100000287DD000F010FA14
:10454000DAF8101001F57A71884201D3CAF810B078
:104550001E21774801F0F3FAC0B200283FF4C9AE3B
:104560007348FFF765FC022867D0714800E01BE044
:10457000FFF75EFC03287FF4BCAE13216D4801F009
:10458000F0FA13216B4801F0ECFA1321694801F0AD
:10459000E8FA1321674801F0E4FA1E21644804F0A8
:1045A00094FFA6E604E007E06348FDF720FD65E719
:1045B000FDF7CBFC05467FE70420FDF7E8FC0D90F6
:1045C0000320FDF7E4FC80460220FDF7E0FC0C90A0
:1045D0000120FDF7DCFC0B900020FDF7D8FC034622
:1045E000DAF80C0001284FD06120CDE90897CDE919
:1045F00006400D98CDE90465CDE90280DDE90B01A7
:10460000CDE900014DA14948109A04F07DFD044612
:104610002146464801F0A5FA9AF80100012885D103
:104620000320FDF7C4FC0D900220FDF7C0FC80467E
:104630000120FDF7BCFC01E02AE031E00C900020F5
:10464000FDF7B5FC0346DAF80C0001281ED0612006
:104650000E99CDE90610CDE908970D990F98CDE98F
:104660000365029105900C98CDE900082F4842A1FE
:104670002044109A04F048FD04442C49822201F1A0
:10468000820004F0ABFE51E77420AEE77420DFE750
:104690002146264801F065FA464803F02AF857E714
:1046A000C82002F004FF224802F081FF42498880BE
:1046B000FFF73CFC00F016F800F01F0201219140CA
:1046C0004009800000F1E020C0F80011704700F0C0
:1046D0001F02012191404009800000F1E020C0F854
:1046E0008011704735480168354A01F4E061114393
:1046F0000160BFF34F8FFEE76D61202530327820D7
:104700002530387820253038782025303878202515
:104710003038782025303478202530327820253004
:1047200038782061303A25640D0A0000380B0020EB
:104730003C0C002008000020780200206D6320253A
:1047400030327820253038782025303878202530D0
:1047500038782025303878202530387820253034B6
:10476000782025303278202530387820256325645C
:104770003A25640D0A0000006D7220253032782041
:104780002530387820253038782025303878202595
:104790003038782025303478202530327820253084
:1047A00034782530347820256325643A25640D0A51
:1047B0000000000044000240180B00200CED00E057
:1047C0000400FA057047FEE7FEE7FEE7FEE77047E4
:1047D0007047704712480168491C0160704710B566
:1047E000AFF30080BDE810404FF4005003F067BB0A
:1047F00010B5FFF753FCBDE81040012003F05FBB8C
:1048000010B5FFF74EFCBDE81040082003F057BB81
:1048100010B5FFF746FCBDE81040202003F04FBB69
:1048200084000020F8B501210D2004F012F80121C8
:10483000314803F099FE4FF47070ADF80000102479
:104840008DF8034003258DF802502C4E6946304602
:1048500003F0F9FDADF800408DF803408DF80250EB
:104860006946304603F0EFFD1021304603F05AFE52
:104870002001ADF8000004208DF8030069462048AF
:1048800003F0E1FDF8BD01461C48052916D2DFE81A
:1048900001F00306090D1100402103F045BE8021FF
:1048A00003F042BE4FF4807103F03EBE4FF400713E
:1048B00003F03ABE4FF4707103F036BE7047014604
:1048C0000E48052916D2DFE801F00306090D110094
:1048D000402103F027BE802103F024BE4FF48071F5
:1048E00003F020BE4FF4007103F01CBE4FF4707152
:1048F00003F018BE7047000000023000000C0140B9
:1049000000080140F848016841F080710160F748F3
:1049100000214160016841F0010101607047F348E6
:1049200040687047EEE73EB504460D46012102207F
:1049300003F09AFFADF80440ADF800500020ADF848
:104940000600ADF80200EA4C6946204600F054FB30
:104950000121204600F021FE3EBD4FF0FF307047A0
:10496000E4480068704770B5E3484FF47A71006816
:10497000B0FBF1F14FF0FF35B1F1807F01D30121A0
:104980000EE021F07F414FF0E024491E61610F21CC
:10499000284600F098F90020A0610720206100213E
:1049A00001B1FEE70521284600F08DF9002070BD19
:1049B0001CB52020009000208DF8040008218DF8FF
:1049C00005108DF80600684603F01AFA00201CBD99
:1049D0007FB52024ADF80C4028208DF80F0003A9E6
:1049E000C64803F030FD0521012003F0E8FD0194E5
:1049F00000258DF8085008208DF8090001248DF855
:104A00000A4001A803F0FCF94FF4C06003F09AF8E3
:104A100017208DF800000F208DF801008DF802504E
:104A20008DF80340684603F092F804B0002070BD92
:104A300002460020B24909681140002900D0012037
:104A4000704710B586B003F0E1FD4FF48034204686
:104A500003F0F5FD03F021FE28B3102003F048FA1F
:104A6000022003F035FA002003F051FE002003F08D
:104A70005CFEA01103F052FE601003F06DFE4FF4D7
:104A8000E011204603F02CFE012003F031FE392016
:104A900003F0EEFD0028FAD0022003F02CFE03F014
:104AA00031FE0828FBD101A803F07BFE0121080399
:104AB00003F0CFFE0121880303F0D6FE0121084652
:104AC00003F0D2FE01210D2003F0C3FE06B000204A
:104AD00010BD8C4A118821F03801014311807047C4
:104AE00030B585B00446874D284603F009FF002104
:104AF000ADF800104FF48270ADF80200ADF804106C
:104B0000ADF80610ADF808106815ADF80A00ADF85C
:104B10000C40ADF80E100720ADF81000694628468D
:104B200003F01AFF0121284603F09BFF05B030BDBA
:104B3000F0B587B0734E304603F0E2FE0021ADF8C9
:104B400008104FF48270ADF80A00ADF80C10ADF803
:104B50000E10ADF810107015ADF812001024ADF85D
:104B60001440ADF816100720ADF8180002A9304621
:104B700003F0F2FEA020ADF8040018208DF8070025
:104B800003258DF80650604F01A9384603F05BFC01
:104B90004020ADF8040048208DF8070001A93846F0
:104BA00003F051FCADF804408DF807408DF8065035
:104BB00001A9384603F047FC0021304603F093FF7B
:104BC0000121304603F04DFF1021384603F0AAFCC6
:104BD00007B00020F0BDF8B50124ADF8004010206A
:104BE0008DF8030003258DF80250474E6946304684
:104BF00003F029FC0121304603F096FCADF800409B
:104C000000218DF803108DF802506946304603F0FC
:104C10001AFC022002F04BFCF8BD7FB500250124F0
:104C2000394A0826002828D0ADF80C4004208DF819
:104C30000F0003A9104603F006FC0021084603F00C
:104C4000BEFC01948DF808508DF809608DF80A407B
:104C500001A803F0D5F84FF4407002F073FF06206E
:104C60008DF800000F208DF801008DF802508DF8AE
:104C70000340684602F06BFF7FBDADF80C408DF835
:104C80000F5003208DF80E0003A9104603F0DBFB44
:104C900001948DF808508DF809608DF80A5001A82C
:104CA00003F0AEF87FBD19480068C0F3C0507047EC
:104CB00010B504F0C1F9FFF7C4FEFFF754FEFFF78B
:104CC00087FE002010BD0907090E002806DA00F053
:104CD0000F0000F1E02080F8141D704700F1E02083
:104CE00080F8001470470000FCED00E0001000E0C8
:104CF0000004004084000020E0010020000C01407E
:104D000000040140003001400008014000E100E0E3
:104D1000008870472DE9F04105460E4617460024ED
:104D200007E036F81410284603F0F2F9AD1C641CB5
:104D3000A4B2BC42F5D3BDE8F08110B5044600230F
:104D400007E02046FFF7E4FF21F81300A41C5B1CDA
:104D50009BB29342F5D310BD2DE9F05F82460F461A
:104D60001546AAF10064B4F5803F52D203F0C9F8A9
:104D70004FEA9428C4F34806C6F50074A54200D84B
:104D80002C46DFF8A0B037E032183BF812208A42F8
:104D900003D1401C80B2A042F6D3A04214D24846B0
:104DA00003F0E8F8002006E0821937F810102BF81D
:104DB0001210401C80B2A042F6D348464FF4007255
:104DC0001849FFF7A7FF04E0224639465046FFF78F
:104DD000A1FFA54203D1BDE8F05F03F09EB808F142
:104DE0000108002607EB4407A244281B85B24FF4B4
:104DF0000074A54200D82C464FF0006000EB8829D3
:104E0000821408494846FFF798FF00204FF6FF71CB
:104E1000C1E7BDE8F09F13B5012201A9FFF79CFF90
:104E20001CBD00005A0C002010B5FE4988420AD172
:104E3000C4140121204603F022FD2046BDE81040A5
:104E4000002103F01CBDB0F1804F0CD0F649884220
:104E500013D10121022003F01DFD0021BDE8104007
:104E6000022003F017BD0121084603F013FD0021C5
:104E7000BDE81040012003F00DBDEC49884209D186
:104E80000121042003F006FD0021BDE810400420AC
:104E900003F000BDE649884209D10121082003F052
:104EA000F9FC0021BDE81040082003F0F3BCE14903
:104EB000884209D10121102003F0ECFC0021BDE85B
:104EC0001040102003F0E6BCDB49884209D10121E3
:104ED000202003F0DFFC0021BDE81040202003F07B
:104EE000D9BCD64988420AD144140121204603F096
:104EF000C6FC2046BDE81040002103F0C0BCD049EC
:104F000088420AD10121CC04204603F0B8FC204697
:104F1000BDE81040002103F0B2BCCA4988420AD162
:104F200001210C05204603F0AAFC2046BDE81040F4
:104F3000002103F0A4BCC44988420AD101214C05D8
:104F4000204603F09CFC2046BDE81040002103F001
:104F500096BCBE49884209D10121402003F09AFC49
:104F60000021BDE81040402003F094BCB8498842BD
:104F700009D10121802003F08DFC0021BDE8104003
:104F8000802003F087BCB34988420AD184150121EF
:104F9000204603F07FFC2046BDE81040002103F0CE
:104FA00079BCAD4988420AD101210C04204603F0A6
:104FB00066FC2046BDE81040002103F060BCA74914
:104FC00088420AD101214C04204603F058FC2046B7
:104FD000BDE81040002103F052BCA14988420AD12B
:104FE00001218C04204603F04AFC2046BDE8104015
:104FF000002103F044BC10BD30B50288894C8F4DB0
:10500000A0420DD0A8420BD0B0F1804F08D0864B03
:10501000984205D0854B984202D0854B984203D1E7
:1050200022F070034A881A43824B984206D0824B82
:10503000984203D022F44073CA881A4302808A88B7
:1050400082850A880285A0420AD0A84208D0824AF6
:10505000904205D0814A904202D0814A904201D1CB
:10506000097A01860121818230BD30B5028C22F09F
:1050700001020284028C8388048B24F0700424F0E3
:1050800003050C882C4322F002020D8915434A883F
:105090002A43644DA8420BD0684DA84208D06E4DFB
:1050A000A84205D06D4DA84202D06D4DA8420FD147
:1050B00022F008054A892A4322F004058A882A43F7
:1050C00023F4807323F400738D891D43CB892B4314
:1050D00083800483C9888186028430BD70B5028CC8
:1050E00022F010020284028C8388048B24F4E044B2
:1050F00024F440760D884FF6FF7404EA0525354305
:1051000022F020020E8904EA061616434A8804EAB1
:1051100002123243434EB04202D0484EB04217D141
:1051200022F080024E8904EA0616164326F0400655
:105130008A8804EA0212324323F4806323F4006372
:105140008E8904EA86061E43CB8904EA830333432F
:1051500083800583C9880187028470BD70B5028C85
:1051600022F480720284028C8388848B24F0700481
:1051700024F003040D88254322F400720E894FF6B3
:10518000FF7404EA062616434A8804EA02223243E0
:10519000244EB04202D0294EB04217D122F400660C
:1051A0004A8904EA0222324322F480668A8804EAA9
:1051B0000222324323F4805323F400538E8904EAFD
:1051C00006161E43CB8904EA031333438380858389
:1051D000C9888187028470BD70B5028C22F4805228
:1051E0000284058C8288838B23F4E04323F4407689
:1051F0000C884FF6FF7303EA0424344325F400556A
:105200000E8903EA06362E434D8803EA05353543F9
:10521000044EB04202D0094EB04226D122F480465C
:105220008A891FE0002C0140000400400008004073
:10523000000C004000100040001400400034014009
:10524000004C014000500140005401400018004053
:10525000001C00400020004000400140004401408C
:105260000048014003EA8212324382808483C98865
:10527000A0F84010058470BD828B22F440628283C6
:10528000828B4FF6FF7303EA01210A438283704742
:10529000F0B5048C24F480540484868B048C4FF67F
:1052A000FF7505EA013726F4734605EA0222324308
:1052B00005EA03331343F74A90420ED0F64A904270
:1052C0000BD0B0F1804F08D0F44A904205D0F44A98
:1052D000904202D0F34A904205D124F40051394360
:1052E00041F4805104E024F402420A4342F4805124
:1052F00083830184F0BD828B22F00C028283828B37
:105300000A4382837047F0B5048C24F480740484CB
:10531000858B048C4FF6FF7707EA012625F0F3050D
:1053200007EA031313432B43DA4A90420ED0DA4ABA
:1053300090420BD0B0F1804F08D0D84A904205D0AF
:10534000D74A904202D0D74A904205D124F4007146
:10535000314341F4807104E024F420620A4342F4B2
:10536000807183830184F0BD028B22F4406202834A
:10537000028B4FF6FF7303EA01210A430283704751
:10538000F0B5048C24F010040484068B048C4FF6D2
:10539000FF7505EA011726F4734605EA0333334324
:1053A00005EA02221A43BB4B98420ED0BA4B9842F0
:1053B0000BD0B0F1804F08D0B84B984205D0B84B15
:1053C000984202D0B74B984205D124F020013943CE
:1053D00041F0100104E024F0A0030B4343F010015E
:1053E00002830184F0BD028B22F00C020283028B47
:1053F0000A430283704770B5048C24F001040484CE
:10540000058B048C25F0F3054FF6FF7606EA0313AF
:1054100013432B439F4A90420ED09F4A90420BD099
:10542000B0F1804F08D09D4A904205D09C4A9042EE
:1054300002D09C4A904205D124F002020A4342F075
:10544000010104E024F00A020A4342F0010103834F
:10545000018470BD70B505460C468E48854209D062
:105460008D48854206D0B5F1804F03D08B488542E8
:1054700000D08B4820886188A288238958B10428ED
:1054800011D0082817D02846FFF702FFE1882846E8
:10549000BDE87040F0E62846FFF7ADFFE1882846FA
:1054A000BDE870409FE72846FFF76AFFE18828467D
:1054B000BDE8704058E72846FFF725FFE1882846F9
:1054C000BDE8704017E72DE9F04107460C4600257E
:1054D00001266188002900D10225A288012A00D175
:1054E00002262088238988B13846FFF749FFE188E2
:1054F0003846FFF739FF2389324629463846FFF7F9
:105500007AFFE1883846BDE8F0416CE73846FFF79E
:1055100072FFE1883846FFF766FF23893246294645
:105520003846FFF72DFFE1883846BDE8F0411BE71C
:1055300010B50A884B88CC881A438B8823431A43BA
:105540000B891A434B8989891A430A43A0F84420DE
:1055500010BD4FF6FF71818000210180C180418024
:10556000017270470021018041808180C1800181EA
:1055700041818181C18170470021018041800122E8
:105580008280C1800181704700210180418081803B
:10559000C1800181418181817047002904D0018847
:1055A00041F0010101807047018821F00101018073
:1055B0007047002905D030F8441F41F400410180B4
:1055C000704730F8441FC1F30E0101807047002A74
:1055D00003D082890A438281704782898A4382810B
:1055E0007047818270471143A0F848107047002A25
:1055F00003D082890A438281704782898A438281EB
:105600007047018921F0070101817047028922F06A
:1056100070020A430281704700B503461846FFF73F
:10562000F5FF188940F00700188100BD70B50D46E0
:1056300004461146602D0CD001222046FFF7DBFE08
:1056400029462046FFF7E2FF208940F0070020812D
:1056500070BD01222046FFF793FEF1E730B50489C3
:10566000E4B24FF6FF7505EA032313430B432343CC
:10567000038130BD10B504462046FFF7EFFF2089B7
:1056800020F0070040F0070020F0700040F07000AC
:10569000208110BD002C0140003401400004004076
:1056A00000080040000C004010B504462046FFF7FB
:1056B000D5FF208940F480402081EAE7018582827D
:1056C0007047028822F070020A430280704770B56A
:1056D0000589048B068C25F007050D434FF6FC4128
:1056E0000C4040F201110C4326F022064FF6FF71E8
:1056F00001EA03111143314305810483018470BD24
:10570000028B22F070020A4302837047028B22F45C
:10571000E0424FF6FF7303EA012111430183704712
:10572000828B22F070020A4382837047828B22F4BC
:10573000E0424FF6FF7303EA012111438183704772
:10574000002904D0018841F0800101807047018860
:1057500021F0800101807047002904D0818841F048
:10576000040181807047818821F0040181807047A5
:10577000002904D0818841F0080181807047818828
:1057800021F0080181807047002904D0818841F010
:10579000010181807047818821F00101818070477B
:1057A000028B22F008020A4302837047028B22F424
:1057B00000624FF6FF7303EA012111430183704732
:1057C000828B22F008020A4382837047828B22F484
:1057D00000624FF6FF7303EA012111438183704792
:1057E000028B22F004020A4302837047028B22F4E8
:1057F00080624FF6FF7303EA012111430183704772
:10580000828B22F004020A4382837047828B22F447
:1058100080624FF6FF7303EA0121114381837047D1
:10582000028B22F080020A4302837047028BC2F38C
:105830000E024FF6FF7303EA012111430183704703
:10584000828B22F080020A4382837047828BC2F3EC
:105850000E024FF6FF7303EA012111438183704763
:10586000028C22F002020A4302847047028C22F06A
:1058700008020A4302847047028C22F020024FF68D
:10588000FF7303EA0111114301847047028C22F077
:1058900080024FF6FF7303EA011111430184704740
:1058A000028C22F400724FF6FF7303EA01211143C8
:1058B00001847047028C22F400624FF6FF7303EA02
:1058C0000121114301847047028C22F400524FF6EB
:1058D000FF7303EA013111430184704710B50123BE
:1058E0008B40048C9C430484038C8A4013430384C0
:1058F000CFE610B504238B40048C9C430484038CB6
:105900008A4013430384C4E630B500F11803012430
:105910008C40058CA5430584002911D008290FD09F
:10592000091FC1F34E001844016821F4E0410160F1
:1059300001684FF6FF7303EA02221143016030BD94
:1059400003EB5100016821F070010160016811430F
:10595000016030BD002904D0018841F002010180BE
:105960007047018821F0020101807047002904D0AE
:10597000018841F0040101807047018821F0040191
:1059800001807047002904D0818841F08001818026
:105990007047818821F0800181807047028822F061
:1059A0000802028002880A4302807047828822F03F
:1059B0007002828082880A4382807047028922F0C6
:1059C0000702028102890A4302817047028922F09C
:1059D0008002028102890A430281704781847047F4
:1059E000818570478186704701877047818770473E
:1059F000A0F840107047028822F4407202800288AA
:105A00000A4302807047808E7047008F7047808FF6
:105A10007047B0F840007047808C7047008D704729
:105A200002460020128A0A4200D001207047C94372
:105A30000182704702460020138A0B4092890A4077
:105A4000002B02D0002A00D001207047C9430182F8
:105A50007047000038B55F494FF4A0642246A1F1B9
:105A6000200001F05DFE5C492246A1F5A26001F034
:105A700057FE0121042002F0ECFE0825ADF800508D
:105A800003208DF8020010208DF80300694653486A
:105A900002F0D9FCEC03204602F011FA50490C60E8
:105AA0004D7101208871084602F0AAF938BD10B581
:105AB000002002F04DFE0121BDE81040C80502F0B3
:105AC000D3BE48490320086070474748817A45485B
:105AD000002902D005210160704701210160704753
