:020000040800F2
:10000000102400207DBA0008FD630008FF6300088B
:1000100003640008076400080B6400080000000087
:100020000000000000000000000000000F64000855
:100030001164000800000000136400081564000843
:1000400097BA000897BA000897BA000897BA00084C
:1000500097BA000897BA00083164000897BA0008F8
:1000600097BA00083F64000897BA000897BA0008DA
:1000700097BA000897BA000897BA000897BA00081C
:1000800097BA000897BA000897BA000897BA00080C
:10009000997D000897BA000897BA00084D640008D7
:1000A00097BA000897BA000897BA000897BA0008EC
:1000B00097BA000897BA000897BA000897BA0008DC
:1000C00097BA000897BA000897BA000897BA0008CC
:1000D00097BA0008059C000897BA000897BA00086C
:1000E0002164000897BA0008A17D000800F002F81A
:1000F00000F065F80AA090E8000C82448344AAF15D
:100100000107DA4501D100F05AF8AFF2090EBAE85A
:100110000F0013F0010F18BFFB1A43F0010318473B
:100120007CD800009CD800000A444FF0000C10F866
:10013000013B13F0070408BF10F8014B1D1108BF65
:1001400010F8015B641E05D010F8016B641E01F805
:10015000016BF9D113F0080F1EBF10F8014BAD1C55
:100160000C1B09D16D1E58BF01F801CBFAD505E073
:1001700014F8016B01F8016B6D1EF9D59142D6D3CD
:10018000704700000023002400250026103A28BFF5
:1001900078C1FBD8520728BF30C148BF0B607047F9
:1001A00064290BF0E38578290BF01C8663290CF099
:1001B0002680002070471FB51FBD10B510BD0CF084
:1001C0002AF81146FFF7F7FF05F0C4FD0CF048F8D8
:1001D00003B4FFF7F2FF03BC09F072FC412180F881
:1001E0006810882269210A5490F8D4206B210A549F
:1001F000B0F8D4100A126C210A5400226A210A5461
:10020000704770B504460D460026B4F8D0000021B2
:1002100004F0CDF8012D02D1206E04F0D8FF94F83F
:10022000E8102943C8B204F0DAFF30B10126D4F84F
:100230007801401CC4F8780106E006F0DFF9C4F844
:10024000FC05012084F8FB05304670BD2DE9F05F08
:1002500005460F4690461E464FF0000AD34600243E
:100260001CE055F82490FE48814504D049462046BC
:1002700001F067F88346BBF1010F01D1C24607E0E8
:1002800030780121A14088433070204601F0D2F837
:10029000F34845F824004FF0000B641CBC42E0DB3F
:1002A0005046BDE8F09F2DE9F34FA5B004466078B5
:1002B000092871D2DFE800F005A3CCFD70FCFBFA41
:1002C00085002078002869D0012802D0022875D145
:1002D00034E00025182004F0FEF8B4F8D40004F04F
:1002E00015F904F18000618DA4F8C710473004F0BF
:1002F0001DF9608DC4F88C01608D04F00FF90220A7
:10030000A0700120607084F8EA00002084F8FC00EE
:10031000C4F8180140F6411503F081FE08B145F418
:100320008055A07B042801D145F080052046FFF7C9
:1003300055FF06F063F9C4F8F00040E004F18000D6
:10034000618DA4F8C710473004F0F0F8B4F8D40079
:1003500004F0DCF894F82A0000F0030084F8C600EA
:10036000608D04F0DBF8608DB0F5004F02D1012004
:1003700084F89401002004F0AEF8002004F05CFC46
:1003800006206070002004F0C1FF002004F0F1FF9F
:100390002046FFF723FF12E0FDE3FFE7002004F013
:1003A0009AF8002004F048FC002004F0AFFF002081
:1003B00004F0DFFF0620607001E0FFE700BF00BF30
:1003C000EAE30A2002F0DDFF05462878042802D07F
:1003D0000120A060F4E70020A06084F8EA00A07883
:1003E00060700020A07006F009F9C4F8F000032046
:1003F00009F051FB03F001FB03F0E6FAE0E7A07817
:10040000022820D194F8EA00E8B194F8FC00401CDE
:1004100084F8FC000220A0600820607004F1FA0358
:100420000122042104F5A070FFF710FFFA34C4F88C
:100430008A00207860700020207006F0DFF8C4F891
:100440009600FA3C03E0A07860700020A070B7E747
:100450002078012802D194F8FC0001E094F805010D
:1004600084F872002078012801D1812100E07121F7
:10047000712001555A2184F873100E20A4F8D00081
:1004800094F8D2106A200155C734E07A401CE0721B
:1004900014F8C7196F200155C820015D84F8701049
:1004A000FF216D20015584F86E1003E02DE118E165
:1004B00092E044E0B4F8D000002204F1680103F0B7
:1004C00063FFC82004F0B8FB2078012810D1002178
:1004D00094F8FC2004F201608154042084F8E900BF
:1004E0004FF6FF72A16D02EA810004F00FFF0FE0EA
:1004F000002194F8052104F201608154022084F85F
:10050000E9004FF6FF72A16D02EA410004F0FEFE21
:10051000002084F8FA0084F8F900022084F8E8004A
:10052000B4F8D000002103F042FF022004F057FE8F
:10053000052060700220E0700120A06040E7207874
:10054000012802D194F8FC0001E094F8050184F838
:1005500072002078012802D194F8FA0001E094F8A2
:10056000F90084F891002078012801D1822100E06F
:100570007321712001552C20A4F8D00094F8D210DA
:100580006A200155D034A078401CA07034F8D009FE
:10059000002204F1680103F0F7FE002084F8E8006F
:1005A00001212046FFF72DFE50B12078012803D10C
:1005B00060700220A07002E0204602F02FFEFDE3F2
:1005C000052060700320E0702078012801D184F8B4
:1005D000EA000120A060F1E30B2002F0D2FE054604
:1005E000287801280DD0287840B12878042803D134
:1005F000012084F8F80001E00120A0600120A06043
:10060000DCE30020A060E07803280AD120780128EC
:1006100003D160700220A070D0E3204602F0FEFDFE
:100620005EE094F8F800012808D1204602F006FEAA
:10063000002084F8F80084F8E800BFE3D5E902015F
:10064000C4E93601E078022841D12078012810D190
:10065000D4E90E26D4E9363198187141014B03E0F4
:10066000FFFFCDAB00FEFFFF1840C9B2CDE922016C
:100670000AE0D4E91026D4E9363099187041F84BD5
:100680001940C0B2CDE92210DDE92210020642EA8B
:1006900011202066218CDDE92223891843F1000016
:1006A000CDE92210DDE92210C0B2CDE92210902060
:1006B0002299C4F88C109DF88C100155D4F8D820DC
:1006C0007720C4F8732094F8DC10015500BFE0785F
:1006D0000B2801D10420E0700620607000202690D5
:1006E00000BF94F8E80018B9002004F0DEFD02E035
:1006F000002084F8E800207808B10120A0600720DD
:100700006070269800B959E300BF2698002870D081
:10071000022804D004286DD006286CD141E30F20B4
:1007200002F02FFE814600202290239020902190FD
:1007300083461F901E9084F8EB0099F81D0000F08E
:10074000CC0088283AD08C2827D0C82814D0CC28B0
:1007500043D1D9F829102291D9F82D002390D9F846
:1007600021102091D9F825002190312010F809009E
:100770001F9009F1310A30E0D9F823102291D9F8FD
:1007800027002390B9F82100ADF880002B2010F845
:1007900009001F9009F12B0A1FE0B9F82900ADF8F4
:1007A0008800D9F821102091D9F8250021902B201C
:1007B00010F809001F9009F12B0A0EE0B9F8230088
:1007C000ADF88800B9F82100ADF88000252010F8B8
:1007D00009001F9009F1250A00BF00BF94F8EA0044
:1007E00050B9207840B906206070002004F024FA47
:1007F000C0E2D7E2BFE2D3E2DDF87CB09DF888002A
:1008000000F003001E90BBF1730F76D009DCBBF142
:10081000700F4ED0BBF1710F0AD0BBF1720F6DD1CA
:1008200046E0BBF1810F04D0BBF1820FF7D11CE190
:1008300000BFD9E90201C4E93801BBF1810F09D138
:100840009AF801109DF8880000F0070204F1FD00FD
:10085000815405E09AF8012004F583701E994254F2
:10086000608D48F2010188420FD19DF888009DF803
:10087000891040EA0120B0F5004F06D1B4F80C1100
:10088000D9F818000844C4F8140199F802000C289B
:1008900004D1052060700920E07008E099F802009A
:1008A0000E2802D10720607001E00620607058E237
:1008B00000BF9AF80700401CC5B29DF888009DF85B
:1008C000891040EA0120B0F5004F0DD120780128B1
:1008D0000AD19AF801009AF8021000EB012000B248
:1008E000C4F818010020206399F802000C2806D1F2
:1008F000052060700A20E07030E0B5E02BE299F846
:1009000002000E282AD02078012804D194F8FA0099
:1009100000F0010090B9608D48F20101884204D1D5
:1009200094F8F90000F0040040B9608DB0F5004F74
:1009300007D194F8F90000F0020010B103206070B4
:100940000CE02078012806D160700220A070012000
:1009500084F8EA0002E0204602F060FCBBF1700F70
:1009600039D194F8FC00A84221D19DF8880000F00C
:10097000030104F5A07000EB8100DAF803100160B8
:100980009DF8880000F0030104F5A07050F82100E4
:100990003449884262D094F8FA009DF8881001F03A
:1009A000030201219140084384F8FA0056E09DF8C3
:1009B000880000F0030104F5A07050F821002949D7
:1009C00088424BD09DF8880000F0030204F5A07027
:1009D00040F8221042E094F8940180B394F80501A5
:1009E000A8423BD194F8050184F8060194F805115A
:1009F00004F20160405C032822D19DF888009DF834
:100A00008010084400F0030104F5B07000EB810091
:100A1000DAF80310016004F1F9030222042104F55D
:100A2000B070FFF713FCF934C4F88B002078A07085
:100A300000202070D9F81800C4F89700F93C0DE0A8
:100A40009DF888009DF88010084400F0030104F52B
:100A5000B07000EB8100DAF80310016081E1000062
:100A600000FEFFFFFFFFCDAB00BF002016901790E8
:100A700000BF12901390002110911191F74D0026A4
:100A800000BF00BF00BF9AF82000099094F8C6008C
:100A900000EB8000C01DC0B20890BBF1820F0DD1E9
:100AA0009DF8880000F0070104F1FD00405C9AF811
:100AB0000110884202D00620607052E1BBF1730F32
:100AC00012D104F583701E99405C9AF80110884297
:100AD00007D194F8940120B9608D48F2030188424F
:100AE00002D1062060703CE1608D48F2010188422D
:100AF0000BD19DF888009DF8891040EA0120B0F5DF
:100B0000004F02D1012084F8EC00608DC4F8880108
:100B100094F8C610012088400999084000287DD02B
:100B2000D9E90201CDE91401002020666834DAF821
:100B3000020012909AF806008DF84C000898504474
:100B40000168109100798DF84400DAF81B001690C6
:100B50009AF81F008DF85C00DDE91232DDE9101013
:100B6000C91A60EB0200C0B2CDE91A10D4E91C30FA
:100B7000D4E91E12591A60EB0200C0B2CDE9181078
:100B8000D4E91C23683CDDE91410891A60EB0300EA
:100B9000FF230F4601E010E110E100EA0308DDE960
:100BA0001032DDE91610C91A60EB0200C0B2CDE9BF
:100BB0001C10DDE918010BF05BFECDE90201DDE957
:100BC0001C010BF055FECDE90001DDE902230BF01D
:100BD000EFFECDE90601384641460BF049FECDE96E
:100BE0000201DDE91A010BF043FECDE90001DDE968
:100BF00002230BF0DDFECDE90401DDE906230CF054
:100C000017F8CDE90E01DDE918010BF031FECDE951
:100C10000601384641460BF02BFE00E02DE0CDE901
:100C20000401DDE906230BF0D1FBCDE90C01DDE980
:100C30001C010BF01DFECDE90601DDE91A010BF0E8
:100C400017FECDE90401DDE906230BF0BFFBCDE97A
:100C50000A01DDE90A23DDE90C010BF0B7FB0246CE
:100C60000B46CDE90401DDE90E010BF063FCCDE993
:100C700006010BF0B7FDC6170546BBF1820F39D14F
:100C80009DF888009DF8891000EB0120C4F88C01C4
:100C900094F88C0100F0070104F5907040F82150A1
:100CA00004F1FA03012204212030FFF7CFFAFA34CD
:100CB000C4F88A0020786070002004F8FA096749B7
:100CC00085EA0100304310D014F8C61F9DF8880053
:100CD00000F09EFB21780120884084F8340014F84D
:100CE000C61904F5A07040F82150D9F81800C4F8CE
:100CF00090010CE09DF888009DF8891000EB012020
:100D0000C4F88C0104F5A8701E9940F8215094F89D
:100D1000001604F201604056002815DB94F8001616
:100D200004F20160405C404241B294F8002604F2B3
:100D30000160815494F80016405C28B9FF2194F8B2
:100D4000002604F20160815402F057FE02F03CFEDE
:100D50000620607005E006206070002003F06CFF44
:100D600000BF00BF99F81C0000F0200010B1102057
:100D700002F007FB1FE0112002F003FB0546A878F4
:100D80000C2804D1052060700B20E07005E0A878E5
:100D90000F2802D1204602F051FA002026900AE0E6
:100DA00000BF00BF269808B10120A060A06808B964
:100DB0000120A06000BF00BF00E000BF00BFA0682E
:100DC00027B0BDE8F08F70B504460D46207909289C
:100DD0004AD2DFE800F0054145494946474840000E
:100DE0002078012804D0022830D0052830D12EE008
:100DF00004F18000618DA4F8C710473003F096FB22
:100E0000B4F8D40003F082FB94F82A0000F0030049
:100E100084F8C600608D03F081FB608DB0F5004F53
:100E200002D1012084F89401002003F054FB00203B
:100E300003F002FF06206070002004F067FA002033
:100E400004F097FA2046FFF7C9F902E001E000E05C
:100E500000BF00BF09E008E007E00000FFFFCDABE6
:100E600003E002E001E000E000BF00BF70BD2DE93B
:100E7000F04F8DB00746002400BF00BF0026A146FA
:100E8000A24600BF00200C90DFF8E0934FF08241B3
:100E900048460CF03BF9F64906900CF041F80790F3
:100EA0000BF0B0FFCDE908010BF0F0F9CDE90A0134
:100EB0000BF098FC0C900C9901EB410108010CF02F
:100EC0000DF94FF082410B9048460CF01FF90A9043
:100ED0000B990BF0C3FF8146A0464FEAC8000CF007
:100EE000FDF8E34906900CF01BF807900BF08AFF21
:100EF000CDE908010BF0CAF9CDE90A010BF072FC4B
:100F00000C904FEAC8010C9800EB400001EB001870
:100F1000C4EB4410C0EB0420D64901EBC000C07CF8
:100F2000A8B9D54948460CF0F1F88146D34948465E
:100F30000BF094FF814640460CF0D0F8CE490A9061
:100F40000CF0E4F80B900CF0ADF8804634E0C4EB04
:100F50004410C0EB0420C74901EBC000C07C01284D
:100F600015D1C74948460CF0D1F88146C5494846D5
:100F70000BF074FF814640460CF0B0F8C0490A906F
:100F80000CF0C4F80B900CF08DF8804614E0BE49CC
:100F900048460CF0BBF88146BA4948460BF05EFF64
:100FA000814640460CF09AF8B7490A900CF0AEF82A
:100FB0000B900CF077F88046C4EB4410C0EB042093
:100FC000AC4901EBC000C07CB04911F800B0C4EBE3
:100FD0004410C0EB0420A74901EBC000807B00F067
:100FE0000301F9B980100E2820D2DFE800F01F1CA1
:100FF00010071F190D1F1F160A1F1F134FF08B4AD2
:1010000014E04FF08A4A11E0DFF884A20EE04FF0BE
:10101000894A0BE04FF0884A08E04FF0874A05E024
:101020004FF0864A02E04FF0854A00BF00BFC4EB94
:101030004410C0EB04208F4901EBC000407B012825
:101040000CD158460CF04AF851460A900BF006FFB6
:1010500090490B900CF05AF882460BE058460CF081
:101060003DF851460A900BF0F9FE8B490B900CF0BD
:101070004DF8824640460CF031F8494600900BF09E
:10108000EDFE01900BF0BEFE0022844BCDE9020183
:101090000BF050FACDE9060150460BF0B3FECDE956
:1010A0000401DDE906230BF091F97D4A7D4BCDE982
:1010B00008010BF03FFACDE90A010BF093FB00F1B8
:1010C000100638460BF0BDFBCDE90A0100F00CF923
:1010D000C4EB4412C2EB0422664B03EBC202C2E92A
:1010E0000E0107EBD771491001F164000B970BF06B
:1010F000A8FBCDE9080100F0F7F8C4EB4412C2EBFD
:1011000004225C4B03EBC202C2E9100148460BF01B
:1011100079FE0022614BCDE904010BF00BFACDE919
:10112000080150460BF06EFECDE90601DDE908230B
:101130000BF04CF9CDE90A010BF054FB0546C4EB6A
:101140004410C0EB04204B4901EBC000C07CE0BB65
:1011500006F52F70C4EB4411C1EB0421454A02EBA4
:10116000C1018865C4EB4410C0EB0420114601EBBB
:10117000C000C66505F596700BF063FBCDE90A016A
:1011800000F0B2F8C4EB4412C2EB0422394B03EB7B
:10119000C202C2E9120150460BF034FECDE90A0149
:1011A00000F0A2F8000A40EA01601030C4EB4411DC
:1011B000C1EB04212F4A02EBC10108654FF4967080
:1011C000C4EB4411C1EB042100E003E002EBC101D8
:1011D00048653EE006F59670C4EB4411C1EB04216E
:1011E000244A02EBC1018865C4EB4410C0EB042023
:1011F000114601EBC000C66505F596700BF021FBAA
:10120000CDE90A0100F070F8C4EB4412C2EB0422ED
:10121000184B03EBC202C2E9120150460BF0F2FD7B
:10122000CDE90A0100F060F8000A40EA01601030E0
:10123000C4EB4411C1EB04210E4A02EBC101086565
:101240004FF49670C4EB4411C1EB042102EBC101D1
:1012500048650DB0BDE8F08F0021C1EB4112C2EB33
:101260000122044B03EBC2025085704700009841F5
:101270000000A54398020020853400460045284818
:101280007B3480440046A846C3350043BCD40008E4
:101290000000C044EA5B7E3FB341823F00408F4084
:1012A0000D71AC8BDB68F03F10B5A0B00446802216
:1012B0000C4968460AF0A3FE202005F071FA20468A
:1012C00004F052F9002269467F2003F05DF8002106
:1012D0007F2003F06CF8002003F081FF002020B095
:1012E00010BD0000FCD700082DE9F05F04460D4654
:1012F000FD4AFE4B204629460BF01CF98046002291
:10130000FB4B0BF017F982468B46504659460CF0C2
:101310003FF806460F4630463946BDE8F09F2DE9B6
:10132000F041044600BF20460BF08BFA0546EE4A1A
:10133000EE4B0BF03DFB0746884638464146BDE87C
:10134000F0812DE9F04F85B082468B46CDF810B084
:1013500000BF0498FFF7E3FF804689464FF098529C
:10136000E44B404649460BF023FB04460D46E24A57
:1013700002EBCA0203C2E148407DA8B1DF48007B0E
:10138000052808D1DE4ADF4B204629460BF0D2F86B
:1013900006460F460AE0DC4ADC4B204629460BF0A5
:1013A000C9F806460F4601E026462F463046394624
:1013B0000AF0DAFFD14901904A7B087B019904F0D9
:1013C00071F922462B46CDE902010BF025FC0446BB
:1013D0000D4600221346204629460BF0ADFA06D3EF
:1013E0000022CB4B204629460BF0E0FB03D2002025
:1013F00005B0BDE8F08FC74800EBCA0030C0BF4859
:10140000D0F88001401CBD49C1F880010120EFE700
:1014100010B5C04A02EBC102D2E90032BE4C04EB67
:10142000C004C4E9003210BD0246BB4800EBC20153
:1014300003C970470022B04B03EBC0031A605A6027
:10144000B44B03EBC0031A605A60704700200CE0F5
:101450000022B249A84B03EBC003C3E90021AD4B06
:1014600003EBC003C3E90021401C0428F0DB7047F4
:10147000A24A10707047A148007870479F49D1F880
:10148000840100219D4AC2F8841170479B48D0F81E
:10149000880170479948D0F88C0170479748D0F878
:1014A0009001704770B5002500BF0020C5EB4511C5
:1014B000C1EB0521914A02EBC1014866012003F00E
:1014C0007AFF0020C5EB4511C1EB05218B4A02EBE9
:1014D000C10181F8D200C5EB4511C1EB052102EB3A
:1014E000C101C1F8800100240CE08D49C5EB451015
:1014F000C0EB0520814A02EBC00000F5A07040F867
:101500002410641C042CF0DB00240CE08449C5EB9F
:101510004510C0EB0520794A02EBC00000F5907041
:1015200040F82410641C082CF0DB70BD0FB470B5BB
:101530002C9D002400208DF8AB00C4EB4411C1EBBE
:1015400004216E4A02EBC10101F5CC71C4EB4412D7
:10155000C2EB0422694B03EBC20292F8F92502EBBD
:10156000820201EB4210A02204A90AF048FDC4EB5C
:101570004410C0EB0420614901EBC00000F5CC70C1
:10158000C4EB4411C1EB04215C4A02EBC10191F8A8
:10159000F91501EB810100EB41100570C4EB44101B
:1015A000C0EB0420114601EBC00090F8F905401C87
:1015B000C4EB4411C1EB042102EBC10181F8F90530
:1015C000C4EB4410C0EB0420114601EBC00090F8BE
:1015D000F905062808D10020C4EB4411C1EB042111
:1015E00002EBC10181F8F90570BC5DF814FB2DE92F
:1015F000F04105460F2605F00307002447B1012FEF
:1016000007D0022F06D0032F01D100BF2AE000BF70
:1016100000BF00BFC4EB4410C0EB0420374901EB0E
:10162000C00090F9E90000281ADDC4EB4411C1EBB9
:101630000421324A02EBC101B1F85810C4EB441244
:10164000C2EB04222D4B03EBC20292F9E920514375
:1016500088B203F05BFE002003F027FE0E2600E0B8
:101660000F2600BF00BF3046BDE8F08110B5002452
:10167000C4EB4411C1EB0421204A02EBC101096E05
:10168000C4EB4412C2EB04221C4B03EBC202126DEA
:10169000881A03F09CFD012003F007FE10B3C4EB91
:1016A0004411C1EB0421154A02EBC101C96D4FF68B
:1016B000FF7202EA410003F029FE002003F0F5FD6D
:1016C000C4EB4411C1EB04210C4A02EBC101B1F897
:1016D0005C1088B203F01AFEC4EB4410C0EB042087
:1016E00006491FE02CE00000FA48CE3B1835B13D1A
:1016F00080842E4119DDB14178020020980200203B
:10170000295C8FC2F528F83FF6285C8FC2F5F43FBC
:101710000088D3405802002018020020E0FFEF406C
:10172000FFFFCDAB01EBC000D0F87C01401CC4EB47
:101730004411C1EB0421FE4A02EBC101C1F87C0156
:1017400010BD2DE9F04107460D460F264FF0000869
:101750000024C4EB4410C0EB0420F54901EBC000A9
:1017600090F8E90028B9002003F0D0FD002003F034
:1017700000FE05F0010040B3C4EB4410C0EB0420B0
:10178000EB4901EBC00090F8E900012800D1804648
:10179000C4EB4410C0EB0420E54901EBC00090F815
:1017A000940148B9C4EB4410C0EB042001EBC00025
:1017B00090F8C600032808D1002003F0A7FD002000
:1017C00003F073FD0E20BDE8F081C4EB4410C0EBC4
:1017D0000420D74901EBC000006EC4EB4411C1EBFB
:1017E0000421D34A02EBC1018A6C91F84C100B061C
:1017F00043EA12214018C4EB4411C1EB0421CC4A46
:1018000002EBC101086605F0010098B9C4EB441071
:10181000C0EB0420114601EBC00090F9E900C4EBD5
:101820004411C1EB042102EBC10191F8C610084438
:10183000032802D0B8F1010F7ED10220C4EB44117D
:10184000C1EB0421BA4A02EBC10181F8E800C4EB04
:101850004411C1EB042102EBC101086E03F0B7FC97
:10186000032003F0BCFCE0B3002003F0E5F9002006
:10187000C4EB4411C1EB0421AD4A02EBC10181F874
:10188000E800C4EB4410C0EB0420114601EBC0009B
:10189000D0F87801401CC4EB4411C1EB042102EBE9
:1018A000C101C1F87801C4EB4410C0EB042011461B
:1018B00001EBC000006EC4EB4411C1EB042102EB4C
:1018C000C1018A6C91F84C100B0643EA12210222E6
:1018D000A1FB02124018C4EB4411C1EB0421944A4D
:1018E00000E006E002EBC1010866FFF7BFFE0E262E
:1018F00041E0C4EB4410C0EB04208D4901EBC00073
:10190000006EC4EB4411C1EB0421894A02EBC10112
:101910008A6C91F84C100B0643EA12214018C4EB74
:101920004411C1EB0421824A02EBC10108664FF069
:101930000C0604F063FE00E012E0C4EB4411C1EBBE
:1019400004217B4A02EBC101C1F8FC050120C4EB74
:101950004411C1EB042102EBC10181F8FB050AE04F
:1019600037B9002003F0D2FC002003F09EFC01E018
:10197000FFF77CFE0E26304625E70FB410B5A6B063
:101980000024C4EB4410C0EB0420694911F8300076
:1019900002283ED1C4EB4410C0EB042001EBC00090
:1019A00090F9E90000282DDDC4EB4410C0EB0420C1
:1019B00001EBC00090F8E900401E40B2C4EB4411B6
:1019C000C1EB04215A4A02EBC10181F8E900002170
:1019D0000846FFF7B6FE8DF8A20000208DF8A000A3
:1019E00044208DF8A1000020ADF8A400042090222E
:1019F0002CA9249068460AF002FB28A80FC8FFF71C
:101A000095FD3FE0002003F081FC002003F04DFC39
:101A100038E0C4EB4410C0EB0420454911F8300015
:101A200018B9002003F041FC2CE0C4EB4410C0EBDB
:101A300004203F4901EBC00090F8E900401E40B28D
:101A4000C4EB4411C1EB0421394A02EBC10181F816
:101A5000E9000020FFF7CBFD8DF8A20000208DF8F3
:101A6000A00044208DF8A1000020ADF8A4000420BF
:101A700090222CA9249068460AF0C1FA28A80FC821
:101A8000FFF754FD26B010BC5DF814FB2DE9F041C2
:101A900005460F2605F003070024C4EB4410C0EBF5
:101AA0000420234901EBC000408DB0F5004F19D14F
:101AB000012F02D0022F11D111E0C4EB4411C1EB70
:101AC00004211B4A02EBC101B1F8581088B203F09F
:101AD0001DFC002003F0E9FB0E2602E000BF0F26EC
:101AE00000BF00BFC4EB4410C0EB0420104901EB61
:101AF000C000408D48F20101884205D1022F00D07C
:101B000000BF0F2600BF00BF3046BDE8F0812DE9C1
:101B1000F05F0646884691461F46DDF828A000BFC4
:101B200006F00705002413208346C4EB441101E0AE
:101B300098020020C1EB0421FE4A02EBC101A1F88A
:101B4000D000C4EB4410C0EB0420114601EBC000F0
:101B500007EB08010988A0F86D10C4EB4410C0EB36
:101B60000420114601EBC00090F8C710C4EB4410EC
:101B7000C0EB042002EBC00080F86F10C4EB4410EF
:101B8000C0EB0420114601EBC00090F8C810C4EB74
:101B90004410C0EB042002EBC00080F87010C4EBCE
:101BA0004410C0EB0420114601EBC00000F590701A
:101BB00000EB8501C4EB4410C0EB042002EBC00035
:101BC00009684167C4EB4410C0EB0420114601EBE7
:101BD000C000FD30415DC4EB4410C0EB042002EBBB
:101BE000C00080F878100021C4EB4410C0EB042042
:101BF00002EBC000FD30415509F10100385CC4EB37
:101C00004411C1EB042102EBC10181F8FC00C4EBDB
:101C10004410C0EB0420114601EBC00090F8D21034
:101C2000C4EB4410C0EB042002EBC00080F86A1043
:101C3000C4EB4410C0EB0420114601EBC00090F847
:101C4000D200401CC4EB4411C1EB042102EBC101E2
:101C500081F8D200C4EB4410C0EB0420114601EB24
:101C6000C00000F5907050F82500B349884231D08B
:101C7000C4EB4410C0EB0420114601EBC00090F807
:101C8000C61001208840C4EB4411C1EB042102EBD3
:101C9000C10181F8FA00C4EB4410C0EB04201146E6
:101CA00001EBC00000F5907050F82510C4EB441013
:101CB000C0EB042002EBC00000F5A070C4EB44129E
:101CC000C2EB04229B4B03EBC20292F8C62040F801
:101CD00022101EE09849C4EB4410C0EB0420954A42
:101CE00002EBC00000F5A070C4EB4412C2EB04226A
:101CF000904B03EBC20292F8C62040F8221000205D
:101D0000C4EB4411C1EB04211A4602EBC10181F876
:101D1000FA00C4EB4411C1EB0421864A02EBC10175
:101D2000486D02F089FFC4EB4410C0EB04208149E8
:101D300001EBC00090F8940100286FD000BF00BFF5
:101D400000BFC4EB4413C3EB04238C460CEBC3036A
:101D5000B3F80A31BAFBF3FC03FB1CA1F3B2C4EBEA
:101D6000441CCCEB042CDFF8CCE10EEBCC0CBCF823
:101D70000CC103FB0CF2501AC4EB4413C3EB042355
:101D8000F4460CEBC303B3F80A315B105B428342A9
:101D900011DDC4EB4413C3EB04230CEBC303B3F812
:101DA0000A310344C4EB441CCCEB042C0EEBCC0CEA
:101DB000CCF8183109E0C4EB4413C3EB0423DFF87B
:101DC00074C10CEBC303C3F81801C4EB4413C3EB99
:101DD0000423DFF860C10CEBC30393F818C1C4EB14
:101DE0004413C3EB0423DFF84CE10EEBC30383F889
:101DF00072C0C4EB4413C3EB0423F4460CEBC303DF
:101E0000B3F818314FEA132CC4EB4413C3EB04238B
:101E10000EEBC30383F873C01BE0FFE70020C4EBA5
:101E20004411C1EB0421434A02EBC101C1F818017E
:101E30000021C4EB4410C0EB042002EBC00080F88A
:101E40007210C4EB4410C0EB042002EBC00080F819
:101E500073107021C4EB4410C0EB0420354A02EB30
:101E6000C00080F871100021584602F0A0FAC4EBBF
:101E70004410C0EB04202F4A02EBC00000F16801BF
:101E80000022584602F080FABDE8F09F2DE9F047A5
:101E90000746884691461D4600BF07F0030600240A
:101EA00013208246C4EB4411C1EB0421214A02EB0A
:101EB000C101A1F8D000C4EB4410C0EB04201146CE
:101EC00001EBC00005EB08010988A0F86D10C4EB18
:101ED0004410C0EB0420114601EBC00090F8C7107D
:101EE000C4EB4410C0EB042002EBC00080F86F107C
:101EF000C4EB4410C0EB0420114601EBC00090F885
:101F0000C810C4EB4410C0EB042002EBC00080F802
:101F10007010C4EB4410C0EB0420114601EBC0006C
:101F200000F5A87000EB8601C4EB4410C0EB042060
:101F300004E0000098020020FFFFCDAB02EBC000E0
:101F400009684167C4EB4410C0EB0420114601EB63
:101F5000C00000F58370815DC4EB4410C0EB042029
:101F600002EBC00080F878100021C4EB4410C0EBF5
:101F7000042002EBC00000F58370815509F10100D7
:101F8000285CC4EB4411C1EB042102EBC10181F8D0
:101F90000501C4EB4410C0EB0420114601EBC00066
:101FA00090F8D210C4EB4410C0EB042002EBC00048
:101FB00080F86A10C4EB4410C0EB0420114601EB1A
:101FC000C00090F8D200401CC4EB4411C1EB0421C6
:101FD00002EBC10181F8D200C4EB4411C1EB042132
:101FE00002EBC101486D02F027FE0020C4EB441152
:101FF000C1EB0421F94A02EBC101C1F8180100212B
:10200000C4EB4410C0EB042002EBC00080F8721057
:10201000C4EB4410C0EB042002EBC00080F8731046
:102020007221C4EB4410C0EB042002EBC00080F826
:1020300071100021504602F0BAF9C4EB4410C0EB15
:102040000420E64A02EBC00000F16801002250467D
:1020500002F09AF9BDE8F0872DE9F04FD9B00646B5
:102060004FF0000A002400204E904F908046002739
:10207000814604F0C3FA2C90307902287ED1F08892
:10208000ADF89C00307A412802D0307A61280AD11C
:10209000707A00F0CC00882805D109274FF0070995
:1020A0004FF0020801E04FF063084EA802F0EFF98C
:1020B000F18800222DA802F089F99DF838019DF8D9
:1020C000391100EB01209DF83A1100EB01409DF819
:1020D0003B1100EB01602A909DF83C010021CDE905
:1020E00028012898CDE92810DDE928312A98181808
:1020F00041F10001CDE928019DF83C0100062A9933
:1021000000EB11202B9000208DF898008DF899801D
:102110000F208DF89A00B8F1020F7CD12DA810F88D
:10212000092009F10101405C02EB002085B2C4EBFB
:102130004410C0EB0420A94911F8300000286BD0EE
:10214000C4EB4410C0EB042011F83000012812D178
:10215000C4EB4410C0EB042001EBC00090F8E90090
:10216000401E40B2C4EB4411C1EB04219B4A02EB78
:10217000C10181F8E9002DA8C05D00E0FCE37328EF
:102180007DD006DC70287BD0712807D0722878D1EA
:102190009CE1812876D08228F9D1AAE3C4EB4410CF
:1021A000C0EB04208D4901EBC00090F8940150B9B8
:1021B000C4EB4410C0EB042001EBC000408D48F29A
:1021C0000201884203DD0F208DF89A00DAE3C4EBA8
:1021D0004410C0EB0420814911F8300001283DD1A2
:1021E000C4EB4410C0EB042001EBC00090F8E90000
:1021F000401C40B2C4EB4411C1EB0421774A02EB0E
:10220000C10181F8E90090222AA9684609F0F7FE89
:1022100026A80FC801E0DFE3B5E3FFF7AEFB01201E
:10222000C4EB4411C1EB04216C4A02EBC10181F8FB
:10223000EB00C4EB4410C0EB0420114601EBC000DE
:10224000D0F87401401CC4EB4411C1EB042102EB33
:10225000C101C1F8740159B0BDE8F08F05F0030069
:102260000830791C2DAA515C60F31F11C8B2C4EB71
:102270004411C1EB0421594A02EBC10103E039E3E7
:1022800023E17BE368E081F800060021C4EB441001
:10229000C0EB042002EBC00000F20160C4EB44126A
:1022A000C2EB04224D4B03EBC20292F8002681548C
:1022B000032004F030F92DAB3A4649462846FFF793
:1022C000E5FD48F2010085420BD0C4EB4411C1EB9F
:1022D0000421424A02EBC101B1F85C1088B203F05C
:1022E00015F8C4EB4411C1EB04213C4A02EBC101D7
:1022F0002B980866C4EB4410C0EB0420114601EB98
:10230000C00090F82A00401B00F00300C4EB441109
:10231000C1EB042102EBC10181F8E900C4EB4411D7
:10232000C1EB042102EBC101488D0321FFF709FA3B
:102330008DF89A002A49C4EB4410C0EB0420274AC8
:1023400002EBC00000F5A87005F0030240F822106F
:10235000032004F0B8F815E3C4EB4410C0EB0420EC
:102360001E4911F8300001283CD1C4EB4410C0EBE9
:10237000042001EBC00090F8E900401C40B2C4EB1F
:102380004411C1EB0421154A02EBC10181F8E900B7
:1023900090222AA9684609F032FE26A80FC8FFF746
:1023A000ECFA0120C4EB4411C1EB04210B4A02EB0F
:1023B000C10181F8EB00C4EB4410C0EB04201146CE
:1023C00001EBC000D0F87401401CC4EB4411C1EB18
:1023D000042102EBC101C1F874013CE7980200201E
:1023E000FFFFCDAB05F00702781C2DA9085C62F356
:1023F0001F10C4EB4411C1EB0421FE4A02EBC101E2
:1024000081F800060021C4EB4410C0EB042002EB6D
:10241000C00000F20160C4EB4412C2EB0422F54B91
:1024200003EBC20292F800268154032004F073F8F3
:102430002C982DAB3A46494600902846FFF767FB9B
:10244000C4EB4411C1EB0421EA4A02EBC101B1F82B
:102450005C1088B202F05AFFE6492B980866032008
:10246000C4EB4411C1EB0421E24A02EBC10181F843
:10247000E900C4EB4411C1EB042102EBC101488D1A
:102480000221FFF75EF98DF89A00DB49C4EB441096
:10249000C0EB0420D74A02EBC00000F5907005F0B5
:1024A000070240F82210032004F00DF800BF04F0EA
:1024B00082F883465A46D1A150A809F0F1FB824622
:1024C000514650A805F0CAFA5CE200BFC4EB4410C4
:1024D000C0EB0420C74911F83000012856D1C4EBE5
:1024E0004410C0EB042001EBC00000F20160C4EB1B
:1024F0004411C1EB0421BF4A02EBC10191F8FC1069
:10250000405C401C41B2C4EB4410C0EB042002EB21
:10251000C00000F20160C4EB4412C2EB0422B54BD0
:1025200003EBC20292F8FC2081542846FFF75FF8C3
:102530008DF89A0005F0030000EB800000F1070B16
:10254000C4EB4410C0EB0420AA4901EBC00090F892
:10255000FA0005F00302012191400843C4EB441145
:10256000C1EB0421A34A02EBC10181F8FA00C4EBDC
:102570004410C0EB0420114601EBC00071305844F8
:102580004E9901609DF83C110171B1E1C4EB44101A
:10259000C0EB0420974911F83000032856D1C4EB52
:1025A0004410C0EB042001EBC00000F20160C4EB5A
:1025B0004411C1EB04218F4A02EBC10191F80511CE
:1025C000405C401C41B2C4EB4410C0EB042002EB61
:1025D000C00000F20160C4EB4412C2EB0422854B40
:1025E00003EBC20292F8052181542846FFF74EFA08
:1025F0008DF89A0005F0030000EB800000F1070B56
:10260000C4EB4410C0EB04207A4901EBC00090F801
:10261000F90005F00302012191400843C4EB441185
:10262000C1EB0421734A02EBC10181F8F900C4EB4C
:102630004410C0EB0420114601EBC0007130584437
:102640004E9901609DF83C11017151E12DA8C05DCA
:10265000702870D1C4EB4410C0EB0420654901EB35
:10266000C00000F20160C4EB4411C1EB0421614AD7
:1026700002EBC10191F80016405600284ADBC4EB7A
:102680004410C0EB0420114601EBC00090F9E900B2
:1026900000283FDDC4EB4410C0EB042001EBC00078
:1026A00000F20160C4EB4411C1EB042102EBC10153
:1026B00091F80016405C401C41B2C4EB4410C0EBE2
:1026C000042002EBC00000F20160C4EB4412C2EB34
:1026D0000422484B03EBC20292F800268154C4EB5B
:1026E0004410C0EB0420194601EBC00090F8E9004B
:1026F000401E40B2C4EB4411C1EB04211A4602EB68
:10270000C10181F8E90004212846FFF71AF88DF885
:102710009A00EDE0032003F0FEFE002002F0F6FD3B
:10272000002002F0C2FD0E208DF89A00032003F075
:10273000CAFEDDE0FFE7C4EB4410C0EB04202D49E6
:1027400001EBC00090F89401F0B3C4EB4410C0EB6F
:10275000042001EBC00000F20160C4EB4411C1EBA6
:102760000421244A02EBC10191F80511405C0228C2
:102770004DD1C4EB4410C0EB0420114601EBC00066
:1027800000F20160C4EB4411C1EB042102EBC10172
:1027900091F80511405C401C41B2C4EB4410C0EB01
:1027A000042002EBC00000F20160C4EB4412C2EB53
:1027B0000422104B03EBC20292F805218154C4EBB2
:1027C0004410C0EB042000E021E0194601EBC000FA
:1027D00090F8F90040F00800C4EB4411C1EB04216B
:1027E0001A4602EBC10181F8F90005212846FEF7DF
:1027F000A8FF09E098020020FFFFCDAB54303D2038
:1028000025640D0A000000008DF89A0070E0C4EB0A
:102810004410C0EB0420F84901EBC000408D48F2A1
:10282000020188425BD1C4EB4410C0EB0420F249A2
:1028300001EBC00000F20160C4EB4411C1EB0421C4
:10284000ED4A02EBC10191F800164056002846DB24
:10285000C4EB4410C0EB0420114601EBC00000F2B1
:102860000160C4EB4411C1EB042102EBC10191F8FA
:102870000016405C401C41B2C4EB4410C0EB042085
:1028800002EBC00000F20160C4EB4412C2EB042270
:10289000D94B03EBC20292F800268154C4EB4410DA
:1028A000C0EB0420194601EBC00090F8E900401E7F
:1028B00040B2C4EB4411C1EB04211A4602EBC10142
:1028C00081F8E900002002F021FD002002F0B4F9B7
:1028D00001212846FEF735FF8DF89A0008E0002018
:1028E00002F014FD002002F0E0FC0E208DF89A00AA
:1028F00048E000BFC4EB4410C0EB0420BE4911F80F
:102900003000012839D1C4EB4410C0EB042001EBA6
:10291000C00090F8E900401C40B2C4EB4411C1EB88
:102920000421B54A02EBC10181F8E90090222AA9ED
:10293000684609F064FB26A80FC8FFF71EF80120BF
:10294000C4EB4411C1EB0421AB4A02EBC10181F895
:10295000EB00C4EB4410C0EB0420114601EBC000B7
:10296000D0F87401401CC4EB4411C1EB042102EB0C
:10297000C101C1F874016EE438E000BF0F208DF88A
:102980009A0000BF00BF0120C4EB4411C1EB042139
:10299000994A02EBC10181F8EB0090222AA968460E
:1029A000CDF8908009F02BFB26A80FC8FEF7BEFDDE
:1029B000C4EB4410C0EB04208F4901EBC000D0F8F9
:1029C0007401401CC4EB4411C1EB04218A4A02EBA0
:1029D000C101C1F8740164E090222AA9684609F097
:1029E0000EFB26A80FC8FEF7C8FF5AE0307904286E
:1029F0004ED10F208DF89A00C4EB4410C0EB042098
:102A00007D4911F83000022828D1C4EB4410C0EBF6
:102A1000042001EBC00090F9E90000281EDDC4EBA2
:102A20004410C0EB042001EBC00090F8E900401E08
:102A300040B2C4EB4411C1EB04216F4A02EBC10167
:102A400081F8E900C4EB4411C1EB042102EBC101A0
:102A5000488D0621FEF775FE8DF89A0000208DF84E
:102A6000980004208DF899000020ADF89C0000210A
:102A7000289129912A902B90042090222AA9249011
:102A8000684609F0BCFA26A80FC8FEF74FFD08E01B
:102A900090222AA9684609F0B2FA26A80FC8FEF7C4
:102AA0006CFF00BF99E470B5D0B0054600BF0024AC
:102AB00000204E904F902E7903F0A0FD2C90012E17
:102AC00079D14EA801F0CEFC9DF838019DF839115E
:102AD00000EB01209DF83A1100EB01409DF83B11FD
:102AE00000EB01602A909DF83C010021CDE928010E
:102AF0002898CDE92810DDE928302A99591840F1A5
:102B00000000CDE928109DF83C0100062A9900EB51
:102B100011202B900020C4EB4411C1EB0421364A54
:102B200002EBC10181F8EB00C4EB4410C0EB0420C0
:102B3000114601EBC000B0F8D000ADF89C000020B9
:102B40008DF898008DF89A0001208DF89900C4EB5B
:102B50004410C0EB04200B4603EBC000B0F8D020BB
:102B6000C4EB4410C0EB042003EBC00000F168018B
:102B70002DA809F044FA012090222AA92490684641
:102B800009F03DFA26A80FC8FEF7D0FCC4EB4410AC
:102B9000C0EB0420184901EBC000D0F87001401CC4
:102BA000C4EB4411C1EB0421134A02EBC101C1F88B
:102BB000700114E0FFE7062E11D10020ADF89C0053
:102BC0008DF8980006208DF8990090222AA924906B
:102BD000684609F014FA26A80FC8FEF7A7FC0020E3
:102BE000C4EB4411C1EB0421034A02EBC10181F89B
:102BF000FB0550B070BD00009802002070B50025A4
:102C0000002400BF10E0C4EB4411C1EB0421FE4AD4
:102C100002EBC10101F5CC7105EB850201EB42101D
:102C2000A02109F040FA6D1C062DECDB0020C4EB5E
:102C30004411C1EB0421F44A02EBC10181F8F9050A
:102C4000C4EB4411C1EB042102EBC10181F8F8058A
:102C5000C4EB4411C1EB042102EBC10181F8FA0578
:102C600070BD70B500240220C4EB4411C1EB0421F7
:102C7000E54A02F831000020C4EB4411C1EB042105
:102C800002EBC1014870C4EB4411C1EB042102EB1B
:102C9000C10181F8EA00C4EB4411C1EB042102EB4D
:102CA000C101087140F60F0001F05FF806460320ED
:102CB00002F01AFA0EB1601E70BDFEF7F3FB4DF67E
:102CC000CA60C4EB4411C1EB0421CF4A02EBC1013D
:102CD000A1F8D4000020C4EB4411C1EB042102EBA5
:102CE000C10181F8E800C4EB4411C1EB042102EBFF
:102CF000C10181F8EB00C4EB4411C1EB042102EBEC
:102D0000C10181F8EC00FFF779FFC4EB4410C0EB80
:102D10000420BD4901EBC000002140F8C71F4160FD
:102D20000020C4EB4411C1EB0421B74A02EBC101FE
:102D3000C1F8180101F063FF002001F043FF0121F9
:102D4000B24802F01EFBAFF6EF41AFF2A52001F052
:102D500085FF0020C4EB4411C1EB0421AA4A02EB19
:102D6000C10181F8FB05C4EB4411C1EB042102EB66
:102D7000C101C1F87801C4EB4411C1EB042102EB9D
:102D8000C101C1F87C01FF20C4EB4411C1EB042157
:102D900002EBC10181F8E90000250BE0F621C4EB4C
:102DA0004410C0EB0420984A02EBC00000F201601E
:102DB00041556D1CFF2DF1DD0020C4EB4411C1EB2A
:102DC0000421914A02EBC101086600BF74E710B507
:102DD00000F0C5FF10BD0021C1EB4112C2EB012282
:102DE000894B03EBC202D06270472DE9F0470546DC
:102DF0000E46002400BF2878C4EB4411C1EB042127
:102E0000814A02EBC10108736978C4EB4410C0EB3E
:102E1000042002EBC00041746978C4EB4410C0EB9D
:102E2000042002EBC0000174A978C4EB4410C0EB8D
:102E3000042002EBC0004173E978C4EB4410C0EBFE
:102E4000042002EBC000C1742979C4EB4410C0EB2C
:102E5000042002EBC00081736979C4EB4410C0EB1D
:102E6000042002EBC000C173A979C4EB4410C0EB8D
:102E7000042002EBC00081740021C4EB4410C0EBBD
:102E8000042002EBC00001752989C4EB4410C0EB9B
:102E9000042002EBC000C182C4EB4410C0EB04204C
:102EA000114601EBC000C07C022808D10121C4EB0F
:102EB0004410C0EB042002EBC000417508E0002183
:102EC000C4EB4410C0EB04204F4A02EBC000417534
:102ED000C4EB4411C1EB04214B4A02EBC10101F1E7
:102EE0000C00012101F009F9287800EB4000484965
:102EF00011F82000C4EB4411C1EB0421424A02EB5B
:102F0000C1010876C4EB4412C2EB04223E4B03EB32
:102F1000C202117BA87801F09AF807460FB1781C1D
:102F200050B9287800EB4000394901EB8000001DC2
:102F3000A978491E50F82170C4EB4410C0EB04205E
:102F4000314901EBC000C761C4EB4411C1EB04215E
:102F50002D4A02EBC10101F1180001F06AF801F0FD
:102F60001DF88046B8F1020F02D0B8F1030F5ED110
:102F7000C4EB4410C0EB0420234911F830000228B0
:102F800001D1012000E0002082464FF00009C4EB8F
:102F90004410C0EB04201C4B03EBC000C27CC4EB0C
:102FA0004410C0EB042003EBC000017B504600F04E
:102FB000D2FFC4EB4411C1EB0421134A02EBC1015F
:102FC0000884C4EB4410C0EB0420114601EBC000A0
:102FD000008C50B1C4EB4410C0EB042001EBC000E6
:102FE000008C4FF6FF71884220D1C4EB4410C0EB37
:102FF0000420054901EBC000007B052801D14FF0FA
:103000000109044808E000009802002080D0232431
:1030100008D400086CD4000830F81900C4EB44113F
:10302000C1EB0421FE4A02EBC10108842CE0A87820
:1030300001F0A2F94010C4EB4411C1EB0421F84A9D
:1030400002EBC1010884C4EB4410C0EB042011461C
:1030500001EBC000008C50B1C4EB4410C0EB042065
:1030600001EBC000008C4FF6FF7188420CD1A878AC
:10307000401EEC4931F81000C4EB4411C1EB0421AF
:10308000E74A02EBC1010884C4EB4411C1EB0421FF
:10309000E34A02EBC101088C00F0EEFFC4EB4411DF
:1030A000C1EB0421DE4A02EBC101088C00F0DAFF1B
:1030B000C4EB4410C0EB0420D94901EBC000008CE4
:1030C000C4EB4411C1EB0421D54A02EBC101488491
:1030D0002879042808D1202003F062FB002001F0A9
:1030E00025FD082003F05CFBF088FFF774FEB08834
:1030F000C4EB4411C1EB0421C94A02EBC101A1F8A0
:103100000A013088C4EB4411C1EB042102EBC10178
:10311000A1F80C013088C4EB4411C1EB042102EB8F
:10312000C10108637088C4EB4411C1EB042102EBB8
:10313000C101A1F80E01C4EB4410C0EB04201146FC
:1031400001EBC000B0F80E01801EC4EB4411C1EBCE
:10315000042102EBC101B1F80C114843C4EB441146
:10316000C1EB042102EBC101C1F810013089FDF768
:103170007EFEBDE8F087AA4890F8FC007047014643
:10318000A748FD30405C70470146A748405C704747
:10319000A349D1F88001704710B5024602F003023E
:1031A000A24800EBC20018C81846214610BD10B551
:1031B000024602F003029E4800EBC20018C81846FF
:1031C000214610BD2DE9F047044604F0030497485A
:1031D00000EBC4000022974BD0E90071384609F09B
:1031E000E7FB054609F0FEFA81464846BDE8F08750
:1031F0002DE9F047044604F003048D4800EBC400B9
:1032000000228C4BD0E90071384609F0D1FB05460D
:1032100009F0E8FA81464846BDE8F08710B5044653
:103220000620607002202070002002F06FF800205D
:1032300002F09FF8002001F0FFFC10BD10B504461D
:10324000606E401C60660020A0602078022805D1D6
:1032500006206070002002F059F84AE0207801282A
:103260001FD1E07802280BD194F8FA0000F0010099
:1032700030B9012084F8EA0060700220A07038E0C4
:10328000E078032808D101F029FD012084F8EA0044
:1032900060700220A0702CE0012060700320A070FC
:1032A00027E0E078022809D1608D48F201018842C8
:1032B00004D194F8F90000F0040058B1E078022835
:1032C0000CD1608DB0F5004F08D194F8F90000F0F2
:1032D000020018B92046FFF7A1FF0AE0E0780328B2
:1032E00003D12046FFF79AFF03E00120607003201E
:1032F000A07010BD0021C1EB4110C0EB0120484A75
:1033000002EBC00000F5CC70C1EB4112C2EB012210
:10331000434B03EBC20292F8FA2502EB820200EB68
:103320004210007870470FB470B52C9D0024C4EB98
:103330004411C1EB04213A4A02EBC10101F5AB6033
:10334000A02204A908F05BFEC4EB4410C0EB0420EB
:10335000334901EBC00080F8585570BC5DF814FB90
:1033600070B504460025C5EB4510C0EB05202C4A7E
:1033700002EBC00000F5AB61A022204608F03FFE42
:1033800070BD70B506460024C4EB4410C0EB0420A9
:10339000234901EBC00090F8F855C4EB4410C0EB92
:1033A000042001EBC00000F5CC7005EB850100EBBB
:1033B0004110007828B900201F490870487008465D
:1033C00070BDC4EB4410C0EB0420154901EBC000F4
:1033D00000F5CC7005EB850100EB411040781649F3
:1033E0004870C4EB4410C0EB04200D4901EBC00051
:1033F00000F5CC7005EB850100EB411080780E499B
:103400008870C4EB4410C0EB0420054901EBC000F8
:1034100000F5CC7005EB850100EB411080880DE0D4
:103420009802002068D400089E0300205802002063
:103430007802002000408F40A0090020FE498880CB
:10344000C4EB4410C0EB0420FC4901EBC00000F5C4
:10345000CC7005EB850100EB4110D0E90210F64A73
:10346000C2E90210C4EB4410C0EB0420F34901EBA5
:10347000C00000F5CC7005EB850100EB4110006940
:1034800011460861C4EB4410C0EB0420EB4901EB8A
:10349000C00000F5CC7005EB850100EB41104069E0
:1034A00011464861C4EB4410C0EB0420E34901EB32
:1034B000C00000F5CC7005EB850100EB4110806980
:1034C00011468861C4EB4410C0EB0420DB4A02EBD8
:1034D000C00000F5CC7005EB850200EB421000F156
:1034E0001C017F22D4481C3008F089FDC4EB441035
:1034F000C0EB0420D14901EBC00000F5CC7005EB16
:10350000850100EB41100078CB490870C4EB4410F2
:10351000C0EB0420C94A02EBC00000F5CC7005EBFB
:10352000850200EB421080F89B600021C4EB441040
:10353000C0EB0420C14A02EBC00000F5CC7005EBE3
:10354000850200EB42100170C4EB4410C0EB042074
:10355000BA4901EBC00090F8F805401CC4EB4411D7
:10356000C1EB0421B54A02EBC10181F8F805C4EBB7
:103570004410C0EB0420114601EBC00090F8F805A0
:10358000062808D10020C4EB4411C1EB042102EB52
:10359000C10181F8F805C4EB4410C0EB0420A74931
:1035A00001EBC00090F8F805C4EB4411C1EB042115
:1035B000A24A02EBC10181F8FA059F4800E7F0B585
:1035C000CFB000240025FFF795FE0646C4EB44115A
:1035D000C1EB0421994A02EBC1003146FDF7F3FB30
:1035E0000BE0C4EB4411C1EB0421944A02EBC1008F
:1035F0003146FCF758FE05460026002DF1D0022D7D
:103600005FD1C4EB4410C0EB04208C4911F83000AA
:10361000012845D1C4EB4411C1EB0421874A02EBD8
:10362000C101096BC4EB4412C2EB0422834B03EBD0
:10363000C202D26A1144C4EB4412C2EB042203EB6F
:10364000C202D2F818218818C4EB4411C1EB04213E
:103650001A4602EBC101C1F8F400C4EB4411C1EBFE
:10366000042102EBC101D1F81811C4EB4412C2EBE2
:10367000042203EBC202C2F81C110021C4EB441265
:10368000C2EB042203EBC202C2F818110121C4EB01
:103690004412C2EB042203EBC20282F8EC1000BF1A
:1036A0000020C4EB4411C1EB0421644A02EBC101C8
:1036B00081F8EB00C4EB4411C1EB042102EBC10122
:1036C0008860C4EB4410C0EB04205C4901EBC000EF
:1036D00090F8EC0001287DD1C4EB4410C0EB04202D
:1036E00001EBC00090F8EB000028F4D1C4EB4410CB
:1036F000C0EB042011F83000012831D102F07EFF28
:10370000C4EB4411C1EB04214C4A02EBC101D1F8D6
:10371000F010401AC4EB4411C1EB042102EBC101CB
:10372000D1F8F41088421AD90020C4EB4411C1EB3F
:10373000042102EBC10181F8EC00ADF89C008DF88A
:10374000980084208DF89900042090222AA92490C2
:10375000684608F054FC26A80FC8FDF7E7FE0EE106
:10376000C4EB4410C0EB0420344911F830000228A7
:10377000F5D102F043FFC4EB4411C1EB04212F4A01
:1037800002EBC101B1F80A11B0FBF1F201FB120723
:10379000C4EB4410C0EB0420284901EBC00090F8B2
:1037A0009401E8B3C4EB4410C0EB042001EBC0006B
:1037B000D0F81001B84251D8172000F04AF9032080
:1037C000C4EB4411C1EB04211C4A02F8310001F0A2
:1037D00085FA00E093E0FFF711FA0220C4EB4411F0
:1037E000C1EB0421154A02EBC10148700121C4EB71
:1037F0004410C0EB042002EBC00080F86D10802163
:10380000C4EB4410C0EB042002EBC00080F86E1043
:103810000020C4EB4411C1EB042102EBC10100E024
:103820001DE081F8EC00C4EB4410C0EB042011460D
:1038300001EBC00004E00000A00900209802002075
:1038400090F80501401CC4EB4411C1EB042102EBCC
:10385000C10181F80501172000F0F0F84EE0C4EB3B
:103860004410C0EB04207F4901EBC000408D48F2BA
:103870000101884242D102F0C1FEC4EB4411C1EB08
:103880000421784A02EBC101D1F81411884235D3E2
:10389000172000F0DEF80320C4EB4411C1EB042133
:1038A000704A02F8310001F019FAFFF7A7F9022077
:1038B000C4EB4411C1EB04216A4A02EBC101487018
:1038C0000221C4EB4410C0EB042002EBC00080F8DE
:1038D0006D108021C4EB4410C0EB042002EBC0004B
:1038E00080F86E100020C4EB4411C1EB042102EB00
:1038F000C10181F8EC00172000F0A0F83FE0C4EB14
:103900004410C0EB0420574901EBC00090F8EC00D4
:10391000A8BBC4EB4410C0EB042011F8300002280F
:103920002DD1C4EB4410C0EB042001EBC00090F893
:10393000940120B302F062FEC4EB4411C1EB0421F8
:10394000484A02EBC101B1F80A11B0FBF1F201FBE8
:103950001207C4EB4410C0EB0420424901EBC00045
:10396000B0F80C01B84209D90120C4EB4411C1EBF5
:1039700004213C4A02EBC10181F8EC0000BF0020A9
:103980004FB0F0BD10B51021374807F07CFA012088
:1039900006F081F81021344807F073FA052006F08C
:1039A0007AF8002001F092F80021481E01F0E9FCAD
:1039B00010BD2C49C1F8040770472A49486201210B
:1039C000284A82F82810704710B5264890F8280039
:1039D000012809D123480021426A1E2000F08FF8F7
:1039E0000020204981F8280010BD1E4A108451840F
:1039F00001221C4B83F82920704710B5194890F814
:103A0000290001280BD11749488C00F035FB1549D6
:103A1000088C00F027FB0020124981F8290010BD16
:103A20001048008C70470F48408C70470D4991F842
:103A3000FB0000210B4A82F8FB10704700F01F02C8
:103A4000012191404209920002F1E022C2F80011E6
:103A5000704700F01F0201219140044A430942F8D7
:103A600023107047980200200008014080E100E028
:103A70002DE9F84306460C461746984600253CB902
:103A8000F0B240F0800228466D1C0DF800201BE0CB
:103A9000F0B240F0C00228466D1C0DF800207F2CCB
:103AA00005DCE2B228466D1C0DF800200CE0E0B207
:103AB00040F0800228466D1C0DF80020C4F3C712A8
:103AC00028466D1C0DF8002043463A4669462846B4
:103AD00001F0ACFEBDE8F883F8B505460E46144685
:103AE000E0B28DF8000020128DF80100B1B2A8B24A
:103AF0006B460222FFF7BCFF07463846F8BD2DE9AA
:103B0000F84306460F461446002504E0E0B20DF8DF
:103B10000500240A6D1C042DF8DBB9B2B0B26B4667
:103B20000422FFF7A5FF80464046BDE8F8832DE953
:103B3000F84306460C461746984600252CB9F2B2C3
:103B400028466D1C0DF800201BE0F0B240F040024A
:103B500028466D1C0DF800207F2C05DCE2B22846BB
:103B60006D1C0DF800200CE0E0B240F08002284609
:103B70006D1C0DF80020C4F3C71228466D1C0DF80B
:103B8000002043463A466946284601F089FEBDE8D2
:103B9000F8832DE9F84305460E464FF0FF37B1B2E2
:103BA000A8B26B460422FFF7C2FF8046B8F1000FAF
:103BB00008D1032404E01DF8040000EB0727641E6D
:103BC000002CF8DA3846BDE8F88338B504466B4671
:103BD000022200213620FFF7AAFF0E2C57D2DFE881
:103BE00004F011071A56565656233256563F464D84
:103BF00000208DF800009DF8010000F0FE008DF817
:103C0000010045E09DF8000000F0FC0040F00100DC
:103C10008DF800003CE09DF8000000F0FC0040F052
:103C200002008DF8000033E09DF8000000F0B300C2
:103C300040F048008DF800009DF8010040F0800041
:103C40008DF8010024E09DF8000000F0B3008DF82D
:103C500000009DF8010000F07F008DF8010017E0E2
:103C60009DF8010040F002008DF8010010E09DF881
:103C7000010000F0FD008DF8010009E09DF8000052
:103C800000F0CF0040F020008DF8000000E000BF01
:103C900000BF6B46012200213620FFF7E9FE0DF13F
:103CA0000103012211463620FFF7E2FE38BDF8B5C8
:103CB00004460D464FF6FF76A9B2A0B26B4602222B
:103CC000FFF735FF074637B99DF800009DF8011052
:103CD00000EB012086B23046F8BD08B503208DF810
:103CE000010001208DF800006B46022200213620E1
:103CF000FFF7BEFE4FF4004206212D20FFF7ECFE39
:103D0000012005F0C8FE0120FFF75FFF002008BD7D
:103D100038B50446200A8DF80100E0B28DF80000A5
:103D20006B46022204212D20FFF7A2FE03208DF80E
:103D300000006B46012206212D20FFF799FE00208E
:103D40008DF800006B46012206212D20FFF790FE22
:103D50000A212D20FFF71DFF0546284638BD10B566
:103D600000210846FFF715FF10BD2DE9FC4105466F
:103D700000240420019000270020FE4981F87C00E7
:103D800081F82D00C1F880000021FA4880F8691000
:103D90000020F849C1F8840081F87D00C1F888004E
:103DA000C1F88C00FFF7DBFFF249086008460068A5
:103DB000F149884202D08817BDE8FC810020FFF756
:103DC00004FF01AB012200212420FFF751FE1E2039
:103DD000FFF79EFF87B2380AE649887305F00800AE
:103DE00028B10420FFF794FFE249C1F88400E148BC
:103DF00090F8840040B1022000906B46012212210D
:103E00002D20FFF735FE03E00020DA49C1F88400D9
:103E10000620FFF77DFFD74948600720FFF778FFAE
:103E2000D449886000208861002405E00021D14841
:103E30001C3040F82410641C042CF7DB05F0020051
:103E400008B3CC48807B012805DC1C20FFF760FF0D
:103E5000C849886117E0C748807B032813DC0D2020
:103E6000FFF756FFC349C8610E20FFF751FFC14954
:103E700008620F20FFF74CFFBE4948621D20FFF784
:103E800047FFBC49886205F0010078B107F01F00C8
:103E9000B84981F82C00084690F82C0068B9B7485A
:103EA000007800F01F0081F82C0006E0B34800788D
:103EB00000F01F00AF4981F82C0005F0040070B13C
:103EC000002409E004F11000FFF722FF0146A94891
:103ED000343040F82410641C0C2CF3DB09E000247F
:103EE00005E00021A348343040F82410641C0C2C59
:103EF000F7DB05F4006010B1FFF7EFFE0DE00521E0
:103F00003620FFF7D4FE06464FF6FF5006403246F5
:103F100005213620FFF7E0FD00BF0120FFF755FE29
:103F200000210420FFF735FE924908630021262076
:103F3000FFF72FFE064646F4A03646F4A02632468A
:103F400000212620FFF7DBFD002226213620FFF787
:103F5000C3FD002030E710B503460024022902D03B
:103F6000052912D108E0022A02D18248C46902E080
:103F70000AB98048046A0AE0022A02D17D48446AEC
:103F800002E00AB97B48846A01E0002400BF00BF58
:103F9000D807C00E24FA00F080B210BD7548807BAF
:103FA000704708B56B46042200212620FFF7BFFDAD
:103FB0009DF8020040F005008DF802006B460422D7
:103FC00000212620FFF754FD08BDF8B505460E4632
:103FD00046EA0504E0B28DF80000200A8DF80100E1
:103FE000200C8DF802006B46032208212620FFF7E3
:103FF0003FFDF8BDF8B505460E4646EA0504E0B2B9
:104000008DF80000200A8DF80100200C8DF80200C8
:104010006B4603220C212620FFF72AFDF8BD5548E8
:10402000D0F8840070475348406870475148806812
:10403000704710B50446234601220B212A20FFF7C2
:1040400017FD00211E206268FFF759FD10BD0246D2
:10405000501E4B4B5B5C00EB43034648343050F83A
:104060002300704710B504464248C482C28A00212A
:104070001820FFF731FD10BD10B504463D4884827D
:10408000828A41F604012E20FFF726FD10BD38B5C7
:1040900004466B4601220E212B20FFF748FD9DF8B8
:1040A000000020F01F00009004F01F009DF8001099
:1040B000084300906B4601220E212B20FFF7D8FC0D
:1040C00038BD38B504466D2000906B46012240F69D
:1040D00006012E20FFF7CCFC3CB140F2076241F60E
:1040E00006012E20FFF7F8FC06E041F2076241F6D8
:1040F00006012E20FFF7F0FC38BD2DE9FE4F0446E7
:104100000F464FF0000A00200290257860791D4983
:1041100031F810906078401E1649C6B2C1F8800090
:10412000042D01D0072D01D1012000E000200190D5
:10413000207810490873E07938B90846006B40F4DC
:10414000800008634FEAE90905E00A48006B20F4A3
:10415000800008490863207A064948730846006BC6
:10416000217A4FF4403202EA0141084301490863D1
:10417000084609E0400A00203001CADEAED400083B
:1041800070D40008F0D400080021026B0420FFF76F
:10419000B6FC4A4642F604012E20FFF79DFC30464D
:1041A000FFF78FFFF848405D00EB8000F7494318A8
:1041B000052207212B20FFF75BFCF54B01220E2186
:1041C0002B20FFF755FCF34901980B1801220B2116
:1041D0002820FFF74DFCEC48405DEF4951F82020C6
:1041E0000C212820FFF78BFCE079EC4901EB8000E3
:1041F000A17930F8112002212720FFF76DFCE84853
:1042000030F8162004212720FFF766FCE07928B952
:10421000642206212720FFF75FFC1EE0A078042817
:104220000DD110200090102206212720FFF754FC0A
:104230006B46012226212720FFF71AFC0DE02820DB
:104240000090202206212720FFF746FC6B46012222
:1042500026212720FFF70CFC00BFD24800EB0610F8
:10426000E17850F8212008212720FFF748FC6089D9
:1042700041F24101884204D0628920212720FFF7C2
:104280002BFC608928B941F2410220212720FFF749
:1042900023FCC5480C2102682320FFF730FCC248EC
:1042A000001D30F8162004212320FFF715FCA0790B
:1042B00058B1E079BD494318012200212120FFF7C0
:1042C000D7FB4FF0030A0120029005F00F00F02108
:1042D00001EA0511084361784FF4402202EA814166
:1042E0000843910001EA0A5108434FF40032029951
:1042F00002EA4141084321794FF0F86202EA815114
:1043000008436179520102EAC16140EA010842466C
:1043100000211F20FFF7F3FBA078617808434FEAE4
:10432000004B4BF40040E17940EA4130A04908617C
:104330000846002102690820FFF7E1FB07F00100B1
:1043400020B19B4991F82C00FFF7A1FE07F0020075
:1043500078B1974989693201D140C1F34E00FFF726
:104360008BFE934989693201D140C1F34E00FFF7BA
:1043700079FE0020BDE8FE8F01468D4880694A1E07
:104380001201D04080B2704770B504460E46154603
:104390002819B0F5806F02DD4FF0FF3070BDA21E0E
:1043A000334629460920FFF763FB0020F6E770B586
:1043B00004460D467E480069204340EA8556324651
:1043C00000210820FFF79BFB002070BD70B504465C
:1043D0000D46164623462A4631461120FFF7A7FB15
:1043E00070BD70B504460D4616460720FFF7EDFB7D
:1043F00023462A4631462520FFF799FB0820FFF780
:10440000E4FB70BDF8B504466B4602220521152079
:10441000FFF78DFB9DF800509DF8010005EB002093
:1044200085B2284608F075FA06460022614B08F06E
:10443000BFFAC4E9040100212E20FFF738FC2080D8
:10444000231D082200211220FFF771FB07211520F0
:10445000FFF72DFC608000211020FFF79AFB000D74
:10446000A081F8BD10B5044623460522002117207F
:10447000FFF75DFB10BD10B501211720FFF789FB89
:1044800010BD10B500211720FFF783FB10BD10B53C
:1044900004462346052200211520FFF748FB10BDE6
:1044A00010B501211520FFF774FB10BD10B50021D8
:1044B0001520FFF76EFB10BD10B501210620FFF798
:1044C00068FB10BD10B504462346052200210620D6
:1044D000FFF72DFB10BD70B5054600210420FFF746
:1044E00058FB354900EA010435B124F4FF7405F4A2
:1044F000FF70401C044301E024F001042C480463D5
:10450000224600210420FFF7FAFA70BD10B50446D8
:10451000224602210320FFF7DFFA10BD10B5044642
:10452000224600210320FFF7D7FA10BD10B504463C
:104530002346082200210120FFF79AFA10BD10B58A
:1045400004462346082200210120FFF7F0FA10BD9F
:104550002DE9FC41044600250026002703208DF8A4
:1045600000006B46012207212D20FFF781FA04F09D
:104570000F0006283CD2DFE800F00321272D333757
:1045800000270025002634E070D4000890D40008ED
:10459000AED40008AFD4000878D40008C0D4000816
:1045A000CCD40008D0D40008B4D40008BCD400088F
:1045B000400A00200000903FFFFF47F041F224072F
:1045C00049F220250E2614E041F6240749F2202561
:1045D00003260EE041F6240749F220254E2608E086
:1045E00000270025032604E024270025032600E0F9
:1045F00000BF00BFE8B28DF80000280A8DF8010066
:104600006B46022200212D20FFF732FA08208DF898
:1046100000006B46012206212D20FFF729FA022017
:104620008DF800006B46012207212D20FFF720FAAC
:1046300088208DF800006B46012206212D20FFF70F
:1046400017FA80208DF800006B46012206212D20EC
:10465000FFF70EFA00208DF800006B4601220621BC
:104660002D20FFF705FA05208DF800006B4601228A
:1046700007212D20FFF7FCF9F0B28DF80000300A79
:104680008DF801006B46022200212D20FFF7F0F982
:1046900008208DF800006B46012206212D20FFF72F
:1046A000E7F904208DF800006B46012207212D2038
:1046B000FFF7DEF988208DF800006B460122062105
:1046C0002D20FFF7D5F980208DF800006B460122E0
:1046D00006212D20FFF7CCF900208DF800006B4655
:1046E000012206212D20FFF7C3F901208DF80000DB
:1046F0006B46012207212D20FFF7BAF9F8B28DF899
:104700000000380A8DF801006B46022200212D209E
:10471000FFF7AEF908208DF800006B460122062154
:104720002D20FFF7A5F90A2005F0B5F900208DF836
:1047300000006B46012207212D20FFF799F9012087
:104740008DF800006B46012206212D20FFF790F91D
:1047500002208DF800006B46012207212D20FFF773
:1047600087F904208DF800006B46012207212D20D7
:10477000FFF77EF9642005F08EF900208DF8000027
:104780006B46012207212D20FFF772F900208DF8DA
:1047900000006B46012206212D20FFF769F90A204F
:1047A00005F079F904F00F00012803D004F00F00A0
:1047B000022805D101AB012208212D20FFF7B7F90E
:1047C0000020BDE8FC817CB504460D4601AB01220A
:1047D00008212D20FFF7ABF99DF8040000F002003E
:1047E000022802D04FF0FF307CBD200E8DF8030070
:1047F000200C8DF80200200A8DF80100E0B28DF83F
:1048000000006B46042200212D20FFF731F9C5F38B
:1048100002208DF80100E8B28DF800006B460222FC
:1048200004212D20FFF724F940208DF800006B466D
:10483000012206212D20FFF71BF900208DF8000032
:104840006B46012206212D20FFF712F900260EE00B
:10485000012005F020F901AB012208212D20FFF7EE
:1048600066F99DF8040000F0010000B10126002E59
:10487000EED00020B8E72DE9F04104460D460026B1
:1048800000270020FFF7A1F90120FFF761FE0DE0EE
:1048900029462046FFF797FF2846FFF739FAA0423E
:1048A00000D101267F1C052F00D10226002EEFD05B
:1048B0000420FFF74DFE2846FFF72AFAA04201D157
:1048C000002601E04FF0FF360020FFF741FE3046A2
:1048D000BDE8F08108B5042000906B46012202215A
:1048E0002C20FFF7C5F8002000906B460122022122
:1048F0002C20FFF7BDF808BD08B5002000906B46DE
:10490000012202212C20FFF7B3F8022000906B4611
:10491000012202212C20FFF7ABF808BD10B5FFF7EC
:10492000EBFF10BD38B5044601208DF800006B4642
:10493000012200213620FFF79BF800208DF80000AF
:104940006B46012206212C20FFF792F800208DF8FB
:1049500000006B4601220A212C20FFF789F8FFF79F
:10496000B9FFE0B28DF80000200A8DF801006B4617
:10497000022208212C20FFF77BF8FFF7ABFF012074
:104980008DF800006B4601220A212C20FFF770F8F9
:10499000FFF7A0FF00208DF800006B4601220021E8
:1049A0003620FFF765F838BD38B504208DF80000D3
:1049B0006B4601220A212C20FFF75AF8FFF78AFFE5
:1049C00000208DF800006B4601220A212C20FFF701
:1049D0004FF8FFF77FFF01208DF800006B460122A2
:1049E00000213620FFF744F8012005F054F8762026
:1049F0008DF800006B46012204212C20FFF738F8C7
:104A000080208DF800006B46012202212C20FFF748
:104A10002FF888208DF800006B46012202212C20FF
:104A2000FFF726F86B46012203212C20FFF77FF8C1
:104A30009DF800404FF6FF7000EA042475208DF8C1
:104A400000006B46012204212C20FFF711F8802082
:104A50008DF800006B46012202212C20FFF708F898
:104A600088208DF800006B46012202212C20FEF7E1
:104A7000FFFF6B46012203212C20FFF758F89DF819
:104A80000000044300208DF800006B460122022143
:104A90002C20FEF7EDFF00208DF800006B46012270
:104AA00000213620FEF7E4FF204638BD38B5044625
:104AB0000D46224600212C20FFF70EF800956B468C
:104AC000012206212C20FEF7D3FF38BD70B5054624
:104AD00004213620FFF75DF8044615B144F4006464
:104AE00001E024F40064224604213620FFF707F891
:104AF00070BD70B504460D46FFF731F9F54988429F
:104B000009D023462A4600210846FFF710F8052061
:104B100004F0C1FF01E0002070BDFFF720F9ED496E
:104B2000884201D08817F7E70020F5E738B504463A
:104B300004F00300012101EB401503208DF8010072
:104B400001208DF800006B46022200213620FEF77E
:104B50008FFF2A4612212D20FEF7BEFF0120FFF70E
:104B600034F838BD10B5044600210420FFF711F8D1
:104B7000D94908632CB10846006B20F480200863F3
:104B800005E0D548006B40F48020D3490863D24843
:104B90000021026B0420FEF7B2FF10BD10B50446E1
:104BA000CD48006B40F08040CB49086322020221CF
:104BB0001A20FEF791FFC8480021026B0420FEF77F
:104BC0009EFF10BD10B504464CB1C348006B20F4E5
:104BD0008050C1490863012081F82D0008E0BE48DB
:104BE000006B40F48050BC490863002081F82D0020
:104BF000B9480021026B0420FEF781FF10BD38B5D3
:104C000004460020009034B1B348006B40F00050DF
:104C1000B149086305E0B048006B20F00050AE4990
:104C20000863AD48006B000E00906B460122032123
:104C30000420FEF71DFF38BD70B5054600211A207F
:104C4000FEF7A7FF04466FF31304C5F313000443F4
:104C5000224600211A20FEF752FF70BD9E4AC2F87C
:104C60008800C2F88C10704708B56B4601220021FD
:104C70000F20FEF75CFF9DF8000000F0010008BD6A
:104C800008B5E02000906B46012203213620FEF794
:104C9000EFFEF02000906B46012203213620FEF744
:104CA000E7FE08BD1CB501AB012203210F20FEF772
:104CB0003EFF9DF8040000F080009DF8041001F014
:104CC0004001B0EB410F08D0012000906B4601225B
:104CD00003210D20FEF7CCFE00BF1CBD38B54020DF
:104CE000009000210E20FEF754FF054600F06CFDF9
:104CF0000446002211460E20FEF701FF6B460122FA
:104D000000210D20FEF7B4FE744A00210F20FEF7AB
:104D1000F6FEFFF7C7FF2A4600210E20FEF7EFFE42
:104D2000204600F062FD00206B4981F87D0038BD0F
:104D300010B502210F20FEF7BAFF00F0100010BDE1
:104D40007CB5002400250021634880F8681090F8A5
:104D50002D1080F86E1000210F20FEF71AFF5E491B
:104D6000044648665E490A680968491C5C4B19603C
:104D70005C4941F82200184600680A2802DB00203E
:104D8000194608605848844203D1FFF7A7FFFFF790
:104D900077FF04F4806030B34F4890F82D0010BBCB
:104DA00004F46060B0F5606F1DD0FFF797FFFFF768
:104DB00067FF04F0F8044848006B00F0005030B181
:104DC0004FF4807200210D20FEF786FE0BE00321D8
:104DD000414880F86810D0F88C0020B13E48D0F8E7
:104DE0008C106430884704F48040002871D004F4AB
:104DF000806000287AD0002604F48010E0B1FFF72C
:104E00006DFFFFF73DFF3448006B00F0005030B1FC
:104E10004FF4807200210D20FEF75EFE0BE00321AF
:104E20002D4880F86810D0F88C0020B12A48D0F8BE
:104E30008C10643088477CBD00211020FEF737FFBE
:104E4000C0F30906244B6C33022200211120FEF727
:104E50006EFE2148407B08B906F07F061E48A0F888
:104E60006A6004F00800A8B11B4890F86C0000F0DC
:104E7000200020B1184890F86C0002280AD145F0B3
:104E800008050021144880F869100020124981F8B3
:104E90007D0004E004F008010F4880F86910022149
:104EA0000D4880F8681090F82D0000BB04F4DE4037
:104EB00005432A4600210F20FEF721FE0648D0F8C0
:104EC0008C0000285CD00448D0F88C1064308847EF
:104ED00056E071E03001CADE400A0020F8FF2724C6
:104EE00004000020D00A00200300800049E00120D7
:104EF000009001AB012203210F20FEF718FE9DF860
:104F0000040000F080009DF8041001F04001B0EBB7
:104F1000410F07D104F4C04005432A4600210F2069
:104F2000FEF7EDFDF748006B00F0005028B94FF494
:104F3000807200210D20FEF7CFFDF248D0F88C00E2
:104F400020B1F048D0F88C1064308847FFF7F0FEAD
:104F500030B96B46012203210D20FEF789FD0EE0DA
:104F6000FFF7BCFEFFF78CFEE648006B00F0005038
:104F700028B14FF4807200210D20FEF7ADFD00BF77
:104F8000B0E0E048006B00F0005008B9FFF7A6FE63
:104F9000FFF776FE0020DB4981F87D000321D94828
:104FA00080F86810D0F88C000028E9D0D548D0F8F7
:104FB0008C106430884795E004F0800028B345F0F9
:104FC000F8052A4600210F20FEF799FDCD4890F8FC
:104FD000690060B10021CB4880F8691090F82D007D
:104FE00028B9C84890F87D0008B1FFF777FE012185
:104FF000C44880F86810D0F88800002872D0C148F2
:10500000D0F88810643088476CE004F40030C0B1F8
:1050100004F4003005432A4600210F20FEF76FFDFF
:105020000421B84880F86810D0F88C0020B1B54849
:10503000D0F88C10643088470020B24981F87D0098
:1050400050E0B1482040A8B3AF4904EA010005434D
:105050002A4600210F20FEF752FD0020A94981F8C1
:105060007D000846006B00F0005008B9FFF736FEDF
:10507000FFF706FE04F4805020B10821A14880F813
:10508000681024E004F4004020B103219D4880F81A
:1050900068101CE004F4803020B10921994880F8A0
:1050A000681014E004F0806028B10A21954880F867
:1050B00068100CE016E004F4001020B10B219148B8
:1050C00080F8681003E003218E4880F868108D484E
:1050D000D0F88C0020B18B48D0F88C106430884711
:1050E00004F0F80400BFA6E638B5044604F0010059
:1050F000B8B36B46022200212620FEF718FD9DF86A
:10510000010020F03C008DF801009DF8010040F006
:1051100014008DF801000DF1010301221146262033
:10512000FEF7A6FC6B46012202213620FEF7FFFCAB
:105130009DF8000040F084008DF800006B460122CD
:1051400002213620FEF794FC10208DF8000001208B
:105150008DF801006B46022228213620FEF788FCDC
:1051600015E0FFE704F0010088B96B460222002138
:105170002620FEF7DCFC9DF8010020F014008DF8DD
:1051800001006B46022200212620FEF771FC04F08C
:10519000020088B10F208DF800006B4601222A2101
:1051A0003620FEF765FC00208DF800006B460122DA
:1051B0002A213620FEF75CFC38BD10B50020FEF732
:1051C00004FD002204213620FEF786FC10BD10B538
:1051D0000446224601210A20FEF791FC10BDF8B5D5
:1051E0000446002500200090002604F0020058B17B
:1051F000802000906B46012200210D20FEF738FC34
:105200000120404981F87D0004F0010028B39DF899
:10521000000040F0060000906B46012200210D20A6
:10522000FEF726FC03210F20FEF741FD064606F49B
:10523000816008B900251BE0402000906B460122E8
:1052400000210D20FEF714FC0020FFF73FFC00209A
:105250002C4981F87D00451E0AE09DF8000040F0D1
:10526000020000906B46012200210D20FEF700FC99
:105270002846F8BD2DE9F04104460D46164645EA9C
:1052800006204FF60F7100EA010704F0010028B173
:105290003A4600211D20FEF71FFC04E000221146C3
:1052A0001D20FEF719FCBDE8F08170B5044600260C
:1052B000FFF7F8FC4FF4807504F0010008B145F4E5
:1052C00000752A4600210D20FEF706FC04F00100BF
:1052D000A8B103210F20FEF7EAFC064606F4816020
:1052E00068B1FFF7FBFC04F0020028B14FF48072B4
:1052F00000210D20FEF7F0FB4FF0FF3070BD0020C5
:10530000FCE70000400A00200090272438B504463E
:105310006B46012203210420FEF709FC002C16DD58
:10532000224600210C20FEF7D7FB9DF8000040F03C
:1053300010000090D548006B40F08050D3490863BE
:105340006B46012203210420FEF792FB10E09DF83A
:10535000000020F010000090CC48006B20F080503E
:10536000CA4908636B46012203210420FEF780FB33
:1053700038BD10B50446224624212720FEF7ACFB99
:1053800010BD2DE9F04104460E4600F01DFA074617
:1053900000210E20FEF7FDFB05460EB1254300E07F
:1053A000A5432A4600210E20FEF7A9FB384600F04F
:1053B0001CFABDE8F08138B50446002000900220B8
:1053C00000906B46012200212F20FEF751FB3CB1DB
:1053D000012000906B46012200212F20FEF748FBA0
:1053E00038BD70B5044604212F20FEF7D2FB0546D8
:1053F000C5F30B002080C5F30B40608008212F20EF
:10540000FEF7C7FB0546C5F30B00A080C5F30B40B4
:10541000E0800C212F20FEF7BCFB0546C5F30B00F6
:105420002081C5F30B40608110212F20FEF7B1FBD6
:105430000546C5F30B40E081C5F30B00A0811421A4
:105440002F20FEF7A6FB0546C5F30B406082C5F38F
:105450000B00208218212F20FEF79BFB0546C5F389
:105460000B00A082C5F30B40E08270BD08B50020A0
:105470000090FFF7A2FE002211462C20FEF72CFB25
:105480006B46012206212C20FEF7F2FAFFF734FAD0
:105490006B46012203213620FEF749FB9DF80000F0
:1054A00000F00F0000906B46012203213620FEF72A
:1054B000DFFA012004F0EFFA9DF8000040F0F00060
:1054C00000906B46012203213620FEF7D1FA00201E
:1054D0006E4981F87D0008BD38B50446FFF76DFEC2
:1054E0006B48005D00EB80006A49431805220721E4
:1054F0002B20FEF7BDFA684B01220E212B20FEF770
:10550000B7FA6348005D654951F820200C21282036
:10551000FEF7F5FA4FF4FF1200212820FEF7EFFA0C
:105520005F4A00212820FEF7EAFA222000906B460D
:10553000012200213620FEF79BFA072000906B46DF
:10554000012211463620FEF793FA0022262136204A
:10555000FEF7C2FA132000906B4601220C212A208C
:10556000FEF786FA002038BD38B50446FFF725FE61
:105570004FF4FF1200212820FEF7C1FA484A00210B
:105580002820FEF7BCFA0220FEF71FFB0D20FEF7D5
:105590001CFB042C00D20424224600210A20FEF722
:1055A000AEFA10208DF800006B46012224212F2036
:1055B000FEF75EFA38BDF8B5044680208DF800008D
:1055C0006B46012211212820FEF752FA0A208DF89D
:1055D00000006B46012212212820FEF749FA0F2015
:1055E0008DF800006B46012212212820FEF740FAB8
:1055F00000208DF800006B46012200212A20FEF7D2
:1056000037FA01208DF800006B46012200212A2084
:10561000FEF72EFA012C09D1012004F03CFA6B466A
:10562000022203212A20FEF782FA0BE00020FEF777
:10563000CCFA6B46022203212A20FEF778FA0120D9
:10564000FEF7C3FA9DF800609DF8015000208DF828
:1056500000006B46012200212A20FEF709FA46EAE3
:105660000520F8BD08B56B46012204212A20FEF76B
:105670005EFA9DF8000008BD08B56B4601220321C3
:105680002A20FEF754FA9DF8000008BD400A0020C9
:1056900070D4000890D40008AED4000878D4000874
:1056A00000FF5F002DE9F74F84B006468B460024CB
:1056B000584607F0A7FB00223A4BCDE9000107F05E
:1056C00077F9CDE9020107F08DF88246BAF1FF0FB4
:1056D00001DD4FF0FF0A0698012825D1042E02D0E3
:1056E000072E10D100E000BF2F48855D00E0641C4C
:1056F00005EB05102D4901EB8000005D5045F6DB00
:10570000A4F11C090FE02A48855D00E0641C05EB4C
:10571000850000EB451027490844005D5045F5DB46
:10572000A4F1170900BF27E0042E02D0072E11D1E3
:1057300000E000BF1C48855D00E0641C05EB8500AF
:10574000C0EB85101C490844005D5045F5DBA4F111
:105750001E0910E01648855D00E0641C05EB85001D
:1057600000EBC500154901EB4000005D5045F4DB3E
:10577000A4F1110900BF00BF484607F0AFFC039039
:1057800007F040FB074688460D4A0E4B3846414617
:1057900007F00EF9074688463846414607B0BDE88F
:1057A000F08F0000000010402AD50008C6D5000880
:1057B00022D5000832D50008B6D600084ED600081B
:1057C0007B14AE47E17A843F10B5172000F084FFC8
:1057D000044644B11720012181400B4A430942F895
:1057E000231000BF00BF204610BD014651B1172055
:1057F0000122824043099B0003F1E023C3F800210A
:1058000000BF00BF7047000080E100E0002070474B
:1058100010B500BF0221404805F0F5FE0028F9D080
:1058200000213D4805F06BFE002010BD2DE9F0473A
:1058300005460E46174698460024FFF7C5FF8146E9
:1058400010203649086000BF0CE0305D3249888185
:1058500000BF3148008900F001000028F9D02E482F
:105860008089641CAC42F0DB00240DE018F80400D1
:105870002949888100BF2848008900F001000028DC
:10588000F9D025488089641CBC42EFD310202349FD
:10589000091F08604846FFF7A8FF0020BDE8F08711
:1058A0002DE9F04706460F4690461D460024FFF7B7
:1058B0008BFF814610201949086000BF0DE0385D5C
:1058C0001549888100BF1448008900F001000028B4
:1058D000F9D0114880892870641CB442EFDB0024A1
:1058E0000DE000200C49888100BF0B48008900F0C2
:1058F00001000028F9D0084880892855641C4445D7
:10590000EFD310200549091F08604846FFF76DFFD7
:105910000020BDE8F087000000300140140801407D
:105920000146C878532804D108794E2801D10120B6
:105930007047C878532804D10879572801D102202C
:10594000F6E70878642804D14878652801D1032057
:10595000EEE70020ECE71FB543480068019042489D
:10596000001D0068029040480830006803900398CA
:1059700000903EA14548DDE9012306F091F90120A0
:1059800004B010BD10B5002410224149414801F077
:1059900039F83F4800884AF6AA21884228D00846AC
:1059A0003B49088008464088401C4880084640889B
:1059B000394948804FF42A40354988800846808814
:1059C0003549888056203249C880312008812E20F0
:1059D0004881302088815620C881312008822E20BD
:1059E00048823020888210222A4801F01CF82FE0DB
:1059F00027484088401C2649488008464088264958
:105A000048802348808888802148C088C8802048F2
:105A10000189214801811E4841891F4841811C4854
:105A200081891D4881811A48C0891B49C88118484D
:105A3000018A194801821648418A17484182144850
:105A4000818A1548818210221149124800F0EBFF2B
:105A500010BD02460020704710B510220C490D48B9
:105A600000F0E1FF10BD0000E8F7FF1F41542B5389
:105A70004E3D253038782D253038782D2530387832
:105A80002D312D312E300D0A00000000F80A0020C3
:105A9000380B002000A40008220B002070B504463B
:105AA0000E4604F0200004F0100100EB810004F029
:105AB000400100EBA1000011FE490860022E0CD14C
:105AC00008460068042802DD48F2040508E0F948A9
:105AD000008880B240F4004502E0F648008885B2B4
